ARM GAS  C:\Users\MANSRO~1\AppData\Local\Temp\ccdewCPz.s 			page 1


   1              		.syntax unified
   2              		.cpu cortex-m3
   3              		.fpu softvfp
   4              		.eabi_attribute 20, 1
   5              		.eabi_attribute 21, 1
   6              		.eabi_attribute 23, 3
   7              		.eabi_attribute 24, 1
   8              		.eabi_attribute 25, 1
   9              		.eabi_attribute 26, 1
  10              		.eabi_attribute 30, 1
  11              		.eabi_attribute 34, 1
  12              		.eabi_attribute 18, 4
  13              		.thumb
  14              		.syntax unified
  15              		.file	"drive.c"
  16              		.text
  17              	.Ltext0:
  18              		.cfi_sections	.debug_frame
  19              		.section	.text.Motor_Init,"ax",%progbits
  20              		.align	2
  21              		.global	Motor_Init
  22              		.thumb
  23              		.thumb_func
  24              		.type	Motor_Init, %function
  25              	Motor_Init:
  26              	.LFB63:
  27              		.file 1 "drive.c"
   1:drive.c       **** /* ========================================
   2:drive.c       ****  *
   3:drive.c       ****  * Copyright YOUR COMPANY, THE YEAR
   4:drive.c       ****  * All Rights Reserved
   5:drive.c       ****  * UNPUBLISHED, LICENSED SOFTWARE.
   6:drive.c       ****  *
   7:drive.c       ****  * CONFIDENTIAL AND PROPRIETARY INFORMATION
   8:drive.c       ****  * WHICH IS THE PROPERTY OF your company.
   9:drive.c       ****  *
  10:drive.c       ****  * ========================================
  11:drive.c       **** */
  12:drive.c       **** #include "drive.h"
  13:drive.c       **** #include "project.h"
  14:drive.c       **** 
  15:drive.c       **** #define TICKS_PER_REVOLUTION 5
  16:drive.c       **** #define MAX_PWM     98
  17:drive.c       **** #define MIN_PWM    15
  18:drive.c       **** #define CM_TO_TICKS_SCALE  2 //1.5  // need to calibrate
  19:drive.c       **** #define ANGLE_TO_TICKS_SCALE 0.06 // need to calibrate
  20:drive.c       **** 
  21:drive.c       **** void Motor_Init(void){
  28              		.loc 1 21 0
  29              		.cfi_startproc
  30              		@ args = 0, pretend = 0, frame = 0
  31              		@ frame_needed = 0, uses_anonymous_args = 0
  32 0000 08B5     		push	{r3, lr}
  33              		.cfi_def_cfa_offset 8
  34              		.cfi_offset 3, -8
  35              		.cfi_offset 14, -4
  22:drive.c       ****     MOT_PWM_Start();
ARM GAS  C:\Users\MANSRO~1\AppData\Local\Temp\ccdewCPz.s 			page 2


  36              		.loc 1 22 0
  37 0002 FFF7FEFF 		bl	MOT_PWM_Start
  38              	.LVL0:
  23:drive.c       ****     MOT_CTRL_reg_Write(0); 
  39              		.loc 1 23 0
  40 0006 0020     		movs	r0, #0
  41 0008 FFF7FEFF 		bl	MOT_CTRL_reg_Write
  42              	.LVL1:
  43 000c 08BD     		pop	{r3, pc}
  44              		.cfi_endproc
  45              	.LFE63:
  46              		.size	Motor_Init, .-Motor_Init
  47 000e 00BF     		.section	.text.drive_forward,"ax",%progbits
  48              		.align	2
  49              		.global	drive_forward
  50              		.thumb
  51              		.thumb_func
  52              		.type	drive_forward, %function
  53              	drive_forward:
  54              	.LFB64:
  24:drive.c       **** }
  25:drive.c       **** 
  26:drive.c       **** void drive_forward(int left_pwm, int right_pwm){
  55              		.loc 1 26 0
  56              		.cfi_startproc
  57              		@ args = 0, pretend = 0, frame = 0
  58              		@ frame_needed = 0, uses_anonymous_args = 0
  59              	.LVL2:
  60 0000 38B5     		push	{r3, r4, r5, lr}
  61              		.cfi_def_cfa_offset 16
  62              		.cfi_offset 3, -16
  63              		.cfi_offset 4, -12
  64              		.cfi_offset 5, -8
  65              		.cfi_offset 14, -4
  66 0002 0546     		mov	r5, r0
  67 0004 0C46     		mov	r4, r1
  27:drive.c       ****     MOT_CTRL_reg_Write(0x5); 
  68              		.loc 1 27 0
  69 0006 0520     		movs	r0, #5
  70              	.LVL3:
  71 0008 FFF7FEFF 		bl	MOT_CTRL_reg_Write
  72              	.LVL4:
  28:drive.c       ****     MOT_PWM_WriteCompare1(left_pwm);
  73              		.loc 1 28 0
  74 000c E8B2     		uxtb	r0, r5
  75 000e FFF7FEFF 		bl	MOT_PWM_WriteCompare1
  76              	.LVL5:
  29:drive.c       ****     MOT_PWM_WriteCompare2(right_pwm);
  77              		.loc 1 29 0
  78 0012 E0B2     		uxtb	r0, r4
  79 0014 FFF7FEFF 		bl	MOT_PWM_WriteCompare2
  80              	.LVL6:
  30:drive.c       ****     gMotor.max_pwm_Limited_L = 5;
  81              		.loc 1 30 0
  82 0018 024B     		ldr	r3, .L5
  83 001a 0522     		movs	r2, #5
  84 001c 9A60     		str	r2, [r3, #8]
ARM GAS  C:\Users\MANSRO~1\AppData\Local\Temp\ccdewCPz.s 			page 3


  31:drive.c       ****     gMotor.max_pwm_Limited_R = 5;
  85              		.loc 1 31 0
  86 001e DA60     		str	r2, [r3, #12]
  87 0020 38BD     		pop	{r3, r4, r5, pc}
  88              	.LVL7:
  89              	.L6:
  90 0022 00BF     		.align	2
  91              	.L5:
  92 0024 00000000 		.word	gMotor
  93              		.cfi_endproc
  94              	.LFE64:
  95              		.size	drive_forward, .-drive_forward
  96              		.section	.text.soft_drive_forward,"ax",%progbits
  97              		.align	2
  98              		.global	soft_drive_forward
  99              		.thumb
 100              		.thumb_func
 101              		.type	soft_drive_forward, %function
 102              	soft_drive_forward:
 103              	.LFB65:
  32:drive.c       **** }
  33:drive.c       **** 
  34:drive.c       **** void soft_drive_forward(int left_pwm, int right_pwm){
 104              		.loc 1 34 0
 105              		.cfi_startproc
 106              		@ args = 0, pretend = 0, frame = 0
 107              		@ frame_needed = 0, uses_anonymous_args = 0
 108              	.LVL8:
 109 0000 70B5     		push	{r4, r5, r6, lr}
 110              		.cfi_def_cfa_offset 16
 111              		.cfi_offset 4, -16
 112              		.cfi_offset 5, -12
 113              		.cfi_offset 6, -8
 114              		.cfi_offset 14, -4
 115 0002 0646     		mov	r6, r0
 116 0004 0D46     		mov	r5, r1
  35:drive.c       ****     MOT_CTRL_reg_Write(0x5); 
 117              		.loc 1 35 0
 118 0006 0520     		movs	r0, #5
 119              	.LVL9:
 120 0008 FFF7FEFF 		bl	MOT_CTRL_reg_Write
 121              	.LVL10:
  36:drive.c       ****     while(right_pwm != gMotor.max_pwm_Limited_R && left_pwm != gMotor.max_pwm_Limited_L ) {
 122              		.loc 1 36 0
 123 000c 19E0     		b	.L8
 124              	.L12:
  37:drive.c       **** 		// Soft start implementation
  38:drive.c       **** 		if( left_pwm > gMotor.max_pwm_Limited_L ){
 125              		.loc 1 38 0
 126 000e B242     		cmp	r2, r6
 127 0010 05DA     		bge	.L9
  39:drive.c       **** 			gMotor.max_pwm_Limited_L += 5;
 128              		.loc 1 39 0
 129 0012 0532     		adds	r2, r2, #5
 130 0014 1349     		ldr	r1, .L14
 131 0016 8A60     		str	r2, [r1, #8]
  40:drive.c       **** 			if( left_pwm < gMotor.max_pwm_Limited_L ){
ARM GAS  C:\Users\MANSRO~1\AppData\Local\Temp\ccdewCPz.s 			page 4


 132              		.loc 1 40 0
 133 0018 9642     		cmp	r6, r2
 134 001a 00DA     		bge	.L9
  41:drive.c       **** 				gMotor.max_pwm_Limited_L = left_pwm;
 135              		.loc 1 41 0
 136 001c 8E60     		str	r6, [r1, #8]
 137              	.L9:
  42:drive.c       **** 			}
  43:drive.c       **** 		}
  44:drive.c       **** 		if( right_pwm > gMotor.max_pwm_Limited_R ){
 138              		.loc 1 44 0
 139 001e AB42     		cmp	r3, r5
 140 0020 05DA     		bge	.L10
  45:drive.c       **** 			gMotor.max_pwm_Limited_R += 5;
 141              		.loc 1 45 0
 142 0022 0533     		adds	r3, r3, #5
 143 0024 0F4A     		ldr	r2, .L14
 144 0026 D360     		str	r3, [r2, #12]
  46:drive.c       **** 			if( right_pwm < gMotor.max_pwm_Limited_R ){
 145              		.loc 1 46 0
 146 0028 9D42     		cmp	r5, r3
 147 002a 00DA     		bge	.L10
  47:drive.c       **** 				gMotor.max_pwm_Limited_R = right_pwm;
 148              		.loc 1 47 0
 149 002c D560     		str	r5, [r2, #12]
 150              	.L10:
  48:drive.c       **** 			}
  49:drive.c       **** 		}        
  50:drive.c       ****         CyDelay(50);
 151              		.loc 1 50 0
 152 002e 3220     		movs	r0, #50
 153 0030 FFF7FEFF 		bl	CyDelay
 154              	.LVL11:
  51:drive.c       ****         MOT_PWM_WriteCompare1(gMotor.max_pwm_Limited_L);
 155              		.loc 1 51 0
 156 0034 0B4C     		ldr	r4, .L14
 157 0036 207A     		ldrb	r0, [r4, #8]	@ zero_extendqisi2
 158 0038 FFF7FEFF 		bl	MOT_PWM_WriteCompare1
 159              	.LVL12:
  52:drive.c       ****         MOT_PWM_WriteCompare2(gMotor.max_pwm_Limited_R);   
 160              		.loc 1 52 0
 161 003c 207B     		ldrb	r0, [r4, #12]	@ zero_extendqisi2
 162 003e FFF7FEFF 		bl	MOT_PWM_WriteCompare2
 163              	.LVL13:
 164              	.L8:
  36:drive.c       **** 		// Soft start implementation
 165              		.loc 1 36 0
 166 0042 084B     		ldr	r3, .L14
 167 0044 DB68     		ldr	r3, [r3, #12]
 168 0046 AB42     		cmp	r3, r5
 169 0048 03D0     		beq	.L11
  36:drive.c       **** 		// Soft start implementation
 170              		.loc 1 36 0 is_stmt 0 discriminator 1
 171 004a 064A     		ldr	r2, .L14
 172 004c 9268     		ldr	r2, [r2, #8]
 173 004e B242     		cmp	r2, r6
 174 0050 DDD1     		bne	.L12
ARM GAS  C:\Users\MANSRO~1\AppData\Local\Temp\ccdewCPz.s 			page 5


 175              	.L11:
  53:drive.c       ****     }
  54:drive.c       ****     MOT_PWM_WriteCompare1(gMotor.max_pwm_Limited_L);
 176              		.loc 1 54 0 is_stmt 1
 177 0052 044C     		ldr	r4, .L14
 178 0054 207A     		ldrb	r0, [r4, #8]	@ zero_extendqisi2
 179 0056 FFF7FEFF 		bl	MOT_PWM_WriteCompare1
 180              	.LVL14:
  55:drive.c       ****     MOT_PWM_WriteCompare2(gMotor.max_pwm_Limited_R);
 181              		.loc 1 55 0
 182 005a 207B     		ldrb	r0, [r4, #12]	@ zero_extendqisi2
 183 005c FFF7FEFF 		bl	MOT_PWM_WriteCompare2
 184              	.LVL15:
 185 0060 70BD     		pop	{r4, r5, r6, pc}
 186              	.LVL16:
 187              	.L15:
 188 0062 00BF     		.align	2
 189              	.L14:
 190 0064 00000000 		.word	gMotor
 191              		.cfi_endproc
 192              	.LFE65:
 193              		.size	soft_drive_forward, .-soft_drive_forward
 194              		.section	.text.drive_backward,"ax",%progbits
 195              		.align	2
 196              		.global	drive_backward
 197              		.thumb
 198              		.thumb_func
 199              		.type	drive_backward, %function
 200              	drive_backward:
 201              	.LFB66:
  56:drive.c       ****     
  57:drive.c       **** }
  58:drive.c       **** 
  59:drive.c       **** void drive_backward(int left_pwm, int right_pwm){
 202              		.loc 1 59 0
 203              		.cfi_startproc
 204              		@ args = 0, pretend = 0, frame = 0
 205              		@ frame_needed = 0, uses_anonymous_args = 0
 206              	.LVL17:
 207 0000 38B5     		push	{r3, r4, r5, lr}
 208              		.cfi_def_cfa_offset 16
 209              		.cfi_offset 3, -16
 210              		.cfi_offset 4, -12
 211              		.cfi_offset 5, -8
 212              		.cfi_offset 14, -4
 213 0002 0546     		mov	r5, r0
 214 0004 0C46     		mov	r4, r1
  60:drive.c       ****     MOT_CTRL_reg_Write(0xA); 
 215              		.loc 1 60 0
 216 0006 0A20     		movs	r0, #10
 217              	.LVL18:
 218 0008 FFF7FEFF 		bl	MOT_CTRL_reg_Write
 219              	.LVL19:
  61:drive.c       ****     MOT_PWM_WriteCompare1(left_pwm);
 220              		.loc 1 61 0
 221 000c E8B2     		uxtb	r0, r5
 222 000e FFF7FEFF 		bl	MOT_PWM_WriteCompare1
ARM GAS  C:\Users\MANSRO~1\AppData\Local\Temp\ccdewCPz.s 			page 6


 223              	.LVL20:
  62:drive.c       ****     MOT_PWM_WriteCompare2(right_pwm);
 224              		.loc 1 62 0
 225 0012 E0B2     		uxtb	r0, r4
 226 0014 FFF7FEFF 		bl	MOT_PWM_WriteCompare2
 227              	.LVL21:
 228 0018 38BD     		pop	{r3, r4, r5, pc}
 229              		.cfi_endproc
 230              	.LFE66:
 231              		.size	drive_backward, .-drive_backward
 232 001a 00BF     		.section	.text.turn_right,"ax",%progbits
 233              		.align	2
 234              		.global	turn_right
 235              		.thumb
 236              		.thumb_func
 237              		.type	turn_right, %function
 238              	turn_right:
 239              	.LFB67:
  63:drive.c       ****     
  64:drive.c       **** }
  65:drive.c       **** 
  66:drive.c       **** void turn_right(int left_pwm, int right_pwm){
 240              		.loc 1 66 0
 241              		.cfi_startproc
 242              		@ args = 0, pretend = 0, frame = 0
 243              		@ frame_needed = 0, uses_anonymous_args = 0
 244              	.LVL22:
 245 0000 38B5     		push	{r3, r4, r5, lr}
 246              		.cfi_def_cfa_offset 16
 247              		.cfi_offset 3, -16
 248              		.cfi_offset 4, -12
 249              		.cfi_offset 5, -8
 250              		.cfi_offset 14, -4
 251 0002 0546     		mov	r5, r0
 252 0004 0C46     		mov	r4, r1
  67:drive.c       ****     MOT_CTRL_reg_Write(0x9); 
 253              		.loc 1 67 0
 254 0006 0920     		movs	r0, #9
 255              	.LVL23:
 256 0008 FFF7FEFF 		bl	MOT_CTRL_reg_Write
 257              	.LVL24:
  68:drive.c       ****     MOT_PWM_WriteCompare1(left_pwm);
 258              		.loc 1 68 0
 259 000c E8B2     		uxtb	r0, r5
 260 000e FFF7FEFF 		bl	MOT_PWM_WriteCompare1
 261              	.LVL25:
  69:drive.c       ****     MOT_PWM_WriteCompare2(right_pwm);
 262              		.loc 1 69 0
 263 0012 E0B2     		uxtb	r0, r4
 264 0014 FFF7FEFF 		bl	MOT_PWM_WriteCompare2
 265              	.LVL26:
  70:drive.c       ****     gMotor.max_pwm_Limited_L = 5;
 266              		.loc 1 70 0
 267 0018 024B     		ldr	r3, .L20
 268 001a 0522     		movs	r2, #5
 269 001c 9A60     		str	r2, [r3, #8]
  71:drive.c       ****     gMotor.max_pwm_Limited_R = 5;
ARM GAS  C:\Users\MANSRO~1\AppData\Local\Temp\ccdewCPz.s 			page 7


 270              		.loc 1 71 0
 271 001e DA60     		str	r2, [r3, #12]
 272 0020 38BD     		pop	{r3, r4, r5, pc}
 273              	.LVL27:
 274              	.L21:
 275 0022 00BF     		.align	2
 276              	.L20:
 277 0024 00000000 		.word	gMotor
 278              		.cfi_endproc
 279              	.LFE67:
 280              		.size	turn_right, .-turn_right
 281              		.section	.text.turn_left,"ax",%progbits
 282              		.align	2
 283              		.global	turn_left
 284              		.thumb
 285              		.thumb_func
 286              		.type	turn_left, %function
 287              	turn_left:
 288              	.LFB68:
  72:drive.c       **** }
  73:drive.c       **** 
  74:drive.c       **** void turn_left(int left_pwm, int right_pwm){
 289              		.loc 1 74 0
 290              		.cfi_startproc
 291              		@ args = 0, pretend = 0, frame = 0
 292              		@ frame_needed = 0, uses_anonymous_args = 0
 293              	.LVL28:
 294 0000 38B5     		push	{r3, r4, r5, lr}
 295              		.cfi_def_cfa_offset 16
 296              		.cfi_offset 3, -16
 297              		.cfi_offset 4, -12
 298              		.cfi_offset 5, -8
 299              		.cfi_offset 14, -4
 300 0002 0546     		mov	r5, r0
 301 0004 0C46     		mov	r4, r1
  75:drive.c       ****     MOT_CTRL_reg_Write(0x6); 
 302              		.loc 1 75 0
 303 0006 0620     		movs	r0, #6
 304              	.LVL29:
 305 0008 FFF7FEFF 		bl	MOT_CTRL_reg_Write
 306              	.LVL30:
  76:drive.c       ****     MOT_PWM_WriteCompare1(left_pwm);
 307              		.loc 1 76 0
 308 000c E8B2     		uxtb	r0, r5
 309 000e FFF7FEFF 		bl	MOT_PWM_WriteCompare1
 310              	.LVL31:
  77:drive.c       ****     MOT_PWM_WriteCompare2(right_pwm);
 311              		.loc 1 77 0
 312 0012 E0B2     		uxtb	r0, r4
 313 0014 FFF7FEFF 		bl	MOT_PWM_WriteCompare2
 314              	.LVL32:
  78:drive.c       ****     gMotor.max_pwm_Limited_L = 5;
 315              		.loc 1 78 0
 316 0018 024B     		ldr	r3, .L24
 317 001a 0522     		movs	r2, #5
 318 001c 9A60     		str	r2, [r3, #8]
  79:drive.c       ****     gMotor.max_pwm_Limited_R = 5;
ARM GAS  C:\Users\MANSRO~1\AppData\Local\Temp\ccdewCPz.s 			page 8


 319              		.loc 1 79 0
 320 001e DA60     		str	r2, [r3, #12]
 321 0020 38BD     		pop	{r3, r4, r5, pc}
 322              	.LVL33:
 323              	.L25:
 324 0022 00BF     		.align	2
 325              	.L24:
 326 0024 00000000 		.word	gMotor
 327              		.cfi_endproc
 328              	.LFE68:
 329              		.size	turn_left, .-turn_left
 330              		.section	.text.brake,"ax",%progbits
 331              		.align	2
 332              		.global	brake
 333              		.thumb
 334              		.thumb_func
 335              		.type	brake, %function
 336              	brake:
 337              	.LFB69:
  80:drive.c       **** }
  81:drive.c       **** 
  82:drive.c       **** void brake(void){
 338              		.loc 1 82 0
 339              		.cfi_startproc
 340              		@ args = 0, pretend = 0, frame = 0
 341              		@ frame_needed = 0, uses_anonymous_args = 0
 342 0000 08B5     		push	{r3, lr}
 343              		.cfi_def_cfa_offset 8
 344              		.cfi_offset 3, -8
 345              		.cfi_offset 14, -4
  83:drive.c       ****     MOT_CTRL_reg_Write(0xF); 
 346              		.loc 1 83 0
 347 0002 0F20     		movs	r0, #15
 348 0004 FFF7FEFF 		bl	MOT_CTRL_reg_Write
 349              	.LVL34:
  84:drive.c       ****     MOT_PWM_WriteCompare1(0);
 350              		.loc 1 84 0
 351 0008 0020     		movs	r0, #0
 352 000a FFF7FEFF 		bl	MOT_PWM_WriteCompare1
 353              	.LVL35:
  85:drive.c       ****     MOT_PWM_WriteCompare2(0);
 354              		.loc 1 85 0
 355 000e 0020     		movs	r0, #0
 356 0010 FFF7FEFF 		bl	MOT_PWM_WriteCompare2
 357              	.LVL36:
  86:drive.c       ****     gMotor.max_pwm_Limited_L = 5;
 358              		.loc 1 86 0
 359 0014 034B     		ldr	r3, .L28
 360 0016 0522     		movs	r2, #5
 361 0018 9A60     		str	r2, [r3, #8]
  87:drive.c       ****     gMotor.max_pwm_Limited_R = 5;
 362              		.loc 1 87 0
 363 001a DA60     		str	r2, [r3, #12]
  88:drive.c       ****     CyDelay(10);
 364              		.loc 1 88 0
 365 001c 0A20     		movs	r0, #10
 366 001e FFF7FEFF 		bl	CyDelay
ARM GAS  C:\Users\MANSRO~1\AppData\Local\Temp\ccdewCPz.s 			page 9


 367              	.LVL37:
 368 0022 08BD     		pop	{r3, pc}
 369              	.L29:
 370              		.align	2
 371              	.L28:
 372 0024 00000000 		.word	gMotor
 373              		.cfi_endproc
 374              	.LFE69:
 375              		.size	brake, .-brake
 376              		.comm	gMotor,16,4
 377              		.text
 378              	.Letext0:
 379              		.file 2 "drive.h"
 380              		.file 3 "c:\\program files (x86)\\cypress\\psoc creator\\4.1\\psoc creator\\import\\gnu\\arm\\5.4.
 381              		.file 4 "c:\\program files (x86)\\cypress\\psoc creator\\4.1\\psoc creator\\import\\gnu\\arm\\5.4.
 382              		.file 5 "Generated_Source\\PSoC5/core_cm3.h"
 383              		.file 6 "Generated_Source\\PSoC5/MOT_PWM.h"
 384              		.file 7 "Generated_Source\\PSoC5/MOT_CTRL_reg.h"
 385              		.file 8 "Generated_Source\\PSoC5/CyLib.h"
