ARM GAS  C:\Users\MANSRO~1\AppData\Local\Temp\ccrPB4n1.s 			page 1


   1              		.syntax unified
   2              		.cpu cortex-m3
   3              		.fpu softvfp
   4              		.eabi_attribute 20, 1
   5              		.eabi_attribute 21, 1
   6              		.eabi_attribute 23, 3
   7              		.eabi_attribute 24, 1
   8              		.eabi_attribute 25, 1
   9              		.eabi_attribute 26, 1
  10              		.eabi_attribute 30, 1
  11              		.eabi_attribute 34, 1
  12              		.eabi_attribute 18, 4
  13              		.thumb
  14              		.syntax unified
  15              		.file	"I2COLED_INT.c"
  16              		.text
  17              	.Ltext0:
  18              		.cfi_sections	.debug_frame
  19              		.section	.text.I2COLED_ISR,"ax",%progbits
  20              		.align	2
  21              		.global	I2COLED_ISR
  22              		.thumb
  23              		.thumb_func
  24              		.type	I2COLED_ISR, %function
  25              	I2COLED_ISR:
  26              	.LFB0:
  27              		.file 1 "Generated_Source\\PSoC5\\I2COLED_INT.c"
   1:Generated_Source\PSoC5/I2COLED_INT.c **** /*******************************************************************************
   2:Generated_Source\PSoC5/I2COLED_INT.c **** * File Name: I2COLED_INT.c
   3:Generated_Source\PSoC5/I2COLED_INT.c **** * Version 3.50
   4:Generated_Source\PSoC5/I2COLED_INT.c **** *
   5:Generated_Source\PSoC5/I2COLED_INT.c **** * Description:
   6:Generated_Source\PSoC5/I2COLED_INT.c **** *  This file provides the source code of Interrupt Service Routine (ISR)
   7:Generated_Source\PSoC5/I2COLED_INT.c **** *  for the I2C component.
   8:Generated_Source\PSoC5/I2COLED_INT.c **** *
   9:Generated_Source\PSoC5/I2COLED_INT.c **** ********************************************************************************
  10:Generated_Source\PSoC5/I2COLED_INT.c **** * Copyright 2008-2015, Cypress Semiconductor Corporation. All rights reserved.
  11:Generated_Source\PSoC5/I2COLED_INT.c **** * You may use this file only in accordance with the license, terms, conditions,
  12:Generated_Source\PSoC5/I2COLED_INT.c **** * disclaimers, and limitations in the end user license agreement accompanying
  13:Generated_Source\PSoC5/I2COLED_INT.c **** * the software package with which this file was provided.
  14:Generated_Source\PSoC5/I2COLED_INT.c **** *******************************************************************************/
  15:Generated_Source\PSoC5/I2COLED_INT.c **** 
  16:Generated_Source\PSoC5/I2COLED_INT.c **** #include "I2COLED_PVT.h"
  17:Generated_Source\PSoC5/I2COLED_INT.c **** #include "cyapicallbacks.h"
  18:Generated_Source\PSoC5/I2COLED_INT.c **** 
  19:Generated_Source\PSoC5/I2COLED_INT.c **** 
  20:Generated_Source\PSoC5/I2COLED_INT.c **** /*******************************************************************************
  21:Generated_Source\PSoC5/I2COLED_INT.c **** *  Place your includes, defines and code here.
  22:Generated_Source\PSoC5/I2COLED_INT.c **** ********************************************************************************/
  23:Generated_Source\PSoC5/I2COLED_INT.c **** /* `#START I2COLED_ISR_intc` */
  24:Generated_Source\PSoC5/I2COLED_INT.c **** 
  25:Generated_Source\PSoC5/I2COLED_INT.c **** /* `#END` */
  26:Generated_Source\PSoC5/I2COLED_INT.c **** 
  27:Generated_Source\PSoC5/I2COLED_INT.c **** 
  28:Generated_Source\PSoC5/I2COLED_INT.c **** /*******************************************************************************
  29:Generated_Source\PSoC5/I2COLED_INT.c **** * Function Name: I2COLED_ISR
  30:Generated_Source\PSoC5/I2COLED_INT.c **** ********************************************************************************
ARM GAS  C:\Users\MANSRO~1\AppData\Local\Temp\ccrPB4n1.s 			page 2


  31:Generated_Source\PSoC5/I2COLED_INT.c **** *
  32:Generated_Source\PSoC5/I2COLED_INT.c **** * Summary:
  33:Generated_Source\PSoC5/I2COLED_INT.c **** *  The handler for the I2C interrupt. The slave and master operations are
  34:Generated_Source\PSoC5/I2COLED_INT.c **** *  handled here.
  35:Generated_Source\PSoC5/I2COLED_INT.c **** *
  36:Generated_Source\PSoC5/I2COLED_INT.c **** * Parameters:
  37:Generated_Source\PSoC5/I2COLED_INT.c **** *  None.
  38:Generated_Source\PSoC5/I2COLED_INT.c **** *
  39:Generated_Source\PSoC5/I2COLED_INT.c **** * Return:
  40:Generated_Source\PSoC5/I2COLED_INT.c **** *  None.
  41:Generated_Source\PSoC5/I2COLED_INT.c **** *
  42:Generated_Source\PSoC5/I2COLED_INT.c **** * Reentrant:
  43:Generated_Source\PSoC5/I2COLED_INT.c **** *  No.
  44:Generated_Source\PSoC5/I2COLED_INT.c **** *
  45:Generated_Source\PSoC5/I2COLED_INT.c **** *******************************************************************************/
  46:Generated_Source\PSoC5/I2COLED_INT.c **** CY_ISR(I2COLED_ISR)
  47:Generated_Source\PSoC5/I2COLED_INT.c **** {
  28              		.loc 1 47 0
  29              		.cfi_startproc
  30              		@ args = 0, pretend = 0, frame = 0
  31              		@ frame_needed = 0, uses_anonymous_args = 0
  32 0000 38B5     		push	{r3, r4, r5, lr}
  33              		.cfi_def_cfa_offset 16
  34              		.cfi_offset 3, -16
  35              		.cfi_offset 4, -12
  36              		.cfi_offset 5, -8
  37              		.cfi_offset 14, -4
  48:Generated_Source\PSoC5/I2COLED_INT.c **** #if (I2COLED_MODE_SLAVE_ENABLED)
  49:Generated_Source\PSoC5/I2COLED_INT.c ****    uint8  tmp8;
  50:Generated_Source\PSoC5/I2COLED_INT.c **** #endif  /* (I2COLED_MODE_SLAVE_ENABLED) */
  51:Generated_Source\PSoC5/I2COLED_INT.c **** 
  52:Generated_Source\PSoC5/I2COLED_INT.c ****     uint8  tmpCsr;
  53:Generated_Source\PSoC5/I2COLED_INT.c ****     
  54:Generated_Source\PSoC5/I2COLED_INT.c **** #ifdef I2COLED_ISR_ENTRY_CALLBACK
  55:Generated_Source\PSoC5/I2COLED_INT.c ****     I2COLED_ISR_EntryCallback();
  56:Generated_Source\PSoC5/I2COLED_INT.c **** #endif /* I2COLED_ISR_ENTRY_CALLBACK */
  57:Generated_Source\PSoC5/I2COLED_INT.c ****     
  58:Generated_Source\PSoC5/I2COLED_INT.c **** 
  59:Generated_Source\PSoC5/I2COLED_INT.c **** #if(I2COLED_TIMEOUT_FF_ENABLED)
  60:Generated_Source\PSoC5/I2COLED_INT.c ****     if(0u != I2COLED_TimeoutGetStatus())
  61:Generated_Source\PSoC5/I2COLED_INT.c ****     {
  62:Generated_Source\PSoC5/I2COLED_INT.c ****         I2COLED_TimeoutReset();
  63:Generated_Source\PSoC5/I2COLED_INT.c ****         I2COLED_state = I2COLED_SM_EXIT_IDLE;
  64:Generated_Source\PSoC5/I2COLED_INT.c ****         /* I2COLED_CSR_REG should be cleared after reset */
  65:Generated_Source\PSoC5/I2COLED_INT.c ****     }
  66:Generated_Source\PSoC5/I2COLED_INT.c **** #endif /* (I2COLED_TIMEOUT_FF_ENABLED) */
  67:Generated_Source\PSoC5/I2COLED_INT.c **** 
  68:Generated_Source\PSoC5/I2COLED_INT.c **** 
  69:Generated_Source\PSoC5/I2COLED_INT.c ****     tmpCsr = I2COLED_CSR_REG;      /* Make copy as interrupts clear */
  38              		.loc 1 69 0
  39 0002 A54B     		ldr	r3, .L27
  40 0004 1C78     		ldrb	r4, [r3]	@ zero_extendqisi2
  41              	.LVL0:
  70:Generated_Source\PSoC5/I2COLED_INT.c **** 
  71:Generated_Source\PSoC5/I2COLED_INT.c **** #if(I2COLED_MODE_MULTI_MASTER_SLAVE_ENABLED)
  72:Generated_Source\PSoC5/I2COLED_INT.c ****     if(I2COLED_CHECK_START_GEN(I2COLED_MCSR_REG))
  73:Generated_Source\PSoC5/I2COLED_INT.c ****     {
ARM GAS  C:\Users\MANSRO~1\AppData\Local\Temp\ccrPB4n1.s 			page 3


  74:Generated_Source\PSoC5/I2COLED_INT.c ****         I2COLED_CLEAR_START_GEN;
  75:Generated_Source\PSoC5/I2COLED_INT.c **** 
  76:Generated_Source\PSoC5/I2COLED_INT.c ****         /* Set transfer complete and error flags */
  77:Generated_Source\PSoC5/I2COLED_INT.c ****         I2COLED_mstrStatus |= (I2COLED_MSTAT_ERR_XFER |
  78:Generated_Source\PSoC5/I2COLED_INT.c ****                                         I2COLED_GET_MSTAT_CMPLT);
  79:Generated_Source\PSoC5/I2COLED_INT.c **** 
  80:Generated_Source\PSoC5/I2COLED_INT.c ****         /* Slave was addressed */
  81:Generated_Source\PSoC5/I2COLED_INT.c ****         I2COLED_state = I2COLED_SM_SLAVE;
  82:Generated_Source\PSoC5/I2COLED_INT.c ****     }
  83:Generated_Source\PSoC5/I2COLED_INT.c **** #endif /* (I2COLED_MODE_MULTI_MASTER_SLAVE_ENABLED) */
  84:Generated_Source\PSoC5/I2COLED_INT.c **** 
  85:Generated_Source\PSoC5/I2COLED_INT.c **** 
  86:Generated_Source\PSoC5/I2COLED_INT.c **** #if(I2COLED_MODE_MULTI_MASTER_ENABLED)
  87:Generated_Source\PSoC5/I2COLED_INT.c ****     if(I2COLED_CHECK_LOST_ARB(tmpCsr))
  88:Generated_Source\PSoC5/I2COLED_INT.c ****     {
  89:Generated_Source\PSoC5/I2COLED_INT.c ****         /* Set errors */
  90:Generated_Source\PSoC5/I2COLED_INT.c ****         I2COLED_mstrStatus |= (I2COLED_MSTAT_ERR_XFER     |
  91:Generated_Source\PSoC5/I2COLED_INT.c ****                                         I2COLED_MSTAT_ERR_ARB_LOST |
  92:Generated_Source\PSoC5/I2COLED_INT.c ****                                         I2COLED_GET_MSTAT_CMPLT);
  93:Generated_Source\PSoC5/I2COLED_INT.c **** 
  94:Generated_Source\PSoC5/I2COLED_INT.c ****         I2COLED_DISABLE_INT_ON_STOP; /* Interrupt on Stop is enabled by write */
  95:Generated_Source\PSoC5/I2COLED_INT.c **** 
  96:Generated_Source\PSoC5/I2COLED_INT.c ****         #if(I2COLED_MODE_MULTI_MASTER_SLAVE_ENABLED)
  97:Generated_Source\PSoC5/I2COLED_INT.c ****             if(I2COLED_CHECK_ADDRESS_STS(tmpCsr))
  98:Generated_Source\PSoC5/I2COLED_INT.c ****             {
  99:Generated_Source\PSoC5/I2COLED_INT.c ****                 /* Slave was addressed */
 100:Generated_Source\PSoC5/I2COLED_INT.c ****                 I2COLED_state = I2COLED_SM_SLAVE;
 101:Generated_Source\PSoC5/I2COLED_INT.c ****             }
 102:Generated_Source\PSoC5/I2COLED_INT.c ****             else
 103:Generated_Source\PSoC5/I2COLED_INT.c ****             {
 104:Generated_Source\PSoC5/I2COLED_INT.c ****                 I2COLED_BUS_RELEASE;
 105:Generated_Source\PSoC5/I2COLED_INT.c **** 
 106:Generated_Source\PSoC5/I2COLED_INT.c ****                 I2COLED_state = I2COLED_SM_EXIT_IDLE;
 107:Generated_Source\PSoC5/I2COLED_INT.c ****             }
 108:Generated_Source\PSoC5/I2COLED_INT.c ****         #else
 109:Generated_Source\PSoC5/I2COLED_INT.c ****             I2COLED_BUS_RELEASE;
 110:Generated_Source\PSoC5/I2COLED_INT.c **** 
 111:Generated_Source\PSoC5/I2COLED_INT.c ****             I2COLED_state = I2COLED_SM_EXIT_IDLE;
 112:Generated_Source\PSoC5/I2COLED_INT.c **** 
 113:Generated_Source\PSoC5/I2COLED_INT.c ****         #endif /* (I2COLED_MODE_MULTI_MASTER_SLAVE_ENABLED) */
 114:Generated_Source\PSoC5/I2COLED_INT.c ****     }
 115:Generated_Source\PSoC5/I2COLED_INT.c **** #endif /* (I2COLED_MODE_MULTI_MASTER_ENABLED) */
 116:Generated_Source\PSoC5/I2COLED_INT.c **** 
 117:Generated_Source\PSoC5/I2COLED_INT.c ****     /* Check for master operation mode */
 118:Generated_Source\PSoC5/I2COLED_INT.c ****     if(I2COLED_CHECK_SM_MASTER)
  42              		.loc 1 118 0
  43 0006 A54B     		ldr	r3, .L27+4
  44 0008 1B78     		ldrb	r3, [r3]	@ zero_extendqisi2
  45 000a 13F0400F 		tst	r3, #64
  46 000e 00F03A81 		beq	.L2
  47 0012 E4B2     		uxtb	r4, r4
 119:Generated_Source\PSoC5/I2COLED_INT.c ****     {
 120:Generated_Source\PSoC5/I2COLED_INT.c ****     #if(I2COLED_MODE_MASTER_ENABLED)
 121:Generated_Source\PSoC5/I2COLED_INT.c ****         if(I2COLED_CHECK_BYTE_COMPLETE(tmpCsr))
  48              		.loc 1 121 0
  49 0014 14F0010F 		tst	r4, #1
  50 0018 00F01D81 		beq	.L3
ARM GAS  C:\Users\MANSRO~1\AppData\Local\Temp\ccrPB4n1.s 			page 4


 122:Generated_Source\PSoC5/I2COLED_INT.c ****         {
 123:Generated_Source\PSoC5/I2COLED_INT.c ****             switch (I2COLED_state)
  51              		.loc 1 123 0
  52 001c 9F4B     		ldr	r3, .L27+4
  53 001e 1B78     		ldrb	r3, [r3]	@ zero_extendqisi2
  54 0020 453B     		subs	r3, r3, #69
  55 0022 052B     		cmp	r3, #5
  56 0024 00F21481 		bhi	.L4
  57 0028 DFE813F0 		tbh	[pc, r3, lsl #1]
  58              	.L6:
  59 002c 0600     		.2byte	(.L5-.L6)/2
  60 002e 8200     		.2byte	(.L7-.L6)/2
  61 0030 1201     		.2byte	(.L4-.L6)/2
  62 0032 1201     		.2byte	(.L4-.L6)/2
  63 0034 0600     		.2byte	(.L5-.L6)/2
  64 0036 DF00     		.2byte	(.L8-.L6)/2
  65              		.p2align 1
  66              	.L5:
 124:Generated_Source\PSoC5/I2COLED_INT.c ****             {
 125:Generated_Source\PSoC5/I2COLED_INT.c ****             case I2COLED_SM_MSTR_WR_ADDR:  /* After address is sent, write data */
 126:Generated_Source\PSoC5/I2COLED_INT.c ****             case I2COLED_SM_MSTR_RD_ADDR:  /* After address is sent, read data */
 127:Generated_Source\PSoC5/I2COLED_INT.c **** 
 128:Generated_Source\PSoC5/I2COLED_INT.c ****                 tmpCsr &= ((uint8) ~I2COLED_CSR_STOP_STATUS); /* Clear Stop bit history on address 
  67              		.loc 1 128 0
  68 0038 04F0DF05 		and	r5, r4, #223
  69              	.LVL1:
 129:Generated_Source\PSoC5/I2COLED_INT.c **** 
 130:Generated_Source\PSoC5/I2COLED_INT.c ****                 if(I2COLED_CHECK_ADDR_ACK(tmpCsr))
  70              		.loc 1 130 0
  71 003c 04F00A04 		and	r4, r4, #10
  72 0040 082C     		cmp	r4, #8
  73 0042 42D1     		bne	.L9
 131:Generated_Source\PSoC5/I2COLED_INT.c ****                 {
 132:Generated_Source\PSoC5/I2COLED_INT.c ****                     /* Setup for transmit or receive of data */
 133:Generated_Source\PSoC5/I2COLED_INT.c ****                     if(I2COLED_state == I2COLED_SM_MSTR_WR_ADDR)   /* TRANSMIT data */
  74              		.loc 1 133 0
  75 0044 954B     		ldr	r3, .L27+4
  76 0046 1B78     		ldrb	r3, [r3]	@ zero_extendqisi2
  77 0048 DBB2     		uxtb	r3, r3
  78 004a 452B     		cmp	r3, #69
  79 004c 35D1     		bne	.L10
 134:Generated_Source\PSoC5/I2COLED_INT.c ****                     {
 135:Generated_Source\PSoC5/I2COLED_INT.c ****                         /* Check if at least one byte to transfer */
 136:Generated_Source\PSoC5/I2COLED_INT.c ****                         if(I2COLED_mstrWrBufSize > 0u)
  80              		.loc 1 136 0
  81 004e 944B     		ldr	r3, .L27+8
  82 0050 1B78     		ldrb	r3, [r3]	@ zero_extendqisi2
  83 0052 13F0FF0F 		tst	r3, #255
  84 0056 10D0     		beq	.L11
 137:Generated_Source\PSoC5/I2COLED_INT.c ****                         {
 138:Generated_Source\PSoC5/I2COLED_INT.c ****                             /* Load the 1st data byte */
 139:Generated_Source\PSoC5/I2COLED_INT.c ****                             I2COLED_DATA_REG = I2COLED_mstrWrBufPtr[0u];
  85              		.loc 1 139 0
  86 0058 924B     		ldr	r3, .L27+12
  87 005a 1B68     		ldr	r3, [r3]
  88 005c 1B78     		ldrb	r3, [r3]	@ zero_extendqisi2
  89 005e DBB2     		uxtb	r3, r3
ARM GAS  C:\Users\MANSRO~1\AppData\Local\Temp\ccrPB4n1.s 			page 5


  90 0060 914A     		ldr	r2, .L27+16
  91 0062 1370     		strb	r3, [r2]
 140:Generated_Source\PSoC5/I2COLED_INT.c ****                             I2COLED_TRANSMIT_DATA;
  92              		.loc 1 140 0
  93 0064 0422     		movs	r2, #4
  94 0066 8C4B     		ldr	r3, .L27
  95 0068 1A70     		strb	r2, [r3]
 141:Generated_Source\PSoC5/I2COLED_INT.c ****                             I2COLED_mstrWrBufIndex = 1u;   /* Set index to 2nd element */
  96              		.loc 1 141 0
  97 006a 0122     		movs	r2, #1
  98 006c 8F4B     		ldr	r3, .L27+20
  99 006e 1A70     		strb	r2, [r3]
 142:Generated_Source\PSoC5/I2COLED_INT.c **** 
 143:Generated_Source\PSoC5/I2COLED_INT.c ****                             /* Set transmit state until done */
 144:Generated_Source\PSoC5/I2COLED_INT.c ****                             I2COLED_state = I2COLED_SM_MSTR_WR_DATA;
 100              		.loc 1 144 0
 101 0070 4622     		movs	r2, #70
 102 0072 8A4B     		ldr	r3, .L27+4
 103 0074 1A70     		strb	r2, [r3]
 128:Generated_Source\PSoC5/I2COLED_INT.c **** 
 104              		.loc 1 128 0
 105 0076 2C46     		mov	r4, r5
 106 0078 EDE0     		b	.L3
 107              	.L11:
 145:Generated_Source\PSoC5/I2COLED_INT.c ****                         }
 146:Generated_Source\PSoC5/I2COLED_INT.c ****                         /* End of buffer: complete writing */
 147:Generated_Source\PSoC5/I2COLED_INT.c ****                         else if(I2COLED_CHECK_NO_STOP(I2COLED_mstrControl))
 108              		.loc 1 147 0
 109 007a 8D4B     		ldr	r3, .L27+24
 110 007c 1B78     		ldrb	r3, [r3]	@ zero_extendqisi2
 111 007e 13F0020F 		tst	r3, #2
 112 0082 0DD0     		beq	.L12
 148:Generated_Source\PSoC5/I2COLED_INT.c ****                         {
 149:Generated_Source\PSoC5/I2COLED_INT.c ****                             /* Set write complete and master halted */
 150:Generated_Source\PSoC5/I2COLED_INT.c ****                             I2COLED_mstrStatus |= (I2COLED_MSTAT_XFER_HALT |
 113              		.loc 1 150 0
 114 0084 8B4A     		ldr	r2, .L27+28
 115 0086 1378     		ldrb	r3, [r2]	@ zero_extendqisi2
 116 0088 43F00A03 		orr	r3, r3, #10
 117 008c 1370     		strb	r3, [r2]
 151:Generated_Source\PSoC5/I2COLED_INT.c ****                                                             I2COLED_MSTAT_WR_CMPLT);
 152:Generated_Source\PSoC5/I2COLED_INT.c **** 
 153:Generated_Source\PSoC5/I2COLED_INT.c ****                             I2COLED_state = I2COLED_SM_MSTR_HALT; /* Expect ReStart */
 118              		.loc 1 153 0
 119 008e 6022     		movs	r2, #96
 120 0090 824B     		ldr	r3, .L27+4
 121 0092 1A70     		strb	r2, [r3]
 154:Generated_Source\PSoC5/I2COLED_INT.c ****                             I2COLED_DisableInt();
 122              		.loc 1 154 0
 123 0094 4FF40042 		mov	r2, #32768
 124 0098 874B     		ldr	r3, .L27+32
 125 009a 1A60     		str	r2, [r3]
 128:Generated_Source\PSoC5/I2COLED_INT.c **** 
 126              		.loc 1 128 0
 127 009c 2C46     		mov	r4, r5
 128 009e DAE0     		b	.L3
 129              	.L12:
ARM GAS  C:\Users\MANSRO~1\AppData\Local\Temp\ccrPB4n1.s 			page 6


 155:Generated_Source\PSoC5/I2COLED_INT.c ****                         }
 156:Generated_Source\PSoC5/I2COLED_INT.c ****                         else
 157:Generated_Source\PSoC5/I2COLED_INT.c ****                         {
 158:Generated_Source\PSoC5/I2COLED_INT.c ****                             I2COLED_ENABLE_INT_ON_STOP; /* Enable interrupt on Stop, to catch it */
 130              		.loc 1 158 0
 131 00a0 864A     		ldr	r2, .L27+36
 132 00a2 1378     		ldrb	r3, [r2]	@ zero_extendqisi2
 133 00a4 43F01003 		orr	r3, r3, #16
 134 00a8 1370     		strb	r3, [r2]
 159:Generated_Source\PSoC5/I2COLED_INT.c ****                             I2COLED_GENERATE_STOP;
 135              		.loc 1 159 0
 136 00aa 1022     		movs	r2, #16
 137 00ac 844B     		ldr	r3, .L27+40
 138 00ae 1A70     		strb	r2, [r3]
 139 00b0 0422     		movs	r2, #4
 140 00b2 023B     		subs	r3, r3, #2
 141 00b4 1A70     		strb	r2, [r3]
 128:Generated_Source\PSoC5/I2COLED_INT.c **** 
 142              		.loc 1 128 0
 143 00b6 2C46     		mov	r4, r5
 144 00b8 CDE0     		b	.L3
 145              	.L10:
 160:Generated_Source\PSoC5/I2COLED_INT.c ****                         }
 161:Generated_Source\PSoC5/I2COLED_INT.c ****                     }
 162:Generated_Source\PSoC5/I2COLED_INT.c ****                     else  /* Master receive data */
 163:Generated_Source\PSoC5/I2COLED_INT.c ****                     {
 164:Generated_Source\PSoC5/I2COLED_INT.c ****                         I2COLED_READY_TO_READ; /* Release bus to read data */
 146              		.loc 1 164 0
 147 00ba 0022     		movs	r2, #0
 148 00bc 764B     		ldr	r3, .L27
 149 00be 1A70     		strb	r2, [r3]
 165:Generated_Source\PSoC5/I2COLED_INT.c **** 
 166:Generated_Source\PSoC5/I2COLED_INT.c ****                         I2COLED_state  = I2COLED_SM_MSTR_RD_DATA;
 150              		.loc 1 166 0
 151 00c0 4A22     		movs	r2, #74
 152 00c2 764B     		ldr	r3, .L27+4
 153 00c4 1A70     		strb	r2, [r3]
 128:Generated_Source\PSoC5/I2COLED_INT.c **** 
 154              		.loc 1 128 0
 155 00c6 2C46     		mov	r4, r5
 156 00c8 C5E0     		b	.L3
 157              	.L9:
 167:Generated_Source\PSoC5/I2COLED_INT.c ****                     }
 168:Generated_Source\PSoC5/I2COLED_INT.c ****                 }
 169:Generated_Source\PSoC5/I2COLED_INT.c ****                 /* Address is NACKed */
 170:Generated_Source\PSoC5/I2COLED_INT.c ****                 else if(I2COLED_CHECK_ADDR_NAK(tmpCsr))
 158              		.loc 1 170 0
 159 00ca 0A2C     		cmp	r4, #10
 160 00cc 2BD1     		bne	.L13
 171:Generated_Source\PSoC5/I2COLED_INT.c ****                 {
 172:Generated_Source\PSoC5/I2COLED_INT.c ****                     /* Set Address NAK error */
 173:Generated_Source\PSoC5/I2COLED_INT.c ****                     I2COLED_mstrStatus |= (I2COLED_MSTAT_ERR_XFER |
 161              		.loc 1 173 0
 162 00ce 794A     		ldr	r2, .L27+28
 163 00d0 1378     		ldrb	r3, [r2]	@ zero_extendqisi2
 164 00d2 43F0A003 		orr	r3, r3, #160
 165 00d6 1370     		strb	r3, [r2]
ARM GAS  C:\Users\MANSRO~1\AppData\Local\Temp\ccrPB4n1.s 			page 7


 174:Generated_Source\PSoC5/I2COLED_INT.c ****                                                     I2COLED_MSTAT_ERR_ADDR_NAK);
 175:Generated_Source\PSoC5/I2COLED_INT.c **** 
 176:Generated_Source\PSoC5/I2COLED_INT.c ****                     if(I2COLED_CHECK_NO_STOP(I2COLED_mstrControl))
 166              		.loc 1 176 0
 167 00d8 754B     		ldr	r3, .L27+24
 168 00da 1B78     		ldrb	r3, [r3]	@ zero_extendqisi2
 169 00dc 13F0020F 		tst	r3, #2
 170 00e0 14D0     		beq	.L14
 177:Generated_Source\PSoC5/I2COLED_INT.c ****                     {
 178:Generated_Source\PSoC5/I2COLED_INT.c ****                         I2COLED_mstrStatus |= (I2COLED_MSTAT_XFER_HALT |
 179:Generated_Source\PSoC5/I2COLED_INT.c ****                                                         I2COLED_GET_MSTAT_CMPLT);
 171              		.loc 1 179 0
 172 00e2 6E4B     		ldr	r3, .L27+4
 173 00e4 1B78     		ldrb	r3, [r3]	@ zero_extendqisi2
 178:Generated_Source\PSoC5/I2COLED_INT.c ****                                                         I2COLED_GET_MSTAT_CMPLT);
 174              		.loc 1 178 0
 175 00e6 13F0080F 		tst	r3, #8
 176 00ea 01D0     		beq	.L24
 177 00ec 0923     		movs	r3, #9
 178 00ee 00E0     		b	.L15
 179              	.L24:
 180 00f0 0A23     		movs	r3, #10
 181              	.L15:
 178:Generated_Source\PSoC5/I2COLED_INT.c ****                                                         I2COLED_GET_MSTAT_CMPLT);
 182              		.loc 1 178 0 is_stmt 0 discriminator 4
 183 00f2 704A     		ldr	r2, .L27+28
 184 00f4 1178     		ldrb	r1, [r2]	@ zero_extendqisi2
 185 00f6 0B43     		orrs	r3, r3, r1
 186 00f8 1370     		strb	r3, [r2]
 180:Generated_Source\PSoC5/I2COLED_INT.c **** 
 181:Generated_Source\PSoC5/I2COLED_INT.c ****                         I2COLED_state = I2COLED_SM_MSTR_HALT; /* Expect RESTART */
 187              		.loc 1 181 0 is_stmt 1 discriminator 4
 188 00fa 6022     		movs	r2, #96
 189 00fc 674B     		ldr	r3, .L27+4
 190 00fe 1A70     		strb	r2, [r3]
 182:Generated_Source\PSoC5/I2COLED_INT.c ****                         I2COLED_DisableInt();
 191              		.loc 1 182 0 discriminator 4
 192 0100 4FF40042 		mov	r2, #32768
 193 0104 6C4B     		ldr	r3, .L27+32
 194 0106 1A60     		str	r2, [r3]
 128:Generated_Source\PSoC5/I2COLED_INT.c **** 
 195              		.loc 1 128 0 discriminator 4
 196 0108 2C46     		mov	r4, r5
 197 010a A4E0     		b	.L3
 198              	.L14:
 183:Generated_Source\PSoC5/I2COLED_INT.c ****                     }
 184:Generated_Source\PSoC5/I2COLED_INT.c ****                     else  /* Do normal Stop */
 185:Generated_Source\PSoC5/I2COLED_INT.c ****                     {
 186:Generated_Source\PSoC5/I2COLED_INT.c ****                         I2COLED_ENABLE_INT_ON_STOP; /* Enable interrupt on Stop, to catch it */
 199              		.loc 1 186 0
 200 010c 6B4A     		ldr	r2, .L27+36
 201 010e 1378     		ldrb	r3, [r2]	@ zero_extendqisi2
 202 0110 43F01003 		orr	r3, r3, #16
 203 0114 1370     		strb	r3, [r2]
 187:Generated_Source\PSoC5/I2COLED_INT.c ****                         I2COLED_GENERATE_STOP;
 204              		.loc 1 187 0
 205 0116 1022     		movs	r2, #16
ARM GAS  C:\Users\MANSRO~1\AppData\Local\Temp\ccrPB4n1.s 			page 8


 206 0118 694B     		ldr	r3, .L27+40
 207 011a 1A70     		strb	r2, [r3]
 208 011c 0422     		movs	r2, #4
 209 011e 023B     		subs	r3, r3, #2
 210 0120 1A70     		strb	r2, [r3]
 128:Generated_Source\PSoC5/I2COLED_INT.c **** 
 211              		.loc 1 128 0
 212 0122 2C46     		mov	r4, r5
 213 0124 97E0     		b	.L3
 214              	.L13:
 188:Generated_Source\PSoC5/I2COLED_INT.c ****                     }
 189:Generated_Source\PSoC5/I2COLED_INT.c ****                 }
 190:Generated_Source\PSoC5/I2COLED_INT.c ****                 else
 191:Generated_Source\PSoC5/I2COLED_INT.c ****                 {
 192:Generated_Source\PSoC5/I2COLED_INT.c ****                     /* Address phase is not set for some reason: error */
 193:Generated_Source\PSoC5/I2COLED_INT.c ****                     #if(I2COLED_TIMEOUT_ENABLED)
 194:Generated_Source\PSoC5/I2COLED_INT.c ****                         /* Exit interrupt to take chance for timeout timer to handle this case */
 195:Generated_Source\PSoC5/I2COLED_INT.c ****                         I2COLED_DisableInt();
 196:Generated_Source\PSoC5/I2COLED_INT.c ****                         I2COLED_ClearPendingInt();
 197:Generated_Source\PSoC5/I2COLED_INT.c ****                     #else
 198:Generated_Source\PSoC5/I2COLED_INT.c ****                         /* Block execution flow: unexpected condition */
 199:Generated_Source\PSoC5/I2COLED_INT.c ****                         CYASSERT(0u != 0u);
 215              		.loc 1 199 0 discriminator 1
 216 0126 0020     		movs	r0, #0
 217 0128 FFF7FEFF 		bl	CyHalt
 218              	.LVL2:
 128:Generated_Source\PSoC5/I2COLED_INT.c **** 
 219              		.loc 1 128 0 discriminator 1
 220 012c 2C46     		mov	r4, r5
 221 012e 92E0     		b	.L3
 222              	.LVL3:
 223              	.L7:
 200:Generated_Source\PSoC5/I2COLED_INT.c ****                     #endif /* (I2COLED_TIMEOUT_ENABLED) */
 201:Generated_Source\PSoC5/I2COLED_INT.c ****                 }
 202:Generated_Source\PSoC5/I2COLED_INT.c ****                 break;
 203:Generated_Source\PSoC5/I2COLED_INT.c **** 
 204:Generated_Source\PSoC5/I2COLED_INT.c ****             case I2COLED_SM_MSTR_WR_DATA:
 205:Generated_Source\PSoC5/I2COLED_INT.c **** 
 206:Generated_Source\PSoC5/I2COLED_INT.c ****                 if(I2COLED_CHECK_DATA_ACK(tmpCsr))
 224              		.loc 1 206 0
 225 0130 14F0020F 		tst	r4, #2
 226 0134 36D1     		bne	.L16
 207:Generated_Source\PSoC5/I2COLED_INT.c ****                 {
 208:Generated_Source\PSoC5/I2COLED_INT.c ****                     /* Check if end of buffer */
 209:Generated_Source\PSoC5/I2COLED_INT.c ****                     if(I2COLED_mstrWrBufIndex  < I2COLED_mstrWrBufSize)
 227              		.loc 1 209 0
 228 0136 5D4B     		ldr	r3, .L27+20
 229 0138 1A78     		ldrb	r2, [r3]	@ zero_extendqisi2
 230 013a D2B2     		uxtb	r2, r2
 231 013c 584B     		ldr	r3, .L27+8
 232 013e 1B78     		ldrb	r3, [r3]	@ zero_extendqisi2
 233 0140 DBB2     		uxtb	r3, r3
 234 0142 9A42     		cmp	r2, r3
 235 0144 10D2     		bcs	.L17
 210:Generated_Source\PSoC5/I2COLED_INT.c ****                     {
 211:Generated_Source\PSoC5/I2COLED_INT.c ****                         I2COLED_DATA_REG =
 212:Generated_Source\PSoC5/I2COLED_INT.c ****                                                  I2COLED_mstrWrBufPtr[I2COLED_mstrWrBufIndex];
ARM GAS  C:\Users\MANSRO~1\AppData\Local\Temp\ccrPB4n1.s 			page 9


 236              		.loc 1 212 0
 237 0146 594A     		ldr	r2, .L27+20
 238 0148 1378     		ldrb	r3, [r2]	@ zero_extendqisi2
 239 014a DBB2     		uxtb	r3, r3
 240 014c 5549     		ldr	r1, .L27+12
 241 014e 0968     		ldr	r1, [r1]
 242 0150 CB5C     		ldrb	r3, [r1, r3]	@ zero_extendqisi2
 243 0152 DBB2     		uxtb	r3, r3
 211:Generated_Source\PSoC5/I2COLED_INT.c ****                                                  I2COLED_mstrWrBufPtr[I2COLED_mstrWrBufIndex];
 244              		.loc 1 211 0
 245 0154 5449     		ldr	r1, .L27+16
 246 0156 0B70     		strb	r3, [r1]
 213:Generated_Source\PSoC5/I2COLED_INT.c ****                         I2COLED_TRANSMIT_DATA;
 247              		.loc 1 213 0
 248 0158 0421     		movs	r1, #4
 249 015a 4F4B     		ldr	r3, .L27
 250 015c 1970     		strb	r1, [r3]
 214:Generated_Source\PSoC5/I2COLED_INT.c ****                         I2COLED_mstrWrBufIndex++;
 251              		.loc 1 214 0
 252 015e 1378     		ldrb	r3, [r2]	@ zero_extendqisi2
 253 0160 0133     		adds	r3, r3, #1
 254 0162 DBB2     		uxtb	r3, r3
 255 0164 1370     		strb	r3, [r2]
 256 0166 76E0     		b	.L3
 257              	.L17:
 215:Generated_Source\PSoC5/I2COLED_INT.c ****                     }
 216:Generated_Source\PSoC5/I2COLED_INT.c ****                     /* End of buffer: complete writing */
 217:Generated_Source\PSoC5/I2COLED_INT.c ****                     else if(I2COLED_CHECK_NO_STOP(I2COLED_mstrControl))
 258              		.loc 1 217 0
 259 0168 514B     		ldr	r3, .L27+24
 260 016a 1B78     		ldrb	r3, [r3]	@ zero_extendqisi2
 261 016c 13F0020F 		tst	r3, #2
 262 0170 0CD0     		beq	.L18
 218:Generated_Source\PSoC5/I2COLED_INT.c ****                     {
 219:Generated_Source\PSoC5/I2COLED_INT.c ****                         /* Set write complete and master halted */
 220:Generated_Source\PSoC5/I2COLED_INT.c ****                         I2COLED_mstrStatus |= (I2COLED_MSTAT_XFER_HALT |
 263              		.loc 1 220 0
 264 0172 504A     		ldr	r2, .L27+28
 265 0174 1378     		ldrb	r3, [r2]	@ zero_extendqisi2
 266 0176 43F00A03 		orr	r3, r3, #10
 267 017a 1370     		strb	r3, [r2]
 221:Generated_Source\PSoC5/I2COLED_INT.c ****                                                         I2COLED_MSTAT_WR_CMPLT);
 222:Generated_Source\PSoC5/I2COLED_INT.c **** 
 223:Generated_Source\PSoC5/I2COLED_INT.c ****                         I2COLED_state = I2COLED_SM_MSTR_HALT;    /* Expect restart */
 268              		.loc 1 223 0
 269 017c 6022     		movs	r2, #96
 270 017e 474B     		ldr	r3, .L27+4
 271 0180 1A70     		strb	r2, [r3]
 224:Generated_Source\PSoC5/I2COLED_INT.c ****                         I2COLED_DisableInt();
 272              		.loc 1 224 0
 273 0182 4FF40042 		mov	r2, #32768
 274 0186 4C4B     		ldr	r3, .L27+32
 275 0188 1A60     		str	r2, [r3]
 276 018a 64E0     		b	.L3
 277              	.L18:
 225:Generated_Source\PSoC5/I2COLED_INT.c ****                     }
 226:Generated_Source\PSoC5/I2COLED_INT.c ****                     else  /* Do normal Stop */
ARM GAS  C:\Users\MANSRO~1\AppData\Local\Temp\ccrPB4n1.s 			page 10


 227:Generated_Source\PSoC5/I2COLED_INT.c ****                     {
 228:Generated_Source\PSoC5/I2COLED_INT.c ****                         I2COLED_ENABLE_INT_ON_STOP;    /* Enable interrupt on Stop, to catch it */
 278              		.loc 1 228 0
 279 018c 4B4A     		ldr	r2, .L27+36
 280 018e 1378     		ldrb	r3, [r2]	@ zero_extendqisi2
 281 0190 43F01003 		orr	r3, r3, #16
 282 0194 1370     		strb	r3, [r2]
 229:Generated_Source\PSoC5/I2COLED_INT.c ****                         I2COLED_GENERATE_STOP;
 283              		.loc 1 229 0
 284 0196 1022     		movs	r2, #16
 285 0198 494B     		ldr	r3, .L27+40
 286 019a 1A70     		strb	r2, [r3]
 287 019c 0422     		movs	r2, #4
 288 019e 023B     		subs	r3, r3, #2
 289 01a0 1A70     		strb	r2, [r3]
 290 01a2 58E0     		b	.L3
 291              	.L16:
 230:Generated_Source\PSoC5/I2COLED_INT.c ****                     }
 231:Generated_Source\PSoC5/I2COLED_INT.c ****                 }
 232:Generated_Source\PSoC5/I2COLED_INT.c ****                 /* Last byte NAKed: end writing */
 233:Generated_Source\PSoC5/I2COLED_INT.c ****                 else if(I2COLED_CHECK_NO_STOP(I2COLED_mstrControl))
 292              		.loc 1 233 0
 293 01a4 424B     		ldr	r3, .L27+24
 294 01a6 1B78     		ldrb	r3, [r3]	@ zero_extendqisi2
 295 01a8 13F0020F 		tst	r3, #2
 296 01ac 0CD0     		beq	.L19
 234:Generated_Source\PSoC5/I2COLED_INT.c ****                 {
 235:Generated_Source\PSoC5/I2COLED_INT.c ****                     /* Set write complete, short transfer and master halted */
 236:Generated_Source\PSoC5/I2COLED_INT.c ****                     I2COLED_mstrStatus |= (I2COLED_MSTAT_ERR_XFER       |
 297              		.loc 1 236 0
 298 01ae 414A     		ldr	r2, .L27+28
 299 01b0 1378     		ldrb	r3, [r2]	@ zero_extendqisi2
 300 01b2 43F09A03 		orr	r3, r3, #154
 301 01b6 1370     		strb	r3, [r2]
 237:Generated_Source\PSoC5/I2COLED_INT.c ****                                                     I2COLED_MSTAT_ERR_SHORT_XFER |
 238:Generated_Source\PSoC5/I2COLED_INT.c ****                                                     I2COLED_MSTAT_XFER_HALT      |
 239:Generated_Source\PSoC5/I2COLED_INT.c ****                                                     I2COLED_MSTAT_WR_CMPLT);
 240:Generated_Source\PSoC5/I2COLED_INT.c **** 
 241:Generated_Source\PSoC5/I2COLED_INT.c ****                     I2COLED_state = I2COLED_SM_MSTR_HALT;    /* Expect ReStart */
 302              		.loc 1 241 0
 303 01b8 6022     		movs	r2, #96
 304 01ba 384B     		ldr	r3, .L27+4
 305 01bc 1A70     		strb	r2, [r3]
 242:Generated_Source\PSoC5/I2COLED_INT.c ****                     I2COLED_DisableInt();
 306              		.loc 1 242 0
 307 01be 4FF40042 		mov	r2, #32768
 308 01c2 3D4B     		ldr	r3, .L27+32
 309 01c4 1A60     		str	r2, [r3]
 310 01c6 46E0     		b	.L3
 311              	.L19:
 243:Generated_Source\PSoC5/I2COLED_INT.c ****                 }
 244:Generated_Source\PSoC5/I2COLED_INT.c ****                 else  /* Do normal Stop */
 245:Generated_Source\PSoC5/I2COLED_INT.c ****                 {
 246:Generated_Source\PSoC5/I2COLED_INT.c ****                     I2COLED_ENABLE_INT_ON_STOP;    /* Enable interrupt on Stop, to catch it */
 312              		.loc 1 246 0
 313 01c8 3C4A     		ldr	r2, .L27+36
 314 01ca 1378     		ldrb	r3, [r2]	@ zero_extendqisi2
ARM GAS  C:\Users\MANSRO~1\AppData\Local\Temp\ccrPB4n1.s 			page 11


 315 01cc 43F01003 		orr	r3, r3, #16
 316 01d0 1370     		strb	r3, [r2]
 247:Generated_Source\PSoC5/I2COLED_INT.c ****                     I2COLED_GENERATE_STOP;
 317              		.loc 1 247 0
 318 01d2 1022     		movs	r2, #16
 319 01d4 3A4B     		ldr	r3, .L27+40
 320 01d6 1A70     		strb	r2, [r3]
 321 01d8 0422     		movs	r2, #4
 322 01da 023B     		subs	r3, r3, #2
 323 01dc 1A70     		strb	r2, [r3]
 248:Generated_Source\PSoC5/I2COLED_INT.c **** 
 249:Generated_Source\PSoC5/I2COLED_INT.c ****                     /* Set short transfer and error flag */
 250:Generated_Source\PSoC5/I2COLED_INT.c ****                     I2COLED_mstrStatus |= (I2COLED_MSTAT_ERR_SHORT_XFER |
 324              		.loc 1 250 0
 325 01de 354A     		ldr	r2, .L27+28
 326 01e0 1378     		ldrb	r3, [r2]	@ zero_extendqisi2
 327 01e2 43F09003 		orr	r3, r3, #144
 328 01e6 1370     		strb	r3, [r2]
 329 01e8 35E0     		b	.L3
 330              	.L8:
 251:Generated_Source\PSoC5/I2COLED_INT.c ****                                                     I2COLED_MSTAT_ERR_XFER);
 252:Generated_Source\PSoC5/I2COLED_INT.c ****                 }
 253:Generated_Source\PSoC5/I2COLED_INT.c **** 
 254:Generated_Source\PSoC5/I2COLED_INT.c ****                 break;
 255:Generated_Source\PSoC5/I2COLED_INT.c **** 
 256:Generated_Source\PSoC5/I2COLED_INT.c ****             case I2COLED_SM_MSTR_RD_DATA:
 257:Generated_Source\PSoC5/I2COLED_INT.c **** 
 258:Generated_Source\PSoC5/I2COLED_INT.c ****                 I2COLED_mstrRdBufPtr[I2COLED_mstrRdBufIndex] = I2COLED_DATA_REG;
 331              		.loc 1 258 0
 332 01ea 364A     		ldr	r2, .L27+44
 333 01ec 1378     		ldrb	r3, [r2]	@ zero_extendqisi2
 334 01ee DBB2     		uxtb	r3, r3
 335 01f0 3549     		ldr	r1, .L27+48
 336 01f2 0868     		ldr	r0, [r1]
 337 01f4 2C49     		ldr	r1, .L27+16
 338 01f6 0978     		ldrb	r1, [r1]	@ zero_extendqisi2
 339 01f8 C9B2     		uxtb	r1, r1
 340 01fa C154     		strb	r1, [r0, r3]
 259:Generated_Source\PSoC5/I2COLED_INT.c ****                 I2COLED_mstrRdBufIndex++;
 341              		.loc 1 259 0
 342 01fc 1378     		ldrb	r3, [r2]	@ zero_extendqisi2
 343 01fe 0133     		adds	r3, r3, #1
 344 0200 DBB2     		uxtb	r3, r3
 345 0202 1370     		strb	r3, [r2]
 260:Generated_Source\PSoC5/I2COLED_INT.c **** 
 261:Generated_Source\PSoC5/I2COLED_INT.c ****                 /* Check if end of buffer */
 262:Generated_Source\PSoC5/I2COLED_INT.c ****                 if(I2COLED_mstrRdBufIndex < I2COLED_mstrRdBufSize)
 346              		.loc 1 262 0
 347 0204 1278     		ldrb	r2, [r2]	@ zero_extendqisi2
 348 0206 D2B2     		uxtb	r2, r2
 349 0208 304B     		ldr	r3, .L27+52
 350 020a 1B78     		ldrb	r3, [r3]	@ zero_extendqisi2
 351 020c DBB2     		uxtb	r3, r3
 352 020e 9A42     		cmp	r2, r3
 353 0210 03D2     		bcs	.L20
 263:Generated_Source\PSoC5/I2COLED_INT.c ****                 {
 264:Generated_Source\PSoC5/I2COLED_INT.c ****                     I2COLED_ACK_AND_RECEIVE;       /* ACK and receive byte */
ARM GAS  C:\Users\MANSRO~1\AppData\Local\Temp\ccrPB4n1.s 			page 12


 354              		.loc 1 264 0
 355 0212 1022     		movs	r2, #16
 356 0214 204B     		ldr	r3, .L27
 357 0216 1A70     		strb	r2, [r3]
 358 0218 1DE0     		b	.L3
 359              	.L20:
 265:Generated_Source\PSoC5/I2COLED_INT.c ****                 }
 266:Generated_Source\PSoC5/I2COLED_INT.c ****                 /* End of buffer: complete reading */
 267:Generated_Source\PSoC5/I2COLED_INT.c ****                 else if(I2COLED_CHECK_NO_STOP(I2COLED_mstrControl))
 360              		.loc 1 267 0
 361 021a 254B     		ldr	r3, .L27+24
 362 021c 1B78     		ldrb	r3, [r3]	@ zero_extendqisi2
 363 021e 13F0020F 		tst	r3, #2
 364 0222 0CD0     		beq	.L21
 268:Generated_Source\PSoC5/I2COLED_INT.c ****                 {
 269:Generated_Source\PSoC5/I2COLED_INT.c ****                     /* Set read complete and master halted */
 270:Generated_Source\PSoC5/I2COLED_INT.c ****                     I2COLED_mstrStatus |= (I2COLED_MSTAT_XFER_HALT |
 365              		.loc 1 270 0
 366 0224 234A     		ldr	r2, .L27+28
 367 0226 1378     		ldrb	r3, [r2]	@ zero_extendqisi2
 368 0228 43F00903 		orr	r3, r3, #9
 369 022c 1370     		strb	r3, [r2]
 271:Generated_Source\PSoC5/I2COLED_INT.c ****                                                     I2COLED_MSTAT_RD_CMPLT);
 272:Generated_Source\PSoC5/I2COLED_INT.c **** 
 273:Generated_Source\PSoC5/I2COLED_INT.c ****                     I2COLED_state = I2COLED_SM_MSTR_HALT;    /* Expect ReStart */
 370              		.loc 1 273 0
 371 022e 6022     		movs	r2, #96
 372 0230 1A4B     		ldr	r3, .L27+4
 373 0232 1A70     		strb	r2, [r3]
 274:Generated_Source\PSoC5/I2COLED_INT.c ****                     I2COLED_DisableInt();
 374              		.loc 1 274 0
 375 0234 4FF40042 		mov	r2, #32768
 376 0238 1F4B     		ldr	r3, .L27+32
 377 023a 1A60     		str	r2, [r3]
 378 023c 0BE0     		b	.L3
 379              	.L21:
 275:Generated_Source\PSoC5/I2COLED_INT.c ****                 }
 276:Generated_Source\PSoC5/I2COLED_INT.c ****                 else
 277:Generated_Source\PSoC5/I2COLED_INT.c ****                 {
 278:Generated_Source\PSoC5/I2COLED_INT.c ****                     I2COLED_ENABLE_INT_ON_STOP;
 380              		.loc 1 278 0
 381 023e 1F4A     		ldr	r2, .L27+36
 382 0240 1378     		ldrb	r3, [r2]	@ zero_extendqisi2
 383 0242 43F01003 		orr	r3, r3, #16
 384 0246 1370     		strb	r3, [r2]
 279:Generated_Source\PSoC5/I2COLED_INT.c ****                     I2COLED_NAK_AND_RECEIVE;       /* NACK and TRY to generate Stop */
 385              		.loc 1 279 0
 386 0248 0022     		movs	r2, #0
 387 024a 134B     		ldr	r3, .L27
 388 024c 1A70     		strb	r2, [r3]
 389 024e 02E0     		b	.L3
 390              	.L4:
 280:Generated_Source\PSoC5/I2COLED_INT.c ****                 }
 281:Generated_Source\PSoC5/I2COLED_INT.c ****                 break;
 282:Generated_Source\PSoC5/I2COLED_INT.c **** 
 283:Generated_Source\PSoC5/I2COLED_INT.c ****             default: /* This is an invalid state and should not occur */
 284:Generated_Source\PSoC5/I2COLED_INT.c **** 
ARM GAS  C:\Users\MANSRO~1\AppData\Local\Temp\ccrPB4n1.s 			page 13


 285:Generated_Source\PSoC5/I2COLED_INT.c ****             #if(I2COLED_TIMEOUT_ENABLED)
 286:Generated_Source\PSoC5/I2COLED_INT.c ****                 /* Exit interrupt to take chance for timeout timer to handles this case */
 287:Generated_Source\PSoC5/I2COLED_INT.c ****                 I2COLED_DisableInt();
 288:Generated_Source\PSoC5/I2COLED_INT.c ****                 I2COLED_ClearPendingInt();
 289:Generated_Source\PSoC5/I2COLED_INT.c ****             #else
 290:Generated_Source\PSoC5/I2COLED_INT.c ****                 /* Block execution flow: unexpected condition */
 291:Generated_Source\PSoC5/I2COLED_INT.c ****                 CYASSERT(0u != 0u);
 391              		.loc 1 291 0 discriminator 1
 392 0250 0020     		movs	r0, #0
 393 0252 FFF7FEFF 		bl	CyHalt
 394              	.LVL4:
 395              	.L3:
 292:Generated_Source\PSoC5/I2COLED_INT.c ****             #endif /* (I2COLED_TIMEOUT_ENABLED) */
 293:Generated_Source\PSoC5/I2COLED_INT.c **** 
 294:Generated_Source\PSoC5/I2COLED_INT.c ****                 break;
 295:Generated_Source\PSoC5/I2COLED_INT.c ****             }
 296:Generated_Source\PSoC5/I2COLED_INT.c ****         }
 297:Generated_Source\PSoC5/I2COLED_INT.c **** 
 298:Generated_Source\PSoC5/I2COLED_INT.c ****         /* Catches Stop: end of transaction */
 299:Generated_Source\PSoC5/I2COLED_INT.c ****         if(I2COLED_CHECK_STOP_STS(tmpCsr))
 396              		.loc 1 299 0
 397 0256 14F0200F 		tst	r4, #32
 398 025a 1CD0     		beq	.L1
 300:Generated_Source\PSoC5/I2COLED_INT.c ****         {
 301:Generated_Source\PSoC5/I2COLED_INT.c ****             I2COLED_mstrStatus |= I2COLED_GET_MSTAT_CMPLT;
 399              		.loc 1 301 0
 400 025c 0F4B     		ldr	r3, .L27+4
 401 025e 1B78     		ldrb	r3, [r3]	@ zero_extendqisi2
 402 0260 13F0080F 		tst	r3, #8
 403 0264 01D0     		beq	.L25
 404 0266 0123     		movs	r3, #1
 405 0268 00E0     		b	.L23
 406              	.L25:
 407 026a 0223     		movs	r3, #2
 408              	.L23:
 409              		.loc 1 301 0 is_stmt 0 discriminator 4
 410 026c 114A     		ldr	r2, .L27+28
 411 026e 1178     		ldrb	r1, [r2]	@ zero_extendqisi2
 412 0270 0B43     		orrs	r3, r3, r1
 413 0272 1370     		strb	r3, [r2]
 302:Generated_Source\PSoC5/I2COLED_INT.c **** 
 303:Generated_Source\PSoC5/I2COLED_INT.c ****             I2COLED_DISABLE_INT_ON_STOP;
 414              		.loc 1 303 0 is_stmt 1 discriminator 4
 415 0274 114A     		ldr	r2, .L27+36
 416 0276 1378     		ldrb	r3, [r2]	@ zero_extendqisi2
 417 0278 03F0EF03 		and	r3, r3, #239
 418 027c 1370     		strb	r3, [r2]
 304:Generated_Source\PSoC5/I2COLED_INT.c ****             I2COLED_state = I2COLED_SM_IDLE;
 419              		.loc 1 304 0 discriminator 4
 420 027e 1022     		movs	r2, #16
 421 0280 064B     		ldr	r3, .L27+4
 422 0282 1A70     		strb	r2, [r3]
 423 0284 38BD     		pop	{r3, r4, r5, pc}
 424              	.LVL5:
 425              	.L2:
 305:Generated_Source\PSoC5/I2COLED_INT.c ****         }
 306:Generated_Source\PSoC5/I2COLED_INT.c ****     #endif /* (I2COLED_MODE_MASTER_ENABLED) */
ARM GAS  C:\Users\MANSRO~1\AppData\Local\Temp\ccrPB4n1.s 			page 14


 307:Generated_Source\PSoC5/I2COLED_INT.c ****     }
 308:Generated_Source\PSoC5/I2COLED_INT.c ****     else if(I2COLED_CHECK_SM_SLAVE)
 426              		.loc 1 308 0
 427 0286 054B     		ldr	r3, .L27+4
 428 0288 1B78     		ldrb	r3, [r3]	@ zero_extendqisi2
 429 028a 13F0100F 		tst	r3, #16
 430 028e 02D1     		bne	.L1
 309:Generated_Source\PSoC5/I2COLED_INT.c ****     {
 310:Generated_Source\PSoC5/I2COLED_INT.c ****     #if(I2COLED_MODE_SLAVE_ENABLED)
 311:Generated_Source\PSoC5/I2COLED_INT.c **** 
 312:Generated_Source\PSoC5/I2COLED_INT.c ****         if((I2COLED_CHECK_STOP_STS(tmpCsr)) || /* Stop || Restart */
 313:Generated_Source\PSoC5/I2COLED_INT.c ****            (I2COLED_CHECK_BYTE_COMPLETE(tmpCsr) && I2COLED_CHECK_ADDRESS_STS(tmpCsr)))
 314:Generated_Source\PSoC5/I2COLED_INT.c ****         {
 315:Generated_Source\PSoC5/I2COLED_INT.c ****             /* Catch end of master write transaction: use interrupt on Stop */
 316:Generated_Source\PSoC5/I2COLED_INT.c ****             /* The Stop bit history on address phase does not have correct state */
 317:Generated_Source\PSoC5/I2COLED_INT.c ****             if(I2COLED_SM_SL_WR_DATA == I2COLED_state)
 318:Generated_Source\PSoC5/I2COLED_INT.c ****             {
 319:Generated_Source\PSoC5/I2COLED_INT.c ****                 I2COLED_DISABLE_INT_ON_STOP;
 320:Generated_Source\PSoC5/I2COLED_INT.c **** 
 321:Generated_Source\PSoC5/I2COLED_INT.c ****                 I2COLED_slStatus &= ((uint8) ~I2COLED_SSTAT_WR_BUSY);
 322:Generated_Source\PSoC5/I2COLED_INT.c ****                 I2COLED_slStatus |= ((uint8)  I2COLED_SSTAT_WR_CMPLT);
 323:Generated_Source\PSoC5/I2COLED_INT.c **** 
 324:Generated_Source\PSoC5/I2COLED_INT.c ****                 I2COLED_state = I2COLED_SM_IDLE;
 325:Generated_Source\PSoC5/I2COLED_INT.c ****             }
 326:Generated_Source\PSoC5/I2COLED_INT.c ****         }
 327:Generated_Source\PSoC5/I2COLED_INT.c **** 
 328:Generated_Source\PSoC5/I2COLED_INT.c ****         if(I2COLED_CHECK_BYTE_COMPLETE(tmpCsr))
 329:Generated_Source\PSoC5/I2COLED_INT.c ****         {
 330:Generated_Source\PSoC5/I2COLED_INT.c ****             /* The address only issued after Start or ReStart: so check the address
 331:Generated_Source\PSoC5/I2COLED_INT.c ****                to catch these events:
 332:Generated_Source\PSoC5/I2COLED_INT.c ****                 FF : sets an address phase with a byte_complete interrupt trigger.
 333:Generated_Source\PSoC5/I2COLED_INT.c ****                 UDB: sets an address phase immediately after Start or ReStart. */
 334:Generated_Source\PSoC5/I2COLED_INT.c ****             if(I2COLED_CHECK_ADDRESS_STS(tmpCsr))
 335:Generated_Source\PSoC5/I2COLED_INT.c ****             {
 336:Generated_Source\PSoC5/I2COLED_INT.c ****             /* Check for software address detection */
 337:Generated_Source\PSoC5/I2COLED_INT.c ****             #if(I2COLED_SW_ADRR_DECODE)
 338:Generated_Source\PSoC5/I2COLED_INT.c ****                 tmp8 = I2COLED_GET_SLAVE_ADDR(I2COLED_DATA_REG);
 339:Generated_Source\PSoC5/I2COLED_INT.c **** 
 340:Generated_Source\PSoC5/I2COLED_INT.c ****                 if(tmp8 == I2COLED_slAddress)   /* Check for address match */
 341:Generated_Source\PSoC5/I2COLED_INT.c ****                 {
 342:Generated_Source\PSoC5/I2COLED_INT.c ****                     if(0u != (I2COLED_DATA_REG & I2COLED_READ_FLAG))
 343:Generated_Source\PSoC5/I2COLED_INT.c ****                     {
 344:Generated_Source\PSoC5/I2COLED_INT.c ****                         /* Place code to prepare read buffer here                  */
 345:Generated_Source\PSoC5/I2COLED_INT.c ****                         /* `#START I2COLED_SW_PREPARE_READ_BUF_interrupt` */
 346:Generated_Source\PSoC5/I2COLED_INT.c **** 
 347:Generated_Source\PSoC5/I2COLED_INT.c ****                         /* `#END` */
 348:Generated_Source\PSoC5/I2COLED_INT.c **** 
 349:Generated_Source\PSoC5/I2COLED_INT.c ****                     #ifdef I2COLED_SW_PREPARE_READ_BUF_CALLBACK
 350:Generated_Source\PSoC5/I2COLED_INT.c ****                         I2COLED_SwPrepareReadBuf_Callback();
 351:Generated_Source\PSoC5/I2COLED_INT.c ****                     #endif /* I2COLED_SW_PREPARE_READ_BUF_CALLBACK */
 352:Generated_Source\PSoC5/I2COLED_INT.c ****                         
 353:Generated_Source\PSoC5/I2COLED_INT.c ****                         /* Prepare next operation to read, get data and place in data register */
 354:Generated_Source\PSoC5/I2COLED_INT.c ****                         if(I2COLED_slRdBufIndex < I2COLED_slRdBufSize)
 355:Generated_Source\PSoC5/I2COLED_INT.c ****                         {
 356:Generated_Source\PSoC5/I2COLED_INT.c ****                             /* Load first data byte from array */
 357:Generated_Source\PSoC5/I2COLED_INT.c ****                             I2COLED_DATA_REG = I2COLED_slRdBufPtr[I2COLED_slRdBufIndex];
 358:Generated_Source\PSoC5/I2COLED_INT.c ****                             I2COLED_ACK_AND_TRANSMIT;
ARM GAS  C:\Users\MANSRO~1\AppData\Local\Temp\ccrPB4n1.s 			page 15


 359:Generated_Source\PSoC5/I2COLED_INT.c ****                             I2COLED_slRdBufIndex++;
 360:Generated_Source\PSoC5/I2COLED_INT.c **** 
 361:Generated_Source\PSoC5/I2COLED_INT.c ****                             I2COLED_slStatus |= I2COLED_SSTAT_RD_BUSY;
 362:Generated_Source\PSoC5/I2COLED_INT.c ****                         }
 363:Generated_Source\PSoC5/I2COLED_INT.c ****                         else    /* Overflow: provide 0xFF on bus */
 364:Generated_Source\PSoC5/I2COLED_INT.c ****                         {
 365:Generated_Source\PSoC5/I2COLED_INT.c ****                             I2COLED_DATA_REG = I2COLED_OVERFLOW_RETURN;
 366:Generated_Source\PSoC5/I2COLED_INT.c ****                             I2COLED_ACK_AND_TRANSMIT;
 367:Generated_Source\PSoC5/I2COLED_INT.c **** 
 368:Generated_Source\PSoC5/I2COLED_INT.c ****                             I2COLED_slStatus  |= (I2COLED_SSTAT_RD_BUSY |
 369:Generated_Source\PSoC5/I2COLED_INT.c ****                                                            I2COLED_SSTAT_RD_ERR_OVFL);
 370:Generated_Source\PSoC5/I2COLED_INT.c ****                         }
 371:Generated_Source\PSoC5/I2COLED_INT.c **** 
 372:Generated_Source\PSoC5/I2COLED_INT.c ****                         I2COLED_state = I2COLED_SM_SL_RD_DATA;
 373:Generated_Source\PSoC5/I2COLED_INT.c ****                     }
 374:Generated_Source\PSoC5/I2COLED_INT.c ****                     else  /* Write transaction: receive 1st byte */
 375:Generated_Source\PSoC5/I2COLED_INT.c ****                     {
 376:Generated_Source\PSoC5/I2COLED_INT.c ****                         I2COLED_ACK_AND_RECEIVE;
 377:Generated_Source\PSoC5/I2COLED_INT.c ****                         I2COLED_state = I2COLED_SM_SL_WR_DATA;
 378:Generated_Source\PSoC5/I2COLED_INT.c **** 
 379:Generated_Source\PSoC5/I2COLED_INT.c ****                         I2COLED_slStatus |= I2COLED_SSTAT_WR_BUSY;
 380:Generated_Source\PSoC5/I2COLED_INT.c ****                         I2COLED_ENABLE_INT_ON_STOP;
 381:Generated_Source\PSoC5/I2COLED_INT.c ****                     }
 382:Generated_Source\PSoC5/I2COLED_INT.c ****                 }
 383:Generated_Source\PSoC5/I2COLED_INT.c ****                 else
 384:Generated_Source\PSoC5/I2COLED_INT.c ****                 {
 385:Generated_Source\PSoC5/I2COLED_INT.c ****                     /*     Place code to compare for additional address here    */
 386:Generated_Source\PSoC5/I2COLED_INT.c ****                     /* `#START I2COLED_SW_ADDR_COMPARE_interruptStart` */
 387:Generated_Source\PSoC5/I2COLED_INT.c **** 
 388:Generated_Source\PSoC5/I2COLED_INT.c ****                     /* `#END` */
 389:Generated_Source\PSoC5/I2COLED_INT.c **** 
 390:Generated_Source\PSoC5/I2COLED_INT.c ****                 #ifdef I2COLED_SW_ADDR_COMPARE_ENTRY_CALLBACK
 391:Generated_Source\PSoC5/I2COLED_INT.c ****                     I2COLED_SwAddrCompare_EntryCallback();
 392:Generated_Source\PSoC5/I2COLED_INT.c ****                 #endif /* I2COLED_SW_ADDR_COMPARE_ENTRY_CALLBACK */
 393:Generated_Source\PSoC5/I2COLED_INT.c ****                     
 394:Generated_Source\PSoC5/I2COLED_INT.c ****                     I2COLED_NAK_AND_RECEIVE;   /* NACK address */
 395:Generated_Source\PSoC5/I2COLED_INT.c **** 
 396:Generated_Source\PSoC5/I2COLED_INT.c ****                     /* Place code to end of condition for NACK generation here */
 397:Generated_Source\PSoC5/I2COLED_INT.c ****                     /* `#START I2COLED_SW_ADDR_COMPARE_interruptEnd`  */
 398:Generated_Source\PSoC5/I2COLED_INT.c **** 
 399:Generated_Source\PSoC5/I2COLED_INT.c ****                     /* `#END` */
 400:Generated_Source\PSoC5/I2COLED_INT.c **** 
 401:Generated_Source\PSoC5/I2COLED_INT.c ****                 #ifdef I2COLED_SW_ADDR_COMPARE_EXIT_CALLBACK
 402:Generated_Source\PSoC5/I2COLED_INT.c ****                     I2COLED_SwAddrCompare_ExitCallback();
 403:Generated_Source\PSoC5/I2COLED_INT.c ****                 #endif /* I2COLED_SW_ADDR_COMPARE_EXIT_CALLBACK */
 404:Generated_Source\PSoC5/I2COLED_INT.c ****                 }
 405:Generated_Source\PSoC5/I2COLED_INT.c **** 
 406:Generated_Source\PSoC5/I2COLED_INT.c ****             #else /* (I2COLED_HW_ADRR_DECODE) */
 407:Generated_Source\PSoC5/I2COLED_INT.c **** 
 408:Generated_Source\PSoC5/I2COLED_INT.c ****                 if(0u != (I2COLED_DATA_REG & I2COLED_READ_FLAG))
 409:Generated_Source\PSoC5/I2COLED_INT.c ****                 {
 410:Generated_Source\PSoC5/I2COLED_INT.c ****                     /* Place code to prepare read buffer here                  */
 411:Generated_Source\PSoC5/I2COLED_INT.c ****                     /* `#START I2COLED_HW_PREPARE_READ_BUF_interrupt` */
 412:Generated_Source\PSoC5/I2COLED_INT.c **** 
 413:Generated_Source\PSoC5/I2COLED_INT.c ****                     /* `#END` */
 414:Generated_Source\PSoC5/I2COLED_INT.c ****                     
 415:Generated_Source\PSoC5/I2COLED_INT.c ****                 #ifdef I2COLED_HW_PREPARE_READ_BUF_CALLBACK
ARM GAS  C:\Users\MANSRO~1\AppData\Local\Temp\ccrPB4n1.s 			page 16


 416:Generated_Source\PSoC5/I2COLED_INT.c ****                     I2COLED_HwPrepareReadBuf_Callback();
 417:Generated_Source\PSoC5/I2COLED_INT.c ****                 #endif /* I2COLED_HW_PREPARE_READ_BUF_CALLBACK */
 418:Generated_Source\PSoC5/I2COLED_INT.c **** 
 419:Generated_Source\PSoC5/I2COLED_INT.c ****                     /* Prepare next operation to read, get data and place in data register */
 420:Generated_Source\PSoC5/I2COLED_INT.c ****                     if(I2COLED_slRdBufIndex < I2COLED_slRdBufSize)
 421:Generated_Source\PSoC5/I2COLED_INT.c ****                     {
 422:Generated_Source\PSoC5/I2COLED_INT.c ****                         /* Load first data byte from array */
 423:Generated_Source\PSoC5/I2COLED_INT.c ****                         I2COLED_DATA_REG = I2COLED_slRdBufPtr[I2COLED_slRdBufIndex];
 424:Generated_Source\PSoC5/I2COLED_INT.c ****                         I2COLED_ACK_AND_TRANSMIT;
 425:Generated_Source\PSoC5/I2COLED_INT.c ****                         I2COLED_slRdBufIndex++;
 426:Generated_Source\PSoC5/I2COLED_INT.c **** 
 427:Generated_Source\PSoC5/I2COLED_INT.c ****                         I2COLED_slStatus |= I2COLED_SSTAT_RD_BUSY;
 428:Generated_Source\PSoC5/I2COLED_INT.c ****                     }
 429:Generated_Source\PSoC5/I2COLED_INT.c ****                     else    /* Overflow: provide 0xFF on bus */
 430:Generated_Source\PSoC5/I2COLED_INT.c ****                     {
 431:Generated_Source\PSoC5/I2COLED_INT.c ****                         I2COLED_DATA_REG = I2COLED_OVERFLOW_RETURN;
 432:Generated_Source\PSoC5/I2COLED_INT.c ****                         I2COLED_ACK_AND_TRANSMIT;
 433:Generated_Source\PSoC5/I2COLED_INT.c **** 
 434:Generated_Source\PSoC5/I2COLED_INT.c ****                         I2COLED_slStatus  |= (I2COLED_SSTAT_RD_BUSY |
 435:Generated_Source\PSoC5/I2COLED_INT.c ****                                                        I2COLED_SSTAT_RD_ERR_OVFL);
 436:Generated_Source\PSoC5/I2COLED_INT.c ****                     }
 437:Generated_Source\PSoC5/I2COLED_INT.c **** 
 438:Generated_Source\PSoC5/I2COLED_INT.c ****                     I2COLED_state = I2COLED_SM_SL_RD_DATA;
 439:Generated_Source\PSoC5/I2COLED_INT.c ****                 }
 440:Generated_Source\PSoC5/I2COLED_INT.c ****                 else  /* Write transaction: receive 1st byte */
 441:Generated_Source\PSoC5/I2COLED_INT.c ****                 {
 442:Generated_Source\PSoC5/I2COLED_INT.c ****                     I2COLED_ACK_AND_RECEIVE;
 443:Generated_Source\PSoC5/I2COLED_INT.c ****                     I2COLED_state = I2COLED_SM_SL_WR_DATA;
 444:Generated_Source\PSoC5/I2COLED_INT.c **** 
 445:Generated_Source\PSoC5/I2COLED_INT.c ****                     I2COLED_slStatus |= I2COLED_SSTAT_WR_BUSY;
 446:Generated_Source\PSoC5/I2COLED_INT.c ****                     I2COLED_ENABLE_INT_ON_STOP;
 447:Generated_Source\PSoC5/I2COLED_INT.c ****                 }
 448:Generated_Source\PSoC5/I2COLED_INT.c **** 
 449:Generated_Source\PSoC5/I2COLED_INT.c ****             #endif /* (I2COLED_SW_ADRR_DECODE) */
 450:Generated_Source\PSoC5/I2COLED_INT.c ****             }
 451:Generated_Source\PSoC5/I2COLED_INT.c ****             /* Data states */
 452:Generated_Source\PSoC5/I2COLED_INT.c ****             /* Data master writes into slave */
 453:Generated_Source\PSoC5/I2COLED_INT.c ****             else if(I2COLED_state == I2COLED_SM_SL_WR_DATA)
 454:Generated_Source\PSoC5/I2COLED_INT.c ****             {
 455:Generated_Source\PSoC5/I2COLED_INT.c ****                 if(I2COLED_slWrBufIndex < I2COLED_slWrBufSize)
 456:Generated_Source\PSoC5/I2COLED_INT.c ****                 {
 457:Generated_Source\PSoC5/I2COLED_INT.c ****                     tmp8 = I2COLED_DATA_REG;
 458:Generated_Source\PSoC5/I2COLED_INT.c ****                     I2COLED_ACK_AND_RECEIVE;
 459:Generated_Source\PSoC5/I2COLED_INT.c ****                     I2COLED_slWrBufPtr[I2COLED_slWrBufIndex] = tmp8;
 460:Generated_Source\PSoC5/I2COLED_INT.c ****                     I2COLED_slWrBufIndex++;
 461:Generated_Source\PSoC5/I2COLED_INT.c ****                 }
 462:Generated_Source\PSoC5/I2COLED_INT.c ****                 else  /* of array: complete write, send NACK */
 463:Generated_Source\PSoC5/I2COLED_INT.c ****                 {
 464:Generated_Source\PSoC5/I2COLED_INT.c ****                     I2COLED_NAK_AND_RECEIVE;
 465:Generated_Source\PSoC5/I2COLED_INT.c **** 
 466:Generated_Source\PSoC5/I2COLED_INT.c ****                     I2COLED_slStatus |= I2COLED_SSTAT_WR_ERR_OVFL;
 467:Generated_Source\PSoC5/I2COLED_INT.c ****                 }
 468:Generated_Source\PSoC5/I2COLED_INT.c ****             }
 469:Generated_Source\PSoC5/I2COLED_INT.c ****             /* Data master reads from slave */
 470:Generated_Source\PSoC5/I2COLED_INT.c ****             else if(I2COLED_state == I2COLED_SM_SL_RD_DATA)
 471:Generated_Source\PSoC5/I2COLED_INT.c ****             {
 472:Generated_Source\PSoC5/I2COLED_INT.c ****                 if(I2COLED_CHECK_DATA_ACK(tmpCsr))
ARM GAS  C:\Users\MANSRO~1\AppData\Local\Temp\ccrPB4n1.s 			page 17


 473:Generated_Source\PSoC5/I2COLED_INT.c ****                 {
 474:Generated_Source\PSoC5/I2COLED_INT.c ****                     if(I2COLED_slRdBufIndex < I2COLED_slRdBufSize)
 475:Generated_Source\PSoC5/I2COLED_INT.c ****                     {
 476:Generated_Source\PSoC5/I2COLED_INT.c ****                          /* Get data from array */
 477:Generated_Source\PSoC5/I2COLED_INT.c ****                         I2COLED_DATA_REG = I2COLED_slRdBufPtr[I2COLED_slRdBufIndex];
 478:Generated_Source\PSoC5/I2COLED_INT.c ****                         I2COLED_TRANSMIT_DATA;
 479:Generated_Source\PSoC5/I2COLED_INT.c ****                         I2COLED_slRdBufIndex++;
 480:Generated_Source\PSoC5/I2COLED_INT.c ****                     }
 481:Generated_Source\PSoC5/I2COLED_INT.c ****                     else   /* Overflow: provide 0xFF on bus */
 482:Generated_Source\PSoC5/I2COLED_INT.c ****                     {
 483:Generated_Source\PSoC5/I2COLED_INT.c ****                         I2COLED_DATA_REG = I2COLED_OVERFLOW_RETURN;
 484:Generated_Source\PSoC5/I2COLED_INT.c ****                         I2COLED_TRANSMIT_DATA;
 485:Generated_Source\PSoC5/I2COLED_INT.c **** 
 486:Generated_Source\PSoC5/I2COLED_INT.c ****                         I2COLED_slStatus |= I2COLED_SSTAT_RD_ERR_OVFL;
 487:Generated_Source\PSoC5/I2COLED_INT.c ****                     }
 488:Generated_Source\PSoC5/I2COLED_INT.c ****                 }
 489:Generated_Source\PSoC5/I2COLED_INT.c ****                 else  /* Last byte was NACKed: read complete */
 490:Generated_Source\PSoC5/I2COLED_INT.c ****                 {
 491:Generated_Source\PSoC5/I2COLED_INT.c ****                     /* Only NACK appears on bus */
 492:Generated_Source\PSoC5/I2COLED_INT.c ****                     I2COLED_DATA_REG = I2COLED_OVERFLOW_RETURN;
 493:Generated_Source\PSoC5/I2COLED_INT.c ****                     I2COLED_NAK_AND_TRANSMIT;
 494:Generated_Source\PSoC5/I2COLED_INT.c **** 
 495:Generated_Source\PSoC5/I2COLED_INT.c ****                     I2COLED_slStatus &= ((uint8) ~I2COLED_SSTAT_RD_BUSY);
 496:Generated_Source\PSoC5/I2COLED_INT.c ****                     I2COLED_slStatus |= ((uint8)  I2COLED_SSTAT_RD_CMPLT);
 497:Generated_Source\PSoC5/I2COLED_INT.c **** 
 498:Generated_Source\PSoC5/I2COLED_INT.c ****                     I2COLED_state = I2COLED_SM_IDLE;
 499:Generated_Source\PSoC5/I2COLED_INT.c ****                 }
 500:Generated_Source\PSoC5/I2COLED_INT.c ****             }
 501:Generated_Source\PSoC5/I2COLED_INT.c ****             else
 502:Generated_Source\PSoC5/I2COLED_INT.c ****             {
 503:Generated_Source\PSoC5/I2COLED_INT.c ****             #if(I2COLED_TIMEOUT_ENABLED)
 504:Generated_Source\PSoC5/I2COLED_INT.c ****                 /* Exit interrupt to take chance for timeout timer to handle this case */
 505:Generated_Source\PSoC5/I2COLED_INT.c ****                 I2COLED_DisableInt();
 506:Generated_Source\PSoC5/I2COLED_INT.c ****                 I2COLED_ClearPendingInt();
 507:Generated_Source\PSoC5/I2COLED_INT.c ****             #else
 508:Generated_Source\PSoC5/I2COLED_INT.c ****                 /* Block execution flow: unexpected condition */
 509:Generated_Source\PSoC5/I2COLED_INT.c ****                 CYASSERT(0u != 0u);
 510:Generated_Source\PSoC5/I2COLED_INT.c ****             #endif /* (I2COLED_TIMEOUT_ENABLED) */
 511:Generated_Source\PSoC5/I2COLED_INT.c ****             }
 512:Generated_Source\PSoC5/I2COLED_INT.c ****         }
 513:Generated_Source\PSoC5/I2COLED_INT.c ****     #endif /* (I2COLED_MODE_SLAVE_ENABLED) */
 514:Generated_Source\PSoC5/I2COLED_INT.c ****     }
 515:Generated_Source\PSoC5/I2COLED_INT.c ****     else
 516:Generated_Source\PSoC5/I2COLED_INT.c ****     {
 517:Generated_Source\PSoC5/I2COLED_INT.c ****         /* The FSM skips master and slave processing: return to IDLE */
 518:Generated_Source\PSoC5/I2COLED_INT.c ****         I2COLED_state = I2COLED_SM_IDLE;
 431              		.loc 1 518 0
 432 0290 1022     		movs	r2, #16
 433 0292 024B     		ldr	r3, .L27+4
 434 0294 1A70     		strb	r2, [r3]
 435              	.LVL6:
 436              	.L1:
 437 0296 38BD     		pop	{r3, r4, r5, pc}
 438              	.L28:
 439              		.align	2
 440              	.L27:
 441 0298 D7490040 		.word	1073760727
ARM GAS  C:\Users\MANSRO~1\AppData\Local\Temp\ccrPB4n1.s 			page 18


 442 029c 00000000 		.word	I2COLED_state
 443 02a0 00000000 		.word	I2COLED_mstrWrBufSize
 444 02a4 00000000 		.word	I2COLED_mstrWrBufPtr
 445 02a8 D8490040 		.word	1073760728
 446 02ac 00000000 		.word	I2COLED_mstrWrBufIndex
 447 02b0 00000000 		.word	I2COLED_mstrControl
 448 02b4 00000000 		.word	I2COLED_mstrStatus
 449 02b8 80E100E0 		.word	-536813184
 450 02bc D6490040 		.word	1073760726
 451 02c0 D9490040 		.word	1073760729
 452 02c4 00000000 		.word	I2COLED_mstrRdBufIndex
 453 02c8 00000000 		.word	I2COLED_mstrRdBufPtr
 454 02cc 00000000 		.word	I2COLED_mstrRdBufSize
 455              		.cfi_endproc
 456              	.LFE0:
 457              		.size	I2COLED_ISR, .-I2COLED_ISR
 458              		.text
 459              	.Letext0:
 460              		.file 2 "Generated_Source\\PSoC5\\cytypes.h"
 461              		.file 3 "Generated_Source\\PSoC5\\I2COLED_PVT.h"
 462              		.file 4 "Generated_Source\\PSoC5\\CyLib.h"
