ARM GAS  C:\Users\ARMAND~1\AppData\Local\Temp\ccNbc48c.s 			page 1


   1              		.syntax unified
   2              		.cpu cortex-m3
   3              		.fpu softvfp
   4              		.eabi_attribute 20, 1
   5              		.eabi_attribute 21, 1
   6              		.eabi_attribute 23, 3
   7              		.eabi_attribute 24, 1
   8              		.eabi_attribute 25, 1
   9              		.eabi_attribute 26, 1
  10              		.eabi_attribute 30, 1
  11              		.eabi_attribute 34, 1
  12              		.eabi_attribute 18, 4
  13              		.thumb
  14              		.syntax unified
  15              		.file	"QuadDec_2_Cnt16_PM.c"
  16              		.text
  17              	.Ltext0:
  18              		.cfi_sections	.debug_frame
  19              		.section	.text.QuadDec_2_Cnt16_SaveConfig,"ax",%progbits
  20              		.align	2
  21              		.global	QuadDec_2_Cnt16_SaveConfig
  22              		.thumb
  23              		.thumb_func
  24              		.type	QuadDec_2_Cnt16_SaveConfig, %function
  25              	QuadDec_2_Cnt16_SaveConfig:
  26              	.LFB0:
  27              		.file 1 "Generated_Source\\PSoC5\\QuadDec_2_Cnt16_PM.c"
   1:Generated_Source\PSoC5/QuadDec_2_Cnt16_PM.c **** /*******************************************************************************
   2:Generated_Source\PSoC5/QuadDec_2_Cnt16_PM.c **** * File Name: QuadDec_2_Cnt16_PM.c  
   3:Generated_Source\PSoC5/QuadDec_2_Cnt16_PM.c **** * Version 3.0
   4:Generated_Source\PSoC5/QuadDec_2_Cnt16_PM.c **** *
   5:Generated_Source\PSoC5/QuadDec_2_Cnt16_PM.c **** *  Description:
   6:Generated_Source\PSoC5/QuadDec_2_Cnt16_PM.c **** *    This file provides the power management source code to API for the
   7:Generated_Source\PSoC5/QuadDec_2_Cnt16_PM.c **** *    Counter.  
   8:Generated_Source\PSoC5/QuadDec_2_Cnt16_PM.c **** *
   9:Generated_Source\PSoC5/QuadDec_2_Cnt16_PM.c **** *   Note:
  10:Generated_Source\PSoC5/QuadDec_2_Cnt16_PM.c **** *     None
  11:Generated_Source\PSoC5/QuadDec_2_Cnt16_PM.c **** *
  12:Generated_Source\PSoC5/QuadDec_2_Cnt16_PM.c **** ********************************************************************************
  13:Generated_Source\PSoC5/QuadDec_2_Cnt16_PM.c **** * Copyright 2008-2012, Cypress Semiconductor Corporation.  All rights reserved.
  14:Generated_Source\PSoC5/QuadDec_2_Cnt16_PM.c **** * You may use this file only in accordance with the license, terms, conditions, 
  15:Generated_Source\PSoC5/QuadDec_2_Cnt16_PM.c **** * disclaimers, and limitations in the end user license agreement accompanying 
  16:Generated_Source\PSoC5/QuadDec_2_Cnt16_PM.c **** * the software package with which this file was provided.
  17:Generated_Source\PSoC5/QuadDec_2_Cnt16_PM.c **** *******************************************************************************/
  18:Generated_Source\PSoC5/QuadDec_2_Cnt16_PM.c **** 
  19:Generated_Source\PSoC5/QuadDec_2_Cnt16_PM.c **** #include "QuadDec_2_Cnt16.h"
  20:Generated_Source\PSoC5/QuadDec_2_Cnt16_PM.c **** 
  21:Generated_Source\PSoC5/QuadDec_2_Cnt16_PM.c **** static QuadDec_2_Cnt16_backupStruct QuadDec_2_Cnt16_backup;
  22:Generated_Source\PSoC5/QuadDec_2_Cnt16_PM.c **** 
  23:Generated_Source\PSoC5/QuadDec_2_Cnt16_PM.c **** 
  24:Generated_Source\PSoC5/QuadDec_2_Cnt16_PM.c **** /*******************************************************************************
  25:Generated_Source\PSoC5/QuadDec_2_Cnt16_PM.c **** * Function Name: QuadDec_2_Cnt16_SaveConfig
  26:Generated_Source\PSoC5/QuadDec_2_Cnt16_PM.c **** ********************************************************************************
  27:Generated_Source\PSoC5/QuadDec_2_Cnt16_PM.c **** * Summary:
  28:Generated_Source\PSoC5/QuadDec_2_Cnt16_PM.c **** *     Save the current user configuration
  29:Generated_Source\PSoC5/QuadDec_2_Cnt16_PM.c **** *
  30:Generated_Source\PSoC5/QuadDec_2_Cnt16_PM.c **** * Parameters:  
ARM GAS  C:\Users\ARMAND~1\AppData\Local\Temp\ccNbc48c.s 			page 2


  31:Generated_Source\PSoC5/QuadDec_2_Cnt16_PM.c **** *  void
  32:Generated_Source\PSoC5/QuadDec_2_Cnt16_PM.c **** *
  33:Generated_Source\PSoC5/QuadDec_2_Cnt16_PM.c **** * Return: 
  34:Generated_Source\PSoC5/QuadDec_2_Cnt16_PM.c **** *  void
  35:Generated_Source\PSoC5/QuadDec_2_Cnt16_PM.c **** *
  36:Generated_Source\PSoC5/QuadDec_2_Cnt16_PM.c **** * Global variables:
  37:Generated_Source\PSoC5/QuadDec_2_Cnt16_PM.c **** *  QuadDec_2_Cnt16_backup:  Variables of this global structure are modified to 
  38:Generated_Source\PSoC5/QuadDec_2_Cnt16_PM.c **** *  store the values of non retention configuration registers when Sleep() API is 
  39:Generated_Source\PSoC5/QuadDec_2_Cnt16_PM.c **** *  called.
  40:Generated_Source\PSoC5/QuadDec_2_Cnt16_PM.c **** *
  41:Generated_Source\PSoC5/QuadDec_2_Cnt16_PM.c **** *******************************************************************************/
  42:Generated_Source\PSoC5/QuadDec_2_Cnt16_PM.c **** void QuadDec_2_Cnt16_SaveConfig(void) 
  43:Generated_Source\PSoC5/QuadDec_2_Cnt16_PM.c **** {
  28              		.loc 1 43 0
  29              		.cfi_startproc
  30              		@ args = 0, pretend = 0, frame = 0
  31              		@ frame_needed = 0, uses_anonymous_args = 0
  32 0000 10B5     		push	{r4, lr}
  33              		.cfi_def_cfa_offset 8
  34              		.cfi_offset 4, -8
  35              		.cfi_offset 14, -4
  44:Generated_Source\PSoC5/QuadDec_2_Cnt16_PM.c ****     #if (!QuadDec_2_Cnt16_UsingFixedFunction)
  45:Generated_Source\PSoC5/QuadDec_2_Cnt16_PM.c **** 
  46:Generated_Source\PSoC5/QuadDec_2_Cnt16_PM.c ****         QuadDec_2_Cnt16_backup.CounterUdb = QuadDec_2_Cnt16_ReadCounter();
  36              		.loc 1 46 0
  37 0002 FFF7FEFF 		bl	QuadDec_2_Cnt16_ReadCounter
  38              	.LVL0:
  39 0006 034C     		ldr	r4, .L3
  40 0008 6080     		strh	r0, [r4, #2]	@ movhi
  47:Generated_Source\PSoC5/QuadDec_2_Cnt16_PM.c **** 
  48:Generated_Source\PSoC5/QuadDec_2_Cnt16_PM.c ****         #if(!QuadDec_2_Cnt16_ControlRegRemoved)
  49:Generated_Source\PSoC5/QuadDec_2_Cnt16_PM.c ****             QuadDec_2_Cnt16_backup.CounterControlRegister = QuadDec_2_Cnt16_ReadControlRegister();
  41              		.loc 1 49 0
  42 000a FFF7FEFF 		bl	QuadDec_2_Cnt16_ReadControlRegister
  43              	.LVL1:
  44 000e 2071     		strb	r0, [r4, #4]
  45 0010 10BD     		pop	{r4, pc}
  46              	.L4:
  47 0012 00BF     		.align	2
  48              	.L3:
  49 0014 00000000 		.word	.LANCHOR0
  50              		.cfi_endproc
  51              	.LFE0:
  52              		.size	QuadDec_2_Cnt16_SaveConfig, .-QuadDec_2_Cnt16_SaveConfig
  53              		.section	.text.QuadDec_2_Cnt16_RestoreConfig,"ax",%progbits
  54              		.align	2
  55              		.global	QuadDec_2_Cnt16_RestoreConfig
  56              		.thumb
  57              		.thumb_func
  58              		.type	QuadDec_2_Cnt16_RestoreConfig, %function
  59              	QuadDec_2_Cnt16_RestoreConfig:
  60              	.LFB1:
  50:Generated_Source\PSoC5/QuadDec_2_Cnt16_PM.c ****         #endif /* (!QuadDec_2_Cnt16_ControlRegRemoved) */
  51:Generated_Source\PSoC5/QuadDec_2_Cnt16_PM.c **** 
  52:Generated_Source\PSoC5/QuadDec_2_Cnt16_PM.c ****     #endif /* (!QuadDec_2_Cnt16_UsingFixedFunction) */
  53:Generated_Source\PSoC5/QuadDec_2_Cnt16_PM.c **** }
  54:Generated_Source\PSoC5/QuadDec_2_Cnt16_PM.c **** 
ARM GAS  C:\Users\ARMAND~1\AppData\Local\Temp\ccNbc48c.s 			page 3


  55:Generated_Source\PSoC5/QuadDec_2_Cnt16_PM.c **** 
  56:Generated_Source\PSoC5/QuadDec_2_Cnt16_PM.c **** /*******************************************************************************
  57:Generated_Source\PSoC5/QuadDec_2_Cnt16_PM.c **** * Function Name: QuadDec_2_Cnt16_RestoreConfig
  58:Generated_Source\PSoC5/QuadDec_2_Cnt16_PM.c **** ********************************************************************************
  59:Generated_Source\PSoC5/QuadDec_2_Cnt16_PM.c **** *
  60:Generated_Source\PSoC5/QuadDec_2_Cnt16_PM.c **** * Summary:
  61:Generated_Source\PSoC5/QuadDec_2_Cnt16_PM.c **** *  Restores the current user configuration.
  62:Generated_Source\PSoC5/QuadDec_2_Cnt16_PM.c **** *
  63:Generated_Source\PSoC5/QuadDec_2_Cnt16_PM.c **** * Parameters:  
  64:Generated_Source\PSoC5/QuadDec_2_Cnt16_PM.c **** *  void
  65:Generated_Source\PSoC5/QuadDec_2_Cnt16_PM.c **** *
  66:Generated_Source\PSoC5/QuadDec_2_Cnt16_PM.c **** * Return: 
  67:Generated_Source\PSoC5/QuadDec_2_Cnt16_PM.c **** *  void
  68:Generated_Source\PSoC5/QuadDec_2_Cnt16_PM.c **** *
  69:Generated_Source\PSoC5/QuadDec_2_Cnt16_PM.c **** * Global variables:
  70:Generated_Source\PSoC5/QuadDec_2_Cnt16_PM.c **** *  QuadDec_2_Cnt16_backup:  Variables of this global structure are used to 
  71:Generated_Source\PSoC5/QuadDec_2_Cnt16_PM.c **** *  restore the values of non retention registers on wakeup from sleep mode.
  72:Generated_Source\PSoC5/QuadDec_2_Cnt16_PM.c **** *
  73:Generated_Source\PSoC5/QuadDec_2_Cnt16_PM.c **** *******************************************************************************/
  74:Generated_Source\PSoC5/QuadDec_2_Cnt16_PM.c **** void QuadDec_2_Cnt16_RestoreConfig(void) 
  75:Generated_Source\PSoC5/QuadDec_2_Cnt16_PM.c **** {      
  61              		.loc 1 75 0
  62              		.cfi_startproc
  63              		@ args = 0, pretend = 0, frame = 0
  64              		@ frame_needed = 0, uses_anonymous_args = 0
  65 0000 10B5     		push	{r4, lr}
  66              		.cfi_def_cfa_offset 8
  67              		.cfi_offset 4, -8
  68              		.cfi_offset 14, -4
  76:Generated_Source\PSoC5/QuadDec_2_Cnt16_PM.c ****     #if (!QuadDec_2_Cnt16_UsingFixedFunction)
  77:Generated_Source\PSoC5/QuadDec_2_Cnt16_PM.c **** 
  78:Generated_Source\PSoC5/QuadDec_2_Cnt16_PM.c ****        QuadDec_2_Cnt16_WriteCounter(QuadDec_2_Cnt16_backup.CounterUdb);
  69              		.loc 1 78 0
  70 0002 044C     		ldr	r4, .L7
  71 0004 6088     		ldrh	r0, [r4, #2]
  72 0006 FFF7FEFF 		bl	QuadDec_2_Cnt16_WriteCounter
  73              	.LVL2:
  79:Generated_Source\PSoC5/QuadDec_2_Cnt16_PM.c **** 
  80:Generated_Source\PSoC5/QuadDec_2_Cnt16_PM.c ****         #if(!QuadDec_2_Cnt16_ControlRegRemoved)
  81:Generated_Source\PSoC5/QuadDec_2_Cnt16_PM.c ****             QuadDec_2_Cnt16_WriteControlRegister(QuadDec_2_Cnt16_backup.CounterControlRegister);
  74              		.loc 1 81 0
  75 000a 2079     		ldrb	r0, [r4, #4]	@ zero_extendqisi2
  76 000c FFF7FEFF 		bl	QuadDec_2_Cnt16_WriteControlRegister
  77              	.LVL3:
  78 0010 10BD     		pop	{r4, pc}
  79              	.L8:
  80 0012 00BF     		.align	2
  81              	.L7:
  82 0014 00000000 		.word	.LANCHOR0
  83              		.cfi_endproc
  84              	.LFE1:
  85              		.size	QuadDec_2_Cnt16_RestoreConfig, .-QuadDec_2_Cnt16_RestoreConfig
  86              		.section	.text.QuadDec_2_Cnt16_Sleep,"ax",%progbits
  87              		.align	2
  88              		.global	QuadDec_2_Cnt16_Sleep
  89              		.thumb
  90              		.thumb_func
ARM GAS  C:\Users\ARMAND~1\AppData\Local\Temp\ccNbc48c.s 			page 4


  91              		.type	QuadDec_2_Cnt16_Sleep, %function
  92              	QuadDec_2_Cnt16_Sleep:
  93              	.LFB2:
  82:Generated_Source\PSoC5/QuadDec_2_Cnt16_PM.c ****         #endif /* (!QuadDec_2_Cnt16_ControlRegRemoved) */
  83:Generated_Source\PSoC5/QuadDec_2_Cnt16_PM.c **** 
  84:Generated_Source\PSoC5/QuadDec_2_Cnt16_PM.c ****     #endif /* (!QuadDec_2_Cnt16_UsingFixedFunction) */
  85:Generated_Source\PSoC5/QuadDec_2_Cnt16_PM.c **** }
  86:Generated_Source\PSoC5/QuadDec_2_Cnt16_PM.c **** 
  87:Generated_Source\PSoC5/QuadDec_2_Cnt16_PM.c **** 
  88:Generated_Source\PSoC5/QuadDec_2_Cnt16_PM.c **** /*******************************************************************************
  89:Generated_Source\PSoC5/QuadDec_2_Cnt16_PM.c **** * Function Name: QuadDec_2_Cnt16_Sleep
  90:Generated_Source\PSoC5/QuadDec_2_Cnt16_PM.c **** ********************************************************************************
  91:Generated_Source\PSoC5/QuadDec_2_Cnt16_PM.c **** * Summary:
  92:Generated_Source\PSoC5/QuadDec_2_Cnt16_PM.c **** *     Stop and Save the user configuration
  93:Generated_Source\PSoC5/QuadDec_2_Cnt16_PM.c **** *
  94:Generated_Source\PSoC5/QuadDec_2_Cnt16_PM.c **** * Parameters:  
  95:Generated_Source\PSoC5/QuadDec_2_Cnt16_PM.c **** *  void
  96:Generated_Source\PSoC5/QuadDec_2_Cnt16_PM.c **** *
  97:Generated_Source\PSoC5/QuadDec_2_Cnt16_PM.c **** * Return: 
  98:Generated_Source\PSoC5/QuadDec_2_Cnt16_PM.c **** *  void
  99:Generated_Source\PSoC5/QuadDec_2_Cnt16_PM.c **** *
 100:Generated_Source\PSoC5/QuadDec_2_Cnt16_PM.c **** * Global variables:
 101:Generated_Source\PSoC5/QuadDec_2_Cnt16_PM.c **** *  QuadDec_2_Cnt16_backup.enableState:  Is modified depending on the enable 
 102:Generated_Source\PSoC5/QuadDec_2_Cnt16_PM.c **** *  state of the block before entering sleep mode.
 103:Generated_Source\PSoC5/QuadDec_2_Cnt16_PM.c **** *
 104:Generated_Source\PSoC5/QuadDec_2_Cnt16_PM.c **** *******************************************************************************/
 105:Generated_Source\PSoC5/QuadDec_2_Cnt16_PM.c **** void QuadDec_2_Cnt16_Sleep(void) 
 106:Generated_Source\PSoC5/QuadDec_2_Cnt16_PM.c **** {
  94              		.loc 1 106 0
  95              		.cfi_startproc
  96              		@ args = 0, pretend = 0, frame = 0
  97              		@ frame_needed = 0, uses_anonymous_args = 0
  98 0000 08B5     		push	{r3, lr}
  99              		.cfi_def_cfa_offset 8
 100              		.cfi_offset 3, -8
 101              		.cfi_offset 14, -4
 107:Generated_Source\PSoC5/QuadDec_2_Cnt16_PM.c ****     #if(!QuadDec_2_Cnt16_ControlRegRemoved)
 108:Generated_Source\PSoC5/QuadDec_2_Cnt16_PM.c ****         /* Save Counter's enable state */
 109:Generated_Source\PSoC5/QuadDec_2_Cnt16_PM.c ****         if(QuadDec_2_Cnt16_CTRL_ENABLE == (QuadDec_2_Cnt16_CONTROL & QuadDec_2_Cnt16_CTRL_ENABLE))
 102              		.loc 1 109 0
 103 0002 084B     		ldr	r3, .L13
 104 0004 1B78     		ldrb	r3, [r3]	@ zero_extendqisi2
 105 0006 13F0800F 		tst	r3, #128
 106 000a 03D0     		beq	.L10
 110:Generated_Source\PSoC5/QuadDec_2_Cnt16_PM.c ****         {
 111:Generated_Source\PSoC5/QuadDec_2_Cnt16_PM.c ****             /* Counter is enabled */
 112:Generated_Source\PSoC5/QuadDec_2_Cnt16_PM.c ****             QuadDec_2_Cnt16_backup.CounterEnableState = 1u;
 107              		.loc 1 112 0
 108 000c 0122     		movs	r2, #1
 109 000e 064B     		ldr	r3, .L13+4
 110 0010 1A70     		strb	r2, [r3]
 111 0012 02E0     		b	.L11
 112              	.L10:
 113:Generated_Source\PSoC5/QuadDec_2_Cnt16_PM.c ****         }
 114:Generated_Source\PSoC5/QuadDec_2_Cnt16_PM.c ****         else
 115:Generated_Source\PSoC5/QuadDec_2_Cnt16_PM.c ****         {
 116:Generated_Source\PSoC5/QuadDec_2_Cnt16_PM.c ****             /* Counter is disabled */
ARM GAS  C:\Users\ARMAND~1\AppData\Local\Temp\ccNbc48c.s 			page 5


 117:Generated_Source\PSoC5/QuadDec_2_Cnt16_PM.c ****             QuadDec_2_Cnt16_backup.CounterEnableState = 0u;
 113              		.loc 1 117 0
 114 0014 0022     		movs	r2, #0
 115 0016 044B     		ldr	r3, .L13+4
 116 0018 1A70     		strb	r2, [r3]
 117              	.L11:
 118:Generated_Source\PSoC5/QuadDec_2_Cnt16_PM.c ****         }
 119:Generated_Source\PSoC5/QuadDec_2_Cnt16_PM.c ****     #else
 120:Generated_Source\PSoC5/QuadDec_2_Cnt16_PM.c ****         QuadDec_2_Cnt16_backup.CounterEnableState = 1u;
 121:Generated_Source\PSoC5/QuadDec_2_Cnt16_PM.c ****         if(QuadDec_2_Cnt16_backup.CounterEnableState != 0u)
 122:Generated_Source\PSoC5/QuadDec_2_Cnt16_PM.c ****         {
 123:Generated_Source\PSoC5/QuadDec_2_Cnt16_PM.c ****             QuadDec_2_Cnt16_backup.CounterEnableState = 0u;
 124:Generated_Source\PSoC5/QuadDec_2_Cnt16_PM.c ****         }
 125:Generated_Source\PSoC5/QuadDec_2_Cnt16_PM.c ****     #endif /* (!QuadDec_2_Cnt16_ControlRegRemoved) */
 126:Generated_Source\PSoC5/QuadDec_2_Cnt16_PM.c ****     
 127:Generated_Source\PSoC5/QuadDec_2_Cnt16_PM.c ****     QuadDec_2_Cnt16_Stop();
 118              		.loc 1 127 0
 119 001a FFF7FEFF 		bl	QuadDec_2_Cnt16_Stop
 120              	.LVL4:
 128:Generated_Source\PSoC5/QuadDec_2_Cnt16_PM.c ****     QuadDec_2_Cnt16_SaveConfig();
 121              		.loc 1 128 0
 122 001e FFF7FEFF 		bl	QuadDec_2_Cnt16_SaveConfig
 123              	.LVL5:
 124 0022 08BD     		pop	{r3, pc}
 125              	.L14:
 126              		.align	2
 127              	.L13:
 128 0024 7C640040 		.word	1073767548
 129 0028 00000000 		.word	.LANCHOR0
 130              		.cfi_endproc
 131              	.LFE2:
 132              		.size	QuadDec_2_Cnt16_Sleep, .-QuadDec_2_Cnt16_Sleep
 133              		.section	.text.QuadDec_2_Cnt16_Wakeup,"ax",%progbits
 134              		.align	2
 135              		.global	QuadDec_2_Cnt16_Wakeup
 136              		.thumb
 137              		.thumb_func
 138              		.type	QuadDec_2_Cnt16_Wakeup, %function
 139              	QuadDec_2_Cnt16_Wakeup:
 140              	.LFB3:
 129:Generated_Source\PSoC5/QuadDec_2_Cnt16_PM.c **** }
 130:Generated_Source\PSoC5/QuadDec_2_Cnt16_PM.c **** 
 131:Generated_Source\PSoC5/QuadDec_2_Cnt16_PM.c **** 
 132:Generated_Source\PSoC5/QuadDec_2_Cnt16_PM.c **** /*******************************************************************************
 133:Generated_Source\PSoC5/QuadDec_2_Cnt16_PM.c **** * Function Name: QuadDec_2_Cnt16_Wakeup
 134:Generated_Source\PSoC5/QuadDec_2_Cnt16_PM.c **** ********************************************************************************
 135:Generated_Source\PSoC5/QuadDec_2_Cnt16_PM.c **** *
 136:Generated_Source\PSoC5/QuadDec_2_Cnt16_PM.c **** * Summary:
 137:Generated_Source\PSoC5/QuadDec_2_Cnt16_PM.c **** *  Restores and enables the user configuration
 138:Generated_Source\PSoC5/QuadDec_2_Cnt16_PM.c **** *  
 139:Generated_Source\PSoC5/QuadDec_2_Cnt16_PM.c **** * Parameters:  
 140:Generated_Source\PSoC5/QuadDec_2_Cnt16_PM.c **** *  void
 141:Generated_Source\PSoC5/QuadDec_2_Cnt16_PM.c **** *
 142:Generated_Source\PSoC5/QuadDec_2_Cnt16_PM.c **** * Return: 
 143:Generated_Source\PSoC5/QuadDec_2_Cnt16_PM.c **** *  void
 144:Generated_Source\PSoC5/QuadDec_2_Cnt16_PM.c **** *
 145:Generated_Source\PSoC5/QuadDec_2_Cnt16_PM.c **** * Global variables:
ARM GAS  C:\Users\ARMAND~1\AppData\Local\Temp\ccNbc48c.s 			page 6


 146:Generated_Source\PSoC5/QuadDec_2_Cnt16_PM.c **** *  QuadDec_2_Cnt16_backup.enableState:  Is used to restore the enable state of 
 147:Generated_Source\PSoC5/QuadDec_2_Cnt16_PM.c **** *  block on wakeup from sleep mode.
 148:Generated_Source\PSoC5/QuadDec_2_Cnt16_PM.c **** *
 149:Generated_Source\PSoC5/QuadDec_2_Cnt16_PM.c **** *******************************************************************************/
 150:Generated_Source\PSoC5/QuadDec_2_Cnt16_PM.c **** void QuadDec_2_Cnt16_Wakeup(void) 
 151:Generated_Source\PSoC5/QuadDec_2_Cnt16_PM.c **** {
 141              		.loc 1 151 0
 142              		.cfi_startproc
 143              		@ args = 0, pretend = 0, frame = 0
 144              		@ frame_needed = 0, uses_anonymous_args = 0
 145 0000 08B5     		push	{r3, lr}
 146              		.cfi_def_cfa_offset 8
 147              		.cfi_offset 3, -8
 148              		.cfi_offset 14, -4
 152:Generated_Source\PSoC5/QuadDec_2_Cnt16_PM.c ****     QuadDec_2_Cnt16_RestoreConfig();
 149              		.loc 1 152 0
 150 0002 FFF7FEFF 		bl	QuadDec_2_Cnt16_RestoreConfig
 151              	.LVL6:
 153:Generated_Source\PSoC5/QuadDec_2_Cnt16_PM.c ****     #if(!QuadDec_2_Cnt16_ControlRegRemoved)
 154:Generated_Source\PSoC5/QuadDec_2_Cnt16_PM.c ****         if(QuadDec_2_Cnt16_backup.CounterEnableState == 1u)
 152              		.loc 1 154 0
 153 0006 034B     		ldr	r3, .L18
 154 0008 1B78     		ldrb	r3, [r3]	@ zero_extendqisi2
 155 000a 012B     		cmp	r3, #1
 156 000c 01D1     		bne	.L15
 155:Generated_Source\PSoC5/QuadDec_2_Cnt16_PM.c ****         {
 156:Generated_Source\PSoC5/QuadDec_2_Cnt16_PM.c ****             /* Enable Counter's operation */
 157:Generated_Source\PSoC5/QuadDec_2_Cnt16_PM.c ****             QuadDec_2_Cnt16_Enable();
 157              		.loc 1 157 0
 158 000e FFF7FEFF 		bl	QuadDec_2_Cnt16_Enable
 159              	.LVL7:
 160              	.L15:
 161 0012 08BD     		pop	{r3, pc}
 162              	.L19:
 163              		.align	2
 164              	.L18:
 165 0014 00000000 		.word	.LANCHOR0
 166              		.cfi_endproc
 167              	.LFE3:
 168              		.size	QuadDec_2_Cnt16_Wakeup, .-QuadDec_2_Cnt16_Wakeup
 169              		.bss
 170              		.align	2
 171              		.set	.LANCHOR0,. + 0
 172              		.type	QuadDec_2_Cnt16_backup, %object
 173              		.size	QuadDec_2_Cnt16_backup, 6
 174              	QuadDec_2_Cnt16_backup:
 175 0000 00000000 		.space	6
 175      0000
 176              		.text
 177              	.Letext0:
 178              		.file 2 "Generated_Source\\PSoC5\\cytypes.h"
 179              		.file 3 "Generated_Source\\PSoC5\\QuadDec_2_Cnt16.h"
