ARM GAS  C:\Users\ARMAND~1\AppData\Local\Temp\cc9xSBEa.s 			page 1


   1              		.syntax unified
   2              		.cpu cortex-m3
   3              		.fpu softvfp
   4              		.eabi_attribute 20, 1
   5              		.eabi_attribute 21, 1
   6              		.eabi_attribute 23, 3
   7              		.eabi_attribute 24, 1
   8              		.eabi_attribute 25, 1
   9              		.eabi_attribute 26, 1
  10              		.eabi_attribute 30, 1
  11              		.eabi_attribute 34, 1
  12              		.eabi_attribute 18, 4
  13              		.thumb
  14              		.syntax unified
  15              		.file	"sensors.c"
  16              		.text
  17              	.Ltext0:
  18              		.cfi_sections	.debug_frame
  19              		.section	.text.WaitForIRStart,"ax",%progbits
  20              		.align	2
  21              		.global	WaitForIRStart
  22              		.thumb
  23              		.thumb_func
  24              		.type	WaitForIRStart, %function
  25              	WaitForIRStart:
  26              	.LFB64:
  27              		.file 1 "sensors.c"
   1:sensors.c     **** /* ========================================
   2:sensors.c     ****  *
   3:sensors.c     ****  * Copyright YOUR COMPANY, THE YEAR
   4:sensors.c     ****  * All Rights Reserved
   5:sensors.c     ****  * UNPUBLISHED, LICENSED SOFTWARE.
   6:sensors.c     ****  *
   7:sensors.c     ****  * CONFIDENTIAL AND PROPRIETARY INFORMATION
   8:sensors.c     ****  * WHICH IS THE PROPERTY OF your company.
   9:sensors.c     ****  *
  10:sensors.c     ****  * ========================================
  11:sensors.c     **** */
  12:sensors.c     **** #include "sensors.h"
  13:sensors.c     **** #include "menu.h"
  14:sensors.c     **** #include "settings.h"
  15:sensors.c     **** #include "flag_servo.h"
  16:sensors.c     **** 
  17:sensors.c     **** #define Rd_bits(value, mask)        ((value)&(mask))
  18:sensors.c     **** 
  19:sensors.c     **** #define LINE_DETECT 250
  20:sensors.c     **** 
  21:sensors.c     **** 
  22:sensors.c     **** void WaitForIRStart(void) {
  28              		.loc 1 22 0
  29              		.cfi_startproc
  30              		@ args = 0, pretend = 0, frame = 0
  31              		@ frame_needed = 0, uses_anonymous_args = 0
  32 0000 08B5     		push	{r3, lr}
  33              		.cfi_def_cfa_offset 8
  34              		.cfi_offset 3, -8
  35              		.cfi_offset 14, -4
ARM GAS  C:\Users\ARMAND~1\AppData\Local\Temp\cc9xSBEa.s 			page 2


  23:sensors.c     ****     // Safety measure to check if start is already pressed!
  24:sensors.c     ****     if (1u == IR_START_Read()) {
  36              		.loc 1 24 0
  37 0002 FFF7FEFF 		bl	IR_START_Read
  38              	.LVL0:
  39 0006 0128     		cmp	r0, #1
  40 0008 04D1     		bne	.L2
  41              	.L3:
  25:sensors.c     ****         // Error - IR button is already pressed!!!
  26:sensors.c     ****         while (1) {
  27:sensors.c     ****             showText(25, "ERROR");
  42              		.loc 1 27 0 discriminator 1
  43 000a 0E49     		ldr	r1, .L8
  44 000c 1920     		movs	r0, #25
  45 000e FFF7FEFF 		bl	showText
  46              	.LVL1:
  47 0012 FAE7     		b	.L3
  48              	.L2:
  28:sensors.c     ****         }
  29:sensors.c     ****     }
  30:sensors.c     **** 
  31:sensors.c     ****     while (0u == IR_START_Read()) {
  49              		.loc 1 31 0 discriminator 1
  50 0014 FFF7FEFF 		bl	IR_START_Read
  51              	.LVL2:
  52 0018 0028     		cmp	r0, #0
  53 001a FBD0     		beq	.L2
  32:sensors.c     ****         // wait for IR start forever
  33:sensors.c     ****     }
  34:sensors.c     ****     if (gSettings.five_seconds == 1)
  54              		.loc 1 34 0
  55 001c 0A4B     		ldr	r3, .L8+4
  56 001e 93F90030 		ldrsb	r3, [r3]
  57 0022 012B     		cmp	r3, #1
  58 0024 03D1     		bne	.L4
  35:sensors.c     ****     {
  36:sensors.c     ****         CyDelay(4950);
  59              		.loc 1 36 0
  60 0026 41F25630 		movw	r0, #4950
  61 002a FFF7FEFF 		bl	CyDelay
  62              	.LVL3:
  63              	.L4:
  37:sensors.c     ****     }
  38:sensors.c     ****     if (gSettings.flag){
  64              		.loc 1 38 0
  65 002e 064B     		ldr	r3, .L8+4
  66 0030 93F90130 		ldrsb	r3, [r3, #1]
  67 0034 13B1     		cbz	r3, .L5
  39:sensors.c     ****         rightFlagDown();
  68              		.loc 1 39 0
  69 0036 FFF7FEFF 		bl	rightFlagDown
  70              	.LVL4:
  71 003a 08BD     		pop	{r3, pc}
  72              	.L5:
  40:sensors.c     ****     }
  41:sensors.c     ****     else {
  42:sensors.c     ****         leftFlagDown();
ARM GAS  C:\Users\ARMAND~1\AppData\Local\Temp\cc9xSBEa.s 			page 3


  73              		.loc 1 42 0
  74 003c FFF7FEFF 		bl	leftFlagDown
  75              	.LVL5:
  76 0040 08BD     		pop	{r3, pc}
  77              	.L9:
  78 0042 00BF     		.align	2
  79              	.L8:
  80 0044 00000000 		.word	.LC0
  81 0048 00000000 		.word	gSettings
  82              		.cfi_endproc
  83              	.LFE64:
  84              		.size	WaitForIRStart, .-WaitForIRStart
  85              		.section	.text.DistSensRead,"ax",%progbits
  86              		.align	2
  87              		.global	DistSensRead
  88              		.thumb
  89              		.thumb_func
  90              		.type	DistSensRead, %function
  91              	DistSensRead:
  92              	.LFB65:
  43:sensors.c     ****     }
  44:sensors.c     **** }
  45:sensors.c     **** 
  46:sensors.c     **** uint8_t DistSensRead(void) {
  93              		.loc 1 46 0
  94              		.cfi_startproc
  95              		@ args = 0, pretend = 0, frame = 0
  96              		@ frame_needed = 0, uses_anonymous_args = 0
  97 0000 10B5     		push	{r4, lr}
  98              		.cfi_def_cfa_offset 8
  99              		.cfi_offset 4, -8
 100              		.cfi_offset 14, -4
 101              	.LVL6:
  47:sensors.c     **** 	uint8_t value = 0b00000000;
  48:sensors.c     **** 
  49:sensors.c     **** 	//if( 0u == IRL_L90_Read() ){
  50:sensors.c     ****     //    value |= DISTSENS_L90;
  51:sensors.c     **** 	//}
  52:sensors.c     **** 	if( 0u == IRL_L60_Read() ){
 102              		.loc 1 52 0
 103 0002 FFF7FEFF 		bl	IRL_L60_Read
 104              	.LVL7:
 105 0006 08B1     		cbz	r0, .L16
  47:sensors.c     **** 	uint8_t value = 0b00000000;
 106              		.loc 1 47 0
 107 0008 0024     		movs	r4, #0
 108 000a 00E0     		b	.L11
 109              	.L16:
  53:sensors.c     **** 		value |= DISTSENS_L60;
 110              		.loc 1 53 0
 111 000c 4024     		movs	r4, #64
 112              	.L11:
 113              	.LVL8:
  54:sensors.c     **** 	}
  55:sensors.c     **** 	if( 0u == IRL_L30_Read() ){
 114              		.loc 1 55 0
 115 000e FFF7FEFF 		bl	IRL_L30_Read
ARM GAS  C:\Users\ARMAND~1\AppData\Local\Temp\cc9xSBEa.s 			page 4


 116              	.LVL9:
 117 0012 08B9     		cbnz	r0, .L12
  56:sensors.c     **** 		value |= DISTSENS_L30;
 118              		.loc 1 56 0
 119 0014 44F02004 		orr	r4, r4, #32
 120              	.LVL10:
 121              	.L12:
  57:sensors.c     **** 	}
  58:sensors.c     **** 	if( 0u == IRL_R0_Read() ){
 122              		.loc 1 58 0
 123 0018 FFF7FEFF 		bl	IRL_R0_Read
 124              	.LVL11:
 125 001c 08B9     		cbnz	r0, .L13
  59:sensors.c     **** 		value |= DISTSENS_R00;
 126              		.loc 1 59 0
 127 001e 44F00804 		orr	r4, r4, #8
 128              	.LVL12:
 129              	.L13:
  60:sensors.c     **** 	}
  61:sensors.c     **** 	if( 0u == IRL_R30_Read() ){
 130              		.loc 1 61 0
 131 0022 FFF7FEFF 		bl	IRL_R30_Read
 132              	.LVL13:
 133 0026 08B9     		cbnz	r0, .L14
  62:sensors.c     **** 		value |= DISTSENS_R30;
 134              		.loc 1 62 0
 135 0028 44F00404 		orr	r4, r4, #4
 136              	.LVL14:
 137              	.L14:
  63:sensors.c     **** 	}
  64:sensors.c     **** 	if( 0u == IRL_R60_Read() ){
 138              		.loc 1 64 0
 139 002c FFF7FEFF 		bl	IRL_R60_Read
 140              	.LVL15:
 141 0030 08B9     		cbnz	r0, .L15
  65:sensors.c     **** 		value |= DISTSENS_R60;
 142              		.loc 1 65 0
 143 0032 44F00204 		orr	r4, r4, #2
 144              	.LVL16:
 145              	.L15:
  66:sensors.c     **** 	}
  67:sensors.c     **** 	//if( 0u == IRL_R90_Read() ){
  68:sensors.c     **** 	//	value |= DISTSENS_R90;
  69:sensors.c     **** 	//}
  70:sensors.c     **** 	return value;
  71:sensors.c     **** }
 146              		.loc 1 71 0
 147 0036 2046     		mov	r0, r4
 148 0038 10BD     		pop	{r4, pc}
 149              		.cfi_endproc
 150              	.LFE65:
 151              		.size	DistSensRead, .-DistSensRead
 152 003a 00BF     		.section	.text.ResetDistSensors,"ax",%progbits
 153              		.align	2
 154              		.global	ResetDistSensors
 155              		.thumb
 156              		.thumb_func
ARM GAS  C:\Users\ARMAND~1\AppData\Local\Temp\cc9xSBEa.s 			page 5


 157              		.type	ResetDistSensors, %function
 158              	ResetDistSensors:
 159              	.LFB66:
  72:sensors.c     **** 
  73:sensors.c     **** void ResetDistSensors(void) {
 160              		.loc 1 73 0
 161              		.cfi_startproc
 162              		@ args = 0, pretend = 0, frame = 0
 163              		@ frame_needed = 0, uses_anonymous_args = 0
 164 0000 08B5     		push	{r3, lr}
 165              		.cfi_def_cfa_offset 8
 166              		.cfi_offset 3, -8
 167              		.cfi_offset 14, -4
  74:sensors.c     ****     Sensor_Reset_Write(0xFF);  
 168              		.loc 1 74 0
 169 0002 FF20     		movs	r0, #255
 170 0004 FFF7FEFF 		bl	Sensor_Reset_Write
 171              	.LVL17:
  75:sensors.c     ****     CyDelay(1);
 172              		.loc 1 75 0
 173 0008 0120     		movs	r0, #1
 174 000a FFF7FEFF 		bl	CyDelay
 175              	.LVL18:
  76:sensors.c     ****     Sensor_Reset_Write(0);
 176              		.loc 1 76 0
 177 000e 0020     		movs	r0, #0
 178 0010 FFF7FEFF 		bl	Sensor_Reset_Write
 179              	.LVL19:
 180 0014 08BD     		pop	{r3, pc}
 181              		.cfi_endproc
 182              	.LFE66:
 183              		.size	ResetDistSensors, .-ResetDistSensors
 184 0016 00BF     		.section	.text.CalcAvrgAngle,"ax",%progbits
 185              		.align	2
 186              		.global	CalcAvrgAngle
 187              		.thumb
 188              		.thumb_func
 189              		.type	CalcAvrgAngle, %function
 190              	CalcAvrgAngle:
 191              	.LFB67:
  77:sensors.c     **** }
  78:sensors.c     **** 
  79:sensors.c     **** int8_t CalcAvrgAngle(){ 
 192              		.loc 1 79 0
 193              		.cfi_startproc
 194              		@ args = 0, pretend = 0, frame = 0
 195              		@ frame_needed = 0, uses_anonymous_args = 0
 196 0000 70B5     		push	{r4, r5, r6, lr}
 197              		.cfi_def_cfa_offset 16
 198              		.cfi_offset 4, -16
 199              		.cfi_offset 5, -12
 200              		.cfi_offset 6, -8
 201              		.cfi_offset 14, -4
  80:sensors.c     ****     uint8_t distSens = DistSensRead(); //Distance_sensor_value_Read(); //
 202              		.loc 1 80 0
 203 0002 FFF7FEFF 		bl	DistSensRead
 204              	.LVL20:
ARM GAS  C:\Users\ARMAND~1\AppData\Local\Temp\cc9xSBEa.s 			page 6


 205 0006 0646     		mov	r6, r0
 206              	.LVL21:
  81:sensors.c     ****     //Sensor_Reset_Write(0xFF);
  82:sensors.c     **** 	int16_t angle = 0;
  83:sensors.c     **** 	uint8_t see_sensor_cnt = 0;
  84:sensors.c     **** 
  85:sensors.c     **** 	if( Rd_bits(distSens, DISTSENS_L00) ){		// L01
 207              		.loc 1 85 0
 208 0008 10F0100F 		tst	r0, #16
 209 000c 02D1     		bne	.L27
  83:sensors.c     **** 
 210              		.loc 1 83 0
 211 000e 0025     		movs	r5, #0
  82:sensors.c     **** 	uint8_t see_sensor_cnt = 0;
 212              		.loc 1 82 0
 213 0010 2C46     		mov	r4, r5
 214 0012 02E0     		b	.L21
 215              	.L27:
  86:sensors.c     **** 		angle = angle - 5;
  87:sensors.c     **** 		see_sensor_cnt++;
 216              		.loc 1 87 0
 217 0014 0125     		movs	r5, #1
  86:sensors.c     **** 		angle = angle - 5;
 218              		.loc 1 86 0
 219 0016 6FF00404 		mvn	r4, #4
 220              	.L21:
 221              	.LVL22:
  88:sensors.c     **** 	}
  89:sensors.c     **** 	if( Rd_bits(distSens, DISTSENS_L30) ){		// L30
 222              		.loc 1 89 0
 223 001a 16F0200F 		tst	r6, #32
 224 001e 04D0     		beq	.L22
  90:sensors.c     **** 		angle = angle - 30;
 225              		.loc 1 90 0
 226 0020 A4F11E00 		sub	r0, r4, #30
 227              	.LVL23:
 228 0024 04B2     		sxth	r4, r0
 229              	.LVL24:
  91:sensors.c     **** 		see_sensor_cnt++;
 230              		.loc 1 91 0
 231 0026 681C     		adds	r0, r5, #1
 232 0028 C5B2     		uxtb	r5, r0
 233              	.LVL25:
 234              	.L22:
  92:sensors.c     **** 	}
  93:sensors.c     **** 	if( Rd_bits(distSens, DISTSENS_L60) ){		// L45
 235              		.loc 1 93 0
 236 002a 16F0400F 		tst	r6, #64
 237 002e 07D0     		beq	.L23
  94:sensors.c     ****         if( 0u == IRL_L60_Read() ){
 238              		.loc 1 94 0
 239 0030 FFF7FEFF 		bl	IRL_L60_Read
 240              	.LVL26:
 241 0034 20B9     		cbnz	r0, .L23
  95:sensors.c     ****     		angle = angle - 60;
 242              		.loc 1 95 0
 243 0036 A4F13C00 		sub	r0, r4, #60
ARM GAS  C:\Users\ARMAND~1\AppData\Local\Temp\cc9xSBEa.s 			page 7


 244 003a 04B2     		sxth	r4, r0
 245              	.LVL27:
  96:sensors.c     ****     		see_sensor_cnt++;
 246              		.loc 1 96 0
 247 003c 681C     		adds	r0, r5, #1
 248 003e C5B2     		uxtb	r5, r0
 249              	.LVL28:
 250              	.L23:
  97:sensors.c     ****         }
  98:sensors.c     **** 	}
  99:sensors.c     **** 	//if( Rd_bits(distSens, DISTSENS_L90) ){		// L90
 100:sensors.c     **** 	//	angle = angle - 90;
 101:sensors.c     **** 	//	see_sensor_cnt++;
 102:sensors.c     **** 	//}
 103:sensors.c     **** 	//if( Rd_bits(distSens, DISTSENS_R90) ){		// R90
 104:sensors.c     **** 	//	angle = angle + 90;
 105:sensors.c     **** 	//	see_sensor_cnt++;
 106:sensors.c     **** 	//}
 107:sensors.c     **** 	if( Rd_bits(distSens, DISTSENS_R60) ){		// R45
 251              		.loc 1 107 0
 252 0040 16F0020F 		tst	r6, #2
 253 0044 04D0     		beq	.L24
 108:sensors.c     **** 		angle = angle + 60;
 254              		.loc 1 108 0
 255 0046 04F13C00 		add	r0, r4, #60
 256 004a 04B2     		sxth	r4, r0
 257              	.LVL29:
 109:sensors.c     **** 		see_sensor_cnt++;
 258              		.loc 1 109 0
 259 004c 681C     		adds	r0, r5, #1
 260 004e C5B2     		uxtb	r5, r0
 261              	.LVL30:
 262              	.L24:
 110:sensors.c     **** 	}
 111:sensors.c     **** 	if( Rd_bits(distSens, DISTSENS_R30) ){		// R30
 263              		.loc 1 111 0
 264 0050 16F0040F 		tst	r6, #4
 265 0054 04D0     		beq	.L25
 112:sensors.c     **** 		angle = angle + 30;
 266              		.loc 1 112 0
 267 0056 04F11E00 		add	r0, r4, #30
 268 005a 04B2     		sxth	r4, r0
 269              	.LVL31:
 113:sensors.c     **** 		see_sensor_cnt++;
 270              		.loc 1 113 0
 271 005c 681C     		adds	r0, r5, #1
 272 005e C5B2     		uxtb	r5, r0
 273              	.LVL32:
 274              	.L25:
 114:sensors.c     **** 	}
 115:sensors.c     **** 	if( Rd_bits(distSens, DISTSENS_R00) ){		// R01
 275              		.loc 1 115 0
 276 0060 16F0080F 		tst	r6, #8
 277 0064 03D0     		beq	.L26
 116:sensors.c     **** 		angle = angle + 5;
 278              		.loc 1 116 0
 279 0066 601D     		adds	r0, r4, #5
ARM GAS  C:\Users\ARMAND~1\AppData\Local\Temp\cc9xSBEa.s 			page 8


 280 0068 04B2     		sxth	r4, r0
 281              	.LVL33:
 117:sensors.c     **** 		see_sensor_cnt++;
 282              		.loc 1 117 0
 283 006a 681C     		adds	r0, r5, #1
 284 006c C5B2     		uxtb	r5, r0
 285              	.LVL34:
 286              	.L26:
 118:sensors.c     **** 	}
 119:sensors.c     ****     //Sensor_Reset_Write(0);
 120:sensors.c     **** 	return (int8_t)(angle / see_sensor_cnt);
 287              		.loc 1 120 0
 288 006e 94FBF5F0 		sdiv	r0, r4, r5
 121:sensors.c     **** }
 289              		.loc 1 121 0
 290 0072 40B2     		sxtb	r0, r0
 291 0074 70BD     		pop	{r4, r5, r6, pc}
 292              		.cfi_endproc
 293              	.LFE67:
 294              		.size	CalcAvrgAngle, .-CalcAvrgAngle
 295 0076 00BF     		.section	.text.LineSensRead,"ax",%progbits
 296              		.align	2
 297              		.global	LineSensRead
 298              		.thumb
 299              		.thumb_func
 300              		.type	LineSensRead, %function
 301              	LineSensRead:
 302              	.LFB68:
 122:sensors.c     **** 
 123:sensors.c     **** uint8_t LineSensRead(void) {
 303              		.loc 1 123 0
 304              		.cfi_startproc
 305              		@ args = 0, pretend = 0, frame = 0
 306              		@ frame_needed = 0, uses_anonymous_args = 0
 307 0000 10B5     		push	{r4, lr}
 308              		.cfi_def_cfa_offset 8
 309              		.cfi_offset 4, -8
 310              		.cfi_offset 14, -4
 311              	.LVL35:
 124:sensors.c     **** 	uint8_t value = 0b00000000;
 125:sensors.c     ****     gLine.FTH_val = 150;
 312              		.loc 1 125 0
 313 0002 9622     		movs	r2, #150
 314 0004 124B     		ldr	r3, .L35
 315 0006 5A61     		str	r2, [r3, #20]
 126:sensors.c     ****     if (ADC_SAR_IsEndConversion(ADC_SAR_RETURN_STATUS) > 0)
 316              		.loc 1 126 0
 317 0008 0120     		movs	r0, #1
 318 000a FFF7FEFF 		bl	ADC_SAR_IsEndConversion
 319              	.LVL36:
 320 000e E8B1     		cbz	r0, .L32
 127:sensors.c     ****     {
 128:sensors.c     ****        
 129:sensors.c     ****         //gLine.FL1_val = ADC_SAR_GetResult16(0);
 130:sensors.c     ****         gLine.FL2_val = ADC_SAR_GetResult16(1);
 321              		.loc 1 130 0
 322 0010 0120     		movs	r0, #1
ARM GAS  C:\Users\ARMAND~1\AppData\Local\Temp\cc9xSBEa.s 			page 9


 323 0012 FFF7FEFF 		bl	ADC_SAR_GetResult16
 324              	.LVL37:
 325 0016 0E4C     		ldr	r4, .L35
 326 0018 6060     		str	r0, [r4, #4]
 131:sensors.c     ****       
 132:sensors.c     ****         //gLine.FR1_val = ADC_SAR_GetResult16(4);
 133:sensors.c     ****         gLine.FR2_val = ADC_SAR_GetResult16(3);
 327              		.loc 1 133 0
 328 001a 0320     		movs	r0, #3
 329 001c FFF7FEFF 		bl	ADC_SAR_GetResult16
 330              	.LVL38:
 331 0020 0246     		mov	r2, r0
 332 0022 E060     		str	r0, [r4, #12]
 134:sensors.c     ****     
 135:sensors.c     ****          //int16 lineBack = ADC_SAR_GetResult16(6);
 136:sensors.c     ****         
 137:sensors.c     ****         //int16 lineUP1 = ADC_SAR_GetResult16(2);
 138:sensors.c     ****         //int16 lineUP2 = ADC_SAR_GetResult16(5);
 139:sensors.c     **** 
 140:sensors.c     ****         //if (lineFL1 < LINE_DETECT) {
 141:sensors.c     ****             //value |= LINESENS_FL1;
 142:sensors.c     ****         //}
 143:sensors.c     ****         //if (lineFL2 < LINE_DETECT) {
 144:sensors.c     ****             //value |= LINESENS_FL2;
 145:sensors.c     ****         //}
 146:sensors.c     ****         //if (lineFR1 < LINE_DETECT) {
 147:sensors.c     ****             //value |= LINESENS_FR1;
 148:sensors.c     ****         //}
 149:sensors.c     ****         //if (lineFR2 < LINE_DETECT) {
 150:sensors.c     ****             //value |= LINESENS_FR2;
 151:sensors.c     ****         //}
 152:sensors.c     ****         //if (lineBack < LINE_DETECT) {
 153:sensors.c     ****         //    //value |= LINESENS_B;
 154:sensors.c     ****         
 155:sensors.c     ****         
 156:sensors.c     ****     gLine.F_LEFT = 0;
 333              		.loc 1 156 0
 334 0024 0023     		movs	r3, #0
 335 0026 A361     		str	r3, [r4, #24]
 157:sensors.c     **** 	//if(gLine.FL1_val<gLine.FTH_val){gLine.F_LEFT|=0x01; value = 1;}
 158:sensors.c     **** 	if(gLine.FL2_val<gLine.FTH_val){gLine.F_LEFT|=0x02; value = 1;}
 336              		.loc 1 158 0
 337 0028 6168     		ldr	r1, [r4, #4]
 338 002a 6369     		ldr	r3, [r4, #20]
 339 002c 9942     		cmp	r1, r3
 340 002e 03DA     		bge	.L33
 341              		.loc 1 158 0 is_stmt 0 discriminator 1
 342 0030 0220     		movs	r0, #2
 343 0032 A061     		str	r0, [r4, #24]
 344              	.LVL39:
 345 0034 0120     		movs	r0, #1
 346 0036 00E0     		b	.L31
 347              	.LVL40:
 348              	.L33:
 124:sensors.c     ****     gLine.FTH_val = 150;
 349              		.loc 1 124 0 is_stmt 1
 350 0038 0020     		movs	r0, #0
ARM GAS  C:\Users\ARMAND~1\AppData\Local\Temp\cc9xSBEa.s 			page 10


 351              	.LVL41:
 352              	.L31:
 159:sensors.c     ****     
 160:sensors.c     ****     gLine.F_RIGHT = 0;
 353              		.loc 1 160 0
 354 003a 0024     		movs	r4, #0
 355 003c 0449     		ldr	r1, .L35
 356 003e CC61     		str	r4, [r1, #28]
 161:sensors.c     **** 	//if(gLine.FR1_val<gLine.FTH_val){gLine.F_RIGHT|=0x01; value = 1;}
 162:sensors.c     **** 	if(gLine.FR2_val<gLine.FTH_val){gLine.F_RIGHT|=0x02; value = 1;}
 357              		.loc 1 162 0
 358 0040 9A42     		cmp	r2, r3
 359 0042 04DA     		bge	.L30
 360              		.loc 1 162 0 is_stmt 0 discriminator 1
 361 0044 0222     		movs	r2, #2
 362 0046 CA61     		str	r2, [r1, #28]
 363              	.LVL42:
 364 0048 0120     		movs	r0, #1
 365 004a 10BD     		pop	{r4, pc}
 366              	.LVL43:
 367              	.L32:
 124:sensors.c     ****     gLine.FTH_val = 150;
 368              		.loc 1 124 0 is_stmt 1
 369 004c 0020     		movs	r0, #0
 370              	.LVL44:
 371              	.L30:
 163:sensors.c     ****         
 164:sensors.c     ****     
 165:sensors.c     ****     //gLine.REAR = 0;
 166:sensors.c     **** 	
 167:sensors.c     ****    //     if(gLine.RL_val<gLine.RTH_val){gLine.REAR|=0x01;}
 168:sensors.c     ****    // }
 169:sensors.c     ****     }
 170:sensors.c     **** 	return value;
 171:sensors.c     **** }
 372              		.loc 1 171 0
 373 004e 10BD     		pop	{r4, pc}
 374              	.L36:
 375              		.align	2
 376              	.L35:
 377 0050 00000000 		.word	gLine
 378              		.cfi_endproc
 379              	.LFE68:
 380              		.size	LineSensRead, .-LineSensRead
 381              		.section	.text.opponentUp,"ax",%progbits
 382              		.align	2
 383              		.global	opponentUp
 384              		.thumb
 385              		.thumb_func
 386              		.type	opponentUp, %function
 387              	opponentUp:
 388              	.LFB69:
 172:sensors.c     **** 
 173:sensors.c     **** int opponentUp(void){
 389              		.loc 1 173 0
 390              		.cfi_startproc
 391              		@ args = 0, pretend = 0, frame = 0
ARM GAS  C:\Users\ARMAND~1\AppData\Local\Temp\cc9xSBEa.s 			page 11


 392              		@ frame_needed = 0, uses_anonymous_args = 0
 393 0000 10B5     		push	{r4, lr}
 394              		.cfi_def_cfa_offset 8
 395              		.cfi_offset 4, -8
 396              		.cfi_offset 14, -4
 174:sensors.c     ****     int16 up1 = ADC_SAR_GetResult16(2);
 397              		.loc 1 174 0
 398 0002 0220     		movs	r0, #2
 399 0004 FFF7FEFF 		bl	ADC_SAR_GetResult16
 400              	.LVL45:
 401 0008 0446     		mov	r4, r0
 402              	.LVL46:
 175:sensors.c     ****     int16 up2 = ADC_SAR_GetResult16(5);
 403              		.loc 1 175 0
 404 000a 0520     		movs	r0, #5
 405 000c FFF7FEFF 		bl	ADC_SAR_GetResult16
 406              	.LVL47:
 176:sensors.c     ****     if (up1 < 850) {return 1;}
 407              		.loc 1 176 0
 408 0010 40F25133 		movw	r3, #849
 409 0014 9C42     		cmp	r4, r3
 410 0016 05DD     		ble	.L39
 177:sensors.c     ****     else if (up2 > 850) {return 1;}
 411              		.loc 1 177 0
 412 0018 40F25233 		movw	r3, #850
 413 001c 9842     		cmp	r0, r3
 414 001e 03DD     		ble	.L40
 415 0020 0120     		movs	r0, #1
 416              	.LVL48:
 417 0022 10BD     		pop	{r4, pc}
 418              	.LVL49:
 419              	.L39:
 176:sensors.c     ****     if (up1 < 850) {return 1;}
 420              		.loc 1 176 0
 421 0024 0120     		movs	r0, #1
 422              	.LVL50:
 423 0026 10BD     		pop	{r4, pc}
 424              	.LVL51:
 425              	.L40:
 178:sensors.c     ****     else {return 0;}
 426              		.loc 1 178 0
 427 0028 0020     		movs	r0, #0
 428              	.LVL52:
 179:sensors.c     **** }
 429              		.loc 1 179 0
 430 002a 10BD     		pop	{r4, pc}
 431              		.cfi_endproc
 432              	.LFE69:
 433              		.size	opponentUp, .-opponentUp
 434              		.comm	gSettings,8,4
 435              		.comm	gLine,96,4
 436              		.section	.rodata.str1.4,"aMS",%progbits,1
 437              		.align	2
 438              	.LC0:
 439 0000 4552524F 		.ascii	"ERROR\000"
 439      5200
 440              		.text
ARM GAS  C:\Users\ARMAND~1\AppData\Local\Temp\cc9xSBEa.s 			page 12


 441              	.Letext0:
 442              		.file 2 "c:\\program files (x86)\\cypress\\psoc creator\\4.1\\psoc creator\\import\\gnu\\arm\\5.4.
 443              		.file 3 "c:\\program files (x86)\\cypress\\psoc creator\\4.1\\psoc creator\\import\\gnu\\arm\\5.4.
 444              		.file 4 "Generated_Source\\PSoC5/cytypes.h"
 445              		.file 5 "sensors.h"
 446              		.file 6 "settings.h"
 447              		.file 7 "Generated_Source\\PSoC5/core_cm3.h"
 448              		.file 8 "Generated_Source\\PSoC5/IR_START.h"
 449              		.file 9 "menu.h"
 450              		.file 10 "Generated_Source\\PSoC5/CyLib.h"
 451              		.file 11 "flag_servo.h"
 452              		.file 12 "Generated_Source\\PSoC5/IRL_L60.h"
 453              		.file 13 "Generated_Source\\PSoC5/IRL_L30.h"
 454              		.file 14 "Generated_Source\\PSoC5/IRL_R0.h"
 455              		.file 15 "Generated_Source\\PSoC5/IRL_R30.h"
 456              		.file 16 "Generated_Source\\PSoC5/IRL_R60.h"
 457              		.file 17 "Generated_Source\\PSoC5/Sensor_Reset.h"
 458              		.file 18 "Generated_Source\\PSoC5/ADC_SAR.h"
