ARM GAS  C:\Users\MANSRO~1\AppData\Local\Temp\ccG15aH5.s 			page 1


   1              		.syntax unified
   2              		.cpu cortex-m3
   3              		.fpu softvfp
   4              		.eabi_attribute 20, 1
   5              		.eabi_attribute 21, 1
   6              		.eabi_attribute 23, 3
   7              		.eabi_attribute 24, 1
   8              		.eabi_attribute 25, 1
   9              		.eabi_attribute 26, 1
  10              		.eabi_attribute 30, 1
  11              		.eabi_attribute 34, 1
  12              		.eabi_attribute 18, 4
  13              		.thumb
  14              		.syntax unified
  15              		.file	"sensor_test.c"
  16              		.text
  17              	.Ltext0:
  18              		.cfi_sections	.debug_frame
  19              		.section	.text.opponentSensors,"ax",%progbits
  20              		.align	2
  21              		.global	opponentSensors
  22              		.thumb
  23              		.thumb_func
  24              		.type	opponentSensors, %function
  25              	opponentSensors:
  26              	.LFB65:
  27              		.file 1 "sensor_test.c"
   1:sensor_test.c **** /* ========================================
   2:sensor_test.c ****  *
   3:sensor_test.c ****  * Copyright YOUR COMPANY, THE YEAR
   4:sensor_test.c ****  * All Rights Reserved
   5:sensor_test.c ****  * UNPUBLISHED, LICENSED SOFTWARE.
   6:sensor_test.c ****  *
   7:sensor_test.c ****  * CONFIDENTIAL AND PROPRIETARY INFORMATION
   8:sensor_test.c ****  * WHICH IS THE PROPERTY OF your company.
   9:sensor_test.c ****  *
  10:sensor_test.c ****  * ========================================
  11:sensor_test.c **** */
  12:sensor_test.c **** #include "sensor_test.h"
  13:sensor_test.c **** #include "project.h"
  14:sensor_test.c **** #include "stdio.h"
  15:sensor_test.c **** #include "stdlib.h"
  16:sensor_test.c **** #include "ssd1306.h"
  17:sensor_test.c **** #include "menu.h"
  18:sensor_test.c **** 
  19:sensor_test.c **** #define Rd_bits(value, mask)        ((value)&(mask))
  20:sensor_test.c **** 
  21:sensor_test.c **** 
  22:sensor_test.c **** const char sensorsMenu_title[] = "_";
  23:sensor_test.c **** // Menu Page1
  24:sensor_test.c **** const char sensorsMenu_1[] = "1.Oppon Sensors";
  25:sensor_test.c **** const char sensorsMenu_2[] = "2.Line Sensors";
  26:sensor_test.c **** const char sensorsMenu_3[] = "3.Encoders";
  27:sensor_test.c **** const char sensorsMenu_4[] = "3.Up Sensors";
  28:sensor_test.c **** // Menu Page2
  29:sensor_test.c **** const char sensorsMenu_5[] = "4.EXIT";
  30:sensor_test.c **** 
ARM GAS  C:\Users\MANSRO~1\AppData\Local\Temp\ccG15aH5.s 			page 2


  31:sensor_test.c **** const char* sensorsMenu_strings[] = {sensorsMenu_1, sensorsMenu_2, sensorsMenu_3,
  32:sensor_test.c **** 	sensorsMenu_4, sensorsMenu_5};
  33:sensor_test.c **** 
  34:sensor_test.c **** 
  35:sensor_test.c **** 
  36:sensor_test.c **** void SensorMenu(){
  37:sensor_test.c ****     Menu SensorsMenu = {sensorsMenu_title, sensorsMenu_strings, 5, 0, 0};
  38:sensor_test.c ****     while( 1 ){
  39:sensor_test.c **** 		// (Re)Initialize menu system and wait for menu item selection.
  40:sensor_test.c **** 		int menuStatus = ShowMenu(&SensorsMenu);
  41:sensor_test.c **** 
  42:sensor_test.c **** 		switch( menuStatus ){
  43:sensor_test.c **** 			case 0:  
  44:sensor_test.c **** 				opponentSensors();         
  45:sensor_test.c **** 				break;
  46:sensor_test.c **** 			case 1:  
  47:sensor_test.c **** 				lineSensors();
  48:sensor_test.c **** 				break;
  49:sensor_test.c **** 			case 2:  // 3.encoders
  50:sensor_test.c **** 				
  51:sensor_test.c **** 				break;
  52:sensor_test.c **** 			case 3:
  53:sensor_test.c ****                 UpSensors();
  54:sensor_test.c ****                 break;
  55:sensor_test.c ****             case 4:
  56:sensor_test.c **** 			default:
  57:sensor_test.c **** 				// Return to the main menu
  58:sensor_test.c **** 				return;
  59:sensor_test.c **** 		}
  60:sensor_test.c **** 	}
  61:sensor_test.c **** }
  62:sensor_test.c **** 
  63:sensor_test.c **** 
  64:sensor_test.c **** 
  65:sensor_test.c **** void opponentSensors(void){
  28              		.loc 1 65 0
  29              		.cfi_startproc
  30              		@ args = 0, pretend = 0, frame = 0
  31              		@ frame_needed = 0, uses_anonymous_args = 0
  32 0000 10B5     		push	{r4, lr}
  33              		.cfi_def_cfa_offset 8
  34              		.cfi_offset 4, -8
  35              		.cfi_offset 14, -4
  36 0002 82B0     		sub	sp, sp, #8
  37              		.cfi_def_cfa_offset 16
  38              	.LVL0:
  66:sensor_test.c ****     char squareSize = 6;
  67:sensor_test.c ****     char fillSquareSize = squareSize - 2;
  68:sensor_test.c ****    
  69:sensor_test.c ****     display_clear();
  39              		.loc 1 69 0
  40 0004 FFF7FEFF 		bl	display_clear
  41              	.LVL1:
  70:sensor_test.c ****     
  71:sensor_test.c ****     gfx_drawRect(0,10,squareSize,squareSize,1); //left
  42              		.loc 1 71 0
  43 0008 0124     		movs	r4, #1
ARM GAS  C:\Users\MANSRO~1\AppData\Local\Temp\ccG15aH5.s 			page 3


  44 000a 0094     		str	r4, [sp]
  45 000c 0623     		movs	r3, #6
  46 000e 1A46     		mov	r2, r3
  47 0010 0A21     		movs	r1, #10
  48 0012 0020     		movs	r0, #0
  49 0014 FFF7FEFF 		bl	gfx_drawRect
  50              	.LVL2:
  72:sensor_test.c ****     gfx_drawRect(0,2,squareSize,squareSize,1);
  51              		.loc 1 72 0
  52 0018 0094     		str	r4, [sp]
  53 001a 0623     		movs	r3, #6
  54 001c 1A46     		mov	r2, r3
  55 001e 0221     		movs	r1, #2
  56 0020 0020     		movs	r0, #0
  57 0022 FFF7FEFF 		bl	gfx_drawRect
  58              	.LVL3:
  73:sensor_test.c ****     gfx_drawRect(30,0,squareSize,squareSize,1);
  59              		.loc 1 73 0
  60 0026 0094     		str	r4, [sp]
  61 0028 0623     		movs	r3, #6
  62 002a 1A46     		mov	r2, r3
  63 002c 0021     		movs	r1, #0
  64 002e 1E20     		movs	r0, #30
  65 0030 FFF7FEFF 		bl	gfx_drawRect
  66              	.LVL4:
  74:sensor_test.c ****     gfx_drawRect(45,1,squareSize,squareSize,1); //center
  67              		.loc 1 74 0
  68 0034 0094     		str	r4, [sp]
  69 0036 0623     		movs	r3, #6
  70 0038 1A46     		mov	r2, r3
  71 003a 2146     		mov	r1, r4
  72 003c 2D20     		movs	r0, #45
  73 003e FFF7FEFF 		bl	gfx_drawRect
  74              	.LVL5:
  75:sensor_test.c ****     gfx_drawRect(60,0,squareSize,squareSize,1);
  75              		.loc 1 75 0
  76 0042 0094     		str	r4, [sp]
  77 0044 0623     		movs	r3, #6
  78 0046 1A46     		mov	r2, r3
  79 0048 0021     		movs	r1, #0
  80 004a 3C20     		movs	r0, #60
  81 004c FFF7FEFF 		bl	gfx_drawRect
  82              	.LVL6:
  76:sensor_test.c ****     gfx_drawRect(95 - squareSize, 2,squareSize,squareSize,1);
  83              		.loc 1 76 0
  84 0050 0094     		str	r4, [sp]
  85 0052 0623     		movs	r3, #6
  86 0054 1A46     		mov	r2, r3
  87 0056 0221     		movs	r1, #2
  88 0058 5920     		movs	r0, #89
  89 005a FFF7FEFF 		bl	gfx_drawRect
  90              	.LVL7:
  77:sensor_test.c ****     gfx_drawRect(95 - squareSize, 10, squareSize, squareSize,1); //right    
  91              		.loc 1 77 0
  92 005e 0094     		str	r4, [sp]
  93 0060 0623     		movs	r3, #6
  94 0062 1A46     		mov	r2, r3
ARM GAS  C:\Users\MANSRO~1\AppData\Local\Temp\ccG15aH5.s 			page 4


  95 0064 0A21     		movs	r1, #10
  96 0066 5920     		movs	r0, #89
  97 0068 FFF7FEFF 		bl	gfx_drawRect
  98              	.LVL8:
  78:sensor_test.c ****     
  79:sensor_test.c ****     while (!GoBack()) {
  99              		.loc 1 79 0
 100 006c 65E0     		b	.L2
 101              	.L13:
  80:sensor_test.c ****         //if( 0u == IRL_L90_Read() ){
  81:sensor_test.c ****         //    gfx_fillRect(1,11,fillSquareSize,fillSquareSize,1);
  82:sensor_test.c **** 	    //}
  83:sensor_test.c ****         //else {
  84:sensor_test.c ****         //    gfx_fillRect(1,11,fillSquareSize,fillSquareSize,0);
  85:sensor_test.c ****         //}
  86:sensor_test.c ****         
  87:sensor_test.c ****     	if( 0u == IRL_L60_Read() ){
 102              		.loc 1 87 0
 103 006e FFF7FEFF 		bl	IRL_L60_Read
 104              	.LVL9:
 105 0072 38B9     		cbnz	r0, .L3
  88:sensor_test.c **** 	        gfx_fillRect(1,3,fillSquareSize,fillSquareSize,1);	
 106              		.loc 1 88 0
 107 0074 0120     		movs	r0, #1
 108 0076 0090     		str	r0, [sp]
 109 0078 0423     		movs	r3, #4
 110 007a 1A46     		mov	r2, r3
 111 007c 0321     		movs	r1, #3
 112 007e FFF7FEFF 		bl	gfx_fillRect
 113              	.LVL10:
 114 0082 07E0     		b	.L4
 115              	.L3:
  89:sensor_test.c **** 	    }
  90:sensor_test.c ****         else {
  91:sensor_test.c ****             gfx_fillRect(1,3,fillSquareSize,fillSquareSize,0);
 116              		.loc 1 91 0
 117 0084 0023     		movs	r3, #0
 118 0086 0093     		str	r3, [sp]
 119 0088 0423     		movs	r3, #4
 120 008a 1A46     		mov	r2, r3
 121 008c 0321     		movs	r1, #3
 122 008e 0120     		movs	r0, #1
 123 0090 FFF7FEFF 		bl	gfx_fillRect
 124              	.LVL11:
 125              	.L4:
  92:sensor_test.c ****         }
  93:sensor_test.c ****     	if( 0u == IRL_L30_Read() ){
 126              		.loc 1 93 0
 127 0094 FFF7FEFF 		bl	IRL_L30_Read
 128              	.LVL12:
 129 0098 38B9     		cbnz	r0, .L5
  94:sensor_test.c ****     		gfx_fillRect(31,1,fillSquareSize,fillSquareSize,1);
 130              		.loc 1 94 0
 131 009a 0121     		movs	r1, #1
 132 009c 0091     		str	r1, [sp]
 133 009e 0423     		movs	r3, #4
 134 00a0 1A46     		mov	r2, r3
ARM GAS  C:\Users\MANSRO~1\AppData\Local\Temp\ccG15aH5.s 			page 5


 135 00a2 1F20     		movs	r0, #31
 136 00a4 FFF7FEFF 		bl	gfx_fillRect
 137              	.LVL13:
 138 00a8 07E0     		b	.L6
 139              	.L5:
  95:sensor_test.c ****     	}
  96:sensor_test.c ****         else {
  97:sensor_test.c ****             gfx_fillRect(31,1,fillSquareSize,fillSquareSize,0);
 140              		.loc 1 97 0
 141 00aa 0023     		movs	r3, #0
 142 00ac 0093     		str	r3, [sp]
 143 00ae 0423     		movs	r3, #4
 144 00b0 1A46     		mov	r2, r3
 145 00b2 0121     		movs	r1, #1
 146 00b4 1F20     		movs	r0, #31
 147 00b6 FFF7FEFF 		bl	gfx_fillRect
 148              	.LVL14:
 149              	.L6:
  98:sensor_test.c ****         }
  99:sensor_test.c ****     	
 100:sensor_test.c ****     	if( 0u == IRL_R0_Read() ){
 150              		.loc 1 100 0
 151 00ba FFF7FEFF 		bl	IRL_R0_Read
 152              	.LVL15:
 153 00be 40B9     		cbnz	r0, .L7
 101:sensor_test.c ****     		gfx_fillRect(46,2,fillSquareSize,fillSquareSize,1);
 154              		.loc 1 101 0
 155 00c0 0123     		movs	r3, #1
 156 00c2 0093     		str	r3, [sp]
 157 00c4 0423     		movs	r3, #4
 158 00c6 1A46     		mov	r2, r3
 159 00c8 0221     		movs	r1, #2
 160 00ca 2E20     		movs	r0, #46
 161 00cc FFF7FEFF 		bl	gfx_fillRect
 162              	.LVL16:
 163 00d0 07E0     		b	.L8
 164              	.L7:
 102:sensor_test.c ****     	}
 103:sensor_test.c ****         else {
 104:sensor_test.c ****             gfx_fillRect(46,2,fillSquareSize,fillSquareSize,0);
 165              		.loc 1 104 0
 166 00d2 0023     		movs	r3, #0
 167 00d4 0093     		str	r3, [sp]
 168 00d6 0423     		movs	r3, #4
 169 00d8 1A46     		mov	r2, r3
 170 00da 0221     		movs	r1, #2
 171 00dc 2E20     		movs	r0, #46
 172 00de FFF7FEFF 		bl	gfx_fillRect
 173              	.LVL17:
 174              	.L8:
 105:sensor_test.c ****         }
 106:sensor_test.c ****     	if( 0u == IRL_R30_Read() ){
 175              		.loc 1 106 0
 176 00e2 FFF7FEFF 		bl	IRL_R30_Read
 177              	.LVL18:
 178 00e6 38B9     		cbnz	r0, .L9
 107:sensor_test.c ****     		gfx_fillRect(61,1,fillSquareSize,fillSquareSize,1);
ARM GAS  C:\Users\MANSRO~1\AppData\Local\Temp\ccG15aH5.s 			page 6


 179              		.loc 1 107 0
 180 00e8 0121     		movs	r1, #1
 181 00ea 0091     		str	r1, [sp]
 182 00ec 0423     		movs	r3, #4
 183 00ee 1A46     		mov	r2, r3
 184 00f0 3D20     		movs	r0, #61
 185 00f2 FFF7FEFF 		bl	gfx_fillRect
 186              	.LVL19:
 187 00f6 07E0     		b	.L10
 188              	.L9:
 108:sensor_test.c ****     	}
 109:sensor_test.c ****         else {
 110:sensor_test.c ****             gfx_fillRect(61,1,fillSquareSize,fillSquareSize,0);
 189              		.loc 1 110 0
 190 00f8 0023     		movs	r3, #0
 191 00fa 0093     		str	r3, [sp]
 192 00fc 0423     		movs	r3, #4
 193 00fe 1A46     		mov	r2, r3
 194 0100 0121     		movs	r1, #1
 195 0102 3D20     		movs	r0, #61
 196 0104 FFF7FEFF 		bl	gfx_fillRect
 197              	.LVL20:
 198              	.L10:
 111:sensor_test.c ****         }
 112:sensor_test.c ****     	if( 0u == IRL_R60_Read() ){
 199              		.loc 1 112 0
 200 0108 FFF7FEFF 		bl	IRL_R60_Read
 201              	.LVL21:
 202 010c 40B9     		cbnz	r0, .L11
 113:sensor_test.c ****     		gfx_fillRect(96 - squareSize,3,fillSquareSize,fillSquareSize,1);
 203              		.loc 1 113 0
 204 010e 0123     		movs	r3, #1
 205 0110 0093     		str	r3, [sp]
 206 0112 0423     		movs	r3, #4
 207 0114 1A46     		mov	r2, r3
 208 0116 0321     		movs	r1, #3
 209 0118 5A20     		movs	r0, #90
 210 011a FFF7FEFF 		bl	gfx_fillRect
 211              	.LVL22:
 212 011e 07E0     		b	.L12
 213              	.L11:
 114:sensor_test.c ****     	}
 115:sensor_test.c ****         else {
 116:sensor_test.c ****             gfx_fillRect(96 - squareSize,3,fillSquareSize,fillSquareSize,0);
 214              		.loc 1 116 0
 215 0120 0023     		movs	r3, #0
 216 0122 0093     		str	r3, [sp]
 217 0124 0423     		movs	r3, #4
 218 0126 1A46     		mov	r2, r3
 219 0128 0321     		movs	r1, #3
 220 012a 5A20     		movs	r0, #90
 221 012c FFF7FEFF 		bl	gfx_fillRect
 222              	.LVL23:
 223              	.L12:
 117:sensor_test.c ****         }
 118:sensor_test.c ****     	//if( 0u == IRL_R90_Read() ){
 119:sensor_test.c ****     	//	gfx_fillRect(96 - squareSize,11,fillSquareSize,fillSquareSize,1);
ARM GAS  C:\Users\MANSRO~1\AppData\Local\Temp\ccG15aH5.s 			page 7


 120:sensor_test.c ****     	//}
 121:sensor_test.c ****         //else {
 122:sensor_test.c ****         //    gfx_fillRect(96 - squareSize,11,fillSquareSize,fillSquareSize,0);
 123:sensor_test.c ****         //}
 124:sensor_test.c ****          display_update();
 224              		.loc 1 124 0
 225 0130 FFF7FEFF 		bl	display_update
 226              	.LVL24:
 125:sensor_test.c **** 
 126:sensor_test.c ****        CyDelay(100); 
 227              		.loc 1 126 0
 228 0134 6420     		movs	r0, #100
 229 0136 FFF7FEFF 		bl	CyDelay
 230              	.LVL25:
 231              	.L2:
  79:sensor_test.c ****         //if( 0u == IRL_L90_Read() ){
 232              		.loc 1 79 0
 233 013a FFF7FEFF 		bl	GoBack
 234              	.LVL26:
 235 013e 0028     		cmp	r0, #0
 236 0140 95D0     		beq	.L13
 127:sensor_test.c ****     }
 128:sensor_test.c **** }
 237              		.loc 1 128 0
 238 0142 02B0     		add	sp, sp, #8
 239              		.cfi_def_cfa_offset 8
 240              		@ sp needed
 241 0144 10BD     		pop	{r4, pc}
 242              		.cfi_endproc
 243              	.LFE65:
 244              		.size	opponentSensors, .-opponentSensors
 245 0146 00BF     		.section	.text.lineSensors,"ax",%progbits
 246              		.align	2
 247              		.global	lineSensors
 248              		.thumb
 249              		.thumb_func
 250              		.type	lineSensors, %function
 251              	lineSensors:
 252              	.LFB66:
 129:sensor_test.c **** 
 130:sensor_test.c **** 
 131:sensor_test.c **** 
 132:sensor_test.c **** void lineSensors(void){
 253              		.loc 1 132 0
 254              		.cfi_startproc
 255              		@ args = 0, pretend = 0, frame = 16
 256              		@ frame_needed = 0, uses_anonymous_args = 0
 257 0000 30B5     		push	{r4, r5, lr}
 258              		.cfi_def_cfa_offset 12
 259              		.cfi_offset 4, -12
 260              		.cfi_offset 5, -8
 261              		.cfi_offset 14, -4
 262 0002 85B0     		sub	sp, sp, #20
 263              		.cfi_def_cfa_offset 32
 133:sensor_test.c ****    
 134:sensor_test.c ****     display_clear(); 
 264              		.loc 1 134 0
ARM GAS  C:\Users\MANSRO~1\AppData\Local\Temp\ccG15aH5.s 			page 8


 265 0004 FFF7FEFF 		bl	display_clear
 266              	.LVL27:
 135:sensor_test.c ****     gfx_setTextSize(1);
 267              		.loc 1 135 0
 268 0008 0120     		movs	r0, #1
 269 000a FFF7FEFF 		bl	gfx_setTextSize
 270              	.LVL28:
 136:sensor_test.c ****     gfx_setTextColor(WHITE);
 271              		.loc 1 136 0
 272 000e 0120     		movs	r0, #1
 273 0010 FFF7FEFF 		bl	gfx_setTextColor
 274              	.LVL29:
 137:sensor_test.c ****     gfx_setTextBg(BLACK);
 275              		.loc 1 137 0
 276 0014 0020     		movs	r0, #0
 277 0016 FFF7FEFF 		bl	gfx_setTextBg
 278              	.LVL30:
 138:sensor_test.c ****         
 139:sensor_test.c ****     while (!GoBack()) {
 279              		.loc 1 139 0
 280 001a 25E0     		b	.L16
 281              	.L17:
 282              	.LBB2:
 140:sensor_test.c ****         //int16 lineFL1 = ADC_SAR_GetResult16(0);
 141:sensor_test.c ****         int16 lineFL2 = ADC_SAR_GetResult16(0);
 283              		.loc 1 141 0
 284 001c 0020     		movs	r0, #0
 285 001e FFF7FEFF 		bl	ADC_SAR_GetResult16
 286              	.LVL31:
 287 0022 0546     		mov	r5, r0
 288              	.LVL32:
 142:sensor_test.c ****         
 143:sensor_test.c ****         //int16 lineFR1 = ADC_SAR_GetResult16(4);
 144:sensor_test.c ****         int16 lineFR2 = ADC_SAR_GetResult16(3);
 289              		.loc 1 144 0
 290 0024 0320     		movs	r0, #3
 291 0026 FFF7FEFF 		bl	ADC_SAR_GetResult16
 292              	.LVL33:
 293 002a 0446     		mov	r4, r0
 294              	.LVL34:
 145:sensor_test.c ****         
 146:sensor_test.c ****         //int16 lineBack = ADC_SAR_GetResult16(6);
 147:sensor_test.c ****        // char text1[5];
 148:sensor_test.c ****         char text2[5];
 149:sensor_test.c ****         //char text3[5];
 150:sensor_test.c ****         char text4[5];
 151:sensor_test.c ****         //char text5[5];
 152:sensor_test.c **** 
 153:sensor_test.c ****         //itoa(lineFL1, text1, 10);
 154:sensor_test.c ****         itoa(lineFL2, text2, 10);
 295              		.loc 1 154 0
 296 002c 0A22     		movs	r2, #10
 297 002e 6946     		mov	r1, sp
 298 0030 2846     		mov	r0, r5
 299 0032 FFF7FEFF 		bl	itoa
 300              	.LVL35:
 155:sensor_test.c ****         //itoa(lineFR1, text3, 10);
ARM GAS  C:\Users\MANSRO~1\AppData\Local\Temp\ccG15aH5.s 			page 9


 156:sensor_test.c ****         itoa(lineFR2, text4, 10);
 301              		.loc 1 156 0
 302 0036 0A22     		movs	r2, #10
 303 0038 02A9     		add	r1, sp, #8
 304 003a 2046     		mov	r0, r4
 305 003c FFF7FEFF 		bl	itoa
 306              	.LVL36:
 157:sensor_test.c ****         //itoa(lineBack, text5, 10);
 158:sensor_test.c ****          
 159:sensor_test.c ****        // gfx_setCursor(50,0);
 160:sensor_test.c ****         //gfx_print(text3); 
 161:sensor_test.c ****         //gfx_setCursor(0,0);
 162:sensor_test.c ****         //gfx_print(text1);
 163:sensor_test.c ****         gfx_setCursor(0,8);
 307              		.loc 1 163 0
 308 0040 0821     		movs	r1, #8
 309 0042 0020     		movs	r0, #0
 310 0044 FFF7FEFF 		bl	gfx_setCursor
 311              	.LVL37:
 164:sensor_test.c ****         gfx_print(text2);
 312              		.loc 1 164 0
 313 0048 6846     		mov	r0, sp
 314 004a FFF7FEFF 		bl	gfx_print
 315              	.LVL38:
 165:sensor_test.c ****         gfx_setCursor(50,8);
 316              		.loc 1 165 0
 317 004e 0821     		movs	r1, #8
 318 0050 3220     		movs	r0, #50
 319 0052 FFF7FEFF 		bl	gfx_setCursor
 320              	.LVL39:
 166:sensor_test.c ****         gfx_print(text4);
 321              		.loc 1 166 0
 322 0056 02A8     		add	r0, sp, #8
 323 0058 FFF7FEFF 		bl	gfx_print
 324              	.LVL40:
 167:sensor_test.c ****         //gfx_setCursor(80,45);
 168:sensor_test.c ****         //gfx_print(text5);
 169:sensor_test.c **** 
 170:sensor_test.c ****         
 171:sensor_test.c ****         display_update();
 325              		.loc 1 171 0
 326 005c FFF7FEFF 		bl	display_update
 327              	.LVL41:
 172:sensor_test.c ****         CyDelay(500);
 328              		.loc 1 172 0
 329 0060 4FF4FA70 		mov	r0, #500
 330 0064 FFF7FEFF 		bl	CyDelay
 331              	.LVL42:
 332              	.L16:
 333              	.LBE2:
 139:sensor_test.c ****         //int16 lineFL1 = ADC_SAR_GetResult16(0);
 334              		.loc 1 139 0
 335 0068 FFF7FEFF 		bl	GoBack
 336              	.LVL43:
 337 006c 0028     		cmp	r0, #0
 338 006e D5D0     		beq	.L17
 173:sensor_test.c ****     }
ARM GAS  C:\Users\MANSRO~1\AppData\Local\Temp\ccG15aH5.s 			page 10


 174:sensor_test.c **** }
 339              		.loc 1 174 0
 340 0070 05B0     		add	sp, sp, #20
 341              		.cfi_def_cfa_offset 12
 342              		@ sp needed
 343 0072 30BD     		pop	{r4, r5, pc}
 344              		.cfi_endproc
 345              	.LFE66:
 346              		.size	lineSensors, .-lineSensors
 347              		.section	.text.UpSensors,"ax",%progbits
 348              		.align	2
 349              		.global	UpSensors
 350              		.thumb
 351              		.thumb_func
 352              		.type	UpSensors, %function
 353              	UpSensors:
 354              	.LFB67:
 175:sensor_test.c **** 
 176:sensor_test.c **** void UpSensors(void){
 355              		.loc 1 176 0
 356              		.cfi_startproc
 357              		@ args = 0, pretend = 0, frame = 16
 358              		@ frame_needed = 0, uses_anonymous_args = 0
 359 0000 30B5     		push	{r4, r5, lr}
 360              		.cfi_def_cfa_offset 12
 361              		.cfi_offset 4, -12
 362              		.cfi_offset 5, -8
 363              		.cfi_offset 14, -4
 364 0002 85B0     		sub	sp, sp, #20
 365              		.cfi_def_cfa_offset 32
 177:sensor_test.c ****    
 178:sensor_test.c ****     display_clear(); 
 366              		.loc 1 178 0
 367 0004 FFF7FEFF 		bl	display_clear
 368              	.LVL44:
 179:sensor_test.c ****     gfx_setTextSize(1);
 369              		.loc 1 179 0
 370 0008 0120     		movs	r0, #1
 371 000a FFF7FEFF 		bl	gfx_setTextSize
 372              	.LVL45:
 180:sensor_test.c ****     gfx_setTextColor(WHITE);
 373              		.loc 1 180 0
 374 000e 0120     		movs	r0, #1
 375 0010 FFF7FEFF 		bl	gfx_setTextColor
 376              	.LVL46:
 181:sensor_test.c ****     gfx_setTextBg(BLACK);
 377              		.loc 1 181 0
 378 0014 0020     		movs	r0, #0
 379 0016 FFF7FEFF 		bl	gfx_setTextBg
 380              	.LVL47:
 182:sensor_test.c ****         
 183:sensor_test.c ****     while (!GoBack()) {
 381              		.loc 1 183 0
 382 001a 25E0     		b	.L20
 383              	.L21:
 384              	.LBB3:
 184:sensor_test.c ****         int16 up1 = ADC_SAR_GetResult16(2);
ARM GAS  C:\Users\MANSRO~1\AppData\Local\Temp\ccG15aH5.s 			page 11


 385              		.loc 1 184 0
 386 001c 0220     		movs	r0, #2
 387 001e FFF7FEFF 		bl	ADC_SAR_GetResult16
 388              	.LVL48:
 389 0022 0546     		mov	r5, r0
 390              	.LVL49:
 185:sensor_test.c ****         int16 up2 = ADC_SAR_GetResult16(5);
 391              		.loc 1 185 0
 392 0024 0520     		movs	r0, #5
 393 0026 FFF7FEFF 		bl	ADC_SAR_GetResult16
 394              	.LVL50:
 395 002a 0446     		mov	r4, r0
 396              	.LVL51:
 186:sensor_test.c **** 
 187:sensor_test.c ****         char text1[5];
 188:sensor_test.c ****         char text2[5];
 189:sensor_test.c **** 
 190:sensor_test.c ****         itoa(up1, text1, 10);
 397              		.loc 1 190 0
 398 002c 0A22     		movs	r2, #10
 399 002e 6946     		mov	r1, sp
 400 0030 2846     		mov	r0, r5
 401 0032 FFF7FEFF 		bl	itoa
 402              	.LVL52:
 191:sensor_test.c ****         itoa(up2, text2, 10);
 403              		.loc 1 191 0
 404 0036 0A22     		movs	r2, #10
 405 0038 02A9     		add	r1, sp, #8
 406 003a 2046     		mov	r0, r4
 407 003c FFF7FEFF 		bl	itoa
 408              	.LVL53:
 192:sensor_test.c **** 
 193:sensor_test.c ****         gfx_setCursor(0,0);
 409              		.loc 1 193 0
 410 0040 0021     		movs	r1, #0
 411 0042 0846     		mov	r0, r1
 412 0044 FFF7FEFF 		bl	gfx_setCursor
 413              	.LVL54:
 194:sensor_test.c ****         gfx_print(text1);
 414              		.loc 1 194 0
 415 0048 6846     		mov	r0, sp
 416 004a FFF7FEFF 		bl	gfx_print
 417              	.LVL55:
 195:sensor_test.c ****         gfx_setCursor(0,8);
 418              		.loc 1 195 0
 419 004e 0821     		movs	r1, #8
 420 0050 0020     		movs	r0, #0
 421 0052 FFF7FEFF 		bl	gfx_setCursor
 422              	.LVL56:
 196:sensor_test.c ****         gfx_print(text2);
 423              		.loc 1 196 0
 424 0056 02A8     		add	r0, sp, #8
 425 0058 FFF7FEFF 		bl	gfx_print
 426              	.LVL57:
 197:sensor_test.c **** 
 198:sensor_test.c ****         display_update();
 427              		.loc 1 198 0
ARM GAS  C:\Users\MANSRO~1\AppData\Local\Temp\ccG15aH5.s 			page 12


 428 005c FFF7FEFF 		bl	display_update
 429              	.LVL58:
 199:sensor_test.c ****         CyDelay(500);
 430              		.loc 1 199 0
 431 0060 4FF4FA70 		mov	r0, #500
 432 0064 FFF7FEFF 		bl	CyDelay
 433              	.LVL59:
 434              	.L20:
 435              	.LBE3:
 183:sensor_test.c ****         int16 up1 = ADC_SAR_GetResult16(2);
 436              		.loc 1 183 0
 437 0068 FFF7FEFF 		bl	GoBack
 438              	.LVL60:
 439 006c 0028     		cmp	r0, #0
 440 006e D5D0     		beq	.L21
 200:sensor_test.c ****     }
 201:sensor_test.c **** }
 441              		.loc 1 201 0
 442 0070 05B0     		add	sp, sp, #20
 443              		.cfi_def_cfa_offset 12
 444              		@ sp needed
 445 0072 30BD     		pop	{r4, r5, pc}
 446              		.cfi_endproc
 447              	.LFE67:
 448              		.size	UpSensors, .-UpSensors
 449              		.section	.text.SensorMenu,"ax",%progbits
 450              		.align	2
 451              		.global	SensorMenu
 452              		.thumb
 453              		.thumb_func
 454              		.type	SensorMenu, %function
 455              	SensorMenu:
 456              	.LFB64:
  36:sensor_test.c ****     Menu SensorsMenu = {sensorsMenu_title, sensorsMenu_strings, 5, 0, 0};
 457              		.loc 1 36 0
 458              		.cfi_startproc
 459              		@ args = 0, pretend = 0, frame = 16
 460              		@ frame_needed = 0, uses_anonymous_args = 0
 461 0000 00B5     		push	{lr}
 462              		.cfi_def_cfa_offset 4
 463              		.cfi_offset 14, -4
 464 0002 85B0     		sub	sp, sp, #20
 465              		.cfi_def_cfa_offset 24
  37:sensor_test.c ****     while( 1 ){
 466              		.loc 1 37 0
 467 0004 104B     		ldr	r3, .L33
 468 0006 93E80700 		ldmia	r3, {r0, r1, r2}
 469 000a 04AB     		add	r3, sp, #16
 470 000c 03E90700 		stmdb	r3, {r0, r1, r2}
 471              	.L25:
 472              	.LBB4:
  40:sensor_test.c **** 
 473              		.loc 1 40 0
 474 0010 01A8     		add	r0, sp, #4
 475 0012 FFF7FEFF 		bl	ShowMenu
 476              	.LVL61:
  42:sensor_test.c **** 			case 0:  
ARM GAS  C:\Users\MANSRO~1\AppData\Local\Temp\ccG15aH5.s 			page 13


 477              		.loc 1 42 0
 478 0016 0328     		cmp	r0, #3
 479 0018 13D8     		bhi	.L23
 480 001a 01A3     		adr	r3, .L28
 481 001c 53F820F0 		ldr	pc, [r3, r0, lsl #2]
 482              		.p2align 2
 483              	.L28:
 484 0020 31000000 		.word	.L27+1
 485 0024 37000000 		.word	.L29+1
 486 0028 11000000 		.word	.L25+1
 487 002c 3D000000 		.word	.L30+1
 488              		.p2align 1
 489              	.L27:
  44:sensor_test.c **** 				break;
 490              		.loc 1 44 0
 491 0030 FFF7FEFF 		bl	opponentSensors
 492              	.LVL62:
  45:sensor_test.c **** 			case 1:  
 493              		.loc 1 45 0
 494 0034 ECE7     		b	.L25
 495              	.LVL63:
 496              	.L29:
  47:sensor_test.c **** 				break;
 497              		.loc 1 47 0
 498 0036 FFF7FEFF 		bl	lineSensors
 499              	.LVL64:
  48:sensor_test.c **** 			case 2:  // 3.encoders
 500              		.loc 1 48 0
 501 003a E9E7     		b	.L25
 502              	.LVL65:
 503              	.L30:
  53:sensor_test.c ****                 break;
 504              		.loc 1 53 0
 505 003c FFF7FEFF 		bl	UpSensors
 506              	.LVL66:
  54:sensor_test.c ****             case 4:
 507              		.loc 1 54 0
 508 0040 E6E7     		b	.L25
 509              	.LVL67:
 510              	.L23:
 511              	.LBE4:
  61:sensor_test.c **** 
 512              		.loc 1 61 0
 513 0042 05B0     		add	sp, sp, #20
 514              		@ sp needed
 515 0044 5DF804FB 		ldr	pc, [sp], #4
 516              	.L34:
 517              		.align	2
 518              	.L33:
 519 0048 00000000 		.word	.LANCHOR0
 520              		.cfi_endproc
 521              	.LFE64:
 522              		.size	SensorMenu, .-SensorMenu
 523              		.section	.text.test,"ax",%progbits
 524              		.align	2
 525              		.global	test
 526              		.thumb
ARM GAS  C:\Users\MANSRO~1\AppData\Local\Temp\ccG15aH5.s 			page 14


 527              		.thumb_func
 528              		.type	test, %function
 529              	test:
 530              	.LFB68:
 202:sensor_test.c **** 
 203:sensor_test.c **** void test(void){
 531              		.loc 1 203 0
 532              		.cfi_startproc
 533              		@ args = 0, pretend = 0, frame = 0
 534              		@ frame_needed = 0, uses_anonymous_args = 0
 535 0000 10B5     		push	{r4, lr}
 536              		.cfi_def_cfa_offset 8
 537              		.cfi_offset 4, -8
 538              		.cfi_offset 14, -4
 539 0002 82B0     		sub	sp, sp, #8
 540              		.cfi_def_cfa_offset 16
 541              	.LVL68:
 204:sensor_test.c ****     char squareSize = 8;
 205:sensor_test.c ****     char fillSquareSize = squareSize - 2;
 206:sensor_test.c ****    
 207:sensor_test.c ****     display_clear();
 542              		.loc 1 207 0
 543 0004 FFF7FEFF 		bl	display_clear
 544              	.LVL69:
 208:sensor_test.c ****     
 209:sensor_test.c ****     gfx_drawRect(0,23,squareSize,squareSize,1); //left
 545              		.loc 1 209 0
 546 0008 0124     		movs	r4, #1
 547 000a 0094     		str	r4, [sp]
 548 000c 0823     		movs	r3, #8
 549 000e 1A46     		mov	r2, r3
 550 0010 1721     		movs	r1, #23
 551 0012 0020     		movs	r0, #0
 552 0014 FFF7FEFF 		bl	gfx_drawRect
 553              	.LVL70:
 210:sensor_test.c ****     gfx_drawRect(0,5,squareSize,squareSize,1);
 554              		.loc 1 210 0
 555 0018 0094     		str	r4, [sp]
 556 001a 0823     		movs	r3, #8
 557 001c 1A46     		mov	r2, r3
 558 001e 0521     		movs	r1, #5
 559 0020 0020     		movs	r0, #0
 560 0022 FFF7FEFF 		bl	gfx_drawRect
 561              	.LVL71:
 211:sensor_test.c ****     gfx_drawRect(40,0,squareSize,squareSize,1);
 562              		.loc 1 211 0
 563 0026 0094     		str	r4, [sp]
 564 0028 0823     		movs	r3, #8
 565 002a 1A46     		mov	r2, r3
 566 002c 0021     		movs	r1, #0
 567 002e 2820     		movs	r0, #40
 568 0030 FFF7FEFF 		bl	gfx_drawRect
 569              	.LVL72:
 212:sensor_test.c ****     gfx_drawRect(60,3,squareSize,squareSize,1); //center
 570              		.loc 1 212 0
 571 0034 0094     		str	r4, [sp]
 572 0036 0823     		movs	r3, #8
ARM GAS  C:\Users\MANSRO~1\AppData\Local\Temp\ccG15aH5.s 			page 15


 573 0038 1A46     		mov	r2, r3
 574 003a 0321     		movs	r1, #3
 575 003c 3C20     		movs	r0, #60
 576 003e FFF7FEFF 		bl	gfx_drawRect
 577              	.LVL73:
 213:sensor_test.c ****     gfx_drawRect(80,0,squareSize,squareSize,1);
 578              		.loc 1 213 0
 579 0042 0094     		str	r4, [sp]
 580 0044 0823     		movs	r3, #8
 581 0046 1A46     		mov	r2, r3
 582 0048 0021     		movs	r1, #0
 583 004a 5020     		movs	r0, #80
 584 004c FFF7FEFF 		bl	gfx_drawRect
 585              	.LVL74:
 214:sensor_test.c ****     gfx_drawRect(127 - squareSize, 5,squareSize,squareSize,1);
 586              		.loc 1 214 0
 587 0050 0094     		str	r4, [sp]
 588 0052 0823     		movs	r3, #8
 589 0054 1A46     		mov	r2, r3
 590 0056 0521     		movs	r1, #5
 591 0058 7720     		movs	r0, #119
 592 005a FFF7FEFF 		bl	gfx_drawRect
 593              	.LVL75:
 215:sensor_test.c ****     gfx_drawRect(127 - squareSize, 23, squareSize, squareSize,1); //right    
 594              		.loc 1 215 0
 595 005e 0094     		str	r4, [sp]
 596 0060 0823     		movs	r3, #8
 597 0062 1A46     		mov	r2, r3
 598 0064 1721     		movs	r1, #23
 599 0066 7720     		movs	r0, #119
 600 0068 FFF7FEFF 		bl	gfx_drawRect
 601              	.LVL76:
 216:sensor_test.c ****     
 217:sensor_test.c ****         
 218:sensor_test.c ****         
 219:sensor_test.c ****     	if( 0u == poga_1_Read() ){
 602              		.loc 1 219 0
 603 006c FFF7FEFF 		bl	poga_1_Read
 604              	.LVL77:
 605 0070 38B9     		cbnz	r0, .L36
 220:sensor_test.c **** 	        gfx_fillRect(1,6,fillSquareSize,fillSquareSize,1);	
 606              		.loc 1 220 0
 607 0072 2046     		mov	r0, r4
 608 0074 0094     		str	r4, [sp]
 609 0076 0623     		movs	r3, #6
 610 0078 1A46     		mov	r2, r3
 611 007a 1946     		mov	r1, r3
 612 007c FFF7FEFF 		bl	gfx_fillRect
 613              	.LVL78:
 614 0080 07E0     		b	.L37
 615              	.L36:
 221:sensor_test.c **** 	    }
 222:sensor_test.c ****         else {
 223:sensor_test.c ****             gfx_fillRect(1,6,fillSquareSize,fillSquareSize,0);
 616              		.loc 1 223 0
 617 0082 0023     		movs	r3, #0
 618 0084 0093     		str	r3, [sp]
ARM GAS  C:\Users\MANSRO~1\AppData\Local\Temp\ccG15aH5.s 			page 16


 619 0086 0623     		movs	r3, #6
 620 0088 1A46     		mov	r2, r3
 621 008a 1946     		mov	r1, r3
 622 008c 0120     		movs	r0, #1
 623 008e FFF7FEFF 		bl	gfx_fillRect
 624              	.LVL79:
 625              	.L37:
 224:sensor_test.c ****         }
 225:sensor_test.c ****     	if( 0u == poga_2_Read() ){
 626              		.loc 1 225 0
 627 0092 FFF7FEFF 		bl	poga_2_Read
 628              	.LVL80:
 629 0096 38B9     		cbnz	r0, .L38
 226:sensor_test.c ****     		gfx_fillRect(41,1,fillSquareSize,fillSquareSize,1);
 630              		.loc 1 226 0
 631 0098 0121     		movs	r1, #1
 632 009a 0091     		str	r1, [sp]
 633 009c 0623     		movs	r3, #6
 634 009e 1A46     		mov	r2, r3
 635 00a0 2920     		movs	r0, #41
 636 00a2 FFF7FEFF 		bl	gfx_fillRect
 637              	.LVL81:
 638 00a6 07E0     		b	.L39
 639              	.L38:
 227:sensor_test.c ****     	}
 228:sensor_test.c ****         else {
 229:sensor_test.c ****             gfx_fillRect(41,1,fillSquareSize,fillSquareSize,0);
 640              		.loc 1 229 0
 641 00a8 0023     		movs	r3, #0
 642 00aa 0093     		str	r3, [sp]
 643 00ac 0623     		movs	r3, #6
 644 00ae 1A46     		mov	r2, r3
 645 00b0 0121     		movs	r1, #1
 646 00b2 2920     		movs	r0, #41
 647 00b4 FFF7FEFF 		bl	gfx_fillRect
 648              	.LVL82:
 649              	.L39:
 230:sensor_test.c ****         }
 231:sensor_test.c ****     	
 232:sensor_test.c ****     	if( 0u == poga_3_Read() ){
 650              		.loc 1 232 0
 651 00b8 FFF7FEFF 		bl	poga_3_Read
 652              	.LVL83:
 653 00bc 40B9     		cbnz	r0, .L40
 233:sensor_test.c ****     		gfx_fillRect(61,4,fillSquareSize,fillSquareSize,1);
 654              		.loc 1 233 0
 655 00be 0123     		movs	r3, #1
 656 00c0 0093     		str	r3, [sp]
 657 00c2 0623     		movs	r3, #6
 658 00c4 1A46     		mov	r2, r3
 659 00c6 0421     		movs	r1, #4
 660 00c8 3D20     		movs	r0, #61
 661 00ca FFF7FEFF 		bl	gfx_fillRect
 662              	.LVL84:
 663 00ce 07E0     		b	.L41
 664              	.L40:
 234:sensor_test.c ****     	}
ARM GAS  C:\Users\MANSRO~1\AppData\Local\Temp\ccG15aH5.s 			page 17


 235:sensor_test.c ****         else {
 236:sensor_test.c ****             gfx_fillRect(61,4,fillSquareSize,fillSquareSize,0);
 665              		.loc 1 236 0
 666 00d0 0023     		movs	r3, #0
 667 00d2 0093     		str	r3, [sp]
 668 00d4 0623     		movs	r3, #6
 669 00d6 1A46     		mov	r2, r3
 670 00d8 0421     		movs	r1, #4
 671 00da 3D20     		movs	r0, #61
 672 00dc FFF7FEFF 		bl	gfx_fillRect
 673              	.LVL85:
 674              	.L41:
 237:sensor_test.c ****         }
 238:sensor_test.c ****     	if( 0u == IR_START_Read() ){
 675              		.loc 1 238 0
 676 00e0 FFF7FEFF 		bl	IR_START_Read
 677              	.LVL86:
 678 00e4 38B9     		cbnz	r0, .L42
 239:sensor_test.c ****     		gfx_fillRect(81,1,fillSquareSize,fillSquareSize,1);
 679              		.loc 1 239 0
 680 00e6 0121     		movs	r1, #1
 681 00e8 0091     		str	r1, [sp]
 682 00ea 0623     		movs	r3, #6
 683 00ec 1A46     		mov	r2, r3
 684 00ee 5120     		movs	r0, #81
 685 00f0 FFF7FEFF 		bl	gfx_fillRect
 686              	.LVL87:
 687 00f4 07E0     		b	.L43
 688              	.L42:
 240:sensor_test.c ****     	}
 241:sensor_test.c ****         else {
 242:sensor_test.c ****             gfx_fillRect(81,1,fillSquareSize,fillSquareSize,0);
 689              		.loc 1 242 0
 690 00f6 0023     		movs	r3, #0
 691 00f8 0093     		str	r3, [sp]
 692 00fa 0623     		movs	r3, #6
 693 00fc 1A46     		mov	r2, r3
 694 00fe 0121     		movs	r1, #1
 695 0100 5120     		movs	r0, #81
 696 0102 FFF7FEFF 		bl	gfx_fillRect
 697              	.LVL88:
 698              	.L43:
 243:sensor_test.c ****         }
 244:sensor_test.c ****     	if( 0u == ex_5_Read() ){
 699              		.loc 1 244 0
 700 0106 FFF7FEFF 		bl	ex_5_Read
 701              	.LVL89:
 702 010a 40B9     		cbnz	r0, .L44
 245:sensor_test.c ****     		gfx_fillRect(128 - squareSize,6,fillSquareSize,fillSquareSize,1);
 703              		.loc 1 245 0
 704 010c 0123     		movs	r3, #1
 705 010e 0093     		str	r3, [sp]
 706 0110 0623     		movs	r3, #6
 707 0112 1A46     		mov	r2, r3
 708 0114 1946     		mov	r1, r3
 709 0116 7820     		movs	r0, #120
 710 0118 FFF7FEFF 		bl	gfx_fillRect
ARM GAS  C:\Users\MANSRO~1\AppData\Local\Temp\ccG15aH5.s 			page 18


 711              	.LVL90:
 712 011c 07E0     		b	.L45
 713              	.L44:
 246:sensor_test.c ****     	}
 247:sensor_test.c ****         else {
 248:sensor_test.c ****             gfx_fillRect(128 - squareSize,6,fillSquareSize,fillSquareSize,0);
 714              		.loc 1 248 0
 715 011e 0023     		movs	r3, #0
 716 0120 0093     		str	r3, [sp]
 717 0122 0623     		movs	r3, #6
 718 0124 1A46     		mov	r2, r3
 719 0126 1946     		mov	r1, r3
 720 0128 7820     		movs	r0, #120
 721 012a FFF7FEFF 		bl	gfx_fillRect
 722              	.LVL91:
 723              	.L45:
 249:sensor_test.c ****         }
 250:sensor_test.c ****     	
 251:sensor_test.c ****         
 252:sensor_test.c ****         
 253:sensor_test.c ****         display_update();
 724              		.loc 1 253 0
 725 012e FFF7FEFF 		bl	display_update
 726              	.LVL92:
 254:sensor_test.c ****         
 255:sensor_test.c ****         
 256:sensor_test.c ****         
 257:sensor_test.c ****         
 258:sensor_test.c ****         
 259:sensor_test.c ****        CyDelay(100); 
 727              		.loc 1 259 0
 728 0132 6420     		movs	r0, #100
 729 0134 FFF7FEFF 		bl	CyDelay
 730              	.LVL93:
 260:sensor_test.c ****     
 261:sensor_test.c ****     
 262:sensor_test.c **** 
 263:sensor_test.c **** }
 731              		.loc 1 263 0
 732 0138 02B0     		add	sp, sp, #8
 733              		.cfi_def_cfa_offset 8
 734              		@ sp needed
 735 013a 10BD     		pop	{r4, pc}
 736              		.cfi_endproc
 737              	.LFE68:
 738              		.size	test, .-test
 739              		.global	sensorsMenu_strings
 740              		.global	sensorsMenu_5
 741              		.global	sensorsMenu_4
 742              		.global	sensorsMenu_3
 743              		.global	sensorsMenu_2
 744              		.global	sensorsMenu_1
 745              		.global	sensorsMenu_title
 746              		.section	.rodata
 747              		.align	2
 748              		.set	.LANCHOR0,. + 0
 749              	.LC1:
ARM GAS  C:\Users\MANSRO~1\AppData\Local\Temp\ccG15aH5.s 			page 19


 750 0000 00000000 		.word	sensorsMenu_title
 751 0004 00000000 		.word	sensorsMenu_strings
 752 0008 05       		.byte	5
 753 0009 00       		.byte	0
 754 000a 00       		.byte	0
 755 000b 00       		.space	1
 756              		.type	sensorsMenu_5, %object
 757              		.size	sensorsMenu_5, 7
 758              	sensorsMenu_5:
 759 000c 342E4558 		.ascii	"4.EXIT\000"
 759      495400
 760 0013 00       		.space	1
 761              		.type	sensorsMenu_4, %object
 762              		.size	sensorsMenu_4, 13
 763              	sensorsMenu_4:
 764 0014 332E5570 		.ascii	"3.Up Sensors\000"
 764      2053656E 
 764      736F7273 
 764      00
 765 0021 000000   		.space	3
 766              		.type	sensorsMenu_3, %object
 767              		.size	sensorsMenu_3, 11
 768              	sensorsMenu_3:
 769 0024 332E456E 		.ascii	"3.Encoders\000"
 769      636F6465 
 769      727300
 770 002f 00       		.space	1
 771              		.type	sensorsMenu_2, %object
 772              		.size	sensorsMenu_2, 15
 773              	sensorsMenu_2:
 774 0030 322E4C69 		.ascii	"2.Line Sensors\000"
 774      6E652053 
 774      656E736F 
 774      727300
 775 003f 00       		.space	1
 776              		.type	sensorsMenu_1, %object
 777              		.size	sensorsMenu_1, 16
 778              	sensorsMenu_1:
 779 0040 312E4F70 		.ascii	"1.Oppon Sensors\000"
 779      706F6E20 
 779      53656E73 
 779      6F727300 
 780              		.type	sensorsMenu_title, %object
 781              		.size	sensorsMenu_title, 2
 782              	sensorsMenu_title:
 783 0050 5F00     		.ascii	"_\000"
 784              		.data
 785              		.align	2
 786              		.type	sensorsMenu_strings, %object
 787              		.size	sensorsMenu_strings, 20
 788              	sensorsMenu_strings:
 789 0000 00000000 		.word	sensorsMenu_1
 790 0004 00000000 		.word	sensorsMenu_2
 791 0008 00000000 		.word	sensorsMenu_3
 792 000c 00000000 		.word	sensorsMenu_4
 793 0010 00000000 		.word	sensorsMenu_5
 794              		.text
ARM GAS  C:\Users\MANSRO~1\AppData\Local\Temp\ccG15aH5.s 			page 20


 795              	.Letext0:
 796              		.file 2 "c:\\program files (x86)\\cypress\\psoc creator\\4.1\\psoc creator\\import\\gnu\\arm\\5.4.
 797              		.file 3 "c:\\program files (x86)\\cypress\\psoc creator\\4.1\\psoc creator\\import\\gnu\\arm\\5.4.
 798              		.file 4 "Generated_Source\\PSoC5/cytypes.h"
 799              		.file 5 "menu.h"
 800              		.file 6 "Generated_Source\\PSoC5/core_cm3.h"
 801              		.file 7 "ssd1306.h"
 802              		.file 8 "Generated_Source\\PSoC5/IRL_L60.h"
 803              		.file 9 "Generated_Source\\PSoC5/IRL_L30.h"
 804              		.file 10 "Generated_Source\\PSoC5/IRL_R0.h"
 805              		.file 11 "Generated_Source\\PSoC5/IRL_R30.h"
 806              		.file 12 "Generated_Source\\PSoC5/IRL_R60.h"
 807              		.file 13 "Generated_Source\\PSoC5/CyLib.h"
 808              		.file 14 "button_input.h"
 809              		.file 15 "Generated_Source\\PSoC5/ADC_SAR.h"
 810              		.file 16 "c:\\program files (x86)\\cypress\\psoc creator\\4.1\\psoc creator\\import\\gnu\\arm\\5.4
 811              		.file 17 "Generated_Source\\PSoC5/poga_1.h"
 812              		.file 18 "Generated_Source\\PSoC5/poga_2.h"
 813              		.file 19 "Generated_Source\\PSoC5/poga_3.h"
 814              		.file 20 "Generated_Source\\PSoC5/IR_START.h"
 815              		.file 21 "Generated_Source\\PSoC5/ex_5.h"
