ARM GAS  C:\Users\ARMAND~1\AppData\Local\Temp\cctYvhxR.s 			page 1


   1              		.syntax unified
   2              		.cpu cortex-m3
   3              		.fpu softvfp
   4              		.eabi_attribute 20, 1
   5              		.eabi_attribute 21, 1
   6              		.eabi_attribute 23, 3
   7              		.eabi_attribute 24, 1
   8              		.eabi_attribute 25, 1
   9              		.eabi_attribute 26, 1
  10              		.eabi_attribute 30, 1
  11              		.eabi_attribute 34, 1
  12              		.eabi_attribute 18, 4
  13              		.thumb
  14              		.syntax unified
  15              		.file	"tactic4_ND.c"
  16              		.text
  17              	.Ltext0:
  18              		.cfi_sections	.debug_frame
  19              		.section	.text.setDrivePwmNext,"ax",%progbits
  20              		.align	2
  21              		.thumb
  22              		.thumb_func
  23              		.type	setDrivePwmNext, %function
  24              	setDrivePwmNext:
  25              	.LFB64:
  26              		.file 1 "tactic4_ND.c"
   1:tactic4_ND.c  **** /* ========================================
   2:tactic4_ND.c  ****  *
   3:tactic4_ND.c  ****  * Copyright YOUR COMPANY, THE YEAR
   4:tactic4_ND.c  ****  * All Rights Reserved
   5:tactic4_ND.c  ****  * UNPUBLISHED, LICENSED SOFTWARE.
   6:tactic4_ND.c  ****  *
   7:tactic4_ND.c  ****  * CONFIDENTIAL AND PROPRIETARY INFORMATION
   8:tactic4_ND.c  ****  * WHICH IS THE PROPERTY OF your company.
   9:tactic4_ND.c  ****  *
  10:tactic4_ND.c  ****  * ========================================
  11:tactic4_ND.c  **** */
  12:tactic4_ND.c  **** #include <project.h>
  13:tactic4_ND.c  **** #include "tactic4_ND.h"
  14:tactic4_ND.c  **** #include "sensors.h"
  15:tactic4_ND.c  **** #include "timer_time.h"
  16:tactic4_ND.c  **** #include "drive.h"
  17:tactic4_ND.c  **** 
  18:tactic4_ND.c  **** //=============================================================================
  19:tactic4_ND.c  **** // Private defines and typedefs
  20:tactic4_ND.c  **** //=============================================================================
  21:tactic4_ND.c  **** #define Rd_bits(value, mask)        ((value)&(mask))
  22:tactic4_ND.c  **** 
  23:tactic4_ND.c  **** #define SEARCH_PWM_L  35
  24:tactic4_ND.c  **** #define SEARCH_PWM_R  35
  25:tactic4_ND.c  **** #define TURN_PWM    40
  26:tactic4_ND.c  **** #define ATTACK_PWM  80
  27:tactic4_ND.c  **** 
  28:tactic4_ND.c  **** //=============================================================================
  29:tactic4_ND.c  **** // Private function declarations
  30:tactic4_ND.c  **** //=============================================================================
  31:tactic4_ND.c  **** static void ActOnEnemySpotted(void);
ARM GAS  C:\Users\ARMAND~1\AppData\Local\Temp\cctYvhxR.s 			page 2


  32:tactic4_ND.c  **** static void ActOnLineDetected(void);
  33:tactic4_ND.c  **** static void DoSomething(void);
  34:tactic4_ND.c  **** static void setDrivePwmNow(DriveDirections_t dir, int pwmL, int pwmR, unsigned long duration);
  35:tactic4_ND.c  **** static void setDrivePwmNext(DriveDirections_t dir, int pwmL, int pwmR, unsigned long duration);
  36:tactic4_ND.c  **** static void handleDrive();
  37:tactic4_ND.c  **** 
  38:tactic4_ND.c  **** 
  39:tactic4_ND.c  **** //=============================================================================
  40:tactic4_ND.c  **** // Private data definitions
  41:tactic4_ND.c  **** //=============================================================================
  42:tactic4_ND.c  **** static uint8_t lineSens = 0;
  43:tactic4_ND.c  **** static uint8_t distSens = 0;
  44:tactic4_ND.c  **** 
  45:tactic4_ND.c  **** static unsigned long currentDriveEndTime;
  46:tactic4_ND.c  **** static int8 nextDriveActive = 0;
  47:tactic4_ND.c  **** static DriveDirections_t nextDirection = DRIVE_STOP;
  48:tactic4_ND.c  **** static int nextPWML = 0;
  49:tactic4_ND.c  **** static int nextPWMR = 0;
  50:tactic4_ND.c  **** static unsigned long nextDriveDuration = 0;
  51:tactic4_ND.c  **** 
  52:tactic4_ND.c  **** 
  53:tactic4_ND.c  **** //=============================================================================
  54:tactic4_ND.c  **** // Public function definitions
  55:tactic4_ND.c  **** //=============================================================================
  56:tactic4_ND.c  **** 
  57:tactic4_ND.c  **** //-----------------------------------------------------------------------------
  58:tactic4_ND.c  **** //! \brief	Combat tactic #1 in action
  59:tactic4_ND.c  **** //-----------------------------------------------------------------------------
  60:tactic4_ND.c  **** 
  61:tactic4_ND.c  **** void setDrivePwmNow(DriveDirections_t dir, int pwmL, int pwmR, unsigned long duration){
  62:tactic4_ND.c  ****   
  63:tactic4_ND.c  ****   switch(dir){
  64:tactic4_ND.c  ****     case DRIVE_STOP:
  65:tactic4_ND.c  ****       drive_forward(0, 0);
  66:tactic4_ND.c  ****     break;
  67:tactic4_ND.c  ****     case DRIVE_FORWARD:
  68:tactic4_ND.c  ****         drive_forward(pwmL, pwmR);
  69:tactic4_ND.c  ****     break;  
  70:tactic4_ND.c  ****     case DRIVE_BACKWARD:
  71:tactic4_ND.c  ****       drive_backward(pwmL, pwmR);
  72:tactic4_ND.c  ****     break;  
  73:tactic4_ND.c  ****     case DRIVE_TURN_LEFT:
  74:tactic4_ND.c  ****         turn_left(pwmL, pwmR);
  75:tactic4_ND.c  ****     break; 
  76:tactic4_ND.c  ****     case DRIVE_TURN_RIGHT:
  77:tactic4_ND.c  ****         turn_right(pwmL, pwmR);
  78:tactic4_ND.c  ****     break; 
  79:tactic4_ND.c  ****   }
  80:tactic4_ND.c  ****   
  81:tactic4_ND.c  ****   currentDriveEndTime = millis() + duration;
  82:tactic4_ND.c  **** }
  83:tactic4_ND.c  **** 
  84:tactic4_ND.c  **** void setDrivePwmNext(DriveDirections_t dir, int pwmL, int pwmR, unsigned long duration){
  27              		.loc 1 84 0
  28              		.cfi_startproc
  29              		@ args = 0, pretend = 0, frame = 0
  30              		@ frame_needed = 0, uses_anonymous_args = 0
ARM GAS  C:\Users\ARMAND~1\AppData\Local\Temp\cctYvhxR.s 			page 3


  31              		@ link register save eliminated.
  32              	.LVL0:
  33 0000 10B4     		push	{r4}
  34              		.cfi_def_cfa_offset 4
  35              		.cfi_offset 4, -4
  85:tactic4_ND.c  ****   nextDirection = dir;
  36              		.loc 1 85 0
  37 0002 044C     		ldr	r4, .L3
  38 0004 2070     		strb	r0, [r4]
  86:tactic4_ND.c  ****   nextPWML = pwmL;
  39              		.loc 1 86 0
  40 0006 6160     		str	r1, [r4, #4]
  87:tactic4_ND.c  ****   nextPWMR = pwmR;
  41              		.loc 1 87 0
  42 0008 A260     		str	r2, [r4, #8]
  88:tactic4_ND.c  ****   nextDriveDuration = duration;
  43              		.loc 1 88 0
  44 000a E360     		str	r3, [r4, #12]
  89:tactic4_ND.c  ****   nextDriveActive = 1;
  45              		.loc 1 89 0
  46 000c 0123     		movs	r3, #1
  47              	.LVL1:
  48 000e 2374     		strb	r3, [r4, #16]
  90:tactic4_ND.c  **** }
  49              		.loc 1 90 0
  50 0010 10BC     		pop	{r4}
  51              		.cfi_restore 4
  52              		.cfi_def_cfa_offset 0
  53 0012 7047     		bx	lr
  54              	.L4:
  55              		.align	2
  56              	.L3:
  57 0014 00000000 		.word	.LANCHOR0
  58              		.cfi_endproc
  59              	.LFE64:
  60              		.size	setDrivePwmNext, .-setDrivePwmNext
  61              		.section	.text.setDrivePwmNow,"ax",%progbits
  62              		.align	2
  63              		.thumb
  64              		.thumb_func
  65              		.type	setDrivePwmNow, %function
  66              	setDrivePwmNow:
  67              	.LFB63:
  61:tactic4_ND.c  ****   
  68              		.loc 1 61 0
  69              		.cfi_startproc
  70              		@ args = 0, pretend = 0, frame = 0
  71              		@ frame_needed = 0, uses_anonymous_args = 0
  72              	.LVL2:
  73 0000 38B5     		push	{r3, r4, r5, lr}
  74              		.cfi_def_cfa_offset 16
  75              		.cfi_offset 3, -16
  76              		.cfi_offset 4, -12
  77              		.cfi_offset 5, -8
  78              		.cfi_offset 14, -4
  79 0002 0D46     		mov	r5, r1
  80 0004 1C46     		mov	r4, r3
ARM GAS  C:\Users\ARMAND~1\AppData\Local\Temp\cctYvhxR.s 			page 4


  63:tactic4_ND.c  ****     case DRIVE_STOP:
  81              		.loc 1 63 0
  82 0006 0428     		cmp	r0, #4
  83 0008 1CD8     		bhi	.L6
  84 000a DFE800F0 		tbb	[pc, r0]
  85              	.LVL3:
  86              	.L8:
  87 000e 03       		.byte	(.L7-.L8)/2
  88 000f 08       		.byte	(.L9-.L8)/2
  89 0010 0D       		.byte	(.L10-.L8)/2
  90 0011 12       		.byte	(.L11-.L8)/2
  91 0012 17       		.byte	(.L12-.L8)/2
  92 0013 00       		.p2align 1
  93              	.L7:
  65:tactic4_ND.c  ****     break;
  94              		.loc 1 65 0
  95 0014 0021     		movs	r1, #0
  96              	.LVL4:
  97 0016 0846     		mov	r0, r1
  98              	.LVL5:
  99 0018 FFF7FEFF 		bl	drive_forward
 100              	.LVL6:
  66:tactic4_ND.c  ****     case DRIVE_FORWARD:
 101              		.loc 1 66 0
 102 001c 12E0     		b	.L6
 103              	.LVL7:
 104              	.L9:
  68:tactic4_ND.c  ****     break;  
 105              		.loc 1 68 0
 106 001e 1146     		mov	r1, r2
 107              	.LVL8:
 108 0020 2846     		mov	r0, r5
 109              	.LVL9:
 110 0022 FFF7FEFF 		bl	drive_forward
 111              	.LVL10:
  69:tactic4_ND.c  ****     case DRIVE_BACKWARD:
 112              		.loc 1 69 0
 113 0026 0DE0     		b	.L6
 114              	.LVL11:
 115              	.L10:
  71:tactic4_ND.c  ****     break;  
 116              		.loc 1 71 0
 117 0028 1146     		mov	r1, r2
 118              	.LVL12:
 119 002a 2846     		mov	r0, r5
 120              	.LVL13:
 121 002c FFF7FEFF 		bl	drive_backward
 122              	.LVL14:
  72:tactic4_ND.c  ****     case DRIVE_TURN_LEFT:
 123              		.loc 1 72 0
 124 0030 08E0     		b	.L6
 125              	.LVL15:
 126              	.L11:
  74:tactic4_ND.c  ****     break; 
 127              		.loc 1 74 0
 128 0032 1146     		mov	r1, r2
 129              	.LVL16:
ARM GAS  C:\Users\ARMAND~1\AppData\Local\Temp\cctYvhxR.s 			page 5


 130 0034 2846     		mov	r0, r5
 131              	.LVL17:
 132 0036 FFF7FEFF 		bl	turn_left
 133              	.LVL18:
  75:tactic4_ND.c  ****     case DRIVE_TURN_RIGHT:
 134              		.loc 1 75 0
 135 003a 03E0     		b	.L6
 136              	.LVL19:
 137              	.L12:
  77:tactic4_ND.c  ****     break; 
 138              		.loc 1 77 0
 139 003c 1146     		mov	r1, r2
 140              	.LVL20:
 141 003e 2846     		mov	r0, r5
 142              	.LVL21:
 143 0040 FFF7FEFF 		bl	turn_right
 144              	.LVL22:
 145              	.L6:
  81:tactic4_ND.c  **** }
 146              		.loc 1 81 0
 147 0044 FFF7FEFF 		bl	millis
 148              	.LVL23:
 149 0048 2044     		add	r0, r0, r4
 150 004a 014B     		ldr	r3, .L14
 151 004c 5861     		str	r0, [r3, #20]
 152 004e 38BD     		pop	{r3, r4, r5, pc}
 153              	.LVL24:
 154              	.L15:
 155              		.align	2
 156              	.L14:
 157 0050 00000000 		.word	.LANCHOR0
 158              		.cfi_endproc
 159              	.LFE63:
 160              		.size	setDrivePwmNow, .-setDrivePwmNow
 161              		.section	.text.handleDrive,"ax",%progbits
 162              		.align	2
 163              		.thumb
 164              		.thumb_func
 165              		.type	handleDrive, %function
 166              	handleDrive:
 167              	.LFB65:
  91:tactic4_ND.c  **** 
  92:tactic4_ND.c  **** void handleDrive(){    
 168              		.loc 1 92 0
 169              		.cfi_startproc
 170              		@ args = 0, pretend = 0, frame = 0
 171              		@ frame_needed = 0, uses_anonymous_args = 0
 172 0000 10B5     		push	{r4, lr}
 173              		.cfi_def_cfa_offset 8
 174              		.cfi_offset 4, -8
 175              		.cfi_offset 14, -4
  93:tactic4_ND.c  ****   if(millis() >= currentDriveEndTime){    // ja ir pagājis tekošās braukšanas komandas laiks   
 176              		.loc 1 93 0
 177 0002 FFF7FEFF 		bl	millis
 178              	.LVL25:
 179 0006 0D4B     		ldr	r3, .L20
 180 0008 5B69     		ldr	r3, [r3, #20]
ARM GAS  C:\Users\ARMAND~1\AppData\Local\Temp\cctYvhxR.s 			page 6


 181 000a 9842     		cmp	r0, r3
 182 000c 14D3     		bcc	.L16
  94:tactic4_ND.c  ****     if(nextDriveActive == 1){
 183              		.loc 1 94 0
 184 000e 0B4B     		ldr	r3, .L20
 185 0010 93F91030 		ldrsb	r3, [r3, #16]
 186 0014 012B     		cmp	r3, #1
 187 0016 09D1     		bne	.L18
  95:tactic4_ND.c  ****       setDrivePwmNow(nextDirection, nextPWML, nextPWMR, nextDriveDuration);
 188              		.loc 1 95 0
 189 0018 084C     		ldr	r4, .L20
 190 001a E368     		ldr	r3, [r4, #12]
 191 001c A268     		ldr	r2, [r4, #8]
 192 001e 6168     		ldr	r1, [r4, #4]
 193 0020 2078     		ldrb	r0, [r4]	@ zero_extendqisi2
 194 0022 FFF7FEFF 		bl	setDrivePwmNow
 195              	.LVL26:
  96:tactic4_ND.c  ****       nextDriveActive = 0;
 196              		.loc 1 96 0
 197 0026 0023     		movs	r3, #0
 198 0028 2374     		strb	r3, [r4, #16]
 199 002a 10BD     		pop	{r4, pc}
 200              	.L18:
  97:tactic4_ND.c  ****     }else{
  98:tactic4_ND.c  ****       setDrivePwmNow(DRIVE_FORWARD, SEARCH_PWM_L, SEARCH_PWM_R, 50);      // liekam robotam braukt 
 201              		.loc 1 98 0
 202 002c 3223     		movs	r3, #50
 203 002e 2322     		movs	r2, #35
 204 0030 1146     		mov	r1, r2
 205 0032 0120     		movs	r0, #1
 206 0034 FFF7FEFF 		bl	setDrivePwmNow
 207              	.LVL27:
 208              	.L16:
 209 0038 10BD     		pop	{r4, pc}
 210              	.L21:
 211 003a 00BF     		.align	2
 212              	.L20:
 213 003c 00000000 		.word	.LANCHOR0
 214              		.cfi_endproc
 215              	.LFE65:
 216              		.size	handleDrive, .-handleDrive
 217              		.section	.text.ActOnLineDetected,"ax",%progbits
 218              		.align	2
 219              		.thumb
 220              		.thumb_func
 221              		.type	ActOnLineDetected, %function
 222              	ActOnLineDetected:
 223              	.LFB68:
  99:tactic4_ND.c  ****     }    
 100:tactic4_ND.c  ****   }  
 101:tactic4_ND.c  **** }
 102:tactic4_ND.c  **** 
 103:tactic4_ND.c  **** 
 104:tactic4_ND.c  **** void RunTactic4()
 105:tactic4_ND.c  **** {
 106:tactic4_ND.c  ****     WaitForIRStart();
 107:tactic4_ND.c  ****     
ARM GAS  C:\Users\ARMAND~1\AppData\Local\Temp\cctYvhxR.s 			page 7


 108:tactic4_ND.c  ****     // ============================ First move ================================
 109:tactic4_ND.c  **** 
 110:tactic4_ND.c  ****     //CyDelay(5000);
 111:tactic4_ND.c  ****     drive_forward(ATTACK_PWM, ATTACK_PWM);
 112:tactic4_ND.c  ****     CyDelay(200);
 113:tactic4_ND.c  ****     brake();
 114:tactic4_ND.c  ****     CyDelay(50);
 115:tactic4_ND.c  ****     drive_forward(0,0);
 116:tactic4_ND.c  ****                     
 117:tactic4_ND.c  **** 
 118:tactic4_ND.c  ****     // ============================= Main loop ================================
 119:tactic4_ND.c  ****     uint32_t timout_time = millis();
 120:tactic4_ND.c  ****     while (1) {
 121:tactic4_ND.c  ****         handleDrive();
 122:tactic4_ND.c  **** 		// read all sensors
 123:tactic4_ND.c  **** 		lineSens = LineSensRead();
 124:tactic4_ND.c  **** 	    distSens = DistSensRead(); //Distance_sensor_value_Read();
 125:tactic4_ND.c  ****         //Sensor_Reset_Write(0xFF);  // why???
 126:tactic4_ND.c  ****         
 127:tactic4_ND.c  ****         //Sensor_Reset_Write(0); 
 128:tactic4_ND.c  **** 
 129:tactic4_ND.c  **** 		if( 0 < lineSens ){
 130:tactic4_ND.c  **** 			// line has detected
 131:tactic4_ND.c  **** 		    ActOnLineDetected();
 132:tactic4_ND.c  **** 			timout_time = millis();
 133:tactic4_ND.c  **** 		}
 134:tactic4_ND.c  **** 		else if( 0 < distSens ){
 135:tactic4_ND.c  **** 			// opponent spotted
 136:tactic4_ND.c  **** 			ActOnEnemySpotted();
 137:tactic4_ND.c  **** 			timout_time = millis();
 138:tactic4_ND.c  **** 		}
 139:tactic4_ND.c  ****         else {
 140:tactic4_ND.c  ****             //nothing
 141:tactic4_ND.c  ****         }
 142:tactic4_ND.c  **** 
 143:tactic4_ND.c  **** 		if( 3000 < millis() - timout_time ){
 144:tactic4_ND.c  **** 			timout_time = millis();
 145:tactic4_ND.c  **** 			DoSomething();
 146:tactic4_ND.c  **** 		}
 147:tactic4_ND.c  ****     }
 148:tactic4_ND.c  **** }
 149:tactic4_ND.c  **** 
 150:tactic4_ND.c  **** //=============================================================================
 151:tactic4_ND.c  **** // Private function definitions
 152:tactic4_ND.c  **** //=============================================================================
 153:tactic4_ND.c  **** 
 154:tactic4_ND.c  **** //! \brief	Act on opponent spotted event
 155:tactic4_ND.c  **** void ActOnEnemySpotted(void){
 156:tactic4_ND.c  **** 
 157:tactic4_ND.c  **** 
 158:tactic4_ND.c  **** 	    int distSens = DistSensRead(); //Distance_sensor_value_Read();
 159:tactic4_ND.c  ****         //Sensor_Reset_Write(0xFF);  // why???
 160:tactic4_ND.c  ****         
 161:tactic4_ND.c  ****         //Sensor_Reset_Write(0); 
 162:tactic4_ND.c  **** 
 163:tactic4_ND.c  ****     	if( 0 < distSens ){
 164:tactic4_ND.c  ****             int8_t avrg_angle_grad = CalcAvrgAngle();
ARM GAS  C:\Users\ARMAND~1\AppData\Local\Temp\cctYvhxR.s 			page 8


 165:tactic4_ND.c  **** 
 166:tactic4_ND.c  ****         	int8_t pwm = 50;
 167:tactic4_ND.c  ****             // Attack spotted opponent
 168:tactic4_ND.c  ****         	if( 0 == avrg_angle_grad ){
 169:tactic4_ND.c  ****                 setDrivePwmNow(DRIVE_FORWARD, ATTACK_PWM, ATTACK_PWM, 50);
 170:tactic4_ND.c  ****         	}else if( -60 >= avrg_angle_grad ){
 171:tactic4_ND.c  ****         		// [-90; -60] grad
 172:tactic4_ND.c  ****                 setDrivePwmNow(DRIVE_TURN_LEFT , TURN_PWM, TURN_PWM, 50);
 173:tactic4_ND.c  ****         	}else if( -30 >= avrg_angle_grad ){
 174:tactic4_ND.c  ****         		// (-60; -30] grad
 175:tactic4_ND.c  ****                 setDrivePwmNow(DRIVE_FORWARD, pwm /3, pwm, 40);
 176:tactic4_ND.c  ****         	}else if( 0 > avrg_angle_grad ){
 177:tactic4_ND.c  ****         		// (-30; 0) grad
 178:tactic4_ND.c  ****                 setDrivePwmNow(DRIVE_FORWARD, ATTACK_PWM * 0.7, ATTACK_PWM, 50);
 179:tactic4_ND.c  ****         	}else if( 60 <= avrg_angle_grad ){
 180:tactic4_ND.c  ****         		// [60; 90] grad
 181:tactic4_ND.c  ****                 setDrivePwmNow(DRIVE_TURN_RIGHT , TURN_PWM, TURN_PWM, 50);            
 182:tactic4_ND.c  ****         	}else if( 30 <= avrg_angle_grad ){
 183:tactic4_ND.c  ****         		// [30; 60) grad
 184:tactic4_ND.c  ****         		setDrivePwmNow(DRIVE_FORWARD, pwm, pwm / 3, 40);
 185:tactic4_ND.c  ****         	}else if( 0 <= avrg_angle_grad ){
 186:tactic4_ND.c  ****         		// (0; 30) grad
 187:tactic4_ND.c  ****                 setDrivePwmNow(DRIVE_FORWARD, ATTACK_PWM, ATTACK_PWM*0.7, 50);
 188:tactic4_ND.c  ****         	}
 189:tactic4_ND.c  ****             
 190:tactic4_ND.c  **** 
 191:tactic4_ND.c  ****     		}
 192:tactic4_ND.c  ****         else {
 193:tactic4_ND.c  ****             
 194:tactic4_ND.c  ****             //CyDelay(50);
 195:tactic4_ND.c  ****         }
 196:tactic4_ND.c  ****        
 197:tactic4_ND.c  **** }
 198:tactic4_ND.c  **** 
 199:tactic4_ND.c  **** //! \brief	Act on line detected event
 200:tactic4_ND.c  **** void ActOnLineDetected(void){
 224              		.loc 1 200 0
 225              		.cfi_startproc
 226              		@ args = 0, pretend = 0, frame = 0
 227              		@ frame_needed = 0, uses_anonymous_args = 0
 228 0000 08B5     		push	{r3, lr}
 229              		.cfi_def_cfa_offset 8
 230              		.cfi_offset 3, -8
 231              		.cfi_offset 14, -4
 201:tactic4_ND.c  **** 	//int lineSens = LineSensRead();
 202:tactic4_ND.c  ****      
 203:tactic4_ND.c  **** 	// Line_FL && Line_FR
 204:tactic4_ND.c  **** 	if(gLine.F_LEFT && gLine.F_RIGHT){
 232              		.loc 1 204 0
 233 0002 194B     		ldr	r3, .L27
 234 0004 9B69     		ldr	r3, [r3, #24]
 235 0006 8BB1     		cbz	r3, .L23
 236              		.loc 1 204 0 is_stmt 0 discriminator 1
 237 0008 174A     		ldr	r2, .L27
 238 000a D269     		ldr	r2, [r2, #28]
 239 000c 72B1     		cbz	r2, .L23
 205:tactic4_ND.c  ****         //drive_backward(40,40); //drive_distance_straight_backward(10, 40);
ARM GAS  C:\Users\ARMAND~1\AppData\Local\Temp\cctYvhxR.s 			page 9


 206:tactic4_ND.c  ****         //CyDelay(400);
 207:tactic4_ND.c  ****         //turn_angle_right(170,50);
 208:tactic4_ND.c  ****         //turn_left(TURN_PWM,TURN_PWM); //turn_angle_right(180, TURN_PWM );
 209:tactic4_ND.c  ****         //CyDelay(300);
 210:tactic4_ND.c  ****         setDrivePwmNow(DRIVE_BACKWARD, 40, 40, 400);
 240              		.loc 1 210 0 is_stmt 1
 241 000e 4FF4C873 		mov	r3, #400
 242 0012 2822     		movs	r2, #40
 243 0014 1146     		mov	r1, r2
 244 0016 0220     		movs	r0, #2
 245 0018 FFF7FEFF 		bl	setDrivePwmNow
 246              	.LVL28:
 211:tactic4_ND.c  ****         setDrivePwmNext(DRIVE_TURN_LEFT, TURN_PWM, TURN_PWM, 300);
 247              		.loc 1 211 0
 248 001c 4FF49673 		mov	r3, #300
 249 0020 2822     		movs	r2, #40
 250 0022 1146     		mov	r1, r2
 251 0024 0320     		movs	r0, #3
 252 0026 FFF7FEFF 		bl	setDrivePwmNext
 253              	.LVL29:
 254 002a 08BD     		pop	{r3, pc}
 255              	.L23:
 212:tactic4_ND.c  ****         
 213:tactic4_ND.c  **** 	}
 214:tactic4_ND.c  **** 	// Line_FL
 215:tactic4_ND.c  **** 	else if(gLine.F_LEFT){
 256              		.loc 1 215 0
 257 002c 63B1     		cbz	r3, .L25
 216:tactic4_ND.c  ****         //drive_backward(40,40); //drive_distance_straight_backward(10, 40);
 217:tactic4_ND.c  ****         //CyDelay(150);
 218:tactic4_ND.c  ****         //turn_right(TURN_PWM,TURN_PWM); //turn_angle_right(135, TURN_PWM );
 219:tactic4_ND.c  ****         //CyDelay(200);
 220:tactic4_ND.c  ****         setDrivePwmNow(DRIVE_BACKWARD, 40, 40, 150);
 258              		.loc 1 220 0
 259 002e 9623     		movs	r3, #150
 260 0030 2822     		movs	r2, #40
 261 0032 1146     		mov	r1, r2
 262 0034 0220     		movs	r0, #2
 263 0036 FFF7FEFF 		bl	setDrivePwmNow
 264              	.LVL30:
 221:tactic4_ND.c  ****         setDrivePwmNext(DRIVE_TURN_RIGHT, TURN_PWM, TURN_PWM, 200);
 265              		.loc 1 221 0
 266 003a C823     		movs	r3, #200
 267 003c 2822     		movs	r2, #40
 268 003e 1146     		mov	r1, r2
 269 0040 0420     		movs	r0, #4
 270 0042 FFF7FEFF 		bl	setDrivePwmNext
 271              	.LVL31:
 272 0046 08BD     		pop	{r3, pc}
 273              	.L25:
 222:tactic4_ND.c  **** 	}
 223:tactic4_ND.c  **** 	// Line_FR
 224:tactic4_ND.c  **** 	else if(gLine.F_RIGHT){
 274              		.loc 1 224 0
 275 0048 074B     		ldr	r3, .L27
 276 004a DB69     		ldr	r3, [r3, #28]
 277 004c 5BB1     		cbz	r3, .L22
ARM GAS  C:\Users\ARMAND~1\AppData\Local\Temp\cctYvhxR.s 			page 10


 225:tactic4_ND.c  ****         //drive_backward(40,40); //drive_distance_straight_backward(10, 40);
 226:tactic4_ND.c  ****         //CyDelay(150);
 227:tactic4_ND.c  ****         //turn_left(TURN_PWM,TURN_PWM); //turn_angle_left(135, TURN_PWM );
 228:tactic4_ND.c  ****         //CyDelay(200);
 229:tactic4_ND.c  ****         setDrivePwmNow(DRIVE_BACKWARD, 40, 40, 150);
 278              		.loc 1 229 0
 279 004e 9623     		movs	r3, #150
 280 0050 2822     		movs	r2, #40
 281 0052 1146     		mov	r1, r2
 282 0054 0220     		movs	r0, #2
 283 0056 FFF7FEFF 		bl	setDrivePwmNow
 284              	.LVL32:
 230:tactic4_ND.c  ****         setDrivePwmNext(DRIVE_TURN_LEFT, TURN_PWM, TURN_PWM, 200);
 285              		.loc 1 230 0
 286 005a C823     		movs	r3, #200
 287 005c 2822     		movs	r2, #40
 288 005e 1146     		mov	r1, r2
 289 0060 0320     		movs	r0, #3
 290 0062 FFF7FEFF 		bl	setDrivePwmNext
 291              	.LVL33:
 292              	.L22:
 293 0066 08BD     		pop	{r3, pc}
 294              	.L28:
 295              		.align	2
 296              	.L27:
 297 0068 00000000 		.word	gLine
 298              		.cfi_endproc
 299              	.LFE68:
 300              		.size	ActOnLineDetected, .-ActOnLineDetected
 301              		.section	.text.DoSomething,"ax",%progbits
 302              		.align	2
 303              		.thumb
 304              		.thumb_func
 305              		.type	DoSomething, %function
 306              	DoSomething:
 307              	.LFB69:
 231:tactic4_ND.c  **** 	}
 232:tactic4_ND.c  ****     
 233:tactic4_ND.c  **** }
 234:tactic4_ND.c  **** 
 235:tactic4_ND.c  **** //! \brief	Do something when opponent is not visible
 236:tactic4_ND.c  **** void DoSomething(void){
 308              		.loc 1 236 0
 309              		.cfi_startproc
 310              		@ args = 0, pretend = 0, frame = 0
 311              		@ frame_needed = 0, uses_anonymous_args = 0
 312 0000 08B5     		push	{r3, lr}
 313              		.cfi_def_cfa_offset 8
 314              		.cfi_offset 3, -8
 315              		.cfi_offset 14, -4
 237:tactic4_ND.c  **** 
 238:tactic4_ND.c  ****     setDrivePwmNow(DRIVE_BACKWARD, SEARCH_PWM_L, SEARCH_PWM_R, 40);
 316              		.loc 1 238 0
 317 0002 2823     		movs	r3, #40
 318 0004 2322     		movs	r2, #35
 319 0006 1146     		mov	r1, r2
 320 0008 0220     		movs	r0, #2
ARM GAS  C:\Users\ARMAND~1\AppData\Local\Temp\cctYvhxR.s 			page 11


 321 000a FFF7FEFF 		bl	setDrivePwmNow
 322              	.LVL34:
 323 000e 08BD     		pop	{r3, pc}
 324              		.cfi_endproc
 325              	.LFE69:
 326              		.size	DoSomething, .-DoSomething
 327              		.section	.text.ActOnEnemySpotted,"ax",%progbits
 328              		.align	2
 329              		.thumb
 330              		.thumb_func
 331              		.type	ActOnEnemySpotted, %function
 332              	ActOnEnemySpotted:
 333              	.LFB67:
 155:tactic4_ND.c  **** 
 334              		.loc 1 155 0
 335              		.cfi_startproc
 336              		@ args = 0, pretend = 0, frame = 0
 337              		@ frame_needed = 0, uses_anonymous_args = 0
 338 0000 08B5     		push	{r3, lr}
 339              		.cfi_def_cfa_offset 8
 340              		.cfi_offset 3, -8
 341              		.cfi_offset 14, -4
 158:tactic4_ND.c  ****         //Sensor_Reset_Write(0xFF);  // why???
 342              		.loc 1 158 0
 343 0002 FFF7FEFF 		bl	DistSensRead
 344              	.LVL35:
 163:tactic4_ND.c  ****             int8_t avrg_angle_grad = CalcAvrgAngle();
 345              		.loc 1 163 0
 346 0006 0028     		cmp	r0, #0
 347 0008 40DD     		ble	.L31
 348              	.LBB2:
 164:tactic4_ND.c  **** 
 349              		.loc 1 164 0
 350 000a FFF7FEFF 		bl	CalcAvrgAngle
 351              	.LVL36:
 168:tactic4_ND.c  ****                 setDrivePwmNow(DRIVE_FORWARD, ATTACK_PWM, ATTACK_PWM, 50);
 352              		.loc 1 168 0
 353 000e 30B9     		cbnz	r0, .L33
 169:tactic4_ND.c  ****         	}else if( -60 >= avrg_angle_grad ){
 354              		.loc 1 169 0
 355 0010 3223     		movs	r3, #50
 356 0012 5022     		movs	r2, #80
 357 0014 1146     		mov	r1, r2
 358 0016 0120     		movs	r0, #1
 359              	.LVL37:
 360 0018 FFF7FEFF 		bl	setDrivePwmNow
 361              	.LVL38:
 362 001c 08BD     		pop	{r3, pc}
 363              	.LVL39:
 364              	.L33:
 170:tactic4_ND.c  ****         		// [-90; -60] grad
 365              		.loc 1 170 0
 366 001e 10F13B0F 		cmn	r0, #59
 367 0022 06DA     		bge	.L34
 172:tactic4_ND.c  ****         	}else if( -30 >= avrg_angle_grad ){
 368              		.loc 1 172 0
 369 0024 3223     		movs	r3, #50
ARM GAS  C:\Users\ARMAND~1\AppData\Local\Temp\cctYvhxR.s 			page 12


 370 0026 2822     		movs	r2, #40
 371 0028 1146     		mov	r1, r2
 372 002a 0320     		movs	r0, #3
 373              	.LVL40:
 374 002c FFF7FEFF 		bl	setDrivePwmNow
 375              	.LVL41:
 376 0030 08BD     		pop	{r3, pc}
 377              	.LVL42:
 378              	.L34:
 173:tactic4_ND.c  ****         		// (-60; -30] grad
 379              		.loc 1 173 0
 380 0032 10F11D0F 		cmn	r0, #29
 381 0036 06DA     		bge	.L35
 175:tactic4_ND.c  ****         	}else if( 0 > avrg_angle_grad ){
 382              		.loc 1 175 0
 383 0038 2823     		movs	r3, #40
 384 003a 3222     		movs	r2, #50
 385 003c 1021     		movs	r1, #16
 386 003e 0120     		movs	r0, #1
 387              	.LVL43:
 388 0040 FFF7FEFF 		bl	setDrivePwmNow
 389              	.LVL44:
 390 0044 08BD     		pop	{r3, pc}
 391              	.LVL45:
 392              	.L35:
 176:tactic4_ND.c  ****         		// (-30; 0) grad
 393              		.loc 1 176 0
 394 0046 0028     		cmp	r0, #0
 395 0048 06DA     		bge	.L36
 178:tactic4_ND.c  ****         	}else if( 60 <= avrg_angle_grad ){
 396              		.loc 1 178 0
 397 004a 3223     		movs	r3, #50
 398 004c 5022     		movs	r2, #80
 399 004e 3821     		movs	r1, #56
 400 0050 0120     		movs	r0, #1
 401              	.LVL46:
 402 0052 FFF7FEFF 		bl	setDrivePwmNow
 403              	.LVL47:
 404 0056 08BD     		pop	{r3, pc}
 405              	.LVL48:
 406              	.L36:
 179:tactic4_ND.c  ****         		// [60; 90] grad
 407              		.loc 1 179 0
 408 0058 3B28     		cmp	r0, #59
 409 005a 06DD     		ble	.L37
 181:tactic4_ND.c  ****         	}else if( 30 <= avrg_angle_grad ){
 410              		.loc 1 181 0
 411 005c 3223     		movs	r3, #50
 412 005e 2822     		movs	r2, #40
 413 0060 1146     		mov	r1, r2
 414 0062 0420     		movs	r0, #4
 415              	.LVL49:
 416 0064 FFF7FEFF 		bl	setDrivePwmNow
 417              	.LVL50:
 418 0068 08BD     		pop	{r3, pc}
 419              	.LVL51:
 420              	.L37:
ARM GAS  C:\Users\ARMAND~1\AppData\Local\Temp\cctYvhxR.s 			page 13


 182:tactic4_ND.c  ****         		// [30; 60) grad
 421              		.loc 1 182 0
 422 006a 1D28     		cmp	r0, #29
 423 006c 06DD     		ble	.L38
 184:tactic4_ND.c  ****         	}else if( 0 <= avrg_angle_grad ){
 424              		.loc 1 184 0
 425 006e 2823     		movs	r3, #40
 426 0070 1022     		movs	r2, #16
 427 0072 3221     		movs	r1, #50
 428 0074 0120     		movs	r0, #1
 429              	.LVL52:
 430 0076 FFF7FEFF 		bl	setDrivePwmNow
 431              	.LVL53:
 432 007a 08BD     		pop	{r3, pc}
 433              	.LVL54:
 434              	.L38:
 185:tactic4_ND.c  ****         		// (0; 30) grad
 435              		.loc 1 185 0
 436 007c 0028     		cmp	r0, #0
 437 007e 05DB     		blt	.L31
 187:tactic4_ND.c  ****         	}
 438              		.loc 1 187 0
 439 0080 3223     		movs	r3, #50
 440 0082 3822     		movs	r2, #56
 441 0084 5021     		movs	r1, #80
 442 0086 0120     		movs	r0, #1
 443              	.LVL55:
 444 0088 FFF7FEFF 		bl	setDrivePwmNow
 445              	.LVL56:
 446              	.L31:
 447 008c 08BD     		pop	{r3, pc}
 448              	.LBE2:
 449              		.cfi_endproc
 450              	.LFE67:
 451              		.size	ActOnEnemySpotted, .-ActOnEnemySpotted
 452 008e 00BF     		.section	.text.RunTactic4,"ax",%progbits
 453              		.align	2
 454              		.global	RunTactic4
 455              		.thumb
 456              		.thumb_func
 457              		.type	RunTactic4, %function
 458              	RunTactic4:
 459              	.LFB66:
 105:tactic4_ND.c  ****     WaitForIRStart();
 460              		.loc 1 105 0
 461              		.cfi_startproc
 462              		@ args = 0, pretend = 0, frame = 0
 463              		@ frame_needed = 0, uses_anonymous_args = 0
 464 0000 38B5     		push	{r3, r4, r5, lr}
 465              		.cfi_def_cfa_offset 16
 466              		.cfi_offset 3, -16
 467              		.cfi_offset 4, -12
 468              		.cfi_offset 5, -8
 469              		.cfi_offset 14, -4
 106:tactic4_ND.c  ****     
 470              		.loc 1 106 0
 471 0002 FFF7FEFF 		bl	WaitForIRStart
ARM GAS  C:\Users\ARMAND~1\AppData\Local\Temp\cctYvhxR.s 			page 14


 472              	.LVL57:
 111:tactic4_ND.c  ****     CyDelay(200);
 473              		.loc 1 111 0
 474 0006 5021     		movs	r1, #80
 475 0008 0846     		mov	r0, r1
 476 000a FFF7FEFF 		bl	drive_forward
 477              	.LVL58:
 112:tactic4_ND.c  ****     brake();
 478              		.loc 1 112 0
 479 000e C820     		movs	r0, #200
 480 0010 FFF7FEFF 		bl	CyDelay
 481              	.LVL59:
 113:tactic4_ND.c  ****     CyDelay(50);
 482              		.loc 1 113 0
 483 0014 FFF7FEFF 		bl	brake
 484              	.LVL60:
 114:tactic4_ND.c  ****     drive_forward(0,0);
 485              		.loc 1 114 0
 486 0018 3220     		movs	r0, #50
 487 001a FFF7FEFF 		bl	CyDelay
 488              	.LVL61:
 115:tactic4_ND.c  ****                     
 489              		.loc 1 115 0
 490 001e 0021     		movs	r1, #0
 491 0020 0846     		mov	r0, r1
 492 0022 FFF7FEFF 		bl	drive_forward
 493              	.LVL62:
 119:tactic4_ND.c  ****     while (1) {
 494              		.loc 1 119 0
 495 0026 FFF7FEFF 		bl	millis
 496              	.LVL63:
 497 002a 0546     		mov	r5, r0
 498              	.LVL64:
 499              	.L43:
 121:tactic4_ND.c  **** 		// read all sensors
 500              		.loc 1 121 0
 501 002c FFF7FEFF 		bl	handleDrive
 502              	.LVL65:
 123:tactic4_ND.c  **** 	    distSens = DistSensRead(); //Distance_sensor_value_Read();
 503              		.loc 1 123 0
 504 0030 FFF7FEFF 		bl	LineSensRead
 505              	.LVL66:
 506 0034 0F4C     		ldr	r4, .L46
 507 0036 2076     		strb	r0, [r4, #24]
 124:tactic4_ND.c  ****         //Sensor_Reset_Write(0xFF);  // why???
 508              		.loc 1 124 0
 509 0038 FFF7FEFF 		bl	DistSensRead
 510              	.LVL67:
 129:tactic4_ND.c  **** 			// line has detected
 511              		.loc 1 129 0
 512 003c 237E     		ldrb	r3, [r4, #24]	@ zero_extendqisi2
 513 003e 2BB1     		cbz	r3, .L41
 131:tactic4_ND.c  **** 			timout_time = millis();
 514              		.loc 1 131 0
 515 0040 FFF7FEFF 		bl	ActOnLineDetected
 516              	.LVL68:
 132:tactic4_ND.c  **** 		}
ARM GAS  C:\Users\ARMAND~1\AppData\Local\Temp\cctYvhxR.s 			page 15


 517              		.loc 1 132 0
 518 0044 FFF7FEFF 		bl	millis
 519              	.LVL69:
 520 0048 0546     		mov	r5, r0
 521              	.LVL70:
 522 004a 05E0     		b	.L42
 523              	.LVL71:
 524              	.L41:
 134:tactic4_ND.c  **** 			// opponent spotted
 525              		.loc 1 134 0
 526 004c 20B1     		cbz	r0, .L42
 136:tactic4_ND.c  **** 			timout_time = millis();
 527              		.loc 1 136 0
 528 004e FFF7FEFF 		bl	ActOnEnemySpotted
 529              	.LVL72:
 137:tactic4_ND.c  **** 		}
 530              		.loc 1 137 0
 531 0052 FFF7FEFF 		bl	millis
 532              	.LVL73:
 533 0056 0546     		mov	r5, r0
 534              	.LVL74:
 535              	.L42:
 143:tactic4_ND.c  **** 			timout_time = millis();
 536              		.loc 1 143 0
 537 0058 FFF7FEFF 		bl	millis
 538              	.LVL75:
 539 005c 401B     		subs	r0, r0, r5
 540 005e 40F6B833 		movw	r3, #3000
 541 0062 9842     		cmp	r0, r3
 542 0064 E2D9     		bls	.L43
 144:tactic4_ND.c  **** 			DoSomething();
 543              		.loc 1 144 0
 544 0066 FFF7FEFF 		bl	millis
 545              	.LVL76:
 546 006a 0546     		mov	r5, r0
 547              	.LVL77:
 145:tactic4_ND.c  **** 		}
 548              		.loc 1 145 0
 549 006c FFF7FEFF 		bl	DoSomething
 550              	.LVL78:
 551 0070 DCE7     		b	.L43
 552              	.L47:
 553 0072 00BF     		.align	2
 554              	.L46:
 555 0074 00000000 		.word	.LANCHOR0
 556              		.cfi_endproc
 557              	.LFE66:
 558              		.size	RunTactic4, .-RunTactic4
 559              		.comm	gMotor,16,4
 560              		.comm	gLine,96,4
 561              		.bss
 562              		.align	2
 563              		.set	.LANCHOR0,. + 0
 564              		.type	nextDirection, %object
 565              		.size	nextDirection, 1
 566              	nextDirection:
 567 0000 00       		.space	1
ARM GAS  C:\Users\ARMAND~1\AppData\Local\Temp\cctYvhxR.s 			page 16


 568 0001 000000   		.space	3
 569              		.type	nextPWML, %object
 570              		.size	nextPWML, 4
 571              	nextPWML:
 572 0004 00000000 		.space	4
 573              		.type	nextPWMR, %object
 574              		.size	nextPWMR, 4
 575              	nextPWMR:
 576 0008 00000000 		.space	4
 577              		.type	nextDriveDuration, %object
 578              		.size	nextDriveDuration, 4
 579              	nextDriveDuration:
 580 000c 00000000 		.space	4
 581              		.type	nextDriveActive, %object
 582              		.size	nextDriveActive, 1
 583              	nextDriveActive:
 584 0010 00       		.space	1
 585 0011 000000   		.space	3
 586              		.type	currentDriveEndTime, %object
 587              		.size	currentDriveEndTime, 4
 588              	currentDriveEndTime:
 589 0014 00000000 		.space	4
 590              		.type	lineSens, %object
 591              		.size	lineSens, 1
 592              	lineSens:
 593 0018 00       		.space	1
 594              		.text
 595              	.Letext0:
 596              		.file 2 "c:\\program files (x86)\\cypress\\psoc creator\\4.1\\psoc creator\\import\\gnu\\arm\\5.4.
 597              		.file 3 "c:\\program files (x86)\\cypress\\psoc creator\\4.1\\psoc creator\\import\\gnu\\arm\\5.4.
 598              		.file 4 "Generated_Source\\PSoC5/cytypes.h"
 599              		.file 5 "tactic4_ND.h"
 600              		.file 6 "sensors.h"
 601              		.file 7 "drive.h"
 602              		.file 8 "Generated_Source\\PSoC5/core_cm3.h"
 603              		.file 9 "timer_time.h"
 604              		.file 10 "Generated_Source\\PSoC5/CyLib.h"
