ARM GAS  C:\Users\ARMAND~1\AppData\Local\Temp\ccwqV4ia.s 			page 1


   1              		.syntax unified
   2              		.cpu cortex-m3
   3              		.fpu softvfp
   4              		.eabi_attribute 20, 1
   5              		.eabi_attribute 21, 1
   6              		.eabi_attribute 23, 3
   7              		.eabi_attribute 24, 1
   8              		.eabi_attribute 25, 1
   9              		.eabi_attribute 26, 1
  10              		.eabi_attribute 30, 1
  11              		.eabi_attribute 34, 1
  12              		.eabi_attribute 18, 4
  13              		.thumb
  14              		.syntax unified
  15              		.file	"tactic2_blitz.c"
  16              		.text
  17              	.Ltext0:
  18              		.cfi_sections	.debug_frame
  19              		.section	.text.DoSomething,"ax",%progbits
  20              		.align	2
  21              		.thumb
  22              		.thumb_func
  23              		.type	DoSomething, %function
  24              	DoSomething:
  25              	.LFB66:
  26              		.file 1 "tactic2_blitz.c"
   1:tactic2_blitz.c **** /* ========================================
   2:tactic2_blitz.c ****  *
   3:tactic2_blitz.c ****  * Copyright YOUR COMPANY, THE YEAR
   4:tactic2_blitz.c ****  * All Rights Reserved
   5:tactic2_blitz.c ****  * UNPUBLISHED, LICENSED SOFTWARE.
   6:tactic2_blitz.c ****  *
   7:tactic2_blitz.c ****  * CONFIDENTIAL AND PROPRIETARY INFORMATION
   8:tactic2_blitz.c ****  * WHICH IS THE PROPERTY OF your company.
   9:tactic2_blitz.c ****  *
  10:tactic2_blitz.c ****  * ========================================
  11:tactic2_blitz.c **** */
  12:tactic2_blitz.c **** #include <project.h>
  13:tactic2_blitz.c **** #include "tactic2_blitz.h"
  14:tactic2_blitz.c **** #include "sensors.h"
  15:tactic2_blitz.c **** #include "timer_time.h"
  16:tactic2_blitz.c **** #include "drive.h"
  17:tactic2_blitz.c **** 
  18:tactic2_blitz.c **** //=============================================================================
  19:tactic2_blitz.c **** // Private defines and typedefs
  20:tactic2_blitz.c **** //=============================================================================
  21:tactic2_blitz.c **** #define Rd_bits(value, mask)        ((value)&(mask))
  22:tactic2_blitz.c **** 
  23:tactic2_blitz.c **** #define SEARCH_PWM_L  25
  24:tactic2_blitz.c **** #define SEARCH_PWM_R  25
  25:tactic2_blitz.c **** #define TURN_PWM    40
  26:tactic2_blitz.c **** #define ATTACK_PWM  70
  27:tactic2_blitz.c **** 
  28:tactic2_blitz.c **** //=============================================================================
  29:tactic2_blitz.c **** // Private function declarations
  30:tactic2_blitz.c **** //=============================================================================
  31:tactic2_blitz.c **** static void ActOnEnemySpotted(void);
ARM GAS  C:\Users\ARMAND~1\AppData\Local\Temp\ccwqV4ia.s 			page 2


  32:tactic2_blitz.c **** static void ActOnLineDetected(void);
  33:tactic2_blitz.c **** static void DoSomething(void);
  34:tactic2_blitz.c **** 
  35:tactic2_blitz.c **** //=============================================================================
  36:tactic2_blitz.c **** // Private data definitions
  37:tactic2_blitz.c **** //=============================================================================
  38:tactic2_blitz.c **** static uint8_t lineSens = 0;
  39:tactic2_blitz.c **** static uint8_t distSens = 0;
  40:tactic2_blitz.c **** static uint8_t side = 0;
  41:tactic2_blitz.c **** 
  42:tactic2_blitz.c **** 
  43:tactic2_blitz.c **** //=============================================================================
  44:tactic2_blitz.c **** // Public function definitions
  45:tactic2_blitz.c **** //=============================================================================
  46:tactic2_blitz.c **** 
  47:tactic2_blitz.c **** //-----------------------------------------------------------------------------
  48:tactic2_blitz.c **** //! \brief	Combat tactic #1 in action
  49:tactic2_blitz.c **** //-----------------------------------------------------------------------------
  50:tactic2_blitz.c **** void RunTactic2()
  51:tactic2_blitz.c **** {
  52:tactic2_blitz.c ****     WaitForIRStart();
  53:tactic2_blitz.c ****     
  54:tactic2_blitz.c ****     // ============================ First move ================================
  55:tactic2_blitz.c **** /*
  56:tactic2_blitz.c ****     turn_left(50);
  57:tactic2_blitz.c ****     CyDelay(100);
  58:tactic2_blitz.c ****     drive_motors(50, 50);
  59:tactic2_blitz.c ****     CyDelay(300);
  60:tactic2_blitz.c ****     turn_right(50);
  61:tactic2_blitz.c ****     CyDelay(100);
  62:tactic2_blitz.c **** */
  63:tactic2_blitz.c ****     //CyDelay(5000);
  64:tactic2_blitz.c ****     drive_forward(SEARCH_PWM_L, SEARCH_PWM_R);
  65:tactic2_blitz.c ****     CyDelay(50);
  66:tactic2_blitz.c **** 
  67:tactic2_blitz.c **** 
  68:tactic2_blitz.c ****     // ============================= Main loop ================================
  69:tactic2_blitz.c ****     uint32_t timout_time = millis();
  70:tactic2_blitz.c ****     while (1) {
  71:tactic2_blitz.c **** 		// read all sensors
  72:tactic2_blitz.c **** 		lineSens = LineSensRead();
  73:tactic2_blitz.c **** 	    distSens = DistSensRead(); //Distance_sensor_value_Read();
  74:tactic2_blitz.c ****         //Sensor_Reset_Write(0xFF);  // why???
  75:tactic2_blitz.c ****         
  76:tactic2_blitz.c ****         //Sensor_Reset_Write(0); 
  77:tactic2_blitz.c **** 
  78:tactic2_blitz.c **** 		if( 0 < lineSens ){
  79:tactic2_blitz.c **** 			// line has detected
  80:tactic2_blitz.c **** 		    ActOnLineDetected();
  81:tactic2_blitz.c **** 			timout_time = millis();
  82:tactic2_blitz.c **** 		}
  83:tactic2_blitz.c **** 		else if( 0 < distSens ){
  84:tactic2_blitz.c **** 			// opponent spotted
  85:tactic2_blitz.c **** 			ActOnEnemySpotted();
  86:tactic2_blitz.c **** 			timout_time = millis();
  87:tactic2_blitz.c **** 		}
  88:tactic2_blitz.c ****         else {
ARM GAS  C:\Users\ARMAND~1\AppData\Local\Temp\ccwqV4ia.s 			page 3


  89:tactic2_blitz.c ****             drive_forward(0, 0);
  90:tactic2_blitz.c ****             //CyDelay(50);
  91:tactic2_blitz.c ****         }
  92:tactic2_blitz.c **** 
  93:tactic2_blitz.c **** 		if( 1500 < millis() - timout_time ){
  94:tactic2_blitz.c **** 			timout_time = millis();
  95:tactic2_blitz.c **** 			DoSomething();
  96:tactic2_blitz.c **** 		}
  97:tactic2_blitz.c ****     }
  98:tactic2_blitz.c **** }
  99:tactic2_blitz.c **** 
 100:tactic2_blitz.c **** //=============================================================================
 101:tactic2_blitz.c **** // Private function definitions
 102:tactic2_blitz.c **** //=============================================================================
 103:tactic2_blitz.c **** 
 104:tactic2_blitz.c **** //! \brief	Act on opponent spotted event
 105:tactic2_blitz.c **** void ActOnEnemySpotted(void){
 106:tactic2_blitz.c **** 
 107:tactic2_blitz.c **** 
 108:tactic2_blitz.c **** 	    int distSens = DistSensRead(); //Distance_sensor_value_Read();
 109:tactic2_blitz.c ****         //Sensor_Reset_Write(0xFF);  // why???
 110:tactic2_blitz.c ****         
 111:tactic2_blitz.c ****         //Sensor_Reset_Write(0); 
 112:tactic2_blitz.c **** 
 113:tactic2_blitz.c ****     	if( 0 < distSens ){
 114:tactic2_blitz.c ****             int8_t avrg_angle_grad = CalcAvrgAngle();
 115:tactic2_blitz.c **** 
 116:tactic2_blitz.c ****         	int8_t pwm = 60;
 117:tactic2_blitz.c ****             // Attack spotted opponent
 118:tactic2_blitz.c ****         	if( 0 == avrg_angle_grad ){
 119:tactic2_blitz.c ****         		drive_forward( ATTACK_PWM , ATTACK_PWM );		// drive forward
 120:tactic2_blitz.c ****         		CyDelay(40);
 121:tactic2_blitz.c ****         	}else if( -60 >= avrg_angle_grad ){
 122:tactic2_blitz.c ****         		// [-90; -60] grad
 123:tactic2_blitz.c ****         		turn_left(TURN_PWM,TURN_PWM); //drive_motors( -pwm, pwm );		// turn on spot left
 124:tactic2_blitz.c ****                 CyDelay(40);
 125:tactic2_blitz.c ****         	}else if( -30 >= avrg_angle_grad ){
 126:tactic2_blitz.c ****         		// (-60; -30] grad
 127:tactic2_blitz.c ****         		drive_forward( pwm / 3, pwm );	// drive more left
 128:tactic2_blitz.c ****                 CyDelay(30);
 129:tactic2_blitz.c ****         	}else if( 0 > avrg_angle_grad ){
 130:tactic2_blitz.c ****         		// (-30; 0) grad
 131:tactic2_blitz.c ****         		drive_forward( ATTACK_PWM * 0.7, ATTACK_PWM );	// drive little left
 132:tactic2_blitz.c ****                 CyDelay(40);
 133:tactic2_blitz.c ****         	}else if( 60 <= avrg_angle_grad ){
 134:tactic2_blitz.c ****         		// [60; 90] grad
 135:tactic2_blitz.c ****         		turn_right(TURN_PWM,TURN_PWM); //drive_motors( pwm, -pwm );		// turn on spot right
 136:tactic2_blitz.c ****                 CyDelay(40);
 137:tactic2_blitz.c ****         	}else if( 30 <= avrg_angle_grad ){
 138:tactic2_blitz.c ****         		// [30; 60) grad
 139:tactic2_blitz.c ****         		drive_forward( pwm, pwm / 3 );	// drive more right
 140:tactic2_blitz.c ****                 CyDelay(30);
 141:tactic2_blitz.c ****         	}else if( 0 <= avrg_angle_grad ){
 142:tactic2_blitz.c ****         		// (0; 30) grad
 143:tactic2_blitz.c ****         		drive_forward( ATTACK_PWM, ATTACK_PWM * 0.7 );	// drive little right
 144:tactic2_blitz.c ****                 CyDelay(40);
 145:tactic2_blitz.c ****         	}
ARM GAS  C:\Users\ARMAND~1\AppData\Local\Temp\ccwqV4ia.s 			page 4


 146:tactic2_blitz.c ****             CyDelay(10);
 147:tactic2_blitz.c **** 
 148:tactic2_blitz.c ****     		}
 149:tactic2_blitz.c ****         else {
 150:tactic2_blitz.c ****             drive_forward(0, 0);
 151:tactic2_blitz.c ****             //CyDelay(50);
 152:tactic2_blitz.c ****         }
 153:tactic2_blitz.c ****        
 154:tactic2_blitz.c **** }
 155:tactic2_blitz.c **** 
 156:tactic2_blitz.c **** //! \brief	Act on line detected event
 157:tactic2_blitz.c **** //! \brief	Act on line detected event
 158:tactic2_blitz.c **** void ActOnLineDetected(void){
 159:tactic2_blitz.c **** 	//int lineSens = LineSensRead();
 160:tactic2_blitz.c ****      
 161:tactic2_blitz.c **** 	// Line_FL && Line_FR
 162:tactic2_blitz.c **** 	if(gLine.F_LEFT && gLine.F_RIGHT){
 163:tactic2_blitz.c ****         drive_backward(40,40); //drive_distance_straight_backward(10, 40);
 164:tactic2_blitz.c ****         CyDelay(400);
 165:tactic2_blitz.c ****         //turn_angle_right(170,50);
 166:tactic2_blitz.c ****         turn_left(TURN_PWM,TURN_PWM); //turn_angle_right(180, TURN_PWM );
 167:tactic2_blitz.c ****         CyDelay(300);
 168:tactic2_blitz.c **** 	}
 169:tactic2_blitz.c **** 	// Line_FL
 170:tactic2_blitz.c **** 	else if(gLine.F_LEFT){
 171:tactic2_blitz.c ****         drive_backward(40,40); //drive_distance_straight_backward(10, 40);
 172:tactic2_blitz.c ****         CyDelay(150);
 173:tactic2_blitz.c ****         turn_right(TURN_PWM,TURN_PWM); //turn_angle_right(135, TURN_PWM );
 174:tactic2_blitz.c ****         CyDelay(200);
 175:tactic2_blitz.c **** 	}
 176:tactic2_blitz.c **** 	// Line_FR
 177:tactic2_blitz.c **** 	else if(gLine.F_RIGHT){
 178:tactic2_blitz.c ****         drive_backward(40,40); //drive_distance_straight_backward(10, 40);
 179:tactic2_blitz.c ****         CyDelay(150);
 180:tactic2_blitz.c ****         turn_left(TURN_PWM,TURN_PWM); //turn_angle_left(135, TURN_PWM );
 181:tactic2_blitz.c ****         CyDelay(200);
 182:tactic2_blitz.c **** 	}
 183:tactic2_blitz.c ****     //drive_forward( 0, 0 );
 184:tactic2_blitz.c **** }
 185:tactic2_blitz.c **** 
 186:tactic2_blitz.c **** //! \brief	Do something when opponent is not visible
 187:tactic2_blitz.c **** void DoSomething(void){
  27              		.loc 1 187 0
  28              		.cfi_startproc
  29              		@ args = 0, pretend = 0, frame = 0
  30              		@ frame_needed = 0, uses_anonymous_args = 0
  31 0000 08B5     		push	{r3, lr}
  32              		.cfi_def_cfa_offset 8
  33              		.cfi_offset 3, -8
  34              		.cfi_offset 14, -4
 188:tactic2_blitz.c **** 	// Drive little forward.
 189:tactic2_blitz.c ****     drive_forward(45,50);
  35              		.loc 1 189 0
  36 0002 3221     		movs	r1, #50
  37 0004 2D20     		movs	r0, #45
  38 0006 FFF7FEFF 		bl	drive_forward
  39              	.LVL0:
ARM GAS  C:\Users\ARMAND~1\AppData\Local\Temp\ccwqV4ia.s 			page 5


 190:tactic2_blitz.c ****     CyDelay(50);
  40              		.loc 1 190 0
  41 000a 3220     		movs	r0, #50
  42 000c FFF7FEFF 		bl	CyDelay
  43              	.LVL1:
 191:tactic2_blitz.c ****     drive_forward( 0, 0 ); // BREAK A BIT FOR FUN
  44              		.loc 1 191 0
  45 0010 0021     		movs	r1, #0
  46 0012 0846     		mov	r0, r1
  47 0014 FFF7FEFF 		bl	drive_forward
  48              	.LVL2:
 192:tactic2_blitz.c ****     CyDelay(10);
  49              		.loc 1 192 0
  50 0018 0A20     		movs	r0, #10
  51 001a FFF7FEFF 		bl	CyDelay
  52              	.LVL3:
  53 001e 08BD     		pop	{r3, pc}
  54              		.cfi_endproc
  55              	.LFE66:
  56              		.size	DoSomething, .-DoSomething
  57              		.section	.text.ActOnLineDetected,"ax",%progbits
  58              		.align	2
  59              		.thumb
  60              		.thumb_func
  61              		.type	ActOnLineDetected, %function
  62              	ActOnLineDetected:
  63              	.LFB65:
 158:tactic2_blitz.c **** 	//int lineSens = LineSensRead();
  64              		.loc 1 158 0
  65              		.cfi_startproc
  66              		@ args = 0, pretend = 0, frame = 0
  67              		@ frame_needed = 0, uses_anonymous_args = 0
  68 0000 08B5     		push	{r3, lr}
  69              		.cfi_def_cfa_offset 8
  70              		.cfi_offset 3, -8
  71              		.cfi_offset 14, -4
 162:tactic2_blitz.c ****         drive_backward(40,40); //drive_distance_straight_backward(10, 40);
  72              		.loc 1 162 0
  73 0002 1C4B     		ldr	r3, .L8
  74 0004 9B69     		ldr	r3, [r3, #24]
  75 0006 9BB1     		cbz	r3, .L4
 162:tactic2_blitz.c ****         drive_backward(40,40); //drive_distance_straight_backward(10, 40);
  76              		.loc 1 162 0 is_stmt 0 discriminator 1
  77 0008 1A4A     		ldr	r2, .L8
  78 000a D269     		ldr	r2, [r2, #28]
  79 000c 82B1     		cbz	r2, .L4
 163:tactic2_blitz.c ****         CyDelay(400);
  80              		.loc 1 163 0 is_stmt 1
  81 000e 2821     		movs	r1, #40
  82 0010 0846     		mov	r0, r1
  83 0012 FFF7FEFF 		bl	drive_backward
  84              	.LVL4:
 164:tactic2_blitz.c ****         //turn_angle_right(170,50);
  85              		.loc 1 164 0
  86 0016 4FF4C870 		mov	r0, #400
  87 001a FFF7FEFF 		bl	CyDelay
  88              	.LVL5:
ARM GAS  C:\Users\ARMAND~1\AppData\Local\Temp\ccwqV4ia.s 			page 6


 166:tactic2_blitz.c ****         CyDelay(300);
  89              		.loc 1 166 0
  90 001e 2821     		movs	r1, #40
  91 0020 0846     		mov	r0, r1
  92 0022 FFF7FEFF 		bl	turn_left
  93              	.LVL6:
 167:tactic2_blitz.c **** 	}
  94              		.loc 1 167 0
  95 0026 4FF49670 		mov	r0, #300
  96 002a FFF7FEFF 		bl	CyDelay
  97              	.LVL7:
  98 002e 08BD     		pop	{r3, pc}
  99              	.L4:
 170:tactic2_blitz.c ****         drive_backward(40,40); //drive_distance_straight_backward(10, 40);
 100              		.loc 1 170 0
 101 0030 73B1     		cbz	r3, .L6
 171:tactic2_blitz.c ****         CyDelay(150);
 102              		.loc 1 171 0
 103 0032 2821     		movs	r1, #40
 104 0034 0846     		mov	r0, r1
 105 0036 FFF7FEFF 		bl	drive_backward
 106              	.LVL8:
 172:tactic2_blitz.c ****         turn_right(TURN_PWM,TURN_PWM); //turn_angle_right(135, TURN_PWM );
 107              		.loc 1 172 0
 108 003a 9620     		movs	r0, #150
 109 003c FFF7FEFF 		bl	CyDelay
 110              	.LVL9:
 173:tactic2_blitz.c ****         CyDelay(200);
 111              		.loc 1 173 0
 112 0040 2821     		movs	r1, #40
 113 0042 0846     		mov	r0, r1
 114 0044 FFF7FEFF 		bl	turn_right
 115              	.LVL10:
 174:tactic2_blitz.c **** 	}
 116              		.loc 1 174 0
 117 0048 C820     		movs	r0, #200
 118 004a FFF7FEFF 		bl	CyDelay
 119              	.LVL11:
 120 004e 08BD     		pop	{r3, pc}
 121              	.L6:
 177:tactic2_blitz.c ****         drive_backward(40,40); //drive_distance_straight_backward(10, 40);
 122              		.loc 1 177 0
 123 0050 084B     		ldr	r3, .L8
 124 0052 DB69     		ldr	r3, [r3, #28]
 125 0054 6BB1     		cbz	r3, .L3
 178:tactic2_blitz.c ****         CyDelay(150);
 126              		.loc 1 178 0
 127 0056 2821     		movs	r1, #40
 128 0058 0846     		mov	r0, r1
 129 005a FFF7FEFF 		bl	drive_backward
 130              	.LVL12:
 179:tactic2_blitz.c ****         turn_left(TURN_PWM,TURN_PWM); //turn_angle_left(135, TURN_PWM );
 131              		.loc 1 179 0
 132 005e 9620     		movs	r0, #150
 133 0060 FFF7FEFF 		bl	CyDelay
 134              	.LVL13:
 180:tactic2_blitz.c ****         CyDelay(200);
ARM GAS  C:\Users\ARMAND~1\AppData\Local\Temp\ccwqV4ia.s 			page 7


 135              		.loc 1 180 0
 136 0064 2821     		movs	r1, #40
 137 0066 0846     		mov	r0, r1
 138 0068 FFF7FEFF 		bl	turn_left
 139              	.LVL14:
 181:tactic2_blitz.c **** 	}
 140              		.loc 1 181 0
 141 006c C820     		movs	r0, #200
 142 006e FFF7FEFF 		bl	CyDelay
 143              	.LVL15:
 144              	.L3:
 145 0072 08BD     		pop	{r3, pc}
 146              	.L9:
 147              		.align	2
 148              	.L8:
 149 0074 00000000 		.word	gLine
 150              		.cfi_endproc
 151              	.LFE65:
 152              		.size	ActOnLineDetected, .-ActOnLineDetected
 153              		.section	.text.ActOnEnemySpotted,"ax",%progbits
 154              		.align	2
 155              		.thumb
 156              		.thumb_func
 157              		.type	ActOnEnemySpotted, %function
 158              	ActOnEnemySpotted:
 159              	.LFB64:
 105:tactic2_blitz.c **** 
 160              		.loc 1 105 0
 161              		.cfi_startproc
 162              		@ args = 0, pretend = 0, frame = 0
 163              		@ frame_needed = 0, uses_anonymous_args = 0
 164 0000 08B5     		push	{r3, lr}
 165              		.cfi_def_cfa_offset 8
 166              		.cfi_offset 3, -8
 167              		.cfi_offset 14, -4
 108:tactic2_blitz.c ****         //Sensor_Reset_Write(0xFF);  // why???
 168              		.loc 1 108 0
 169 0002 FFF7FEFF 		bl	DistSensRead
 170              	.LVL16:
 113:tactic2_blitz.c ****             int8_t avrg_angle_grad = CalcAvrgAngle();
 171              		.loc 1 113 0
 172 0006 0028     		cmp	r0, #0
 173 0008 4BDD     		ble	.L11
 174              	.LBB2:
 114:tactic2_blitz.c **** 
 175              		.loc 1 114 0
 176 000a FFF7FEFF 		bl	CalcAvrgAngle
 177              	.LVL17:
 118:tactic2_blitz.c ****         		drive_forward( ATTACK_PWM , ATTACK_PWM );		// drive forward
 178              		.loc 1 118 0
 179 000e 38B9     		cbnz	r0, .L12
 119:tactic2_blitz.c ****         		CyDelay(40);
 180              		.loc 1 119 0
 181 0010 4621     		movs	r1, #70
 182 0012 0846     		mov	r0, r1
 183              	.LVL18:
 184 0014 FFF7FEFF 		bl	drive_forward
ARM GAS  C:\Users\ARMAND~1\AppData\Local\Temp\ccwqV4ia.s 			page 8


 185              	.LVL19:
 120:tactic2_blitz.c ****         	}else if( -60 >= avrg_angle_grad ){
 186              		.loc 1 120 0
 187 0018 2820     		movs	r0, #40
 188 001a FFF7FEFF 		bl	CyDelay
 189              	.LVL20:
 190 001e 3CE0     		b	.L13
 191              	.LVL21:
 192              	.L12:
 121:tactic2_blitz.c ****         		// [-90; -60] grad
 193              		.loc 1 121 0
 194 0020 10F13B0F 		cmn	r0, #59
 195 0024 07DA     		bge	.L14
 123:tactic2_blitz.c ****                 CyDelay(40);
 196              		.loc 1 123 0
 197 0026 2821     		movs	r1, #40
 198 0028 0846     		mov	r0, r1
 199              	.LVL22:
 200 002a FFF7FEFF 		bl	turn_left
 201              	.LVL23:
 124:tactic2_blitz.c ****         	}else if( -30 >= avrg_angle_grad ){
 202              		.loc 1 124 0
 203 002e 2820     		movs	r0, #40
 204 0030 FFF7FEFF 		bl	CyDelay
 205              	.LVL24:
 206 0034 31E0     		b	.L13
 207              	.LVL25:
 208              	.L14:
 125:tactic2_blitz.c ****         		// (-60; -30] grad
 209              		.loc 1 125 0
 210 0036 10F11D0F 		cmn	r0, #29
 211 003a 07DA     		bge	.L15
 127:tactic2_blitz.c ****                 CyDelay(30);
 212              		.loc 1 127 0
 213 003c 3C21     		movs	r1, #60
 214 003e 1420     		movs	r0, #20
 215              	.LVL26:
 216 0040 FFF7FEFF 		bl	drive_forward
 217              	.LVL27:
 128:tactic2_blitz.c ****         	}else if( 0 > avrg_angle_grad ){
 218              		.loc 1 128 0
 219 0044 1E20     		movs	r0, #30
 220 0046 FFF7FEFF 		bl	CyDelay
 221              	.LVL28:
 222 004a 26E0     		b	.L13
 223              	.LVL29:
 224              	.L15:
 129:tactic2_blitz.c ****         		// (-30; 0) grad
 225              		.loc 1 129 0
 226 004c 0028     		cmp	r0, #0
 227 004e 07DA     		bge	.L16
 131:tactic2_blitz.c ****                 CyDelay(40);
 228              		.loc 1 131 0
 229 0050 4621     		movs	r1, #70
 230 0052 3120     		movs	r0, #49
 231              	.LVL30:
 232 0054 FFF7FEFF 		bl	drive_forward
ARM GAS  C:\Users\ARMAND~1\AppData\Local\Temp\ccwqV4ia.s 			page 9


 233              	.LVL31:
 132:tactic2_blitz.c ****         	}else if( 60 <= avrg_angle_grad ){
 234              		.loc 1 132 0
 235 0058 2820     		movs	r0, #40
 236 005a FFF7FEFF 		bl	CyDelay
 237              	.LVL32:
 238 005e 1CE0     		b	.L13
 239              	.LVL33:
 240              	.L16:
 133:tactic2_blitz.c ****         		// [60; 90] grad
 241              		.loc 1 133 0
 242 0060 3B28     		cmp	r0, #59
 243 0062 07DD     		ble	.L17
 135:tactic2_blitz.c ****                 CyDelay(40);
 244              		.loc 1 135 0
 245 0064 2821     		movs	r1, #40
 246 0066 0846     		mov	r0, r1
 247              	.LVL34:
 248 0068 FFF7FEFF 		bl	turn_right
 249              	.LVL35:
 136:tactic2_blitz.c ****         	}else if( 30 <= avrg_angle_grad ){
 250              		.loc 1 136 0
 251 006c 2820     		movs	r0, #40
 252 006e FFF7FEFF 		bl	CyDelay
 253              	.LVL36:
 254 0072 12E0     		b	.L13
 255              	.LVL37:
 256              	.L17:
 137:tactic2_blitz.c ****         		// [30; 60) grad
 257              		.loc 1 137 0
 258 0074 1D28     		cmp	r0, #29
 259 0076 07DD     		ble	.L18
 139:tactic2_blitz.c ****                 CyDelay(30);
 260              		.loc 1 139 0
 261 0078 1421     		movs	r1, #20
 262 007a 3C20     		movs	r0, #60
 263              	.LVL38:
 264 007c FFF7FEFF 		bl	drive_forward
 265              	.LVL39:
 140:tactic2_blitz.c ****         	}else if( 0 <= avrg_angle_grad ){
 266              		.loc 1 140 0
 267 0080 1E20     		movs	r0, #30
 268 0082 FFF7FEFF 		bl	CyDelay
 269              	.LVL40:
 270 0086 08E0     		b	.L13
 271              	.LVL41:
 272              	.L18:
 141:tactic2_blitz.c ****         		// (0; 30) grad
 273              		.loc 1 141 0
 274 0088 0028     		cmp	r0, #0
 275 008a 06DB     		blt	.L13
 143:tactic2_blitz.c ****                 CyDelay(40);
 276              		.loc 1 143 0
 277 008c 3121     		movs	r1, #49
 278 008e 4620     		movs	r0, #70
 279              	.LVL42:
 280 0090 FFF7FEFF 		bl	drive_forward
ARM GAS  C:\Users\ARMAND~1\AppData\Local\Temp\ccwqV4ia.s 			page 10


 281              	.LVL43:
 144:tactic2_blitz.c ****         	}
 282              		.loc 1 144 0
 283 0094 2820     		movs	r0, #40
 284 0096 FFF7FEFF 		bl	CyDelay
 285              	.LVL44:
 286              	.L13:
 146:tactic2_blitz.c **** 
 287              		.loc 1 146 0
 288 009a 0A20     		movs	r0, #10
 289 009c FFF7FEFF 		bl	CyDelay
 290              	.LVL45:
 291              	.LBE2:
 292 00a0 08BD     		pop	{r3, pc}
 293              	.LVL46:
 294              	.L11:
 150:tactic2_blitz.c ****             //CyDelay(50);
 295              		.loc 1 150 0
 296 00a2 0021     		movs	r1, #0
 297 00a4 0846     		mov	r0, r1
 298              	.LVL47:
 299 00a6 FFF7FEFF 		bl	drive_forward
 300              	.LVL48:
 301 00aa 08BD     		pop	{r3, pc}
 302              		.cfi_endproc
 303              	.LFE64:
 304              		.size	ActOnEnemySpotted, .-ActOnEnemySpotted
 305              		.section	.text.RunTactic2,"ax",%progbits
 306              		.align	2
 307              		.global	RunTactic2
 308              		.thumb
 309              		.thumb_func
 310              		.type	RunTactic2, %function
 311              	RunTactic2:
 312              	.LFB63:
  51:tactic2_blitz.c ****     WaitForIRStart();
 313              		.loc 1 51 0
 314              		.cfi_startproc
 315              		@ args = 0, pretend = 0, frame = 0
 316              		@ frame_needed = 0, uses_anonymous_args = 0
 317 0000 38B5     		push	{r3, r4, r5, lr}
 318              		.cfi_def_cfa_offset 16
 319              		.cfi_offset 3, -16
 320              		.cfi_offset 4, -12
 321              		.cfi_offset 5, -8
 322              		.cfi_offset 14, -4
  52:tactic2_blitz.c ****     
 323              		.loc 1 52 0
 324 0002 FFF7FEFF 		bl	WaitForIRStart
 325              	.LVL49:
  64:tactic2_blitz.c ****     CyDelay(50);
 326              		.loc 1 64 0
 327 0006 1921     		movs	r1, #25
 328 0008 0846     		mov	r0, r1
 329 000a FFF7FEFF 		bl	drive_forward
 330              	.LVL50:
  65:tactic2_blitz.c **** 
ARM GAS  C:\Users\ARMAND~1\AppData\Local\Temp\ccwqV4ia.s 			page 11


 331              		.loc 1 65 0
 332 000e 3220     		movs	r0, #50
 333 0010 FFF7FEFF 		bl	CyDelay
 334              	.LVL51:
  69:tactic2_blitz.c ****     while (1) {
 335              		.loc 1 69 0
 336 0014 FFF7FEFF 		bl	millis
 337              	.LVL52:
 338 0018 0546     		mov	r5, r0
 339              	.LVL53:
 340              	.L25:
  72:tactic2_blitz.c **** 	    distSens = DistSensRead(); //Distance_sensor_value_Read();
 341              		.loc 1 72 0
 342 001a FFF7FEFF 		bl	LineSensRead
 343              	.LVL54:
 344 001e 124C     		ldr	r4, .L28
 345 0020 2070     		strb	r0, [r4]
  73:tactic2_blitz.c ****         //Sensor_Reset_Write(0xFF);  // why???
 346              		.loc 1 73 0
 347 0022 FFF7FEFF 		bl	DistSensRead
 348              	.LVL55:
  78:tactic2_blitz.c **** 			// line has detected
 349              		.loc 1 78 0
 350 0026 2378     		ldrb	r3, [r4]	@ zero_extendqisi2
 351 0028 2BB1     		cbz	r3, .L22
  80:tactic2_blitz.c **** 			timout_time = millis();
 352              		.loc 1 80 0
 353 002a FFF7FEFF 		bl	ActOnLineDetected
 354              	.LVL56:
  81:tactic2_blitz.c **** 		}
 355              		.loc 1 81 0
 356 002e FFF7FEFF 		bl	millis
 357              	.LVL57:
 358 0032 0546     		mov	r5, r0
 359              	.LVL58:
 360 0034 0AE0     		b	.L23
 361              	.LVL59:
 362              	.L22:
  83:tactic2_blitz.c **** 			// opponent spotted
 363              		.loc 1 83 0
 364 0036 28B1     		cbz	r0, .L24
  85:tactic2_blitz.c **** 			timout_time = millis();
 365              		.loc 1 85 0
 366 0038 FFF7FEFF 		bl	ActOnEnemySpotted
 367              	.LVL60:
  86:tactic2_blitz.c **** 		}
 368              		.loc 1 86 0
 369 003c FFF7FEFF 		bl	millis
 370              	.LVL61:
 371 0040 0546     		mov	r5, r0
 372              	.LVL62:
 373 0042 03E0     		b	.L23
 374              	.LVL63:
 375              	.L24:
  89:tactic2_blitz.c ****             //CyDelay(50);
 376              		.loc 1 89 0
 377 0044 0021     		movs	r1, #0
ARM GAS  C:\Users\ARMAND~1\AppData\Local\Temp\ccwqV4ia.s 			page 12


 378 0046 0846     		mov	r0, r1
 379 0048 FFF7FEFF 		bl	drive_forward
 380              	.LVL64:
 381              	.L23:
  93:tactic2_blitz.c **** 			timout_time = millis();
 382              		.loc 1 93 0
 383 004c FFF7FEFF 		bl	millis
 384              	.LVL65:
 385 0050 401B     		subs	r0, r0, r5
 386 0052 40F2DC53 		movw	r3, #1500
 387 0056 9842     		cmp	r0, r3
 388 0058 DFD9     		bls	.L25
  94:tactic2_blitz.c **** 			DoSomething();
 389              		.loc 1 94 0
 390 005a FFF7FEFF 		bl	millis
 391              	.LVL66:
 392 005e 0546     		mov	r5, r0
 393              	.LVL67:
  95:tactic2_blitz.c **** 		}
 394              		.loc 1 95 0
 395 0060 FFF7FEFF 		bl	DoSomething
 396              	.LVL68:
 397 0064 D9E7     		b	.L25
 398              	.L29:
 399 0066 00BF     		.align	2
 400              	.L28:
 401 0068 00000000 		.word	.LANCHOR0
 402              		.cfi_endproc
 403              	.LFE63:
 404              		.size	RunTactic2, .-RunTactic2
 405              		.comm	gMotor,16,4
 406              		.comm	gLine,96,4
 407              		.bss
 408              		.set	.LANCHOR0,. + 0
 409              		.type	lineSens, %object
 410              		.size	lineSens, 1
 411              	lineSens:
 412 0000 00       		.space	1
 413              		.text
 414              	.Letext0:
 415              		.file 2 "c:\\program files (x86)\\cypress\\psoc creator\\4.1\\psoc creator\\import\\gnu\\arm\\5.4.
 416              		.file 3 "c:\\program files (x86)\\cypress\\psoc creator\\4.1\\psoc creator\\import\\gnu\\arm\\5.4.
 417              		.file 4 "sensors.h"
 418              		.file 5 "drive.h"
 419              		.file 6 "Generated_Source\\PSoC5/core_cm3.h"
 420              		.file 7 "Generated_Source\\PSoC5/CyLib.h"
 421              		.file 8 "timer_time.h"
