ARM GAS  C:\Users\MANSRO~1\AppData\Local\Temp\ccyEzZ57.s 			page 1


   1              		.syntax unified
   2              		.cpu cortex-m3
   3              		.fpu softvfp
   4              		.eabi_attribute 20, 1
   5              		.eabi_attribute 21, 1
   6              		.eabi_attribute 23, 3
   7              		.eabi_attribute 24, 1
   8              		.eabi_attribute 25, 1
   9              		.eabi_attribute 26, 1
  10              		.eabi_attribute 30, 1
  11              		.eabi_attribute 34, 1
  12              		.eabi_attribute 18, 4
  13              		.thumb
  14              		.syntax unified
  15              		.file	"USBUART_descr.c"
  16              		.text
  17              	.Ltext0:
  18              		.cfi_sections	.debug_frame
  19              		.global	USBUART_TABLE
  20              		.global	USBUART_DEVICE0_TABLE
  21              		.global	USBUART_DEVICE0_CONFIGURATION0_TABLE
  22              		.global	USBUART_DEVICE0_CONFIGURATION0_INTERFACE_CLASS
  23              		.global	USBUART_DEVICE0_CONFIGURATION0_EP_SETTINGS_TABLE
  24              		.global	USBUART_STRING_DESCRIPTORS
  25              		.global	USBUART_DEVICE0_CONFIGURATION0_DESCR
  26              		.global	USBUART_DEVICE0_DESCR
  27              		.section	.rodata
  28              		.align	2
  29              		.type	USBUART_TABLE, %object
  30              		.size	USBUART_TABLE, 8
  31              	USBUART_TABLE:
  32 0000 01       		.byte	1
  33 0001 000000   		.space	3
  34 0004 00000000 		.word	USBUART_DEVICE0_TABLE
  35              		.type	USBUART_DEVICE0_TABLE, %object
  36              		.size	USBUART_DEVICE0_TABLE, 24
  37              	USBUART_DEVICE0_TABLE:
  38 0008 01       		.byte	1
  39 0009 000000   		.space	3
  40 000c 00000000 		.word	USBUART_DEVICE0_DESCR
  41 0010 00       		.byte	0
  42 0011 000000   		.space	3
  43 0014 00000000 		.word	0
  44 0018 01       		.byte	1
  45 0019 000000   		.space	3
  46 001c 00000000 		.word	USBUART_DEVICE0_CONFIGURATION0_TABLE
  47              		.type	USBUART_DEVICE0_CONFIGURATION0_TABLE, %object
  48              		.size	USBUART_DEVICE0_CONFIGURATION0_TABLE, 40
  49              	USBUART_DEVICE0_CONFIGURATION0_TABLE:
  50 0020 01       		.byte	1
  51 0021 000000   		.space	3
  52 0024 00000000 		.word	USBUART_DEVICE0_CONFIGURATION0_DESCR
  53 0028 03       		.byte	3
  54 0029 000000   		.space	3
  55 002c 00000000 		.word	USBUART_DEVICE0_CONFIGURATION0_EP_SETTINGS_TABLE
  56 0030 00       		.byte	0
  57 0031 000000   		.space	3
ARM GAS  C:\Users\MANSRO~1\AppData\Local\Temp\ccyEzZ57.s 			page 2


  58 0034 00000000 		.word	0
  59 0038 00       		.byte	0
  60 0039 000000   		.space	3
  61 003c 00000000 		.word	0
  62 0040 00       		.byte	0
  63 0041 000000   		.space	3
  64 0044 00000000 		.word	USBUART_DEVICE0_CONFIGURATION0_INTERFACE_CLASS
  65              		.type	USBUART_DEVICE0_CONFIGURATION0_INTERFACE_CLASS, %object
  66              		.size	USBUART_DEVICE0_CONFIGURATION0_INTERFACE_CLASS, 2
  67              	USBUART_DEVICE0_CONFIGURATION0_INTERFACE_CLASS:
  68 0048 02       		.byte	2
  69 0049 0A       		.byte	10
  70 004a 0000     		.space	2
  71              		.type	USBUART_DEVICE0_CONFIGURATION0_EP_SETTINGS_TABLE, %object
  72              		.size	USBUART_DEVICE0_CONFIGURATION0_EP_SETTINGS_TABLE, 24
  73              	USBUART_DEVICE0_CONFIGURATION0_EP_SETTINGS_TABLE:
  74 004c 00       		.byte	0
  75 004d 00       		.byte	0
  76 004e 81       		.byte	-127
  77 004f 03       		.byte	3
  78 0050 0800     		.short	8
  79 0052 02       		.byte	2
  80 0053 00       		.space	1
  81 0054 01       		.byte	1
  82 0055 00       		.byte	0
  83 0056 82       		.byte	-126
  84 0057 02       		.byte	2
  85 0058 4000     		.short	64
  86 005a 0A       		.byte	10
  87 005b 00       		.space	1
  88 005c 01       		.byte	1
  89 005d 00       		.byte	0
  90 005e 03       		.byte	3
  91 005f 02       		.byte	2
  92 0060 4000     		.short	64
  93 0062 0A       		.byte	10
  94 0063 00       		.space	1
  95              		.type	USBUART_STRING_DESCRIPTORS, %object
  96              		.size	USBUART_STRING_DESCRIPTORS, 159
  97              	USBUART_STRING_DESCRIPTORS:
  98 0064 04       		.byte	4
  99 0065 03       		.byte	3
 100 0066 09       		.byte	9
 101 0067 04       		.byte	4
 102 0068 2C       		.byte	44
 103 0069 03       		.byte	3
 104 006a 43       		.byte	67
 105 006b 00       		.byte	0
 106 006c 79       		.byte	121
 107 006d 00       		.byte	0
 108 006e 70       		.byte	112
 109 006f 00       		.byte	0
 110 0070 72       		.byte	114
 111 0071 00       		.byte	0
 112 0072 65       		.byte	101
 113 0073 00       		.byte	0
 114 0074 73       		.byte	115
ARM GAS  C:\Users\MANSRO~1\AppData\Local\Temp\ccyEzZ57.s 			page 3


 115 0075 00       		.byte	0
 116 0076 73       		.byte	115
 117 0077 00       		.byte	0
 118 0078 20       		.byte	32
 119 0079 00       		.byte	0
 120 007a 53       		.byte	83
 121 007b 00       		.byte	0
 122 007c 65       		.byte	101
 123 007d 00       		.byte	0
 124 007e 6D       		.byte	109
 125 007f 00       		.byte	0
 126 0080 69       		.byte	105
 127 0081 00       		.byte	0
 128 0082 63       		.byte	99
 129 0083 00       		.byte	0
 130 0084 6F       		.byte	111
 131 0085 00       		.byte	0
 132 0086 6E       		.byte	110
 133 0087 00       		.byte	0
 134 0088 64       		.byte	100
 135 0089 00       		.byte	0
 136 008a 75       		.byte	117
 137 008b 00       		.byte	0
 138 008c 63       		.byte	99
 139 008d 00       		.byte	0
 140 008e 74       		.byte	116
 141 008f 00       		.byte	0
 142 0090 6F       		.byte	111
 143 0091 00       		.byte	0
 144 0092 72       		.byte	114
 145 0093 00       		.byte	0
 146 0094 10       		.byte	16
 147 0095 03       		.byte	3
 148 0096 55       		.byte	85
 149 0097 00       		.byte	0
 150 0098 53       		.byte	83
 151 0099 00       		.byte	0
 152 009a 42       		.byte	66
 153 009b 00       		.byte	0
 154 009c 55       		.byte	85
 155 009d 00       		.byte	0
 156 009e 41       		.byte	65
 157 009f 00       		.byte	0
 158 00a0 52       		.byte	82
 159 00a1 00       		.byte	0
 160 00a2 54       		.byte	84
 161 00a3 00       		.byte	0
 162 00a4 38       		.byte	56
 163 00a5 03       		.byte	3
 164 00a6 43       		.byte	67
 165 00a7 00       		.byte	0
 166 00a8 44       		.byte	68
 167 00a9 00       		.byte	0
 168 00aa 43       		.byte	67
 169 00ab 00       		.byte	0
 170 00ac 20       		.byte	32
 171 00ad 00       		.byte	0
ARM GAS  C:\Users\MANSRO~1\AppData\Local\Temp\ccyEzZ57.s 			page 4


 172 00ae 43       		.byte	67
 173 00af 00       		.byte	0
 174 00b0 6F       		.byte	111
 175 00b1 00       		.byte	0
 176 00b2 6D       		.byte	109
 177 00b3 00       		.byte	0
 178 00b4 6D       		.byte	109
 179 00b5 00       		.byte	0
 180 00b6 75       		.byte	117
 181 00b7 00       		.byte	0
 182 00b8 6E       		.byte	110
 183 00b9 00       		.byte	0
 184 00ba 69       		.byte	105
 185 00bb 00       		.byte	0
 186 00bc 63       		.byte	99
 187 00bd 00       		.byte	0
 188 00be 61       		.byte	97
 189 00bf 00       		.byte	0
 190 00c0 74       		.byte	116
 191 00c1 00       		.byte	0
 192 00c2 69       		.byte	105
 193 00c3 00       		.byte	0
 194 00c4 6F       		.byte	111
 195 00c5 00       		.byte	0
 196 00c6 6E       		.byte	110
 197 00c7 00       		.byte	0
 198 00c8 20       		.byte	32
 199 00c9 00       		.byte	0
 200 00ca 49       		.byte	73
 201 00cb 00       		.byte	0
 202 00cc 6E       		.byte	110
 203 00cd 00       		.byte	0
 204 00ce 74       		.byte	116
 205 00cf 00       		.byte	0
 206 00d0 65       		.byte	101
 207 00d1 00       		.byte	0
 208 00d2 72       		.byte	114
 209 00d3 00       		.byte	0
 210 00d4 66       		.byte	102
 211 00d5 00       		.byte	0
 212 00d6 61       		.byte	97
 213 00d7 00       		.byte	0
 214 00d8 63       		.byte	99
 215 00d9 00       		.byte	0
 216 00da 65       		.byte	101
 217 00db 00       		.byte	0
 218 00dc 26       		.byte	38
 219 00dd 03       		.byte	3
 220 00de 43       		.byte	67
 221 00df 00       		.byte	0
 222 00e0 44       		.byte	68
 223 00e1 00       		.byte	0
 224 00e2 43       		.byte	67
 225 00e3 00       		.byte	0
 226 00e4 20       		.byte	32
 227 00e5 00       		.byte	0
 228 00e6 44       		.byte	68
ARM GAS  C:\Users\MANSRO~1\AppData\Local\Temp\ccyEzZ57.s 			page 5


 229 00e7 00       		.byte	0
 230 00e8 61       		.byte	97
 231 00e9 00       		.byte	0
 232 00ea 74       		.byte	116
 233 00eb 00       		.byte	0
 234 00ec 61       		.byte	97
 235 00ed 00       		.byte	0
 236 00ee 20       		.byte	32
 237 00ef 00       		.byte	0
 238 00f0 49       		.byte	73
 239 00f1 00       		.byte	0
 240 00f2 6E       		.byte	110
 241 00f3 00       		.byte	0
 242 00f4 74       		.byte	116
 243 00f5 00       		.byte	0
 244 00f6 65       		.byte	101
 245 00f7 00       		.byte	0
 246 00f8 72       		.byte	114
 247 00f9 00       		.byte	0
 248 00fa 66       		.byte	102
 249 00fb 00       		.byte	0
 250 00fc 61       		.byte	97
 251 00fd 00       		.byte	0
 252 00fe 63       		.byte	99
 253 00ff 00       		.byte	0
 254 0100 65       		.byte	101
 255 0101 00       		.byte	0
 256 0102 00       		.byte	0
 257 0103 00       		.space	1
 258              		.type	USBUART_DEVICE0_CONFIGURATION0_DESCR, %object
 259              		.size	USBUART_DEVICE0_CONFIGURATION0_DESCR, 67
 260              	USBUART_DEVICE0_CONFIGURATION0_DESCR:
 261 0104 09       		.byte	9
 262 0105 02       		.byte	2
 263 0106 43       		.byte	67
 264 0107 00       		.byte	0
 265 0108 02       		.byte	2
 266 0109 01       		.byte	1
 267 010a 01       		.byte	1
 268 010b 80       		.byte	-128
 269 010c 32       		.byte	50
 270 010d 09       		.byte	9
 271 010e 04       		.byte	4
 272 010f 00       		.byte	0
 273 0110 00       		.byte	0
 274 0111 01       		.byte	1
 275 0112 02       		.byte	2
 276 0113 02       		.byte	2
 277 0114 01       		.byte	1
 278 0115 03       		.byte	3
 279 0116 05       		.byte	5
 280 0117 24       		.byte	36
 281 0118 00       		.byte	0
 282 0119 10       		.byte	16
 283 011a 01       		.byte	1
 284 011b 04       		.byte	4
 285 011c 24       		.byte	36
ARM GAS  C:\Users\MANSRO~1\AppData\Local\Temp\ccyEzZ57.s 			page 6


 286 011d 02       		.byte	2
 287 011e 02       		.byte	2
 288 011f 05       		.byte	5
 289 0120 24       		.byte	36
 290 0121 06       		.byte	6
 291 0122 00       		.byte	0
 292 0123 01       		.byte	1
 293 0124 05       		.byte	5
 294 0125 24       		.byte	36
 295 0126 01       		.byte	1
 296 0127 00       		.byte	0
 297 0128 01       		.byte	1
 298 0129 07       		.byte	7
 299 012a 05       		.byte	5
 300 012b 81       		.byte	-127
 301 012c 03       		.byte	3
 302 012d 08       		.byte	8
 303 012e 00       		.byte	0
 304 012f 0A       		.byte	10
 305 0130 09       		.byte	9
 306 0131 04       		.byte	4
 307 0132 01       		.byte	1
 308 0133 00       		.byte	0
 309 0134 02       		.byte	2
 310 0135 0A       		.byte	10
 311 0136 00       		.byte	0
 312 0137 00       		.byte	0
 313 0138 04       		.byte	4
 314 0139 07       		.byte	7
 315 013a 05       		.byte	5
 316 013b 82       		.byte	-126
 317 013c 02       		.byte	2
 318 013d 40       		.byte	64
 319 013e 00       		.byte	0
 320 013f 00       		.byte	0
 321 0140 07       		.byte	7
 322 0141 05       		.byte	5
 323 0142 03       		.byte	3
 324 0143 02       		.byte	2
 325 0144 40       		.byte	64
 326 0145 00       		.byte	0
 327 0146 00       		.byte	0
 328 0147 00       		.space	1
 329              		.type	USBUART_DEVICE0_DESCR, %object
 330              		.size	USBUART_DEVICE0_DESCR, 18
 331              	USBUART_DEVICE0_DESCR:
 332 0148 12       		.byte	18
 333 0149 01       		.byte	1
 334 014a 00       		.byte	0
 335 014b 02       		.byte	2
 336 014c 02       		.byte	2
 337 014d 00       		.byte	0
 338 014e 00       		.byte	0
 339 014f 08       		.byte	8
 340 0150 B4       		.byte	-76
 341 0151 04       		.byte	4
 342 0152 32       		.byte	50
ARM GAS  C:\Users\MANSRO~1\AppData\Local\Temp\ccyEzZ57.s 			page 7


 343 0153 F2       		.byte	-14
 344 0154 01       		.byte	1
 345 0155 00       		.byte	0
 346 0156 01       		.byte	1
 347 0157 02       		.byte	2
 348 0158 00       		.byte	0
 349 0159 01       		.byte	1
 350              		.text
 351              	.Letext0:
 352              		.file 1 "Generated_Source\\PSoC5\\cytypes.h"
 353              		.file 2 "Generated_Source\\PSoC5\\USBUART.h"
 354              		.file 3 "Generated_Source\\PSoC5\\USBUART_descr.c"
