ARM GAS  C:\Users\ARMAND~1\AppData\Local\Temp\cchn0m0b.s 			page 1


   1              		.syntax unified
   2              		.cpu cortex-m3
   3              		.fpu softvfp
   4              		.eabi_attribute 20, 1
   5              		.eabi_attribute 21, 1
   6              		.eabi_attribute 23, 3
   7              		.eabi_attribute 24, 1
   8              		.eabi_attribute 25, 1
   9              		.eabi_attribute 26, 1
  10              		.eabi_attribute 30, 4
  11              		.eabi_attribute 34, 1
  12              		.eabi_attribute 18, 4
  13              		.thumb
  14              		.syntax unified
  15              		.file	"Clock_1.c"
  16              		.text
  17              	.Ltext0:
  18              		.cfi_sections	.debug_frame
  19              		.section	.text.Clock_1_Start,"ax",%progbits
  20              		.align	1
  21              		.global	Clock_1_Start
  22              		.thumb
  23              		.thumb_func
  24              		.type	Clock_1_Start, %function
  25              	Clock_1_Start:
  26              	.LFB0:
  27              		.file 1 "Generated_Source\\PSoC5\\Clock_1.c"
   1:Generated_Source\PSoC5/Clock_1.c **** /*******************************************************************************
   2:Generated_Source\PSoC5/Clock_1.c **** * File Name: Clock_1.c
   3:Generated_Source\PSoC5/Clock_1.c **** * Version 2.20
   4:Generated_Source\PSoC5/Clock_1.c **** *
   5:Generated_Source\PSoC5/Clock_1.c **** *  Description:
   6:Generated_Source\PSoC5/Clock_1.c **** *   This file provides the source code to the API for the clock component.
   7:Generated_Source\PSoC5/Clock_1.c **** *
   8:Generated_Source\PSoC5/Clock_1.c **** *  Note:
   9:Generated_Source\PSoC5/Clock_1.c **** *
  10:Generated_Source\PSoC5/Clock_1.c **** ********************************************************************************
  11:Generated_Source\PSoC5/Clock_1.c **** * Copyright 2008-2012, Cypress Semiconductor Corporation.  All rights reserved.
  12:Generated_Source\PSoC5/Clock_1.c **** * You may use this file only in accordance with the license, terms, conditions, 
  13:Generated_Source\PSoC5/Clock_1.c **** * disclaimers, and limitations in the end user license agreement accompanying 
  14:Generated_Source\PSoC5/Clock_1.c **** * the software package with which this file was provided.
  15:Generated_Source\PSoC5/Clock_1.c **** *******************************************************************************/
  16:Generated_Source\PSoC5/Clock_1.c **** 
  17:Generated_Source\PSoC5/Clock_1.c **** #include <cydevice_trm.h>
  18:Generated_Source\PSoC5/Clock_1.c **** #include "Clock_1.h"
  19:Generated_Source\PSoC5/Clock_1.c **** 
  20:Generated_Source\PSoC5/Clock_1.c **** /* Clock Distribution registers. */
  21:Generated_Source\PSoC5/Clock_1.c **** #define CLK_DIST_LD              (* (reg8 *) CYREG_CLKDIST_LD)
  22:Generated_Source\PSoC5/Clock_1.c **** #define CLK_DIST_BCFG2           (* (reg8 *) CYREG_CLKDIST_BCFG2)
  23:Generated_Source\PSoC5/Clock_1.c **** #define BCFG2_MASK               (0x80u)
  24:Generated_Source\PSoC5/Clock_1.c **** #define CLK_DIST_DMASK           (* (reg8 *) CYREG_CLKDIST_DMASK)
  25:Generated_Source\PSoC5/Clock_1.c **** #define CLK_DIST_AMASK           (* (reg8 *) CYREG_CLKDIST_AMASK)
  26:Generated_Source\PSoC5/Clock_1.c **** 
  27:Generated_Source\PSoC5/Clock_1.c **** #define HAS_CLKDIST_LD_DISABLE   (CY_PSOC3 || CY_PSOC5LP)
  28:Generated_Source\PSoC5/Clock_1.c **** 
  29:Generated_Source\PSoC5/Clock_1.c **** 
  30:Generated_Source\PSoC5/Clock_1.c **** /*******************************************************************************
ARM GAS  C:\Users\ARMAND~1\AppData\Local\Temp\cchn0m0b.s 			page 2


  31:Generated_Source\PSoC5/Clock_1.c **** * Function Name: Clock_1_Start
  32:Generated_Source\PSoC5/Clock_1.c **** ********************************************************************************
  33:Generated_Source\PSoC5/Clock_1.c **** *
  34:Generated_Source\PSoC5/Clock_1.c **** * Summary:
  35:Generated_Source\PSoC5/Clock_1.c **** *  Starts the clock. Note that on startup, clocks may be already running if the
  36:Generated_Source\PSoC5/Clock_1.c **** *  "Start on Reset" option is enabled in the DWR.
  37:Generated_Source\PSoC5/Clock_1.c **** *
  38:Generated_Source\PSoC5/Clock_1.c **** * Parameters:
  39:Generated_Source\PSoC5/Clock_1.c **** *  None
  40:Generated_Source\PSoC5/Clock_1.c **** *
  41:Generated_Source\PSoC5/Clock_1.c **** * Returns:
  42:Generated_Source\PSoC5/Clock_1.c **** *  None
  43:Generated_Source\PSoC5/Clock_1.c **** *
  44:Generated_Source\PSoC5/Clock_1.c **** *******************************************************************************/
  45:Generated_Source\PSoC5/Clock_1.c **** void Clock_1_Start(void) 
  46:Generated_Source\PSoC5/Clock_1.c **** {
  28              		.loc 1 46 0
  29              		.cfi_startproc
  30              		@ args = 0, pretend = 0, frame = 0
  31              		@ frame_needed = 0, uses_anonymous_args = 0
  32              		@ link register save eliminated.
  47:Generated_Source\PSoC5/Clock_1.c ****     /* Set the bit to enable the clock. */
  48:Generated_Source\PSoC5/Clock_1.c ****     Clock_1_CLKEN |= Clock_1_CLKEN_MASK;
  33              		.loc 1 48 0
  34 0000 044A     		ldr	r2, .L2
  35 0002 1378     		ldrb	r3, [r2]	@ zero_extendqisi2
  36 0004 43F00403 		orr	r3, r3, #4
  37 0008 1370     		strb	r3, [r2]
  49:Generated_Source\PSoC5/Clock_1.c **** 	Clock_1_CLKSTBY |= Clock_1_CLKSTBY_MASK;
  38              		.loc 1 49 0
  39 000a 137C     		ldrb	r3, [r2, #16]	@ zero_extendqisi2
  40 000c 43F00403 		orr	r3, r3, #4
  41 0010 1374     		strb	r3, [r2, #16]
  42 0012 7047     		bx	lr
  43              	.L3:
  44              		.align	2
  45              	.L2:
  46 0014 A2430040 		.word	1073759138
  47              		.cfi_endproc
  48              	.LFE0:
  49              		.size	Clock_1_Start, .-Clock_1_Start
  50              		.section	.text.Clock_1_Stop,"ax",%progbits
  51              		.align	1
  52              		.global	Clock_1_Stop
  53              		.thumb
  54              		.thumb_func
  55              		.type	Clock_1_Stop, %function
  56              	Clock_1_Stop:
  57              	.LFB1:
  50:Generated_Source\PSoC5/Clock_1.c **** }
  51:Generated_Source\PSoC5/Clock_1.c **** 
  52:Generated_Source\PSoC5/Clock_1.c **** 
  53:Generated_Source\PSoC5/Clock_1.c **** /*******************************************************************************
  54:Generated_Source\PSoC5/Clock_1.c **** * Function Name: Clock_1_Stop
  55:Generated_Source\PSoC5/Clock_1.c **** ********************************************************************************
  56:Generated_Source\PSoC5/Clock_1.c **** *
  57:Generated_Source\PSoC5/Clock_1.c **** * Summary:
ARM GAS  C:\Users\ARMAND~1\AppData\Local\Temp\cchn0m0b.s 			page 3


  58:Generated_Source\PSoC5/Clock_1.c **** *  Stops the clock and returns immediately. This API does not require the
  59:Generated_Source\PSoC5/Clock_1.c **** *  source clock to be running but may return before the hardware is actually
  60:Generated_Source\PSoC5/Clock_1.c **** *  disabled. If the settings of the clock are changed after calling this
  61:Generated_Source\PSoC5/Clock_1.c **** *  function, the clock may glitch when it is started. To avoid the clock
  62:Generated_Source\PSoC5/Clock_1.c **** *  glitch, use the StopBlock function.
  63:Generated_Source\PSoC5/Clock_1.c **** *
  64:Generated_Source\PSoC5/Clock_1.c **** * Parameters:
  65:Generated_Source\PSoC5/Clock_1.c **** *  None
  66:Generated_Source\PSoC5/Clock_1.c **** *
  67:Generated_Source\PSoC5/Clock_1.c **** * Returns:
  68:Generated_Source\PSoC5/Clock_1.c **** *  None
  69:Generated_Source\PSoC5/Clock_1.c **** *
  70:Generated_Source\PSoC5/Clock_1.c **** *******************************************************************************/
  71:Generated_Source\PSoC5/Clock_1.c **** void Clock_1_Stop(void) 
  72:Generated_Source\PSoC5/Clock_1.c **** {
  58              		.loc 1 72 0
  59              		.cfi_startproc
  60              		@ args = 0, pretend = 0, frame = 0
  61              		@ frame_needed = 0, uses_anonymous_args = 0
  62              		@ link register save eliminated.
  73:Generated_Source\PSoC5/Clock_1.c ****     /* Clear the bit to disable the clock. */
  74:Generated_Source\PSoC5/Clock_1.c ****     Clock_1_CLKEN &= (uint8)(~Clock_1_CLKEN_MASK);
  63              		.loc 1 74 0
  64 0000 044A     		ldr	r2, .L5
  65 0002 1378     		ldrb	r3, [r2]	@ zero_extendqisi2
  66 0004 03F0FB03 		and	r3, r3, #251
  67 0008 1370     		strb	r3, [r2]
  75:Generated_Source\PSoC5/Clock_1.c **** 	Clock_1_CLKSTBY &= (uint8)(~Clock_1_CLKSTBY_MASK);
  68              		.loc 1 75 0
  69 000a 137C     		ldrb	r3, [r2, #16]	@ zero_extendqisi2
  70 000c 03F0FB03 		and	r3, r3, #251
  71 0010 1374     		strb	r3, [r2, #16]
  72 0012 7047     		bx	lr
  73              	.L6:
  74              		.align	2
  75              	.L5:
  76 0014 A2430040 		.word	1073759138
  77              		.cfi_endproc
  78              	.LFE1:
  79              		.size	Clock_1_Stop, .-Clock_1_Stop
  80              		.section	.text.Clock_1_StopBlock,"ax",%progbits
  81              		.align	1
  82              		.global	Clock_1_StopBlock
  83              		.thumb
  84              		.thumb_func
  85              		.type	Clock_1_StopBlock, %function
  86              	Clock_1_StopBlock:
  87              	.LFB2:
  76:Generated_Source\PSoC5/Clock_1.c **** }
  77:Generated_Source\PSoC5/Clock_1.c **** 
  78:Generated_Source\PSoC5/Clock_1.c **** 
  79:Generated_Source\PSoC5/Clock_1.c **** #if(CY_PSOC3 || CY_PSOC5LP)
  80:Generated_Source\PSoC5/Clock_1.c **** 
  81:Generated_Source\PSoC5/Clock_1.c **** 
  82:Generated_Source\PSoC5/Clock_1.c **** /*******************************************************************************
  83:Generated_Source\PSoC5/Clock_1.c **** * Function Name: Clock_1_StopBlock
  84:Generated_Source\PSoC5/Clock_1.c **** ********************************************************************************
ARM GAS  C:\Users\ARMAND~1\AppData\Local\Temp\cchn0m0b.s 			page 4


  85:Generated_Source\PSoC5/Clock_1.c **** *
  86:Generated_Source\PSoC5/Clock_1.c **** * Summary:
  87:Generated_Source\PSoC5/Clock_1.c **** *  Stops the clock and waits for the hardware to actually be disabled before
  88:Generated_Source\PSoC5/Clock_1.c **** *  returning. This ensures that the clock is never truncated (high part of the
  89:Generated_Source\PSoC5/Clock_1.c **** *  cycle will terminate before the clock is disabled and the API returns).
  90:Generated_Source\PSoC5/Clock_1.c **** *  Note that the source clock must be running or this API will never return as
  91:Generated_Source\PSoC5/Clock_1.c **** *  a stopped clock cannot be disabled.
  92:Generated_Source\PSoC5/Clock_1.c **** *
  93:Generated_Source\PSoC5/Clock_1.c **** * Parameters:
  94:Generated_Source\PSoC5/Clock_1.c **** *  None
  95:Generated_Source\PSoC5/Clock_1.c **** *
  96:Generated_Source\PSoC5/Clock_1.c **** * Returns:
  97:Generated_Source\PSoC5/Clock_1.c **** *  None
  98:Generated_Source\PSoC5/Clock_1.c **** *
  99:Generated_Source\PSoC5/Clock_1.c **** *******************************************************************************/
 100:Generated_Source\PSoC5/Clock_1.c **** void Clock_1_StopBlock(void) 
 101:Generated_Source\PSoC5/Clock_1.c **** {
  88              		.loc 1 101 0
  89              		.cfi_startproc
  90              		@ args = 0, pretend = 0, frame = 0
  91              		@ frame_needed = 0, uses_anonymous_args = 0
  92 0000 10B5     		push	{r4, lr}
  93              		.cfi_def_cfa_offset 8
  94              		.cfi_offset 4, -8
  95              		.cfi_offset 14, -4
 102:Generated_Source\PSoC5/Clock_1.c ****     if ((Clock_1_CLKEN & Clock_1_CLKEN_MASK) != 0u)
  96              		.loc 1 102 0
  97 0002 154B     		ldr	r3, .L15
  98 0004 1A78     		ldrb	r2, [r3]	@ zero_extendqisi2
  99 0006 5207     		lsls	r2, r2, #29
 100 0008 24D5     		bpl	.L7
 101              	.LBB10:
 103:Generated_Source\PSoC5/Clock_1.c ****     {
 104:Generated_Source\PSoC5/Clock_1.c **** #if HAS_CLKDIST_LD_DISABLE
 105:Generated_Source\PSoC5/Clock_1.c ****         uint16 oldDivider;
 106:Generated_Source\PSoC5/Clock_1.c **** 
 107:Generated_Source\PSoC5/Clock_1.c ****         CLK_DIST_LD = 0u;
 108:Generated_Source\PSoC5/Clock_1.c **** 
 109:Generated_Source\PSoC5/Clock_1.c ****         /* Clear all the mask bits except ours. */
 110:Generated_Source\PSoC5/Clock_1.c **** #if defined(Clock_1__CFG3)
 111:Generated_Source\PSoC5/Clock_1.c ****         CLK_DIST_AMASK = Clock_1_CLKEN_MASK;
 112:Generated_Source\PSoC5/Clock_1.c ****         CLK_DIST_DMASK = 0x00u;
 113:Generated_Source\PSoC5/Clock_1.c **** #else
 114:Generated_Source\PSoC5/Clock_1.c ****         CLK_DIST_DMASK = Clock_1_CLKEN_MASK;
 102              		.loc 1 114 0
 103 000a 1448     		ldr	r0, .L15+4
 107:Generated_Source\PSoC5/Clock_1.c **** 
 104              		.loc 1 107 0
 105 000c 144A     		ldr	r2, .L15+8
 106 000e 0021     		movs	r1, #0
 107              		.loc 1 114 0
 108 0010 0424     		movs	r4, #4
 107:Generated_Source\PSoC5/Clock_1.c **** 
 109              		.loc 1 107 0
 110 0012 1170     		strb	r1, [r2]
 111              		.loc 1 114 0
 112 0014 0470     		strb	r4, [r0]
ARM GAS  C:\Users\ARMAND~1\AppData\Local\Temp\cchn0m0b.s 			page 5


 115:Generated_Source\PSoC5/Clock_1.c ****         CLK_DIST_AMASK = 0x00u;
 113              		.loc 1 115 0
 114 0016 0171     		strb	r1, [r0, #4]
 116:Generated_Source\PSoC5/Clock_1.c **** #endif /* Clock_1__CFG3 */
 117:Generated_Source\PSoC5/Clock_1.c **** 
 118:Generated_Source\PSoC5/Clock_1.c ****         /* Clear mask of bus clock. */
 119:Generated_Source\PSoC5/Clock_1.c ****         CLK_DIST_BCFG2 &= (uint8)(~BCFG2_MASK);
 115              		.loc 1 119 0
 116 0018 10F8081C 		ldrb	r1, [r0, #-8]	@ zero_extendqisi2
 117 001c 01F07F01 		and	r1, r1, #127
 118 0020 00F8081C 		strb	r1, [r0, #-8]
 120:Generated_Source\PSoC5/Clock_1.c **** 
 121:Generated_Source\PSoC5/Clock_1.c ****         oldDivider = CY_GET_REG16(Clock_1_DIV_PTR);
 119              		.loc 1 121 0
 120 0024 0F49     		ldr	r1, .L15+12
 121 0026 0888     		ldrh	r0, [r1]
 122 0028 80B2     		uxth	r0, r0
 123              	.LVL0:
 122:Generated_Source\PSoC5/Clock_1.c ****         CY_SET_REG16(CYREG_CLKDIST_WRK0, oldDivider);
 124              		.loc 1 122 0
 125 002a 21F8860C 		strh	r0, [r1, #-134]	@ movhi
 123:Generated_Source\PSoC5/Clock_1.c ****         CLK_DIST_LD = CYCLK_LD_DISABLE | CYCLK_LD_SYNC_EN | CYCLK_LD_LOAD;
 126              		.loc 1 123 0
 127 002e 0721     		movs	r1, #7
 128 0030 1170     		strb	r1, [r2]
 129              	.L9:
 124:Generated_Source\PSoC5/Clock_1.c **** 
 125:Generated_Source\PSoC5/Clock_1.c ****         /* Wait for clock to be disabled */
 126:Generated_Source\PSoC5/Clock_1.c ****         while ((CLK_DIST_LD & CYCLK_LD_LOAD) != 0u) { }
 130              		.loc 1 126 0 discriminator 1
 131 0032 1178     		ldrb	r1, [r2]	@ zero_extendqisi2
 132 0034 11F00101 		ands	r1, r1, #1
 133 0038 FBD1     		bne	.L9
 127:Generated_Source\PSoC5/Clock_1.c **** #endif /* HAS_CLKDIST_LD_DISABLE */
 128:Generated_Source\PSoC5/Clock_1.c **** 
 129:Generated_Source\PSoC5/Clock_1.c ****         /* Clear the bit to disable the clock. */
 130:Generated_Source\PSoC5/Clock_1.c ****         Clock_1_CLKEN &= (uint8)(~Clock_1_CLKEN_MASK);
 134              		.loc 1 130 0
 135 003a 1A78     		ldrb	r2, [r3]	@ zero_extendqisi2
 136 003c 02F0FB02 		and	r2, r2, #251
 137 0040 1A70     		strb	r2, [r3]
 131:Generated_Source\PSoC5/Clock_1.c ****         Clock_1_CLKSTBY &= (uint8)(~Clock_1_CLKSTBY_MASK);
 138              		.loc 1 131 0
 139 0042 094A     		ldr	r2, .L15+16
 140 0044 1378     		ldrb	r3, [r2]	@ zero_extendqisi2
 141 0046 03F0FB03 		and	r3, r3, #251
 142 004a 1370     		strb	r3, [r2]
 132:Generated_Source\PSoC5/Clock_1.c **** 
 133:Generated_Source\PSoC5/Clock_1.c **** #if HAS_CLKDIST_LD_DISABLE
 134:Generated_Source\PSoC5/Clock_1.c ****         /* Clear the disable bit */
 135:Generated_Source\PSoC5/Clock_1.c ****         CLK_DIST_LD = 0x00u;
 143              		.loc 1 135 0
 144 004c 044B     		ldr	r3, .L15+8
 145 004e 1970     		strb	r1, [r3]
 136:Generated_Source\PSoC5/Clock_1.c ****         CY_SET_REG16(Clock_1_DIV_PTR, oldDivider);
 146              		.loc 1 136 0
 147 0050 A3F88700 		strh	r0, [r3, #135]	@ movhi
ARM GAS  C:\Users\ARMAND~1\AppData\Local\Temp\cchn0m0b.s 			page 6


 148              	.LVL1:
 149              	.L7:
 150 0054 10BD     		pop	{r4, pc}
 151              	.L16:
 152 0056 00BF     		.align	2
 153              	.L15:
 154 0058 A2430040 		.word	1073759138
 155 005c 10400040 		.word	1073758224
 156 0060 01400040 		.word	1073758209
 157 0064 88400040 		.word	1073758344
 158 0068 B2430040 		.word	1073759154
 159              	.LBE10:
 160              		.cfi_endproc
 161              	.LFE2:
 162              		.size	Clock_1_StopBlock, .-Clock_1_StopBlock
 163              		.section	.text.Clock_1_StandbyPower,"ax",%progbits
 164              		.align	1
 165              		.global	Clock_1_StandbyPower
 166              		.thumb
 167              		.thumb_func
 168              		.type	Clock_1_StandbyPower, %function
 169              	Clock_1_StandbyPower:
 170              	.LFB3:
 137:Generated_Source\PSoC5/Clock_1.c **** #endif /* HAS_CLKDIST_LD_DISABLE */
 138:Generated_Source\PSoC5/Clock_1.c ****     }
 139:Generated_Source\PSoC5/Clock_1.c **** }
 140:Generated_Source\PSoC5/Clock_1.c **** #endif /* (CY_PSOC3 || CY_PSOC5LP) */
 141:Generated_Source\PSoC5/Clock_1.c **** 
 142:Generated_Source\PSoC5/Clock_1.c **** 
 143:Generated_Source\PSoC5/Clock_1.c **** /*******************************************************************************
 144:Generated_Source\PSoC5/Clock_1.c **** * Function Name: Clock_1_StandbyPower
 145:Generated_Source\PSoC5/Clock_1.c **** ********************************************************************************
 146:Generated_Source\PSoC5/Clock_1.c **** *
 147:Generated_Source\PSoC5/Clock_1.c **** * Summary:
 148:Generated_Source\PSoC5/Clock_1.c **** *  Sets whether the clock is active in standby mode.
 149:Generated_Source\PSoC5/Clock_1.c **** *
 150:Generated_Source\PSoC5/Clock_1.c **** * Parameters:
 151:Generated_Source\PSoC5/Clock_1.c **** *  state:  0 to disable clock during standby, nonzero to enable.
 152:Generated_Source\PSoC5/Clock_1.c **** *
 153:Generated_Source\PSoC5/Clock_1.c **** * Returns:
 154:Generated_Source\PSoC5/Clock_1.c **** *  None
 155:Generated_Source\PSoC5/Clock_1.c **** *
 156:Generated_Source\PSoC5/Clock_1.c **** *******************************************************************************/
 157:Generated_Source\PSoC5/Clock_1.c **** void Clock_1_StandbyPower(uint8 state) 
 158:Generated_Source\PSoC5/Clock_1.c **** {
 171              		.loc 1 158 0
 172              		.cfi_startproc
 173              		@ args = 0, pretend = 0, frame = 0
 174              		@ frame_needed = 0, uses_anonymous_args = 0
 175              		@ link register save eliminated.
 176              	.LVL2:
 177 0000 044B     		ldr	r3, .L21
 159:Generated_Source\PSoC5/Clock_1.c ****     if(state == 0u)
 160:Generated_Source\PSoC5/Clock_1.c ****     {
 161:Generated_Source\PSoC5/Clock_1.c ****         Clock_1_CLKSTBY &= (uint8)(~Clock_1_CLKSTBY_MASK);
 178              		.loc 1 161 0
 179 0002 1A78     		ldrb	r2, [r3]	@ zero_extendqisi2
ARM GAS  C:\Users\ARMAND~1\AppData\Local\Temp\cchn0m0b.s 			page 7


 159:Generated_Source\PSoC5/Clock_1.c ****     if(state == 0u)
 180              		.loc 1 159 0
 181 0004 10B9     		cbnz	r0, .L18
 182              		.loc 1 161 0
 183 0006 02F0FB02 		and	r2, r2, #251
 184 000a 01E0     		b	.L20
 185              	.L18:
 162:Generated_Source\PSoC5/Clock_1.c ****     }
 163:Generated_Source\PSoC5/Clock_1.c ****     else
 164:Generated_Source\PSoC5/Clock_1.c ****     {
 165:Generated_Source\PSoC5/Clock_1.c ****         Clock_1_CLKSTBY |= Clock_1_CLKSTBY_MASK;
 186              		.loc 1 165 0
 187 000c 42F00402 		orr	r2, r2, #4
 188              	.L20:
 189 0010 1A70     		strb	r2, [r3]
 190 0012 7047     		bx	lr
 191              	.L22:
 192              		.align	2
 193              	.L21:
 194 0014 B2430040 		.word	1073759154
 195              		.cfi_endproc
 196              	.LFE3:
 197              		.size	Clock_1_StandbyPower, .-Clock_1_StandbyPower
 198              		.section	.text.Clock_1_SetDividerRegister,"ax",%progbits
 199              		.align	1
 200              		.global	Clock_1_SetDividerRegister
 201              		.thumb
 202              		.thumb_func
 203              		.type	Clock_1_SetDividerRegister, %function
 204              	Clock_1_SetDividerRegister:
 205              	.LFB4:
 166:Generated_Source\PSoC5/Clock_1.c ****     }
 167:Generated_Source\PSoC5/Clock_1.c **** }
 168:Generated_Source\PSoC5/Clock_1.c **** 
 169:Generated_Source\PSoC5/Clock_1.c **** 
 170:Generated_Source\PSoC5/Clock_1.c **** /*******************************************************************************
 171:Generated_Source\PSoC5/Clock_1.c **** * Function Name: Clock_1_SetDividerRegister
 172:Generated_Source\PSoC5/Clock_1.c **** ********************************************************************************
 173:Generated_Source\PSoC5/Clock_1.c **** *
 174:Generated_Source\PSoC5/Clock_1.c **** * Summary:
 175:Generated_Source\PSoC5/Clock_1.c **** *  Modifies the clock divider and, thus, the frequency. When the clock divider
 176:Generated_Source\PSoC5/Clock_1.c **** *  register is set to zero or changed from zero, the clock will be temporarily
 177:Generated_Source\PSoC5/Clock_1.c **** *  disabled in order to change the SSS mode bit. If the clock is enabled when
 178:Generated_Source\PSoC5/Clock_1.c **** *  SetDividerRegister is called, then the source clock must be running.
 179:Generated_Source\PSoC5/Clock_1.c **** *
 180:Generated_Source\PSoC5/Clock_1.c **** * Parameters:
 181:Generated_Source\PSoC5/Clock_1.c **** *  clkDivider:  Divider register value (0-65,535). This value is NOT the
 182:Generated_Source\PSoC5/Clock_1.c **** *    divider; the clock hardware divides by clkDivider plus one. For example,
 183:Generated_Source\PSoC5/Clock_1.c **** *    to divide the clock by 2, this parameter should be set to 1.
 184:Generated_Source\PSoC5/Clock_1.c **** *  restart:  If nonzero, restarts the clock divider: the current clock cycle
 185:Generated_Source\PSoC5/Clock_1.c **** *   will be truncated and the new divide value will take effect immediately. If
 186:Generated_Source\PSoC5/Clock_1.c **** *   zero, the new divide value will take effect at the end of the current clock
 187:Generated_Source\PSoC5/Clock_1.c **** *   cycle.
 188:Generated_Source\PSoC5/Clock_1.c **** *
 189:Generated_Source\PSoC5/Clock_1.c **** * Returns:
 190:Generated_Source\PSoC5/Clock_1.c **** *  None
 191:Generated_Source\PSoC5/Clock_1.c **** *
ARM GAS  C:\Users\ARMAND~1\AppData\Local\Temp\cchn0m0b.s 			page 8


 192:Generated_Source\PSoC5/Clock_1.c **** *******************************************************************************/
 193:Generated_Source\PSoC5/Clock_1.c **** void Clock_1_SetDividerRegister(uint16 clkDivider, uint8 restart)
 194:Generated_Source\PSoC5/Clock_1.c ****                                 
 195:Generated_Source\PSoC5/Clock_1.c **** {
 206              		.loc 1 195 0
 207              		.cfi_startproc
 208              		@ args = 0, pretend = 0, frame = 0
 209              		@ frame_needed = 0, uses_anonymous_args = 0
 210              	.LVL3:
 211 0000 F0B5     		push	{r4, r5, r6, r7, lr}
 212              		.cfi_def_cfa_offset 20
 213              		.cfi_offset 4, -20
 214              		.cfi_offset 5, -16
 215              		.cfi_offset 6, -12
 216              		.cfi_offset 7, -8
 217              		.cfi_offset 14, -4
 218              	.LBB11:
 219              	.LBB12:
 196:Generated_Source\PSoC5/Clock_1.c ****     uint8 enabled;
 197:Generated_Source\PSoC5/Clock_1.c **** 
 198:Generated_Source\PSoC5/Clock_1.c ****     uint8 currSrc = Clock_1_GetSourceRegister();
 199:Generated_Source\PSoC5/Clock_1.c ****     uint16 oldDivider = Clock_1_GetDividerRegister();
 200:Generated_Source\PSoC5/Clock_1.c **** 
 201:Generated_Source\PSoC5/Clock_1.c ****     if (clkDivider != oldDivider)
 202:Generated_Source\PSoC5/Clock_1.c ****     {
 203:Generated_Source\PSoC5/Clock_1.c ****         enabled = Clock_1_CLKEN & Clock_1_CLKEN_MASK;
 204:Generated_Source\PSoC5/Clock_1.c **** 
 205:Generated_Source\PSoC5/Clock_1.c ****         if ((currSrc == (uint8)CYCLK_SRC_SEL_CLK_SYNC_D) && ((oldDivider == 0u) || (clkDivider == 0
 206:Generated_Source\PSoC5/Clock_1.c ****         {
 207:Generated_Source\PSoC5/Clock_1.c ****             /* Moving to/from SSS requires correct ordering to prevent halting the clock    */
 208:Generated_Source\PSoC5/Clock_1.c ****             if (oldDivider == 0u)
 209:Generated_Source\PSoC5/Clock_1.c ****             {
 210:Generated_Source\PSoC5/Clock_1.c ****                 /* Moving away from SSS, set the divider first so when SSS is cleared we    */
 211:Generated_Source\PSoC5/Clock_1.c ****                 /* don't halt the clock.  Using the shadow load isn't required as the       */
 212:Generated_Source\PSoC5/Clock_1.c ****                 /* divider is ignored while SSS is set.                                     */
 213:Generated_Source\PSoC5/Clock_1.c ****                 CY_SET_REG16(Clock_1_DIV_PTR, clkDivider);
 214:Generated_Source\PSoC5/Clock_1.c ****                 Clock_1_MOD_SRC &= (uint8)(~CYCLK_SSS);
 215:Generated_Source\PSoC5/Clock_1.c ****             }
 216:Generated_Source\PSoC5/Clock_1.c ****             else
 217:Generated_Source\PSoC5/Clock_1.c ****             {
 218:Generated_Source\PSoC5/Clock_1.c ****                 /* Moving to SSS, set SSS which then ignores the divider and we can set     */
 219:Generated_Source\PSoC5/Clock_1.c ****                 /* it without bothering with the shadow load.                               */
 220:Generated_Source\PSoC5/Clock_1.c ****                 Clock_1_MOD_SRC |= CYCLK_SSS;
 221:Generated_Source\PSoC5/Clock_1.c ****                 CY_SET_REG16(Clock_1_DIV_PTR, clkDivider);
 222:Generated_Source\PSoC5/Clock_1.c ****             }
 223:Generated_Source\PSoC5/Clock_1.c ****         }
 224:Generated_Source\PSoC5/Clock_1.c ****         else
 225:Generated_Source\PSoC5/Clock_1.c ****         {
 226:Generated_Source\PSoC5/Clock_1.c **** 			
 227:Generated_Source\PSoC5/Clock_1.c ****             if (enabled != 0u)
 228:Generated_Source\PSoC5/Clock_1.c ****             {
 229:Generated_Source\PSoC5/Clock_1.c ****                 CLK_DIST_LD = 0x00u;
 230:Generated_Source\PSoC5/Clock_1.c **** 
 231:Generated_Source\PSoC5/Clock_1.c ****                 /* Clear all the mask bits except ours. */
 232:Generated_Source\PSoC5/Clock_1.c **** #if defined(Clock_1__CFG3)
 233:Generated_Source\PSoC5/Clock_1.c ****                 CLK_DIST_AMASK = Clock_1_CLKEN_MASK;
 234:Generated_Source\PSoC5/Clock_1.c ****                 CLK_DIST_DMASK = 0x00u;
ARM GAS  C:\Users\ARMAND~1\AppData\Local\Temp\cchn0m0b.s 			page 9


 235:Generated_Source\PSoC5/Clock_1.c **** #else
 236:Generated_Source\PSoC5/Clock_1.c ****                 CLK_DIST_DMASK = Clock_1_CLKEN_MASK;
 237:Generated_Source\PSoC5/Clock_1.c ****                 CLK_DIST_AMASK = 0x00u;
 238:Generated_Source\PSoC5/Clock_1.c **** #endif /* Clock_1__CFG3 */
 239:Generated_Source\PSoC5/Clock_1.c ****                 /* Clear mask of bus clock. */
 240:Generated_Source\PSoC5/Clock_1.c ****                 CLK_DIST_BCFG2 &= (uint8)(~BCFG2_MASK);
 241:Generated_Source\PSoC5/Clock_1.c **** 
 242:Generated_Source\PSoC5/Clock_1.c ****                 /* If clock is currently enabled, disable it if async or going from N-to-1*/
 243:Generated_Source\PSoC5/Clock_1.c ****                 if (((Clock_1_MOD_SRC & CYCLK_SYNC) == 0u) || (clkDivider == 0u))
 244:Generated_Source\PSoC5/Clock_1.c ****                 {
 245:Generated_Source\PSoC5/Clock_1.c **** #if HAS_CLKDIST_LD_DISABLE
 246:Generated_Source\PSoC5/Clock_1.c ****                     CY_SET_REG16(CYREG_CLKDIST_WRK0, oldDivider);
 247:Generated_Source\PSoC5/Clock_1.c ****                     CLK_DIST_LD = CYCLK_LD_DISABLE|CYCLK_LD_SYNC_EN|CYCLK_LD_LOAD;
 248:Generated_Source\PSoC5/Clock_1.c **** 
 249:Generated_Source\PSoC5/Clock_1.c ****                     /* Wait for clock to be disabled */
 250:Generated_Source\PSoC5/Clock_1.c ****                     while ((CLK_DIST_LD & CYCLK_LD_LOAD) != 0u) { }
 251:Generated_Source\PSoC5/Clock_1.c **** #endif /* HAS_CLKDIST_LD_DISABLE */
 252:Generated_Source\PSoC5/Clock_1.c **** 
 253:Generated_Source\PSoC5/Clock_1.c ****                     Clock_1_CLKEN &= (uint8)(~Clock_1_CLKEN_MASK);
 254:Generated_Source\PSoC5/Clock_1.c **** 
 255:Generated_Source\PSoC5/Clock_1.c **** #if HAS_CLKDIST_LD_DISABLE
 256:Generated_Source\PSoC5/Clock_1.c ****                     /* Clear the disable bit */
 257:Generated_Source\PSoC5/Clock_1.c ****                     CLK_DIST_LD = 0x00u;
 258:Generated_Source\PSoC5/Clock_1.c **** #endif /* HAS_CLKDIST_LD_DISABLE */
 259:Generated_Source\PSoC5/Clock_1.c ****                 }
 260:Generated_Source\PSoC5/Clock_1.c ****             }
 261:Generated_Source\PSoC5/Clock_1.c **** 
 262:Generated_Source\PSoC5/Clock_1.c ****             /* Load divide value. */
 263:Generated_Source\PSoC5/Clock_1.c ****             if ((Clock_1_CLKEN & Clock_1_CLKEN_MASK) != 0u)
 264:Generated_Source\PSoC5/Clock_1.c ****             {
 265:Generated_Source\PSoC5/Clock_1.c ****                 /* If the clock is still enabled, use the shadow registers */
 266:Generated_Source\PSoC5/Clock_1.c ****                 CY_SET_REG16(CYREG_CLKDIST_WRK0, clkDivider);
 267:Generated_Source\PSoC5/Clock_1.c **** 
 268:Generated_Source\PSoC5/Clock_1.c ****                 CLK_DIST_LD = (CYCLK_LD_LOAD | ((restart != 0u) ? CYCLK_LD_SYNC_EN : 0x00u));
 269:Generated_Source\PSoC5/Clock_1.c ****                 while ((CLK_DIST_LD & CYCLK_LD_LOAD) != 0u) { }
 270:Generated_Source\PSoC5/Clock_1.c ****             }
 271:Generated_Source\PSoC5/Clock_1.c ****             else
 272:Generated_Source\PSoC5/Clock_1.c ****             {
 273:Generated_Source\PSoC5/Clock_1.c ****                 /* If the clock is disabled, set the divider directly */
 274:Generated_Source\PSoC5/Clock_1.c ****                 CY_SET_REG16(Clock_1_DIV_PTR, clkDivider);
 275:Generated_Source\PSoC5/Clock_1.c **** 				Clock_1_CLKEN |= enabled;
 276:Generated_Source\PSoC5/Clock_1.c ****             }
 277:Generated_Source\PSoC5/Clock_1.c ****         }
 278:Generated_Source\PSoC5/Clock_1.c ****     }
 279:Generated_Source\PSoC5/Clock_1.c **** }
 280:Generated_Source\PSoC5/Clock_1.c **** 
 281:Generated_Source\PSoC5/Clock_1.c **** 
 282:Generated_Source\PSoC5/Clock_1.c **** /*******************************************************************************
 283:Generated_Source\PSoC5/Clock_1.c **** * Function Name: Clock_1_GetDividerRegister
 284:Generated_Source\PSoC5/Clock_1.c **** ********************************************************************************
 285:Generated_Source\PSoC5/Clock_1.c **** *
 286:Generated_Source\PSoC5/Clock_1.c **** * Summary:
 287:Generated_Source\PSoC5/Clock_1.c **** *  Gets the clock divider register value.
 288:Generated_Source\PSoC5/Clock_1.c **** *
 289:Generated_Source\PSoC5/Clock_1.c **** * Parameters:
 290:Generated_Source\PSoC5/Clock_1.c **** *  None
 291:Generated_Source\PSoC5/Clock_1.c **** *
ARM GAS  C:\Users\ARMAND~1\AppData\Local\Temp\cchn0m0b.s 			page 10


 292:Generated_Source\PSoC5/Clock_1.c **** * Returns:
 293:Generated_Source\PSoC5/Clock_1.c **** *  Divide value of the clock minus 1. For example, if the clock is set to
 294:Generated_Source\PSoC5/Clock_1.c **** *  divide by 2, the return value will be 1.
 295:Generated_Source\PSoC5/Clock_1.c **** *
 296:Generated_Source\PSoC5/Clock_1.c **** *******************************************************************************/
 297:Generated_Source\PSoC5/Clock_1.c **** uint16 Clock_1_GetDividerRegister(void) 
 298:Generated_Source\PSoC5/Clock_1.c **** {
 299:Generated_Source\PSoC5/Clock_1.c ****     return CY_GET_REG16(Clock_1_DIV_PTR);
 300:Generated_Source\PSoC5/Clock_1.c **** }
 301:Generated_Source\PSoC5/Clock_1.c **** 
 302:Generated_Source\PSoC5/Clock_1.c **** 
 303:Generated_Source\PSoC5/Clock_1.c **** /*******************************************************************************
 304:Generated_Source\PSoC5/Clock_1.c **** * Function Name: Clock_1_SetModeRegister
 305:Generated_Source\PSoC5/Clock_1.c **** ********************************************************************************
 306:Generated_Source\PSoC5/Clock_1.c **** *
 307:Generated_Source\PSoC5/Clock_1.c **** * Summary:
 308:Generated_Source\PSoC5/Clock_1.c **** *  Sets flags that control the operating mode of the clock. This function only
 309:Generated_Source\PSoC5/Clock_1.c **** *  changes flags from 0 to 1; flags that are already 1 will remain unchanged.
 310:Generated_Source\PSoC5/Clock_1.c **** *  To clear flags, use the ClearModeRegister function. The clock must be
 311:Generated_Source\PSoC5/Clock_1.c **** *  disabled before changing the mode.
 312:Generated_Source\PSoC5/Clock_1.c **** *
 313:Generated_Source\PSoC5/Clock_1.c **** * Parameters:
 314:Generated_Source\PSoC5/Clock_1.c **** *  clkMode: Bit mask containing the bits to set. For PSoC 3 and PSoC 5,
 315:Generated_Source\PSoC5/Clock_1.c **** *   clkMode should be a set of the following optional bits or'ed together.
 316:Generated_Source\PSoC5/Clock_1.c **** *   - CYCLK_EARLY Enable early phase mode. Rising edge of output clock will
 317:Generated_Source\PSoC5/Clock_1.c **** *                 occur when the divider count reaches half of the divide
 318:Generated_Source\PSoC5/Clock_1.c **** *                 value.
 319:Generated_Source\PSoC5/Clock_1.c **** *   - CYCLK_DUTY  Enable 50% duty cycle output. When enabled, the output clock
 320:Generated_Source\PSoC5/Clock_1.c **** *                 is asserted for approximately half of its period. When
 321:Generated_Source\PSoC5/Clock_1.c **** *                 disabled, the output clock is asserted for one period of the
 322:Generated_Source\PSoC5/Clock_1.c **** *                 source clock.
 323:Generated_Source\PSoC5/Clock_1.c **** *   - CYCLK_SYNC  Enable output synchronization to master clock. This should
 324:Generated_Source\PSoC5/Clock_1.c **** *                 be enabled for all synchronous clocks.
 325:Generated_Source\PSoC5/Clock_1.c **** *   See the Technical Reference Manual for details about setting the mode of
 326:Generated_Source\PSoC5/Clock_1.c **** *   the clock. Specifically, see the CLKDIST.DCFG.CFG2 register.
 327:Generated_Source\PSoC5/Clock_1.c **** *
 328:Generated_Source\PSoC5/Clock_1.c **** * Returns:
 329:Generated_Source\PSoC5/Clock_1.c **** *  None
 330:Generated_Source\PSoC5/Clock_1.c **** *
 331:Generated_Source\PSoC5/Clock_1.c **** *******************************************************************************/
 332:Generated_Source\PSoC5/Clock_1.c **** void Clock_1_SetModeRegister(uint8 modeBitMask) 
 333:Generated_Source\PSoC5/Clock_1.c **** {
 334:Generated_Source\PSoC5/Clock_1.c ****     Clock_1_MOD_SRC |= modeBitMask & (uint8)Clock_1_MODE_MASK;
 335:Generated_Source\PSoC5/Clock_1.c **** }
 336:Generated_Source\PSoC5/Clock_1.c **** 
 337:Generated_Source\PSoC5/Clock_1.c **** 
 338:Generated_Source\PSoC5/Clock_1.c **** /*******************************************************************************
 339:Generated_Source\PSoC5/Clock_1.c **** * Function Name: Clock_1_ClearModeRegister
 340:Generated_Source\PSoC5/Clock_1.c **** ********************************************************************************
 341:Generated_Source\PSoC5/Clock_1.c **** *
 342:Generated_Source\PSoC5/Clock_1.c **** * Summary:
 343:Generated_Source\PSoC5/Clock_1.c **** *  Clears flags that control the operating mode of the clock. This function
 344:Generated_Source\PSoC5/Clock_1.c **** *  only changes flags from 1 to 0; flags that are already 0 will remain
 345:Generated_Source\PSoC5/Clock_1.c **** *  unchanged. To set flags, use the SetModeRegister function. The clock must be
 346:Generated_Source\PSoC5/Clock_1.c **** *  disabled before changing the mode.
 347:Generated_Source\PSoC5/Clock_1.c **** *
 348:Generated_Source\PSoC5/Clock_1.c **** * Parameters:
ARM GAS  C:\Users\ARMAND~1\AppData\Local\Temp\cchn0m0b.s 			page 11


 349:Generated_Source\PSoC5/Clock_1.c **** *  clkMode: Bit mask containing the bits to clear. For PSoC 3 and PSoC 5,
 350:Generated_Source\PSoC5/Clock_1.c **** *   clkMode should be a set of the following optional bits or'ed together.
 351:Generated_Source\PSoC5/Clock_1.c **** *   - CYCLK_EARLY Enable early phase mode. Rising edge of output clock will
 352:Generated_Source\PSoC5/Clock_1.c **** *                 occur when the divider count reaches half of the divide
 353:Generated_Source\PSoC5/Clock_1.c **** *                 value.
 354:Generated_Source\PSoC5/Clock_1.c **** *   - CYCLK_DUTY  Enable 50% duty cycle output. When enabled, the output clock
 355:Generated_Source\PSoC5/Clock_1.c **** *                 is asserted for approximately half of its period. When
 356:Generated_Source\PSoC5/Clock_1.c **** *                 disabled, the output clock is asserted for one period of the
 357:Generated_Source\PSoC5/Clock_1.c **** *                 source clock.
 358:Generated_Source\PSoC5/Clock_1.c **** *   - CYCLK_SYNC  Enable output synchronization to master clock. This should
 359:Generated_Source\PSoC5/Clock_1.c **** *                 be enabled for all synchronous clocks.
 360:Generated_Source\PSoC5/Clock_1.c **** *   See the Technical Reference Manual for details about setting the mode of
 361:Generated_Source\PSoC5/Clock_1.c **** *   the clock. Specifically, see the CLKDIST.DCFG.CFG2 register.
 362:Generated_Source\PSoC5/Clock_1.c **** *
 363:Generated_Source\PSoC5/Clock_1.c **** * Returns:
 364:Generated_Source\PSoC5/Clock_1.c **** *  None
 365:Generated_Source\PSoC5/Clock_1.c **** *
 366:Generated_Source\PSoC5/Clock_1.c **** *******************************************************************************/
 367:Generated_Source\PSoC5/Clock_1.c **** void Clock_1_ClearModeRegister(uint8 modeBitMask) 
 368:Generated_Source\PSoC5/Clock_1.c **** {
 369:Generated_Source\PSoC5/Clock_1.c ****     Clock_1_MOD_SRC &= (uint8)(~modeBitMask) | (uint8)(~(uint8)(Clock_1_MODE_MASK));
 370:Generated_Source\PSoC5/Clock_1.c **** }
 371:Generated_Source\PSoC5/Clock_1.c **** 
 372:Generated_Source\PSoC5/Clock_1.c **** 
 373:Generated_Source\PSoC5/Clock_1.c **** /*******************************************************************************
 374:Generated_Source\PSoC5/Clock_1.c **** * Function Name: Clock_1_GetModeRegister
 375:Generated_Source\PSoC5/Clock_1.c **** ********************************************************************************
 376:Generated_Source\PSoC5/Clock_1.c **** *
 377:Generated_Source\PSoC5/Clock_1.c **** * Summary:
 378:Generated_Source\PSoC5/Clock_1.c **** *  Gets the clock mode register value.
 379:Generated_Source\PSoC5/Clock_1.c **** *
 380:Generated_Source\PSoC5/Clock_1.c **** * Parameters:
 381:Generated_Source\PSoC5/Clock_1.c **** *  None
 382:Generated_Source\PSoC5/Clock_1.c **** *
 383:Generated_Source\PSoC5/Clock_1.c **** * Returns:
 384:Generated_Source\PSoC5/Clock_1.c **** *  Bit mask representing the enabled mode bits. See the SetModeRegister and
 385:Generated_Source\PSoC5/Clock_1.c **** *  ClearModeRegister descriptions for details about the mode bits.
 386:Generated_Source\PSoC5/Clock_1.c **** *
 387:Generated_Source\PSoC5/Clock_1.c **** *******************************************************************************/
 388:Generated_Source\PSoC5/Clock_1.c **** uint8 Clock_1_GetModeRegister(void) 
 389:Generated_Source\PSoC5/Clock_1.c **** {
 390:Generated_Source\PSoC5/Clock_1.c ****     return Clock_1_MOD_SRC & (uint8)(Clock_1_MODE_MASK);
 391:Generated_Source\PSoC5/Clock_1.c **** }
 392:Generated_Source\PSoC5/Clock_1.c **** 
 393:Generated_Source\PSoC5/Clock_1.c **** 
 394:Generated_Source\PSoC5/Clock_1.c **** /*******************************************************************************
 395:Generated_Source\PSoC5/Clock_1.c **** * Function Name: Clock_1_SetSourceRegister
 396:Generated_Source\PSoC5/Clock_1.c **** ********************************************************************************
 397:Generated_Source\PSoC5/Clock_1.c **** *
 398:Generated_Source\PSoC5/Clock_1.c **** * Summary:
 399:Generated_Source\PSoC5/Clock_1.c **** *  Sets the input source of the clock. The clock must be disabled before
 400:Generated_Source\PSoC5/Clock_1.c **** *  changing the source. The old and new clock sources must be running.
 401:Generated_Source\PSoC5/Clock_1.c **** *
 402:Generated_Source\PSoC5/Clock_1.c **** * Parameters:
 403:Generated_Source\PSoC5/Clock_1.c **** *  clkSource:  For PSoC 3 and PSoC 5 devices, clkSource should be one of the
 404:Generated_Source\PSoC5/Clock_1.c **** *   following input sources:
 405:Generated_Source\PSoC5/Clock_1.c **** *   - CYCLK_SRC_SEL_SYNC_DIG
ARM GAS  C:\Users\ARMAND~1\AppData\Local\Temp\cchn0m0b.s 			page 12


 406:Generated_Source\PSoC5/Clock_1.c **** *   - CYCLK_SRC_SEL_IMO
 407:Generated_Source\PSoC5/Clock_1.c **** *   - CYCLK_SRC_SEL_XTALM
 408:Generated_Source\PSoC5/Clock_1.c **** *   - CYCLK_SRC_SEL_ILO
 409:Generated_Source\PSoC5/Clock_1.c **** *   - CYCLK_SRC_SEL_PLL
 410:Generated_Source\PSoC5/Clock_1.c **** *   - CYCLK_SRC_SEL_XTALK
 411:Generated_Source\PSoC5/Clock_1.c **** *   - CYCLK_SRC_SEL_DSI_G
 412:Generated_Source\PSoC5/Clock_1.c **** *   - CYCLK_SRC_SEL_DSI_D/CYCLK_SRC_SEL_DSI_A
 413:Generated_Source\PSoC5/Clock_1.c **** *   See the Technical Reference Manual for details on clock sources.
 414:Generated_Source\PSoC5/Clock_1.c **** *
 415:Generated_Source\PSoC5/Clock_1.c **** * Returns:
 416:Generated_Source\PSoC5/Clock_1.c **** *  None
 417:Generated_Source\PSoC5/Clock_1.c **** *
 418:Generated_Source\PSoC5/Clock_1.c **** *******************************************************************************/
 419:Generated_Source\PSoC5/Clock_1.c **** void Clock_1_SetSourceRegister(uint8 clkSource) 
 420:Generated_Source\PSoC5/Clock_1.c **** {
 421:Generated_Source\PSoC5/Clock_1.c ****     uint16 currDiv = Clock_1_GetDividerRegister();
 422:Generated_Source\PSoC5/Clock_1.c ****     uint8 oldSrc = Clock_1_GetSourceRegister();
 423:Generated_Source\PSoC5/Clock_1.c **** 
 424:Generated_Source\PSoC5/Clock_1.c ****     if (((oldSrc != ((uint8)CYCLK_SRC_SEL_CLK_SYNC_D)) && 
 425:Generated_Source\PSoC5/Clock_1.c ****         (clkSource == ((uint8)CYCLK_SRC_SEL_CLK_SYNC_D))) && (currDiv == 0u))
 426:Generated_Source\PSoC5/Clock_1.c ****     {
 427:Generated_Source\PSoC5/Clock_1.c ****         /* Switching to Master and divider is 1, set SSS, which will output master, */
 428:Generated_Source\PSoC5/Clock_1.c ****         /* then set the source so we are consistent.                                */
 429:Generated_Source\PSoC5/Clock_1.c ****         Clock_1_MOD_SRC |= CYCLK_SSS;
 430:Generated_Source\PSoC5/Clock_1.c ****         Clock_1_MOD_SRC =
 431:Generated_Source\PSoC5/Clock_1.c ****             (Clock_1_MOD_SRC & (uint8)(~Clock_1_SRC_SEL_MSK)) | clkSource;
 432:Generated_Source\PSoC5/Clock_1.c ****     }
 433:Generated_Source\PSoC5/Clock_1.c ****     else if (((oldSrc == ((uint8)CYCLK_SRC_SEL_CLK_SYNC_D)) && 
 434:Generated_Source\PSoC5/Clock_1.c ****             (clkSource != ((uint8)CYCLK_SRC_SEL_CLK_SYNC_D))) && (currDiv == 0u))
 435:Generated_Source\PSoC5/Clock_1.c ****     {
 436:Generated_Source\PSoC5/Clock_1.c ****         /* Switching from Master to not and divider is 1, set source, so we don't   */
 437:Generated_Source\PSoC5/Clock_1.c ****         /* lock when we clear SSS.                                                  */
 438:Generated_Source\PSoC5/Clock_1.c ****         Clock_1_MOD_SRC =
 439:Generated_Source\PSoC5/Clock_1.c ****             (Clock_1_MOD_SRC & (uint8)(~Clock_1_SRC_SEL_MSK)) | clkSource;
 440:Generated_Source\PSoC5/Clock_1.c ****         Clock_1_MOD_SRC &= (uint8)(~CYCLK_SSS);
 441:Generated_Source\PSoC5/Clock_1.c ****     }
 442:Generated_Source\PSoC5/Clock_1.c ****     else
 443:Generated_Source\PSoC5/Clock_1.c ****     {
 444:Generated_Source\PSoC5/Clock_1.c ****         Clock_1_MOD_SRC =
 445:Generated_Source\PSoC5/Clock_1.c ****             (Clock_1_MOD_SRC & (uint8)(~Clock_1_SRC_SEL_MSK)) | clkSource;
 446:Generated_Source\PSoC5/Clock_1.c ****     }
 447:Generated_Source\PSoC5/Clock_1.c **** }
 448:Generated_Source\PSoC5/Clock_1.c **** 
 449:Generated_Source\PSoC5/Clock_1.c **** 
 450:Generated_Source\PSoC5/Clock_1.c **** /*******************************************************************************
 451:Generated_Source\PSoC5/Clock_1.c **** * Function Name: Clock_1_GetSourceRegister
 452:Generated_Source\PSoC5/Clock_1.c **** ********************************************************************************
 453:Generated_Source\PSoC5/Clock_1.c **** *
 454:Generated_Source\PSoC5/Clock_1.c **** * Summary:
 455:Generated_Source\PSoC5/Clock_1.c **** *  Gets the input source of the clock.
 456:Generated_Source\PSoC5/Clock_1.c **** *
 457:Generated_Source\PSoC5/Clock_1.c **** * Parameters:
 458:Generated_Source\PSoC5/Clock_1.c **** *  None
 459:Generated_Source\PSoC5/Clock_1.c **** *
 460:Generated_Source\PSoC5/Clock_1.c **** * Returns:
 461:Generated_Source\PSoC5/Clock_1.c **** *  The input source of the clock. See SetSourceRegister for details.
 462:Generated_Source\PSoC5/Clock_1.c **** *
ARM GAS  C:\Users\ARMAND~1\AppData\Local\Temp\cchn0m0b.s 			page 13


 463:Generated_Source\PSoC5/Clock_1.c **** *******************************************************************************/
 464:Generated_Source\PSoC5/Clock_1.c **** uint8 Clock_1_GetSourceRegister(void) 
 465:Generated_Source\PSoC5/Clock_1.c **** {
 466:Generated_Source\PSoC5/Clock_1.c ****     return Clock_1_MOD_SRC & Clock_1_SRC_SEL_MSK;
 220              		.loc 1 466 0
 221 0002 2C4D     		ldr	r5, .L44
 222              	.LBE12:
 223              	.LBE11:
 224              	.LBB15:
 225              	.LBB16:
 299:Generated_Source\PSoC5/Clock_1.c **** }
 226              		.loc 1 299 0
 227 0004 2C4E     		ldr	r6, .L44+4
 228              	.LBE16:
 229              	.LBE15:
 230              	.LBB19:
 231              	.LBB13:
 232              		.loc 1 466 0
 233 0006 2F78     		ldrb	r7, [r5]	@ zero_extendqisi2
 234              	.LBE13:
 235              	.LBE19:
 236              	.LBB20:
 237              	.LBB17:
 299:Generated_Source\PSoC5/Clock_1.c **** }
 238              		.loc 1 299 0
 239 0008 3488     		ldrh	r4, [r6]
 240              	.LBE17:
 241              	.LBE20:
 242              	.LBB21:
 243              	.LBB14:
 244              		.loc 1 466 0
 245 000a 07F00707 		and	r7, r7, #7
 246              	.LBE14:
 247              	.LBE21:
 248              	.LBB22:
 249              	.LBB18:
 299:Generated_Source\PSoC5/Clock_1.c **** }
 250              		.loc 1 299 0
 251 000e A4B2     		uxth	r4, r4
 252              	.LBE18:
 253              	.LBE22:
 201:Generated_Source\PSoC5/Clock_1.c ****     {
 254              		.loc 1 201 0
 255 0010 A042     		cmp	r0, r4
 256 0012 4DD0     		beq	.L23
 203:Generated_Source\PSoC5/Clock_1.c **** 
 257              		.loc 1 203 0
 258 0014 294B     		ldr	r3, .L44+8
 259 0016 1A78     		ldrb	r2, [r3]	@ zero_extendqisi2
 260 0018 D2B2     		uxtb	r2, r2
 261              	.LVL4:
 205:Generated_Source\PSoC5/Clock_1.c ****         {
 262              		.loc 1 205 0
 263 001a 6FB9     		cbnz	r7, .L26
 205:Generated_Source\PSoC5/Clock_1.c ****         {
 264              		.loc 1 205 0 is_stmt 0 discriminator 1
 265 001c 34B1     		cbz	r4, .L27
ARM GAS  C:\Users\ARMAND~1\AppData\Local\Temp\cchn0m0b.s 			page 14


 205:Generated_Source\PSoC5/Clock_1.c ****         {
 266              		.loc 1 205 0 discriminator 2
 267 001e 58B9     		cbnz	r0, .L26
 220:Generated_Source\PSoC5/Clock_1.c ****                 CY_SET_REG16(Clock_1_DIV_PTR, clkDivider);
 268              		.loc 1 220 0 is_stmt 1
 269 0020 2B78     		ldrb	r3, [r5]	@ zero_extendqisi2
 270 0022 43F04003 		orr	r3, r3, #64
 271 0026 2B70     		strb	r3, [r5]
 221:Generated_Source\PSoC5/Clock_1.c ****             }
 272              		.loc 1 221 0
 273 0028 3080     		strh	r0, [r6]	@ movhi
 274 002a F0BD     		pop	{r4, r5, r6, r7, pc}
 275              	.L27:
 213:Generated_Source\PSoC5/Clock_1.c ****                 Clock_1_MOD_SRC &= (uint8)(~CYCLK_SSS);
 276              		.loc 1 213 0
 277 002c 3080     		strh	r0, [r6]	@ movhi
 214:Generated_Source\PSoC5/Clock_1.c ****             }
 278              		.loc 1 214 0
 279 002e 2B78     		ldrb	r3, [r5]	@ zero_extendqisi2
 280 0030 03F0BF03 		and	r3, r3, #191
 281 0034 2B70     		strb	r3, [r5]
 282 0036 F0BD     		pop	{r4, r5, r6, r7, pc}
 283              	.L26:
 203:Generated_Source\PSoC5/Clock_1.c **** 
 284              		.loc 1 203 0
 285 0038 02F00402 		and	r2, r2, #4
 286              	.LVL5:
 227:Generated_Source\PSoC5/Clock_1.c ****             {
 287              		.loc 1 227 0
 288 003c 02F0FF06 		and	r6, r2, #255
 289 0040 0AB3     		cbz	r2, .L30
 236:Generated_Source\PSoC5/Clock_1.c ****                 CLK_DIST_AMASK = 0x00u;
 290              		.loc 1 236 0
 291 0042 1F4F     		ldr	r7, .L44+12
 229:Generated_Source\PSoC5/Clock_1.c **** 
 292              		.loc 1 229 0
 293 0044 1F4A     		ldr	r2, .L44+16
 294 0046 0025     		movs	r5, #0
 236:Generated_Source\PSoC5/Clock_1.c ****                 CLK_DIST_AMASK = 0x00u;
 295              		.loc 1 236 0
 296 0048 4FF0040E 		mov	lr, #4
 229:Generated_Source\PSoC5/Clock_1.c **** 
 297              		.loc 1 229 0
 298 004c 1570     		strb	r5, [r2]
 236:Generated_Source\PSoC5/Clock_1.c ****                 CLK_DIST_AMASK = 0x00u;
 299              		.loc 1 236 0
 300 004e 87F800E0 		strb	lr, [r7]
 237:Generated_Source\PSoC5/Clock_1.c **** #endif /* Clock_1__CFG3 */
 301              		.loc 1 237 0
 302 0052 3D71     		strb	r5, [r7, #4]
 240:Generated_Source\PSoC5/Clock_1.c **** 
 303              		.loc 1 240 0
 304 0054 17F8085C 		ldrb	r5, [r7, #-8]	@ zero_extendqisi2
 305 0058 05F07F05 		and	r5, r5, #127
 306 005c 07F8085C 		strb	r5, [r7, #-8]
 243:Generated_Source\PSoC5/Clock_1.c ****                 {
 307              		.loc 1 243 0
ARM GAS  C:\Users\ARMAND~1\AppData\Local\Temp\cchn0m0b.s 			page 15


 308 0060 144D     		ldr	r5, .L44
 309 0062 2D78     		ldrb	r5, [r5]	@ zero_extendqisi2
 310 0064 2D07     		lsls	r5, r5, #28
 311 0066 00D5     		bpl	.L31
 243:Generated_Source\PSoC5/Clock_1.c ****                 {
 312              		.loc 1 243 0 is_stmt 0 discriminator 1
 313 0068 68B9     		cbnz	r0, .L30
 314              	.L31:
 246:Generated_Source\PSoC5/Clock_1.c ****                     CLK_DIST_LD = CYCLK_LD_DISABLE|CYCLK_LD_SYNC_EN|CYCLK_LD_LOAD;
 315              		.loc 1 246 0 is_stmt 1
 316 006a 174D     		ldr	r5, .L44+20
 317 006c 2C80     		strh	r4, [r5]	@ movhi
 247:Generated_Source\PSoC5/Clock_1.c **** 
 318              		.loc 1 247 0
 319 006e 0724     		movs	r4, #7
 320 0070 1470     		strb	r4, [r2]
 321              	.L33:
 250:Generated_Source\PSoC5/Clock_1.c **** #endif /* HAS_CLKDIST_LD_DISABLE */
 322              		.loc 1 250 0 discriminator 1
 323 0072 1478     		ldrb	r4, [r2]	@ zero_extendqisi2
 324 0074 14F00104 		ands	r4, r4, #1
 325 0078 FBD1     		bne	.L33
 253:Generated_Source\PSoC5/Clock_1.c **** 
 326              		.loc 1 253 0
 327 007a 1A78     		ldrb	r2, [r3]	@ zero_extendqisi2
 328 007c 02F0FB02 		and	r2, r2, #251
 329 0080 1A70     		strb	r2, [r3]
 257:Generated_Source\PSoC5/Clock_1.c **** #endif /* HAS_CLKDIST_LD_DISABLE */
 330              		.loc 1 257 0
 331 0082 104A     		ldr	r2, .L44+16
 332 0084 1470     		strb	r4, [r2]
 333              	.L30:
 263:Generated_Source\PSoC5/Clock_1.c ****             {
 334              		.loc 1 263 0
 335 0086 1B78     		ldrb	r3, [r3]	@ zero_extendqisi2
 336 0088 0C4A     		ldr	r2, .L44+8
 337 008a 5C07     		lsls	r4, r3, #29
 338 008c 0BD5     		bpl	.L34
 266:Generated_Source\PSoC5/Clock_1.c **** 
 339              		.loc 1 266 0
 340 008e 0E4B     		ldr	r3, .L44+20
 268:Generated_Source\PSoC5/Clock_1.c ****                 while ((CLK_DIST_LD & CYCLK_LD_LOAD) != 0u) { }
 341              		.loc 1 268 0
 342 0090 0029     		cmp	r1, #0
 266:Generated_Source\PSoC5/Clock_1.c **** 
 343              		.loc 1 266 0
 344 0092 1880     		strh	r0, [r3]	@ movhi
 268:Generated_Source\PSoC5/Clock_1.c ****                 while ((CLK_DIST_LD & CYCLK_LD_LOAD) != 0u) { }
 345              		.loc 1 268 0
 346 0094 14BF     		ite	ne
 347 0096 0322     		movne	r2, #3
 348 0098 0122     		moveq	r2, #1
 349 009a 013B     		subs	r3, r3, #1
 350 009c 1A70     		strb	r2, [r3]
 351              	.L36:
 269:Generated_Source\PSoC5/Clock_1.c ****             }
 352              		.loc 1 269 0 discriminator 1
ARM GAS  C:\Users\ARMAND~1\AppData\Local\Temp\cchn0m0b.s 			page 16


 353 009e 1A78     		ldrb	r2, [r3]	@ zero_extendqisi2
 354 00a0 D207     		lsls	r2, r2, #31
 355 00a2 FCD4     		bmi	.L36
 356 00a4 F0BD     		pop	{r4, r5, r6, r7, pc}
 357              	.L34:
 274:Generated_Source\PSoC5/Clock_1.c **** 				Clock_1_CLKEN |= enabled;
 358              		.loc 1 274 0
 359 00a6 044B     		ldr	r3, .L44+4
 360 00a8 1880     		strh	r0, [r3]	@ movhi
 275:Generated_Source\PSoC5/Clock_1.c ****             }
 361              		.loc 1 275 0
 362 00aa 1378     		ldrb	r3, [r2]	@ zero_extendqisi2
 363 00ac 3343     		orrs	r3, r3, r6
 364 00ae 1370     		strb	r3, [r2]
 365              	.L23:
 366 00b0 F0BD     		pop	{r4, r5, r6, r7, pc}
 367              	.L45:
 368 00b2 00BF     		.align	2
 369              	.L44:
 370 00b4 8A400040 		.word	1073758346
 371 00b8 88400040 		.word	1073758344
 372 00bc A2430040 		.word	1073759138
 373 00c0 10400040 		.word	1073758224
 374 00c4 01400040 		.word	1073758209
 375 00c8 02400040 		.word	1073758210
 376              		.cfi_endproc
 377              	.LFE4:
 378              		.size	Clock_1_SetDividerRegister, .-Clock_1_SetDividerRegister
 379              		.section	.text.Clock_1_GetDividerRegister,"ax",%progbits
 380              		.align	1
 381              		.global	Clock_1_GetDividerRegister
 382              		.thumb
 383              		.thumb_func
 384              		.type	Clock_1_GetDividerRegister, %function
 385              	Clock_1_GetDividerRegister:
 386              	.LFB5:
 298:Generated_Source\PSoC5/Clock_1.c ****     return CY_GET_REG16(Clock_1_DIV_PTR);
 387              		.loc 1 298 0
 388              		.cfi_startproc
 389              		@ args = 0, pretend = 0, frame = 0
 390              		@ frame_needed = 0, uses_anonymous_args = 0
 391              		@ link register save eliminated.
 299:Generated_Source\PSoC5/Clock_1.c **** }
 392              		.loc 1 299 0
 393 0000 014B     		ldr	r3, .L47
 394 0002 1888     		ldrh	r0, [r3]
 300:Generated_Source\PSoC5/Clock_1.c **** 
 395              		.loc 1 300 0
 396 0004 80B2     		uxth	r0, r0
 397 0006 7047     		bx	lr
 398              	.L48:
 399              		.align	2
 400              	.L47:
 401 0008 88400040 		.word	1073758344
 402              		.cfi_endproc
 403              	.LFE5:
 404              		.size	Clock_1_GetDividerRegister, .-Clock_1_GetDividerRegister
ARM GAS  C:\Users\ARMAND~1\AppData\Local\Temp\cchn0m0b.s 			page 17


 405              		.section	.text.Clock_1_SetModeRegister,"ax",%progbits
 406              		.align	1
 407              		.global	Clock_1_SetModeRegister
 408              		.thumb
 409              		.thumb_func
 410              		.type	Clock_1_SetModeRegister, %function
 411              	Clock_1_SetModeRegister:
 412              	.LFB6:
 333:Generated_Source\PSoC5/Clock_1.c ****     Clock_1_MOD_SRC |= modeBitMask & (uint8)Clock_1_MODE_MASK;
 413              		.loc 1 333 0
 414              		.cfi_startproc
 415              		@ args = 0, pretend = 0, frame = 0
 416              		@ frame_needed = 0, uses_anonymous_args = 0
 417              		@ link register save eliminated.
 418              	.LVL6:
 334:Generated_Source\PSoC5/Clock_1.c **** }
 419              		.loc 1 334 0
 420 0000 034A     		ldr	r2, .L50
 421 0002 00F0F800 		and	r0, r0, #248
 422              	.LVL7:
 423 0006 1378     		ldrb	r3, [r2]	@ zero_extendqisi2
 424 0008 0343     		orrs	r3, r3, r0
 425 000a 1370     		strb	r3, [r2]
 426 000c 7047     		bx	lr
 427              	.L51:
 428 000e 00BF     		.align	2
 429              	.L50:
 430 0010 8A400040 		.word	1073758346
 431              		.cfi_endproc
 432              	.LFE6:
 433              		.size	Clock_1_SetModeRegister, .-Clock_1_SetModeRegister
 434              		.section	.text.Clock_1_ClearModeRegister,"ax",%progbits
 435              		.align	1
 436              		.global	Clock_1_ClearModeRegister
 437              		.thumb
 438              		.thumb_func
 439              		.type	Clock_1_ClearModeRegister, %function
 440              	Clock_1_ClearModeRegister:
 441              	.LFB7:
 368:Generated_Source\PSoC5/Clock_1.c ****     Clock_1_MOD_SRC &= (uint8)(~modeBitMask) | (uint8)(~(uint8)(Clock_1_MODE_MASK));
 442              		.loc 1 368 0
 443              		.cfi_startproc
 444              		@ args = 0, pretend = 0, frame = 0
 445              		@ frame_needed = 0, uses_anonymous_args = 0
 446              		@ link register save eliminated.
 447              	.LVL8:
 369:Generated_Source\PSoC5/Clock_1.c **** }
 448              		.loc 1 369 0
 449 0000 C043     		mvns	r0, r0
 450              	.LVL9:
 451 0002 034B     		ldr	r3, .L53
 452 0004 40F00700 		orr	r0, r0, #7
 453 0008 1A78     		ldrb	r2, [r3]	@ zero_extendqisi2
 454 000a 1040     		ands	r0, r0, r2
 455 000c 1870     		strb	r0, [r3]
 456 000e 7047     		bx	lr
 457              	.L54:
ARM GAS  C:\Users\ARMAND~1\AppData\Local\Temp\cchn0m0b.s 			page 18


 458              		.align	2
 459              	.L53:
 460 0010 8A400040 		.word	1073758346
 461              		.cfi_endproc
 462              	.LFE7:
 463              		.size	Clock_1_ClearModeRegister, .-Clock_1_ClearModeRegister
 464              		.section	.text.Clock_1_GetModeRegister,"ax",%progbits
 465              		.align	1
 466              		.global	Clock_1_GetModeRegister
 467              		.thumb
 468              		.thumb_func
 469              		.type	Clock_1_GetModeRegister, %function
 470              	Clock_1_GetModeRegister:
 471              	.LFB8:
 389:Generated_Source\PSoC5/Clock_1.c ****     return Clock_1_MOD_SRC & (uint8)(Clock_1_MODE_MASK);
 472              		.loc 1 389 0
 473              		.cfi_startproc
 474              		@ args = 0, pretend = 0, frame = 0
 475              		@ frame_needed = 0, uses_anonymous_args = 0
 476              		@ link register save eliminated.
 390:Generated_Source\PSoC5/Clock_1.c **** }
 477              		.loc 1 390 0
 478 0000 024B     		ldr	r3, .L56
 479 0002 1878     		ldrb	r0, [r3]	@ zero_extendqisi2
 391:Generated_Source\PSoC5/Clock_1.c **** 
 480              		.loc 1 391 0
 481 0004 00F0F800 		and	r0, r0, #248
 482 0008 7047     		bx	lr
 483              	.L57:
 484 000a 00BF     		.align	2
 485              	.L56:
 486 000c 8A400040 		.word	1073758346
 487              		.cfi_endproc
 488              	.LFE8:
 489              		.size	Clock_1_GetModeRegister, .-Clock_1_GetModeRegister
 490              		.section	.text.Clock_1_SetSourceRegister,"ax",%progbits
 491              		.align	1
 492              		.global	Clock_1_SetSourceRegister
 493              		.thumb
 494              		.thumb_func
 495              		.type	Clock_1_SetSourceRegister, %function
 496              	Clock_1_SetSourceRegister:
 497              	.LFB9:
 420:Generated_Source\PSoC5/Clock_1.c ****     uint16 currDiv = Clock_1_GetDividerRegister();
 498              		.loc 1 420 0
 499              		.cfi_startproc
 500              		@ args = 0, pretend = 0, frame = 0
 501              		@ frame_needed = 0, uses_anonymous_args = 0
 502              		@ link register save eliminated.
 503              	.LVL10:
 504              	.LBB23:
 505              	.LBB24:
 299:Generated_Source\PSoC5/Clock_1.c **** }
 506              		.loc 1 299 0
 507 0000 124B     		ldr	r3, .L66
 508 0002 1A88     		ldrh	r2, [r3]
 509              	.LBE24:
ARM GAS  C:\Users\ARMAND~1\AppData\Local\Temp\cchn0m0b.s 			page 19


 510              	.LBE23:
 511              	.LBB26:
 512              	.LBB27:
 513              		.loc 1 466 0
 514 0004 0233     		adds	r3, r3, #2
 515 0006 1978     		ldrb	r1, [r3]	@ zero_extendqisi2
 516              	.LBE27:
 517              	.LBE26:
 518              	.LBB28:
 519              	.LBB25:
 299:Generated_Source\PSoC5/Clock_1.c **** }
 520              		.loc 1 299 0
 521 0008 92B2     		uxth	r2, r2
 522              	.LBE25:
 523              	.LBE28:
 424:Generated_Source\PSoC5/Clock_1.c ****         (clkSource == ((uint8)CYCLK_SRC_SEL_CLK_SYNC_D))) && (currDiv == 0u))
 524              		.loc 1 424 0
 525 000a 11F0070F 		tst	r1, #7
 526 000e 1946     		mov	r1, r3
 527 0010 09D0     		beq	.L59
 424:Generated_Source\PSoC5/Clock_1.c ****         (clkSource == ((uint8)CYCLK_SRC_SEL_CLK_SYNC_D))) && (currDiv == 0u))
 528              		.loc 1 424 0 is_stmt 0 discriminator 1
 529 0012 A0B9     		cbnz	r0, .L60
 425:Generated_Source\PSoC5/Clock_1.c ****     {
 530              		.loc 1 425 0 is_stmt 1
 531 0014 9AB9     		cbnz	r2, .L60
 429:Generated_Source\PSoC5/Clock_1.c ****         Clock_1_MOD_SRC =
 532              		.loc 1 429 0
 533 0016 1A78     		ldrb	r2, [r3]	@ zero_extendqisi2
 534 0018 42F04002 		orr	r2, r2, #64
 535 001c 1A70     		strb	r2, [r3]
 431:Generated_Source\PSoC5/Clock_1.c ****     }
 536              		.loc 1 431 0
 537 001e 1A78     		ldrb	r2, [r3]	@ zero_extendqisi2
 430:Generated_Source\PSoC5/Clock_1.c ****             (Clock_1_MOD_SRC & (uint8)(~Clock_1_SRC_SEL_MSK)) | clkSource;
 538              		.loc 1 430 0
 539 0020 02F0F802 		and	r2, r2, #248
 540 0024 09E0     		b	.L65
 541              	.L59:
 433:Generated_Source\PSoC5/Clock_1.c ****             (clkSource != ((uint8)CYCLK_SRC_SEL_CLK_SYNC_D))) && (currDiv == 0u))
 542              		.loc 1 433 0 discriminator 1
 543 0026 50B1     		cbz	r0, .L60
 434:Generated_Source\PSoC5/Clock_1.c ****     {
 544              		.loc 1 434 0
 545 0028 4AB9     		cbnz	r2, .L60
 439:Generated_Source\PSoC5/Clock_1.c ****         Clock_1_MOD_SRC &= (uint8)(~CYCLK_SSS);
 546              		.loc 1 439 0
 547 002a 1A78     		ldrb	r2, [r3]	@ zero_extendqisi2
 438:Generated_Source\PSoC5/Clock_1.c ****             (Clock_1_MOD_SRC & (uint8)(~Clock_1_SRC_SEL_MSK)) | clkSource;
 548              		.loc 1 438 0
 549 002c 02F0F802 		and	r2, r2, #248
 550 0030 1043     		orrs	r0, r0, r2
 551              	.LVL11:
 552 0032 1870     		strb	r0, [r3]
 440:Generated_Source\PSoC5/Clock_1.c ****     }
 553              		.loc 1 440 0
 554 0034 1A78     		ldrb	r2, [r3]	@ zero_extendqisi2
ARM GAS  C:\Users\ARMAND~1\AppData\Local\Temp\cchn0m0b.s 			page 20


 555 0036 02F0BF02 		and	r2, r2, #191
 556              	.L65:
 557 003a 1A70     		strb	r2, [r3]
 558 003c 7047     		bx	lr
 559              	.LVL12:
 560              	.L60:
 445:Generated_Source\PSoC5/Clock_1.c ****     }
 561              		.loc 1 445 0
 562 003e 0B78     		ldrb	r3, [r1]	@ zero_extendqisi2
 444:Generated_Source\PSoC5/Clock_1.c ****             (Clock_1_MOD_SRC & (uint8)(~Clock_1_SRC_SEL_MSK)) | clkSource;
 563              		.loc 1 444 0
 564 0040 03F0F803 		and	r3, r3, #248
 565 0044 1843     		orrs	r0, r0, r3
 566              	.LVL13:
 567 0046 0870     		strb	r0, [r1]
 568 0048 7047     		bx	lr
 569              	.L67:
 570 004a 00BF     		.align	2
 571              	.L66:
 572 004c 88400040 		.word	1073758344
 573              		.cfi_endproc
 574              	.LFE9:
 575              		.size	Clock_1_SetSourceRegister, .-Clock_1_SetSourceRegister
 576              		.section	.text.Clock_1_GetSourceRegister,"ax",%progbits
 577              		.align	1
 578              		.global	Clock_1_GetSourceRegister
 579              		.thumb
 580              		.thumb_func
 581              		.type	Clock_1_GetSourceRegister, %function
 582              	Clock_1_GetSourceRegister:
 583              	.LFB10:
 465:Generated_Source\PSoC5/Clock_1.c ****     return Clock_1_MOD_SRC & Clock_1_SRC_SEL_MSK;
 584              		.loc 1 465 0
 585              		.cfi_startproc
 586              		@ args = 0, pretend = 0, frame = 0
 587              		@ frame_needed = 0, uses_anonymous_args = 0
 588              		@ link register save eliminated.
 589              		.loc 1 466 0
 590 0000 024B     		ldr	r3, .L69
 591 0002 1878     		ldrb	r0, [r3]	@ zero_extendqisi2
 467:Generated_Source\PSoC5/Clock_1.c **** }
 592              		.loc 1 467 0
 593 0004 00F00700 		and	r0, r0, #7
 594 0008 7047     		bx	lr
 595              	.L70:
 596 000a 00BF     		.align	2
 597              	.L69:
 598 000c 8A400040 		.word	1073758346
 599              		.cfi_endproc
 600              	.LFE10:
 601              		.size	Clock_1_GetSourceRegister, .-Clock_1_GetSourceRegister
 602              		.text
 603              	.Letext0:
 604              		.file 2 "Generated_Source\\PSoC5/cytypes.h"
