ARM GAS  C:\Users\ARMAND~1\AppData\Local\Temp\cc2dQwoO.s 			page 1


   1              		.syntax unified
   2              		.cpu cortex-m3
   3              		.fpu softvfp
   4              		.eabi_attribute 20, 1
   5              		.eabi_attribute 21, 1
   6              		.eabi_attribute 23, 3
   7              		.eabi_attribute 24, 1
   8              		.eabi_attribute 25, 1
   9              		.eabi_attribute 26, 1
  10              		.eabi_attribute 30, 4
  11              		.eabi_attribute 34, 1
  12              		.eabi_attribute 18, 4
  13              		.thumb
  14              		.syntax unified
  15              		.file	"ssd1306.c"
  16              		.text
  17              	.Ltext0:
  18              		.cfi_sections	.debug_frame
  19              		.section	.text.display_write_buf,"ax",%progbits
  20              		.align	1
  21              		.thumb
  22              		.thumb_func
  23              		.type	display_write_buf, %function
  24              	display_write_buf:
  25              	.LFB64:
  26              		.file 1 "ssd1306.c"
   1:ssd1306.c     **** /* ========================================
   2:ssd1306.c     ****  *
   3:ssd1306.c     ****  * Copyright YOUR COMPANY, THE YEAR
   4:ssd1306.c     ****  * All Rights Reserved
   5:ssd1306.c     ****  * UNPUBLISHED, LICENSED SOFTWARE.
   6:ssd1306.c     ****  *
   7:ssd1306.c     ****  * CONFIDENTIAL AND PROPRIETARY INFORMATION
   8:ssd1306.c     ****  * WHICH IS THE PROPERTY OF your company.
   9:ssd1306.c     ****  *
  10:ssd1306.c     ****  * ========================================
  11:ssd1306.c     **** */
  12:ssd1306.c     **** 
  13:ssd1306.c     **** #include <project.h>
  14:ssd1306.c     **** #include <stdlib.h>
  15:ssd1306.c     **** 
  16:ssd1306.c     **** #include "font.h"
  17:ssd1306.c     **** #include "ssd1306.h"
  18:ssd1306.c     **** 
  19:ssd1306.c     **** 
  20:ssd1306.c     **** #define DISPLAYWIDTH 128
  21:ssd1306.c     **** #define DISPLAYHEIGHT 64
  22:ssd1306.c     ****     
  23:ssd1306.c     **** #define SSD1306_SETCONTRAST 0x81
  24:ssd1306.c     **** #define SSD1306_DISPLAYALLON_RESUME 0xA4
  25:ssd1306.c     **** #define SSD1306_DISPLAYALLON 0xA5
  26:ssd1306.c     **** #define SSD1306_NORMALDISPLAY 0xA6
  27:ssd1306.c     **** #define SSD1306_INVERTDISPLAY 0xA7
  28:ssd1306.c     **** #define SSD1306_DISPLAYOFF 0xAE
  29:ssd1306.c     **** #define SSD1306_DISPLAYON 0xAF
  30:ssd1306.c     **** #define SSD1306_SETDISPLAYOFFSET 0xD3
  31:ssd1306.c     **** #define SSD1306_SETCOMPINS 0xDA
ARM GAS  C:\Users\ARMAND~1\AppData\Local\Temp\cc2dQwoO.s 			page 2


  32:ssd1306.c     **** #define SSD1306_SETVCOMDETECT 0xDB
  33:ssd1306.c     **** #define SSD1306_SETDISPLAYCLOCKDIV 0xD5
  34:ssd1306.c     **** #define SSD1306_SETPRECHARGE 0xD9
  35:ssd1306.c     **** #define SSD1306_SETMULTIPLEX 0xA8
  36:ssd1306.c     **** #define SSD1306_SETLOWCOLUMN 0x00
  37:ssd1306.c     **** #define SSD1306_SETHIGHCOLUMN 0x10
  38:ssd1306.c     **** #define SSD1306_SETSTARTLINE 0x40
  39:ssd1306.c     **** #define SSD1306_MEMORYMODE 0x20
  40:ssd1306.c     **** #define SSD1306_COLUMNADDR 0x21
  41:ssd1306.c     **** #define SSD1306_PAGEADDR 0x22
  42:ssd1306.c     **** #define SSD1306_COMSCANINC 0xC0
  43:ssd1306.c     **** #define SSD1306_COMSCANDEC 0xC8
  44:ssd1306.c     **** #define SSD1306_SEGREMAP 0xA0
  45:ssd1306.c     **** #define SSD1306_CHARGEPUMP 0x8D
  46:ssd1306.c     **** #define SSD1306_EXTERNALVCC 0x1
  47:ssd1306.c     **** #define SSD1306_SWITCHCAPVCC 0x2
  48:ssd1306.c     **** #define SSD1306_ACTIVATE_SCROLL 0x2F
  49:ssd1306.c     **** #define SSD1306_DEACTIVATE_SCROLL 0x2E
  50:ssd1306.c     **** 
  51:ssd1306.c     **** 
  52:ssd1306.c     **** // I2C result status
  53:ssd1306.c     **** #define TRANSFER_CMPLT    (0x00u)
  54:ssd1306.c     **** #define TRANSFER_ERROR    (0xFFu)
  55:ssd1306.c     **** 
  56:ssd1306.c     **** 
  57:ssd1306.c     **** static uint32 display_write_buf( uint8* buf, uint16_t size );
  58:ssd1306.c     **** 
  59:ssd1306.c     **** void gfx_init( int16_t width, int16_t height );
  60:ssd1306.c     **** 
  61:ssd1306.c     **** static uint8 _i2caddr;
  62:ssd1306.c     **** 
  63:ssd1306.c     **** // display memory buffer ( === MUST INCLUDE === the preceding I2C 0x40 control byte for the display
  64:ssd1306.c     **** static uint8_t SSD1306_buffer[DISPLAYHEIGHT * DISPLAYWIDTH / 8 + 1] = { 0x40 }; //0x40
  65:ssd1306.c     **** // pointer to actual display memory buffer
  66:ssd1306.c     **** static uint8_t* _displaybuf = SSD1306_buffer+1;
  67:ssd1306.c     **** static uint16_t _displaybuf_size = sizeof(SSD1306_buffer) - 1;
  68:ssd1306.c     **** 
  69:ssd1306.c     **** // see data sheet page 25 for Graphic Display Data RAM organization
  70:ssd1306.c     **** // 8 pages, each page a row of DISPLAYWIDTH bytes
  71:ssd1306.c     **** // start address of of row: y/8*DISPLAYWIDTH
  72:ssd1306.c     **** // x pos in row: == x 
  73:ssd1306.c     **** #define GDDRAM_ADDRESS(X,Y) ((_displaybuf)+((Y)/8)*(DISPLAYWIDTH)+(X))
  74:ssd1306.c     **** 
  75:ssd1306.c     **** // lower 3 bit of y determine vertical pixel position (pos 0...7) in GDDRAM byte
  76:ssd1306.c     **** // (y&0x07) == position of pixel on row (page). LSB is top, MSB bottom
  77:ssd1306.c     **** #define GDDRAM_PIXMASK(Y) (1 << ((Y)&0x07))//0x07
  78:ssd1306.c     **** 
  79:ssd1306.c     **** #define PIXEL_ON(X,Y) (*GDDRAM_ADDRESS(x,y) |= GDDRAM_PIXMASK(y))
  80:ssd1306.c     **** #define PIXEL_OFF(X,Y) (*GDDRAM_ADDRESS(x,y) &= ~GDDRAM_PIXMASK(y))
  81:ssd1306.c     **** #define PIXEL_TOGGLE(X,Y) (*GDDRAM_ADDRESS(x,y) ^= GDDRAM_PIXMASK(y)) 
  82:ssd1306.c     **** 
  83:ssd1306.c     **** 
  84:ssd1306.c     **** 
  85:ssd1306.c     **** // call before first use of other functions
  86:ssd1306.c     **** void display_init( uint8 i2caddr ){
  87:ssd1306.c     ****     
  88:ssd1306.c     ****     _i2caddr = i2caddr;
ARM GAS  C:\Users\ARMAND~1\AppData\Local\Temp\cc2dQwoO.s 			page 3


  89:ssd1306.c     ****     gfx_init( DISPLAYWIDTH, DISPLAYHEIGHT );
  90:ssd1306.c     ****     
  91:ssd1306.c     ****     uint8 cmdbuf[] = {
  92:ssd1306.c     ****         0x00,
  93:ssd1306.c     ****         SSD1306_DISPLAYOFF,
  94:ssd1306.c     ****         SSD1306_SETDISPLAYCLOCKDIV,
  95:ssd1306.c     ****         0x80,
  96:ssd1306.c     ****         SSD1306_SETMULTIPLEX,
  97:ssd1306.c     ****         0x3f,
  98:ssd1306.c     ****         SSD1306_SETDISPLAYOFFSET,
  99:ssd1306.c     ****         0x00,
 100:ssd1306.c     ****         SSD1306_SETSTARTLINE | 0x0,
 101:ssd1306.c     ****         SSD1306_CHARGEPUMP,
 102:ssd1306.c     ****         0x14,
 103:ssd1306.c     ****         SSD1306_MEMORYMODE,
 104:ssd1306.c     ****         0x00,
 105:ssd1306.c     ****         SSD1306_SEGREMAP | 0x1,
 106:ssd1306.c     ****         SSD1306_COMSCANDEC,
 107:ssd1306.c     ****         SSD1306_SETCOMPINS,
 108:ssd1306.c     ****         0x12, //0x12,
 109:ssd1306.c     ****         SSD1306_SETCONTRAST,
 110:ssd1306.c     ****         0xcf, //0xcf,
 111:ssd1306.c     ****         SSD1306_SETPRECHARGE,
 112:ssd1306.c     ****         0xf1,
 113:ssd1306.c     ****         SSD1306_SETVCOMDETECT,
 114:ssd1306.c     ****         0x40,
 115:ssd1306.c     ****         SSD1306_DISPLAYALLON_RESUME,
 116:ssd1306.c     ****         SSD1306_NORMALDISPLAY,
 117:ssd1306.c     ****         SSD1306_DISPLAYON
 118:ssd1306.c     ****     };
 119:ssd1306.c     ****     
 120:ssd1306.c     ****     display_write_buf( cmdbuf, sizeof(cmdbuf) ); 
 121:ssd1306.c     **** }
 122:ssd1306.c     **** 
 123:ssd1306.c     **** 
 124:ssd1306.c     **** // for submitting command sequences:
 125:ssd1306.c     **** //  buf[0] must be 0x00
 126:ssd1306.c     **** // for submitting bulk data (writing to display RAM):
 127:ssd1306.c     **** //  buf[0] must be 0x40
 128:ssd1306.c     **** static uint32 display_write_buf( uint8* buf, uint16_t size ){
  27              		.loc 1 128 0
  28              		.cfi_startproc
  29              		@ args = 0, pretend = 0, frame = 0
  30              		@ frame_needed = 0, uses_anonymous_args = 0
  31              	.LVL0:
  32 0000 F8B5     		push	{r3, r4, r5, r6, r7, lr}
  33              		.cfi_def_cfa_offset 24
  34              		.cfi_offset 3, -24
  35              		.cfi_offset 4, -20
  36              		.cfi_offset 5, -16
  37              		.cfi_offset 6, -12
  38              		.cfi_offset 7, -8
  39              		.cfi_offset 14, -4
  40              		.loc 1 128 0
  41 0002 0646     		mov	r6, r0
 129:ssd1306.c     **** 
 130:ssd1306.c     ****     uint32 status = TRANSFER_ERROR;
ARM GAS  C:\Users\ARMAND~1\AppData\Local\Temp\cc2dQwoO.s 			page 4


 131:ssd1306.c     ****     int i;
 132:ssd1306.c     ****     I2COLED_MasterSendStart(_i2caddr,I2COLED_WRITE_XFER_MODE);
  42              		.loc 1 132 0
  43 0004 0A4B     		ldr	r3, .L6
 128:ssd1306.c     **** 
  44              		.loc 1 128 0
  45 0006 0F46     		mov	r7, r1
  46              		.loc 1 132 0
  47 0008 1878     		ldrb	r0, [r3]	@ zero_extendqisi2
  48              	.LVL1:
  49 000a 0021     		movs	r1, #0
  50              	.LVL2:
  51 000c FFF7FEFF 		bl	I2COLED_MasterSendStart
  52              	.LVL3:
 133:ssd1306.c     ****     
 134:ssd1306.c     ****     for ( i = 0; i < size; i++)
  53              		.loc 1 134 0
  54 0010 3446     		mov	r4, r6
 130:ssd1306.c     ****     int i;
  55              		.loc 1 130 0
  56 0012 FF25     		movs	r5, #255
  57              	.LVL4:
  58              	.L2:
  59              		.loc 1 134 0 discriminator 1
  60 0014 A31B     		subs	r3, r4, r6
  61 0016 9F42     		cmp	r7, r3
  62 0018 05DD     		ble	.L5
 135:ssd1306.c     ****     {
 136:ssd1306.c     ****         status = I2COLED_MasterWriteByte(buf[i]);
  63              		.loc 1 136 0 discriminator 3
  64 001a 14F8010B 		ldrb	r0, [r4], #1	@ zero_extendqisi2
  65              	.LVL5:
  66 001e FFF7FEFF 		bl	I2COLED_MasterWriteByte
  67              	.LVL6:
  68 0022 0546     		mov	r5, r0
  69              	.LVL7:
  70 0024 F6E7     		b	.L2
  71              	.LVL8:
  72              	.L5:
 137:ssd1306.c     ****     }
 138:ssd1306.c     ****     
 139:ssd1306.c     ****     I2COLED_MasterSendStop();
  73              		.loc 1 139 0
  74 0026 FFF7FEFF 		bl	I2COLED_MasterSendStop
  75              	.LVL9:
 140:ssd1306.c     **** 
 141:ssd1306.c     ****     return status;
 142:ssd1306.c     **** }
  76              		.loc 1 142 0
  77 002a 2846     		mov	r0, r5
  78 002c F8BD     		pop	{r3, r4, r5, r6, r7, pc}
  79              	.LVL10:
  80              	.L7:
  81 002e 00BF     		.align	2
  82              	.L6:
  83 0030 00000000 		.word	.LANCHOR0
  84              		.cfi_endproc
ARM GAS  C:\Users\ARMAND~1\AppData\Local\Temp\cc2dQwoO.s 			page 5


  85              	.LFE64:
  86              		.size	display_write_buf, .-display_write_buf
  87              		.section	.text.gfx_rotation_adjust,"ax",%progbits
  88              		.align	1
  89              		.thumb
  90              		.thumb_func
  91              		.type	gfx_rotation_adjust, %function
  92              	gfx_rotation_adjust:
  93              	.LFB83:
 143:ssd1306.c     **** 
 144:ssd1306.c     **** 
 145:ssd1306.c     **** // used by gfx_ functions. Needs to be implemented by display_
 146:ssd1306.c     **** static void display_setPixel( int16_t x, int16_t y, uint16_t color ){
 147:ssd1306.c     ****     
 148:ssd1306.c     ****     if( (x < 0) || (x >= DISPLAYWIDTH) || (y < 0) || (y >= DISPLAYHEIGHT) )
 149:ssd1306.c     ****         return;
 150:ssd1306.c     **** 
 151:ssd1306.c     ****     switch( color ){
 152:ssd1306.c     ****         case WHITE: 
 153:ssd1306.c     ****             PIXEL_ON(x,y);
 154:ssd1306.c     ****             break;
 155:ssd1306.c     ****         case BLACK:
 156:ssd1306.c     ****             PIXEL_OFF(x,y);
 157:ssd1306.c     ****             break;
 158:ssd1306.c     ****         case INVERSE: 
 159:ssd1306.c     ****             PIXEL_TOGGLE(x,y);
 160:ssd1306.c     ****             break;
 161:ssd1306.c     ****     }
 162:ssd1306.c     **** }
 163:ssd1306.c     **** 
 164:ssd1306.c     **** 
 165:ssd1306.c     **** void display_clear(void){
 166:ssd1306.c     ****     memset( _displaybuf, 0, _displaybuf_size );
 167:ssd1306.c     ****     SSD1306_buffer[0] = 0x40; //0x40 // to be sure its there
 168:ssd1306.c     **** }
 169:ssd1306.c     **** 
 170:ssd1306.c     **** 
 171:ssd1306.c     **** // contrast: 0 ...255
 172:ssd1306.c     **** void display_contrast( uint8_t contrast ){
 173:ssd1306.c     ****         
 174:ssd1306.c     ****     uint8 cmdbuf[] = {
 175:ssd1306.c     ****         0x00,  
 176:ssd1306.c     ****         SSD1306_SETCONTRAST,
 177:ssd1306.c     ****         contrast
 178:ssd1306.c     ****     };
 179:ssd1306.c     ****     display_write_buf( cmdbuf, sizeof(cmdbuf) ); 
 180:ssd1306.c     **** }
 181:ssd1306.c     **** 
 182:ssd1306.c     **** 
 183:ssd1306.c     **** // invert <> 0 for inverse display, invert == 0 for normal display
 184:ssd1306.c     **** void display_invert( uint8_t invert ){
 185:ssd1306.c     **** 
 186:ssd1306.c     ****     uint8 cmdbuf[] = {
 187:ssd1306.c     ****         0x00,  
 188:ssd1306.c     ****         0
 189:ssd1306.c     ****     };
 190:ssd1306.c     ****     cmdbuf[1] = invert ? SSD1306_INVERTDISPLAY : SSD1306_NORMALDISPLAY;
ARM GAS  C:\Users\ARMAND~1\AppData\Local\Temp\cc2dQwoO.s 			page 6


 191:ssd1306.c     ****     display_write_buf( cmdbuf, sizeof(cmdbuf) ); 
 192:ssd1306.c     **** }
 193:ssd1306.c     **** 
 194:ssd1306.c     **** 
 195:ssd1306.c     **** void display_update(void) {
 196:ssd1306.c     ****       
 197:ssd1306.c     ****     uint8 cmdbuf[] = {
 198:ssd1306.c     ****         0x00,
 199:ssd1306.c     ****         SSD1306_COLUMNADDR,
 200:ssd1306.c     ****         0,                      // start
 201:ssd1306.c     ****         DISPLAYWIDTH-1, // end
 202:ssd1306.c     ****         SSD1306_PAGEADDR,
 203:ssd1306.c     ****         0,                      // start
 204:ssd1306.c     ****         7 //7                       // end
 205:ssd1306.c     ****     };
 206:ssd1306.c     ****     display_write_buf( cmdbuf, sizeof(cmdbuf) ); 
 207:ssd1306.c     ****     display_write_buf( SSD1306_buffer, sizeof(SSD1306_buffer) );
 208:ssd1306.c     **** }
 209:ssd1306.c     **** 
 210:ssd1306.c     **** 
 211:ssd1306.c     **** // draws horizontal or vertical line
 212:ssd1306.c     **** // Note: no check for valid coords, this needs to be done by caller
 213:ssd1306.c     **** // should only be called from gfx_hvline which is doing all validity checking
 214:ssd1306.c     **** static void display_line( int16_t x1, int16_t y1, int16_t x2, int16_t y2, uint16_t color ){
 215:ssd1306.c     **** 
 216:ssd1306.c     ****     if( x1 == x2 ){
 217:ssd1306.c     ****         // vertical
 218:ssd1306.c     ****         uint8_t* pstart = GDDRAM_ADDRESS(x1,y1);
 219:ssd1306.c     ****         uint8_t* pend = GDDRAM_ADDRESS(x2,y2);       
 220:ssd1306.c     ****         uint8_t* ptr = pstart;             
 221:ssd1306.c     ****         
 222:ssd1306.c     ****         while( ptr <= pend ){
 223:ssd1306.c     ****             
 224:ssd1306.c     ****             uint8_t mask;
 225:ssd1306.c     ****             if( ptr == pstart ){
 226:ssd1306.c     ****                 // top
 227:ssd1306.c     ****                 uint8_t lbit = y1 % 8;
 228:ssd1306.c     ****                 // bottom (line can be very short, all inside this one byte)
 229:ssd1306.c     ****                 uint8_t ubit = lbit + y2 - y1;
 230:ssd1306.c     ****                 if( ubit >= 7 ) //7
 231:ssd1306.c     ****                     ubit = 7; //7
 232:ssd1306.c     ****                 mask = ((1 << (ubit-lbit+1)) - 1) << lbit;    
 233:ssd1306.c     ****             }else if( ptr == pend ){
 234:ssd1306.c     ****                 // top is always bit 0, that makes it easy
 235:ssd1306.c     ****                 // bottom
 236:ssd1306.c     ****                 mask = (1 << (y2 % 8)) - 1;    
 237:ssd1306.c     ****             }
 238:ssd1306.c     **** 
 239:ssd1306.c     ****             if( ptr == pstart || ptr == pend ){
 240:ssd1306.c     ****                 switch( color ){
 241:ssd1306.c     ****                     case WHITE:     *ptr |= mask; break;
 242:ssd1306.c     ****                     case BLACK:     *ptr &= ~mask; break;
 243:ssd1306.c     ****                     case INVERSE:   *ptr ^= mask; break;
 244:ssd1306.c     ****                 };  
 245:ssd1306.c     ****             }else{
 246:ssd1306.c     ****                 switch( color ){
 247:ssd1306.c     ****                     case WHITE:     *ptr = 0xff; break;
ARM GAS  C:\Users\ARMAND~1\AppData\Local\Temp\cc2dQwoO.s 			page 7


 248:ssd1306.c     ****                     case BLACK:     *ptr = 0x00; break;
 249:ssd1306.c     ****                     case INVERSE:   *ptr ^= 0xff; break;
 250:ssd1306.c     ****                 };  
 251:ssd1306.c     ****             }
 252:ssd1306.c     ****             
 253:ssd1306.c     ****             ptr += DISPLAYWIDTH;
 254:ssd1306.c     ****         }
 255:ssd1306.c     ****     }else{
 256:ssd1306.c     ****         // horizontal
 257:ssd1306.c     ****         uint8_t* pstart = GDDRAM_ADDRESS(x1,y1);
 258:ssd1306.c     ****         uint8_t* pend = pstart + x2 - x1;
 259:ssd1306.c     ****         uint8_t pixmask = GDDRAM_PIXMASK(y1);    
 260:ssd1306.c     **** 
 261:ssd1306.c     ****         uint8_t* ptr = pstart;
 262:ssd1306.c     ****         while( ptr <= pend ){
 263:ssd1306.c     ****             switch( color ){
 264:ssd1306.c     ****                 case WHITE:     *ptr |= pixmask; break;
 265:ssd1306.c     ****                 case BLACK:     *ptr &= ~pixmask; break;
 266:ssd1306.c     ****                 case INVERSE:   *ptr ^= pixmask; break;
 267:ssd1306.c     ****             };
 268:ssd1306.c     ****             ptr++;
 269:ssd1306.c     ****         }
 270:ssd1306.c     ****     }
 271:ssd1306.c     **** }
 272:ssd1306.c     **** 
 273:ssd1306.c     **** 
 274:ssd1306.c     **** 
 275:ssd1306.c     **** void display_stopscroll(void){
 276:ssd1306.c     **** 
 277:ssd1306.c     ****     uint8 cmdbuf[] = {
 278:ssd1306.c     ****         0x00,
 279:ssd1306.c     ****         SSD1306_DEACTIVATE_SCROLL
 280:ssd1306.c     ****     };
 281:ssd1306.c     ****     display_write_buf( cmdbuf, sizeof(cmdbuf) ); 
 282:ssd1306.c     **** }
 283:ssd1306.c     **** 
 284:ssd1306.c     **** void display_scroll( SCROLL_AREA start, SCROLL_AREA end, SCROLL_DIR dir, SCROLL_SPEED speed ){
 285:ssd1306.c     ****    
 286:ssd1306.c     ****     uint8 cmdbuf[] = {
 287:ssd1306.c     ****         0x00,
 288:ssd1306.c     ****         dir,                    // 0x26 or 0x2a
 289:ssd1306.c     ****         0x00,                   // dummy byte
 290:ssd1306.c     ****         start,                  // start page
 291:ssd1306.c     ****         speed,                  // scroll step interval in terms of frame frequency 
 292:ssd1306.c     ****         end,                    // end page
 293:ssd1306.c     ****         0x00,                   // dummy byte
 294:ssd1306.c     ****         0xFF,                   // dummy byte
 295:ssd1306.c     ****         SSD1306_ACTIVATE_SCROLL // 0x2F
 296:ssd1306.c     ****     };
 297:ssd1306.c     ****     display_write_buf( cmdbuf, sizeof(cmdbuf) ); 
 298:ssd1306.c     **** }
 299:ssd1306.c     **** 
 300:ssd1306.c     **** 
 301:ssd1306.c     **** 
 302:ssd1306.c     **** // ============================================================
 303:ssd1306.c     **** // graphics library stuff
 304:ssd1306.c     **** 
ARM GAS  C:\Users\ARMAND~1\AppData\Local\Temp\cc2dQwoO.s 			page 8


 305:ssd1306.c     **** int16_t WIDTH, HEIGHT; // This is the 'raw' display w/h - never changes
 306:ssd1306.c     **** static int16_t _width, _height; // Display w/h as modified by current rotation
 307:ssd1306.c     **** static int16_t cursor_x, cursor_y;
 308:ssd1306.c     **** static uint16_t textcolor, textbgcolor;
 309:ssd1306.c     **** static uint8_t textsize;
 310:ssd1306.c     **** uint8_t rotation;
 311:ssd1306.c     **** uint8_t wrap; // If set, 'wrap' text at right edge of display
 312:ssd1306.c     **** 
 313:ssd1306.c     **** 
 314:ssd1306.c     **** 
 315:ssd1306.c     **** void gfx_init( int16_t width, int16_t height ){
 316:ssd1306.c     ****     WIDTH = width;
 317:ssd1306.c     ****     HEIGHT = height;
 318:ssd1306.c     ****     _width = WIDTH;
 319:ssd1306.c     ****     _height = HEIGHT;
 320:ssd1306.c     ****     
 321:ssd1306.c     ****     rotation = 0;
 322:ssd1306.c     ****     cursor_y = cursor_x = 0;
 323:ssd1306.c     ****     textsize = 1;
 324:ssd1306.c     ****     textcolor = textbgcolor = 0xFFFF;
 325:ssd1306.c     ****     wrap = 1;
 326:ssd1306.c     **** }
 327:ssd1306.c     **** 
 328:ssd1306.c     **** // Return the size of the display (per current rotation)
 329:ssd1306.c     **** int16_t gfx_width(void){
 330:ssd1306.c     ****     return _width;
 331:ssd1306.c     **** }
 332:ssd1306.c     **** 
 333:ssd1306.c     **** int16_t gfx_height(void){
 334:ssd1306.c     ****     return _height;
 335:ssd1306.c     **** }
 336:ssd1306.c     **** 
 337:ssd1306.c     **** uint8_t gfx_rotation(void){
 338:ssd1306.c     ****     return rotation;
 339:ssd1306.c     **** }
 340:ssd1306.c     **** 
 341:ssd1306.c     **** void gfx_setCursor( int16_t x, int16_t y ){
 342:ssd1306.c     ****     cursor_x = x;
 343:ssd1306.c     ****     cursor_y = y;
 344:ssd1306.c     **** }
 345:ssd1306.c     **** 
 346:ssd1306.c     **** void gfx_setTextSize( uint8_t size ){
 347:ssd1306.c     ****     textsize = (size > 0) ? size : 1;
 348:ssd1306.c     **** }
 349:ssd1306.c     **** 
 350:ssd1306.c     **** void gfx_setTextColor( uint16_t color ){
 351:ssd1306.c     ****     // For 'transparent' background, we'll set the bg
 352:ssd1306.c     ****     // to the same as fg instead of using a flag
 353:ssd1306.c     ****     textcolor = textbgcolor = color;
 354:ssd1306.c     **** }
 355:ssd1306.c     **** 
 356:ssd1306.c     **** void gfx_setTextBg( uint16_t color ){
 357:ssd1306.c     ****     textbgcolor = color;
 358:ssd1306.c     **** }
 359:ssd1306.c     **** 
 360:ssd1306.c     **** void gfx_setTextWrap( uint8 w ){
 361:ssd1306.c     ****     wrap = w;
ARM GAS  C:\Users\ARMAND~1\AppData\Local\Temp\cc2dQwoO.s 			page 9


 362:ssd1306.c     **** }
 363:ssd1306.c     **** 
 364:ssd1306.c     **** void gfx_setRotation( uint8_t x ){
 365:ssd1306.c     ****     
 366:ssd1306.c     ****     rotation = (x & 3);
 367:ssd1306.c     ****     switch( rotation ){
 368:ssd1306.c     ****         case 0:
 369:ssd1306.c     ****         case 2:
 370:ssd1306.c     ****             _width = WIDTH;
 371:ssd1306.c     ****             _height = HEIGHT;
 372:ssd1306.c     ****             break;
 373:ssd1306.c     ****         case 1:
 374:ssd1306.c     ****         case 3:
 375:ssd1306.c     ****             _width = HEIGHT;
 376:ssd1306.c     ****             _height = WIDTH;
 377:ssd1306.c     ****         break;
 378:ssd1306.c     ****     }
 379:ssd1306.c     **** }
 380:ssd1306.c     **** 
 381:ssd1306.c     **** static void gfx_rotation_adjust( int16_t* px, int16_t* py ){
  94              		.loc 1 381 0
  95              		.cfi_startproc
  96              		@ args = 0, pretend = 0, frame = 0
  97              		@ frame_needed = 0, uses_anonymous_args = 0
  98              	.LVL11:
  99 0000 10B5     		push	{r4, lr}
 100              		.cfi_def_cfa_offset 8
 101              		.cfi_offset 4, -8
 102              		.cfi_offset 14, -4
 382:ssd1306.c     **** 
 383:ssd1306.c     ****     int16_t y0 = *py;
 384:ssd1306.c     ****     
 385:ssd1306.c     ****     switch( rotation ){
 103              		.loc 1 385 0
 104 0002 144B     		ldr	r3, .L13
 383:ssd1306.c     ****     
 105              		.loc 1 383 0
 106 0004 B1F90040 		ldrsh	r4, [r1]
 107              	.LVL12:
 108              		.loc 1 385 0
 109 0008 1A78     		ldrb	r2, [r3]	@ zero_extendqisi2
 110 000a 022A     		cmp	r2, #2
 111 000c 0CD0     		beq	.L10
 112 000e 032A     		cmp	r2, #3
 113 0010 17D0     		beq	.L11
 114 0012 012A     		cmp	r2, #1
 115 0014 1CD1     		bne	.L8
 386:ssd1306.c     ****         case 1:
 387:ssd1306.c     ****             *py = *px;
 116              		.loc 1 387 0
 117 0016 B0F90030 		ldrsh	r3, [r0]
 118 001a 0B80     		strh	r3, [r1]	@ movhi
 388:ssd1306.c     ****             *px = WIDTH - y0 - 1;
 119              		.loc 1 388 0
 120 001c 0E4B     		ldr	r3, .L13+4
 121 001e 1B88     		ldrh	r3, [r3]
 122 0020 013B     		subs	r3, r3, #1
ARM GAS  C:\Users\ARMAND~1\AppData\Local\Temp\cc2dQwoO.s 			page 10


 123 0022 1B1B     		subs	r3, r3, r4
 124 0024 0380     		strh	r3, [r0]	@ movhi
 389:ssd1306.c     ****             break;
 125              		.loc 1 389 0
 126 0026 10BD     		pop	{r4, pc}
 127              	.LVL13:
 128              	.L10:
 129              	.LBB7:
 130              	.LBB8:
 390:ssd1306.c     ****         case 2:
 391:ssd1306.c     ****             *px = WIDTH - *px - 1;
 131              		.loc 1 391 0
 132 0028 0B4B     		ldr	r3, .L13+4
 133 002a 0288     		ldrh	r2, [r0]
 134 002c 1B88     		ldrh	r3, [r3]
 135 002e 013B     		subs	r3, r3, #1
 136 0030 9B1A     		subs	r3, r3, r2
 137 0032 0380     		strh	r3, [r0]	@ movhi
 392:ssd1306.c     ****             *py = HEIGHT - *py - 1;
 138              		.loc 1 392 0
 139 0034 094B     		ldr	r3, .L13+8
 140 0036 0A88     		ldrh	r2, [r1]
 141 0038 1B88     		ldrh	r3, [r3]
 142 003a 013B     		subs	r3, r3, #1
 143 003c 9B1A     		subs	r3, r3, r2
 144 003e 0B80     		strh	r3, [r1]	@ movhi
 145 0040 10BD     		pop	{r4, pc}
 146              	.LVL14:
 147              	.L11:
 148              	.LBE8:
 149              	.LBE7:
 393:ssd1306.c     ****             break;
 394:ssd1306.c     ****         case 3:
 395:ssd1306.c     ****             *py = HEIGHT - *px - 1;
 150              		.loc 1 395 0
 151 0042 064B     		ldr	r3, .L13+8
 152 0044 0288     		ldrh	r2, [r0]
 153 0046 1B88     		ldrh	r3, [r3]
 154 0048 013B     		subs	r3, r3, #1
 155 004a 9B1A     		subs	r3, r3, r2
 156 004c 0B80     		strh	r3, [r1]	@ movhi
 396:ssd1306.c     ****             *px = y0;
 157              		.loc 1 396 0
 158 004e 0480     		strh	r4, [r0]	@ movhi
 159              	.L8:
 160 0050 10BD     		pop	{r4, pc}
 161              	.LVL15:
 162              	.L14:
 163 0052 00BF     		.align	2
 164              	.L13:
 165 0054 00000000 		.word	rotation
 166 0058 00000000 		.word	WIDTH
 167 005c 00000000 		.word	HEIGHT
 168              		.cfi_endproc
 169              	.LFE83:
 170              		.size	gfx_rotation_adjust, .-gfx_rotation_adjust
 171              		.section	.text.gfx_write.part.3,"ax",%progbits
ARM GAS  C:\Users\ARMAND~1\AppData\Local\Temp\cc2dQwoO.s 			page 11


 172              		.align	1
 173              		.thumb
 174              		.thumb_func
 175              		.type	gfx_write.part.3, %function
 176              	gfx_write.part.3:
 177              	.LFB100:
 397:ssd1306.c     ****             break;
 398:ssd1306.c     ****     }
 399:ssd1306.c     **** }
 400:ssd1306.c     **** 
 401:ssd1306.c     **** void gfx_drawPixel( int16_t x, int16_t y, uint16_t color ){
 402:ssd1306.c     ****     
 403:ssd1306.c     ****     if( (x < 0) || (x >= _width) || (y < 0) || (y >= _height) )
 404:ssd1306.c     ****         return;
 405:ssd1306.c     ****     
 406:ssd1306.c     ****     gfx_rotation_adjust( &x, &y );
 407:ssd1306.c     **** 
 408:ssd1306.c     ****     display_setPixel(x,y,color);
 409:ssd1306.c     **** }
 410:ssd1306.c     **** 
 411:ssd1306.c     **** // helper function for gfx_drawLine, handles special cases of horizontal and vertical lines
 412:ssd1306.c     **** static void gfx_hvLine( int16_t x1, int16_t y1, int16_t x2, int16_t y2, uint16_t color ){
 413:ssd1306.c     ****     
 414:ssd1306.c     ****     if( x1 != x2 && y1 != y2 ){
 415:ssd1306.c     ****         // neither vertical nor horizontal
 416:ssd1306.c     ****         return;
 417:ssd1306.c     ****     }    
 418:ssd1306.c     ****     
 419:ssd1306.c     ****     // bounds check
 420:ssd1306.c     ****     if( rotation == 1 || rotation == 3 ){
 421:ssd1306.c     ****         if( x1 < 0 || x1 >= HEIGHT || x2 < 0 || x2 >= HEIGHT )
 422:ssd1306.c     ****             return;
 423:ssd1306.c     ****         if( y1 < 0 || y1 >= WIDTH || y2 < 0 || y2 >= WIDTH )
 424:ssd1306.c     ****             return;
 425:ssd1306.c     ****     }else{
 426:ssd1306.c     ****         if( y1 < 0 || y1 >= HEIGHT || y2 < 0 || y2 >= HEIGHT )
 427:ssd1306.c     ****             return;
 428:ssd1306.c     ****         if( x1 < 0 || x1 >= WIDTH || x2 < 0 || x2 >= WIDTH )
 429:ssd1306.c     ****             return;
 430:ssd1306.c     ****     }
 431:ssd1306.c     ****     
 432:ssd1306.c     ****     gfx_rotation_adjust( &x1, &y1 );
 433:ssd1306.c     ****     gfx_rotation_adjust( &x2, &y2 );
 434:ssd1306.c     ****     
 435:ssd1306.c     ****     // ensure coords are from left to right and top to bottom
 436:ssd1306.c     ****     if( (x1 == x2 && y2 < y1) || (y1 == y2 && x2 < x1) ){
 437:ssd1306.c     ****         // swap as needed
 438:ssd1306.c     ****         int16_t t = x1; x1 = x2; x2 = t;
 439:ssd1306.c     ****         t = y1; y1 = y2; y2 = t;
 440:ssd1306.c     ****     }
 441:ssd1306.c     ****     
 442:ssd1306.c     ****     display_line( x1, y1, x2, y2, color );
 443:ssd1306.c     **** }
 444:ssd1306.c     **** 
 445:ssd1306.c     **** // always use this function for line drawing
 446:ssd1306.c     **** void gfx_drawLine( int16_t x0, int16_t y0, int16_t x1, int16_t y1, uint16_t color ){
 447:ssd1306.c     ****  
ARM GAS  C:\Users\ARMAND~1\AppData\Local\Temp\cc2dQwoO.s 			page 12


 448:ssd1306.c     ****     if( x0 == x1 || y0 == y1 ){
 449:ssd1306.c     ****         // vertical and horizontal lines can be drawn faster
 450:ssd1306.c     ****         gfx_hvLine( x0, y0, x1, y1, color );
 451:ssd1306.c     ****         return;
 452:ssd1306.c     ****     }
 453:ssd1306.c     ****     
 454:ssd1306.c     ****     int16_t t;
 455:ssd1306.c     ****     
 456:ssd1306.c     ****     int16_t steep = abs(y1 - y0) > abs(x1 - x0);
 457:ssd1306.c     ****     if( steep ){
 458:ssd1306.c     ****         t = x0; x0 = y0; y0 = t;
 459:ssd1306.c     ****         t = x1; x1 = y1; y1 = t;
 460:ssd1306.c     ****     }
 461:ssd1306.c     ****     if( x0 > x1 ){
 462:ssd1306.c     ****         t = x0; x0 = x1; x1 = t;
 463:ssd1306.c     ****         t = y0; y0 = y1; y1 = t;
 464:ssd1306.c     ****     }
 465:ssd1306.c     ****     int16_t dx, dy;
 466:ssd1306.c     ****     dx = x1 - x0;
 467:ssd1306.c     ****     dy = abs(y1 - y0);
 468:ssd1306.c     ****     int16_t err = dx / 2;
 469:ssd1306.c     ****     int16_t ystep;
 470:ssd1306.c     ****     if( y0 < y1 ){
 471:ssd1306.c     ****         ystep = 1;
 472:ssd1306.c     ****     }else{
 473:ssd1306.c     ****         ystep = -1;
 474:ssd1306.c     ****     }
 475:ssd1306.c     ****     for( ; x0<=x1; x0++ ){
 476:ssd1306.c     ****         if( steep ){
 477:ssd1306.c     ****             gfx_drawPixel( y0, x0, color );
 478:ssd1306.c     ****         }else{
 479:ssd1306.c     ****             gfx_drawPixel( x0, y0, color );
 480:ssd1306.c     ****         }
 481:ssd1306.c     ****         err -= dy;
 482:ssd1306.c     ****         if( err < 0 ){
 483:ssd1306.c     ****             y0 += ystep;
 484:ssd1306.c     ****             err += dx;
 485:ssd1306.c     ****         }
 486:ssd1306.c     ****     }
 487:ssd1306.c     **** }
 488:ssd1306.c     **** 
 489:ssd1306.c     **** void gfx_drawRect( int16_t x, int16_t y, int16_t w, int16_t h, uint16_t color ){
 490:ssd1306.c     ****     
 491:ssd1306.c     ****     gfx_drawLine( x, y, x+w-1, y, color );
 492:ssd1306.c     ****     gfx_drawLine( x, y+h-1, x+w-1, y+h-1, color );
 493:ssd1306.c     ****     gfx_drawLine( x, y, x, y+h-1, color );
 494:ssd1306.c     ****     gfx_drawLine( x+w-1, y, x+w-1, y+h-1, color );
 495:ssd1306.c     **** }
 496:ssd1306.c     **** 
 497:ssd1306.c     **** void gfx_fillRect( int16_t x, int16_t y, int16_t w, int16_t h, uint16_t color ){
 498:ssd1306.c     ****     int16_t i = 0;
 499:ssd1306.c     ****     if( h > w ){
 500:ssd1306.c     ****         for( i = x ; i < x+w ; i++ ){
 501:ssd1306.c     ****             gfx_drawLine( i, y, i, y+h-1, color );
 502:ssd1306.c     ****         }
 503:ssd1306.c     ****     }else{
 504:ssd1306.c     ****         for( i = y ; i < y+h ; i++ ){
ARM GAS  C:\Users\ARMAND~1\AppData\Local\Temp\cc2dQwoO.s 			page 13


 505:ssd1306.c     ****             gfx_drawLine( x, i, x+w-1, i, color );
 506:ssd1306.c     ****         }
 507:ssd1306.c     ****     }
 508:ssd1306.c     **** }
 509:ssd1306.c     **** 
 510:ssd1306.c     **** 
 511:ssd1306.c     **** // circle outline
 512:ssd1306.c     **** void gfx_drawCircle( int16_t x0, int16_t y0, int16_t r,uint16_t color ){
 513:ssd1306.c     **** 
 514:ssd1306.c     ****     int16_t f = 1 - r;
 515:ssd1306.c     ****     int16_t ddF_x = 1;
 516:ssd1306.c     ****     int16_t ddF_y = -2 * r;
 517:ssd1306.c     ****     int16_t x = 0;
 518:ssd1306.c     ****     int16_t y = r;
 519:ssd1306.c     ****     gfx_drawPixel( x0 , y0+r, color );
 520:ssd1306.c     ****     gfx_drawPixel( x0 , y0-r, color );
 521:ssd1306.c     ****     gfx_drawPixel( x0+r, y0 , color );
 522:ssd1306.c     ****     gfx_drawPixel( x0-r, y0 , color );
 523:ssd1306.c     ****     while( x < y ){
 524:ssd1306.c     ****         if( f >= 0 ){
 525:ssd1306.c     ****             y--;
 526:ssd1306.c     ****             ddF_y += 2;
 527:ssd1306.c     ****             f += ddF_y;
 528:ssd1306.c     ****         }
 529:ssd1306.c     ****         x++;
 530:ssd1306.c     ****         ddF_x += 2;
 531:ssd1306.c     ****         f += ddF_x;
 532:ssd1306.c     ****         gfx_drawPixel( x0 + x, y0 + y, color );
 533:ssd1306.c     ****         gfx_drawPixel( x0 - x, y0 + y, color );
 534:ssd1306.c     ****         gfx_drawPixel( x0 + x, y0 - y, color );
 535:ssd1306.c     ****         gfx_drawPixel( x0 - x, y0 - y, color );
 536:ssd1306.c     ****         gfx_drawPixel( x0 + y, y0 + x, color );
 537:ssd1306.c     ****         gfx_drawPixel( x0 - y, y0 + x, color );
 538:ssd1306.c     ****         gfx_drawPixel( x0 + y, y0 - x, color );
 539:ssd1306.c     ****         gfx_drawPixel( x0 - y, y0 - x, color );
 540:ssd1306.c     ****     }
 541:ssd1306.c     **** }
 542:ssd1306.c     **** 
 543:ssd1306.c     **** void gfx_drawTriangle( int16_t x0, int16_t y0,int16_t x1, int16_t y1, int16_t x2, int16_t y2, uint1
 544:ssd1306.c     ****     
 545:ssd1306.c     ****     gfx_drawLine( x0, y0, x1, y1, color );
 546:ssd1306.c     ****     gfx_drawLine( x1, y1, x2, y2, color );
 547:ssd1306.c     ****     gfx_drawLine( x2, y2, x0, y0, color );
 548:ssd1306.c     **** }
 549:ssd1306.c     **** 
 550:ssd1306.c     **** 
 551:ssd1306.c     **** // Draw a character
 552:ssd1306.c     **** void gfx_drawChar( int16_t x, int16_t y, unsigned char c,uint16_t color, uint16_t bg, uint8_t size)
 553:ssd1306.c     ****     if( (x >= _width) || // Clip right
 554:ssd1306.c     ****         (y >= _height) || // Clip bottom
 555:ssd1306.c     ****         ((x + 6 * size - 1) < 0) || // Clip left
 556:ssd1306.c     ****         ((y + 8 * size - 1) < 0)) // Clip top
 557:ssd1306.c     ****         return;
 558:ssd1306.c     **** 
 559:ssd1306.c     ****     int8_t i = 0;
 560:ssd1306.c     ****     for( i = 0 ; i < 6 ; i++ ){
 561:ssd1306.c     ****         uint8_t line;
ARM GAS  C:\Users\ARMAND~1\AppData\Local\Temp\cc2dQwoO.s 			page 14


 562:ssd1306.c     ****         if( i == 5 )
 563:ssd1306.c     ****             line = 0x0;
 564:ssd1306.c     ****         else
 565:ssd1306.c     ****            line = font[(c*5)+i];
 566:ssd1306.c     ****         int8_t j = 0;
 567:ssd1306.c     ****         for( j = 0; j < 8 ; j++ ){
 568:ssd1306.c     ****             if( line & 0x1 ){
 569:ssd1306.c     ****                 if( size == 1 ) // default size
 570:ssd1306.c     ****                     gfx_drawPixel( x+i, y+j, color );
 571:ssd1306.c     ****                 else { // big size
 572:ssd1306.c     ****                     gfx_fillRect( x+(i*size), y+(j*size), size, size, color );
 573:ssd1306.c     ****                 }
 574:ssd1306.c     ****             } else if( bg != color ){
 575:ssd1306.c     ****                 if( size == 1 ) // default size
 576:ssd1306.c     ****                     gfx_drawPixel( x+i, y+j, bg );
 577:ssd1306.c     ****                 else { // big size
 578:ssd1306.c     ****                     gfx_fillRect( x+i*size, y+j*size, size, size, bg );
 579:ssd1306.c     ****                 }
 580:ssd1306.c     ****             }
 581:ssd1306.c     ****             line >>= 1;
 582:ssd1306.c     ****         }
 583:ssd1306.c     ****     }
 584:ssd1306.c     **** }
 585:ssd1306.c     **** 
 586:ssd1306.c     **** void gfx_write( uint8_t ch ){
 178              		.loc 1 586 0
 179              		.cfi_startproc
 180              		@ args = 0, pretend = 0, frame = 0
 181              		@ frame_needed = 0, uses_anonymous_args = 0
 182              		@ link register save eliminated.
 183              	.LVL16:
 587:ssd1306.c     ****     if( ch == '\n' ){
 588:ssd1306.c     ****         cursor_y += textsize*8;
 184              		.loc 1 588 0
 185 0000 044B     		ldr	r3, .L16
 186 0002 5A88     		ldrh	r2, [r3, #2]
 187 0004 1979     		ldrb	r1, [r3, #4]	@ zero_extendqisi2
 188 0006 02EBC102 		add	r2, r2, r1, lsl #3
 189 000a 5A80     		strh	r2, [r3, #2]	@ movhi
 589:ssd1306.c     ****         cursor_x = 0;
 190              		.loc 1 589 0
 191 000c 0022     		movs	r2, #0
 192 000e DA80     		strh	r2, [r3, #6]	@ movhi
 193 0010 7047     		bx	lr
 194              	.L17:
 195 0012 00BF     		.align	2
 196              	.L16:
 197 0014 00000000 		.word	.LANCHOR0
 198              		.cfi_endproc
 199              	.LFE100:
 200              		.size	gfx_write.part.3, .-gfx_write.part.3
 201              		.section	.text.display_clear,"ax",%progbits
 202              		.align	1
 203              		.global	display_clear
 204              		.thumb
 205              		.thumb_func
 206              		.type	display_clear, %function
ARM GAS  C:\Users\ARMAND~1\AppData\Local\Temp\cc2dQwoO.s 			page 15


 207              	display_clear:
 208              	.LFB66:
 165:ssd1306.c     ****     memset( _displaybuf, 0, _displaybuf_size );
 209              		.loc 1 165 0
 210              		.cfi_startproc
 211              		@ args = 0, pretend = 0, frame = 0
 212              		@ frame_needed = 0, uses_anonymous_args = 0
 213 0000 10B5     		push	{r4, lr}
 214              		.cfi_def_cfa_offset 8
 215              		.cfi_offset 4, -8
 216              		.cfi_offset 14, -4
 166:ssd1306.c     ****     SSD1306_buffer[0] = 0x40; //0x40 // to be sure its there
 217              		.loc 1 166 0
 218 0002 054C     		ldr	r4, .L19
 219 0004 4FF48062 		mov	r2, #1024
 220 0008 0021     		movs	r1, #0
 221 000a 601C     		adds	r0, r4, #1
 222 000c FFF7FEFF 		bl	memset
 223              	.LVL17:
 167:ssd1306.c     **** }
 224              		.loc 1 167 0
 225 0010 4023     		movs	r3, #64
 226 0012 2370     		strb	r3, [r4]
 227 0014 10BD     		pop	{r4, pc}
 228              	.L20:
 229 0016 00BF     		.align	2
 230              	.L19:
 231 0018 00000000 		.word	.LANCHOR1
 232              		.cfi_endproc
 233              	.LFE66:
 234              		.size	display_clear, .-display_clear
 235              		.section	.text.display_contrast,"ax",%progbits
 236              		.align	1
 237              		.global	display_contrast
 238              		.thumb
 239              		.thumb_func
 240              		.type	display_contrast, %function
 241              	display_contrast:
 242              	.LFB67:
 172:ssd1306.c     ****         
 243              		.loc 1 172 0
 244              		.cfi_startproc
 245              		@ args = 0, pretend = 0, frame = 8
 246              		@ frame_needed = 0, uses_anonymous_args = 0
 247              	.LVL18:
 248 0000 07B5     		push	{r0, r1, r2, lr}
 249              		.cfi_def_cfa_offset 16
 250              		.cfi_offset 14, -4
 174:ssd1306.c     ****         0x00,  
 251              		.loc 1 174 0
 252 0002 0023     		movs	r3, #0
 253 0004 8DF80430 		strb	r3, [sp, #4]
 254 0008 8DF80600 		strb	r0, [sp, #6]
 255 000c 8123     		movs	r3, #129
 179:ssd1306.c     **** }
 256              		.loc 1 179 0
 257 000e 0321     		movs	r1, #3
ARM GAS  C:\Users\ARMAND~1\AppData\Local\Temp\cc2dQwoO.s 			page 16


 258 0010 01A8     		add	r0, sp, #4
 259              	.LVL19:
 174:ssd1306.c     ****         0x00,  
 260              		.loc 1 174 0
 261 0012 8DF80530 		strb	r3, [sp, #5]
 179:ssd1306.c     **** }
 262              		.loc 1 179 0
 263 0016 FFF7FEFF 		bl	display_write_buf
 264              	.LVL20:
 180:ssd1306.c     **** 
 265              		.loc 1 180 0
 266 001a 03B0     		add	sp, sp, #12
 267              		.cfi_def_cfa_offset 4
 268              		@ sp needed
 269 001c 5DF804FB 		ldr	pc, [sp], #4
 270              		.cfi_endproc
 271              	.LFE67:
 272              		.size	display_contrast, .-display_contrast
 273              		.section	.text.display_invert,"ax",%progbits
 274              		.align	1
 275              		.global	display_invert
 276              		.thumb
 277              		.thumb_func
 278              		.type	display_invert, %function
 279              	display_invert:
 280              	.LFB68:
 184:ssd1306.c     **** 
 281              		.loc 1 184 0
 282              		.cfi_startproc
 283              		@ args = 0, pretend = 0, frame = 8
 284              		@ frame_needed = 0, uses_anonymous_args = 0
 285              	.LVL21:
 286 0000 07B5     		push	{r0, r1, r2, lr}
 287              		.cfi_def_cfa_offset 16
 288              		.cfi_offset 14, -4
 186:ssd1306.c     ****         0x00,  
 289              		.loc 1 186 0
 290 0002 0023     		movs	r3, #0
 190:ssd1306.c     ****     display_write_buf( cmdbuf, sizeof(cmdbuf) ); 
 291              		.loc 1 190 0
 292 0004 9842     		cmp	r0, r3
 186:ssd1306.c     ****         0x00,  
 293              		.loc 1 186 0
 294 0006 8DF80430 		strb	r3, [sp, #4]
 191:ssd1306.c     **** }
 295              		.loc 1 191 0
 296 000a 4FF00201 		mov	r1, #2
 190:ssd1306.c     ****     display_write_buf( cmdbuf, sizeof(cmdbuf) ); 
 297              		.loc 1 190 0
 298 000e 14BF     		ite	ne
 299 0010 A723     		movne	r3, #167
 300 0012 A623     		moveq	r3, #166
 191:ssd1306.c     **** }
 301              		.loc 1 191 0
 302 0014 01A8     		add	r0, sp, #4
 303              	.LVL22:
 190:ssd1306.c     ****     display_write_buf( cmdbuf, sizeof(cmdbuf) ); 
ARM GAS  C:\Users\ARMAND~1\AppData\Local\Temp\cc2dQwoO.s 			page 17


 304              		.loc 1 190 0
 305 0016 8DF80530 		strb	r3, [sp, #5]
 191:ssd1306.c     **** }
 306              		.loc 1 191 0
 307 001a FFF7FEFF 		bl	display_write_buf
 308              	.LVL23:
 192:ssd1306.c     **** 
 309              		.loc 1 192 0
 310 001e 03B0     		add	sp, sp, #12
 311              		.cfi_def_cfa_offset 4
 312              		@ sp needed
 313 0020 5DF804FB 		ldr	pc, [sp], #4
 314              		.cfi_endproc
 315              	.LFE68:
 316              		.size	display_invert, .-display_invert
 317              		.section	.text.display_update,"ax",%progbits
 318              		.align	1
 319              		.global	display_update
 320              		.thumb
 321              		.thumb_func
 322              		.type	display_update, %function
 323              	display_update:
 324              	.LFB69:
 195:ssd1306.c     ****       
 325              		.loc 1 195 0
 326              		.cfi_startproc
 327              		@ args = 0, pretend = 0, frame = 8
 328              		@ frame_needed = 0, uses_anonymous_args = 0
 329 0000 07B5     		push	{r0, r1, r2, lr}
 330              		.cfi_def_cfa_offset 16
 331              		.cfi_offset 14, -4
 197:ssd1306.c     ****         0x00,
 332              		.loc 1 197 0
 333 0002 0A4B     		ldr	r3, .L26
 206:ssd1306.c     ****     display_write_buf( SSD1306_buffer, sizeof(SSD1306_buffer) );
 334              		.loc 1 206 0
 335 0004 0721     		movs	r1, #7
 197:ssd1306.c     ****         0x00,
 336              		.loc 1 197 0
 337 0006 1868     		ldr	r0, [r3]	@ unaligned
 338 0008 9A88     		ldrh	r2, [r3, #4]	@ unaligned
 339 000a 9B79     		ldrb	r3, [r3, #6]	@ zero_extendqisi2
 340 000c 0090     		str	r0, [sp]	@ unaligned
 206:ssd1306.c     ****     display_write_buf( SSD1306_buffer, sizeof(SSD1306_buffer) );
 341              		.loc 1 206 0
 342 000e 6846     		mov	r0, sp
 197:ssd1306.c     ****         0x00,
 343              		.loc 1 197 0
 344 0010 ADF80420 		strh	r2, [sp, #4]	@ unaligned
 345 0014 8DF80630 		strb	r3, [sp, #6]
 206:ssd1306.c     ****     display_write_buf( SSD1306_buffer, sizeof(SSD1306_buffer) );
 346              		.loc 1 206 0
 347 0018 FFF7FEFF 		bl	display_write_buf
 348              	.LVL24:
 207:ssd1306.c     **** }
 349              		.loc 1 207 0
 350 001c 40F20141 		movw	r1, #1025
ARM GAS  C:\Users\ARMAND~1\AppData\Local\Temp\cc2dQwoO.s 			page 18


 351 0020 0348     		ldr	r0, .L26+4
 352 0022 FFF7FEFF 		bl	display_write_buf
 353              	.LVL25:
 208:ssd1306.c     **** 
 354              		.loc 1 208 0
 355 0026 03B0     		add	sp, sp, #12
 356              		.cfi_def_cfa_offset 4
 357              		@ sp needed
 358 0028 5DF804FB 		ldr	pc, [sp], #4
 359              	.L27:
 360              		.align	2
 361              	.L26:
 362 002c 00000000 		.word	.LANCHOR2
 363 0030 00000000 		.word	.LANCHOR1
 364              		.cfi_endproc
 365              	.LFE69:
 366              		.size	display_update, .-display_update
 367              		.section	.text.display_stopscroll,"ax",%progbits
 368              		.align	1
 369              		.global	display_stopscroll
 370              		.thumb
 371              		.thumb_func
 372              		.type	display_stopscroll, %function
 373              	display_stopscroll:
 374              	.LFB71:
 275:ssd1306.c     **** 
 375              		.loc 1 275 0
 376              		.cfi_startproc
 377              		@ args = 0, pretend = 0, frame = 8
 378              		@ frame_needed = 0, uses_anonymous_args = 0
 379 0000 07B5     		push	{r0, r1, r2, lr}
 380              		.cfi_def_cfa_offset 16
 381              		.cfi_offset 14, -4
 277:ssd1306.c     ****         0x00,
 382              		.loc 1 277 0
 383 0002 0023     		movs	r3, #0
 384 0004 8DF80430 		strb	r3, [sp, #4]
 281:ssd1306.c     **** }
 385              		.loc 1 281 0
 386 0008 0221     		movs	r1, #2
 277:ssd1306.c     ****         0x00,
 387              		.loc 1 277 0
 388 000a 2E23     		movs	r3, #46
 281:ssd1306.c     **** }
 389              		.loc 1 281 0
 390 000c 01A8     		add	r0, sp, #4
 277:ssd1306.c     ****         0x00,
 391              		.loc 1 277 0
 392 000e 8DF80530 		strb	r3, [sp, #5]
 281:ssd1306.c     **** }
 393              		.loc 1 281 0
 394 0012 FFF7FEFF 		bl	display_write_buf
 395              	.LVL26:
 282:ssd1306.c     **** 
 396              		.loc 1 282 0
 397 0016 03B0     		add	sp, sp, #12
 398              		.cfi_def_cfa_offset 4
ARM GAS  C:\Users\ARMAND~1\AppData\Local\Temp\cc2dQwoO.s 			page 19


 399              		@ sp needed
 400 0018 5DF804FB 		ldr	pc, [sp], #4
 401              		.cfi_endproc
 402              	.LFE71:
 403              		.size	display_stopscroll, .-display_stopscroll
 404              		.section	.text.display_scroll,"ax",%progbits
 405              		.align	1
 406              		.global	display_scroll
 407              		.thumb
 408              		.thumb_func
 409              		.type	display_scroll, %function
 410              	display_scroll:
 411              	.LFB72:
 284:ssd1306.c     ****    
 412              		.loc 1 284 0
 413              		.cfi_startproc
 414              		@ args = 0, pretend = 0, frame = 16
 415              		@ frame_needed = 0, uses_anonymous_args = 0
 416              	.LVL27:
 417 0000 1FB5     		push	{r0, r1, r2, r3, r4, lr}
 418              		.cfi_def_cfa_offset 24
 419              		.cfi_offset 4, -8
 420              		.cfi_offset 14, -4
 286:ssd1306.c     ****         0x00,
 421              		.loc 1 286 0
 422 0002 8DF80830 		strb	r3, [sp, #8]
 423 0006 FF23     		movs	r3, #255
 424              	.LVL28:
 425 0008 0024     		movs	r4, #0
 426 000a 8DF80700 		strb	r0, [sp, #7]
 427 000e 8DF80910 		strb	r1, [sp, #9]
 428 0012 8DF80B30 		strb	r3, [sp, #11]
 297:ssd1306.c     **** }
 429              		.loc 1 297 0
 430 0016 0921     		movs	r1, #9
 431              	.LVL29:
 286:ssd1306.c     ****         0x00,
 432              		.loc 1 286 0
 433 0018 2F23     		movs	r3, #47
 297:ssd1306.c     **** }
 434              		.loc 1 297 0
 435 001a 01A8     		add	r0, sp, #4
 436              	.LVL30:
 286:ssd1306.c     ****         0x00,
 437              		.loc 1 286 0
 438 001c 8DF80440 		strb	r4, [sp, #4]
 439 0020 8DF80520 		strb	r2, [sp, #5]
 440 0024 8DF80640 		strb	r4, [sp, #6]
 441 0028 8DF80A40 		strb	r4, [sp, #10]
 442 002c 8DF80C30 		strb	r3, [sp, #12]
 297:ssd1306.c     **** }
 443              		.loc 1 297 0
 444 0030 FFF7FEFF 		bl	display_write_buf
 445              	.LVL31:
 298:ssd1306.c     **** 
 446              		.loc 1 298 0
 447 0034 04B0     		add	sp, sp, #16
ARM GAS  C:\Users\ARMAND~1\AppData\Local\Temp\cc2dQwoO.s 			page 20


 448              		.cfi_def_cfa_offset 8
 449              		@ sp needed
 450 0036 10BD     		pop	{r4, pc}
 451              		.cfi_endproc
 452              	.LFE72:
 453              		.size	display_scroll, .-display_scroll
 454              		.section	.text.gfx_init,"ax",%progbits
 455              		.align	1
 456              		.global	gfx_init
 457              		.thumb
 458              		.thumb_func
 459              		.type	gfx_init, %function
 460              	gfx_init:
 461              	.LFB73:
 315:ssd1306.c     ****     WIDTH = width;
 462              		.loc 1 315 0
 463              		.cfi_startproc
 464              		@ args = 0, pretend = 0, frame = 0
 465              		@ frame_needed = 0, uses_anonymous_args = 0
 466              		@ link register save eliminated.
 467              	.LVL32:
 316:ssd1306.c     ****     HEIGHT = height;
 468              		.loc 1 316 0
 469 0000 0A4B     		ldr	r3, .L31
 321:ssd1306.c     ****     cursor_y = cursor_x = 0;
 470              		.loc 1 321 0
 471 0002 0022     		movs	r2, #0
 316:ssd1306.c     ****     HEIGHT = height;
 472              		.loc 1 316 0
 473 0004 1880     		strh	r0, [r3]	@ movhi
 317:ssd1306.c     ****     _width = WIDTH;
 474              		.loc 1 317 0
 475 0006 0A4B     		ldr	r3, .L31+4
 476 0008 1980     		strh	r1, [r3]	@ movhi
 318:ssd1306.c     ****     _height = HEIGHT;
 477              		.loc 1 318 0
 478 000a 0A4B     		ldr	r3, .L31+8
 319:ssd1306.c     ****     
 479              		.loc 1 319 0
 480 000c 5981     		strh	r1, [r3, #10]	@ movhi
 321:ssd1306.c     ****     cursor_y = cursor_x = 0;
 481              		.loc 1 321 0
 482 000e 0A49     		ldr	r1, .L31+12
 483              	.LVL33:
 322:ssd1306.c     ****     textsize = 1;
 484              		.loc 1 322 0
 485 0010 DA80     		strh	r2, [r3, #6]	@ movhi
 321:ssd1306.c     ****     cursor_y = cursor_x = 0;
 486              		.loc 1 321 0
 487 0012 0A70     		strb	r2, [r1]
 324:ssd1306.c     ****     wrap = 1;
 488              		.loc 1 324 0
 489 0014 4FF6FF71 		movw	r1, #65535
 322:ssd1306.c     ****     textsize = 1;
 490              		.loc 1 322 0
 491 0018 5A80     		strh	r2, [r3, #2]	@ movhi
 323:ssd1306.c     ****     textcolor = textbgcolor = 0xFFFF;
ARM GAS  C:\Users\ARMAND~1\AppData\Local\Temp\cc2dQwoO.s 			page 21


 492              		.loc 1 323 0
 493 001a 0122     		movs	r2, #1
 318:ssd1306.c     ****     _height = HEIGHT;
 494              		.loc 1 318 0
 495 001c 1881     		strh	r0, [r3, #8]	@ movhi
 323:ssd1306.c     ****     textcolor = textbgcolor = 0xFFFF;
 496              		.loc 1 323 0
 497 001e 1A71     		strb	r2, [r3, #4]
 324:ssd1306.c     ****     wrap = 1;
 498              		.loc 1 324 0
 499 0020 9981     		strh	r1, [r3, #12]	@ movhi
 500 0022 D981     		strh	r1, [r3, #14]	@ movhi
 325:ssd1306.c     **** }
 501              		.loc 1 325 0
 502 0024 054B     		ldr	r3, .L31+16
 503 0026 1A70     		strb	r2, [r3]
 504 0028 7047     		bx	lr
 505              	.L32:
 506 002a 00BF     		.align	2
 507              	.L31:
 508 002c 00000000 		.word	WIDTH
 509 0030 00000000 		.word	HEIGHT
 510 0034 00000000 		.word	.LANCHOR0
 511 0038 00000000 		.word	rotation
 512 003c 00000000 		.word	wrap
 513              		.cfi_endproc
 514              	.LFE73:
 515              		.size	gfx_init, .-gfx_init
 516              		.section	.text.display_init,"ax",%progbits
 517              		.align	1
 518              		.global	display_init
 519              		.thumb
 520              		.thumb_func
 521              		.type	display_init, %function
 522              	display_init:
 523              	.LFB63:
  86:ssd1306.c     ****     
 524              		.loc 1 86 0
 525              		.cfi_startproc
 526              		@ args = 0, pretend = 0, frame = 32
 527              		@ frame_needed = 0, uses_anonymous_args = 0
 528              	.LVL34:
 529 0000 70B5     		push	{r4, r5, r6, lr}
 530              		.cfi_def_cfa_offset 16
 531              		.cfi_offset 4, -16
 532              		.cfi_offset 5, -12
 533              		.cfi_offset 6, -8
 534              		.cfi_offset 14, -4
  88:ssd1306.c     ****     gfx_init( DISPLAYWIDTH, DISPLAYHEIGHT );
 535              		.loc 1 88 0
 536 0002 0E4B     		ldr	r3, .L36
  86:ssd1306.c     ****     
 537              		.loc 1 86 0
 538 0004 88B0     		sub	sp, sp, #32
 539              		.cfi_def_cfa_offset 48
  88:ssd1306.c     ****     gfx_init( DISPLAYWIDTH, DISPLAYHEIGHT );
 540              		.loc 1 88 0
ARM GAS  C:\Users\ARMAND~1\AppData\Local\Temp\cc2dQwoO.s 			page 22


 541 0006 1870     		strb	r0, [r3]
  89:ssd1306.c     ****     
 542              		.loc 1 89 0
 543 0008 4021     		movs	r1, #64
 544 000a 8020     		movs	r0, #128
 545              	.LVL35:
 546 000c FFF7FEFF 		bl	gfx_init
 547              	.LVL36:
  91:ssd1306.c     ****         0x00,
 548              		.loc 1 91 0
 549 0010 01AA     		add	r2, sp, #4
 550 0012 1546     		mov	r5, r2
 551 0014 0A4B     		ldr	r3, .L36+4
 552 0016 03F11806 		add	r6, r3, #24
 553              	.L34:
 554 001a 1446     		mov	r4, r2
 555 001c 1868     		ldr	r0, [r3]	@ unaligned
 556 001e 5968     		ldr	r1, [r3, #4]	@ unaligned
 557 0020 0833     		adds	r3, r3, #8
 558 0022 03C4     		stmia	r4!, {r0, r1}
 559 0024 B342     		cmp	r3, r6
 560 0026 2246     		mov	r2, r4
 561 0028 F7D1     		bne	.L34
 562 002a 1B88     		ldrh	r3, [r3]	@ unaligned
 120:ssd1306.c     **** }
 563              		.loc 1 120 0
 564 002c 1A21     		movs	r1, #26
  91:ssd1306.c     ****         0x00,
 565              		.loc 1 91 0
 566 002e 2380     		strh	r3, [r4]	@ unaligned
 120:ssd1306.c     **** }
 567              		.loc 1 120 0
 568 0030 2846     		mov	r0, r5
 569 0032 FFF7FEFF 		bl	display_write_buf
 570              	.LVL37:
 121:ssd1306.c     **** 
 571              		.loc 1 121 0
 572 0036 08B0     		add	sp, sp, #32
 573              		.cfi_def_cfa_offset 16
 574              		@ sp needed
 575 0038 70BD     		pop	{r4, r5, r6, pc}
 576              	.L37:
 577 003a 00BF     		.align	2
 578              	.L36:
 579 003c 00000000 		.word	.LANCHOR0
 580 0040 07000000 		.word	.LANCHOR2+7
 581              		.cfi_endproc
 582              	.LFE63:
 583              		.size	display_init, .-display_init
 584              		.section	.text.gfx_width,"ax",%progbits
 585              		.align	1
 586              		.global	gfx_width
 587              		.thumb
 588              		.thumb_func
 589              		.type	gfx_width, %function
 590              	gfx_width:
 591              	.LFB74:
ARM GAS  C:\Users\ARMAND~1\AppData\Local\Temp\cc2dQwoO.s 			page 23


 329:ssd1306.c     ****     return _width;
 592              		.loc 1 329 0
 593              		.cfi_startproc
 594              		@ args = 0, pretend = 0, frame = 0
 595              		@ frame_needed = 0, uses_anonymous_args = 0
 596              		@ link register save eliminated.
 331:ssd1306.c     **** 
 597              		.loc 1 331 0
 598 0000 014B     		ldr	r3, .L39
 599 0002 B3F90800 		ldrsh	r0, [r3, #8]
 600 0006 7047     		bx	lr
 601              	.L40:
 602              		.align	2
 603              	.L39:
 604 0008 00000000 		.word	.LANCHOR0
 605              		.cfi_endproc
 606              	.LFE74:
 607              		.size	gfx_width, .-gfx_width
 608              		.section	.text.gfx_height,"ax",%progbits
 609              		.align	1
 610              		.global	gfx_height
 611              		.thumb
 612              		.thumb_func
 613              		.type	gfx_height, %function
 614              	gfx_height:
 615              	.LFB75:
 333:ssd1306.c     ****     return _height;
 616              		.loc 1 333 0
 617              		.cfi_startproc
 618              		@ args = 0, pretend = 0, frame = 0
 619              		@ frame_needed = 0, uses_anonymous_args = 0
 620              		@ link register save eliminated.
 335:ssd1306.c     **** 
 621              		.loc 1 335 0
 622 0000 014B     		ldr	r3, .L42
 623 0002 B3F90A00 		ldrsh	r0, [r3, #10]
 624 0006 7047     		bx	lr
 625              	.L43:
 626              		.align	2
 627              	.L42:
 628 0008 00000000 		.word	.LANCHOR0
 629              		.cfi_endproc
 630              	.LFE75:
 631              		.size	gfx_height, .-gfx_height
 632              		.section	.text.gfx_rotation,"ax",%progbits
 633              		.align	1
 634              		.global	gfx_rotation
 635              		.thumb
 636              		.thumb_func
 637              		.type	gfx_rotation, %function
 638              	gfx_rotation:
 639              	.LFB76:
 337:ssd1306.c     ****     return rotation;
 640              		.loc 1 337 0
 641              		.cfi_startproc
 642              		@ args = 0, pretend = 0, frame = 0
 643              		@ frame_needed = 0, uses_anonymous_args = 0
ARM GAS  C:\Users\ARMAND~1\AppData\Local\Temp\cc2dQwoO.s 			page 24


 644              		@ link register save eliminated.
 339:ssd1306.c     **** 
 645              		.loc 1 339 0
 646 0000 014B     		ldr	r3, .L45
 647 0002 1878     		ldrb	r0, [r3]	@ zero_extendqisi2
 648 0004 7047     		bx	lr
 649              	.L46:
 650 0006 00BF     		.align	2
 651              	.L45:
 652 0008 00000000 		.word	rotation
 653              		.cfi_endproc
 654              	.LFE76:
 655              		.size	gfx_rotation, .-gfx_rotation
 656              		.section	.text.gfx_setCursor,"ax",%progbits
 657              		.align	1
 658              		.global	gfx_setCursor
 659              		.thumb
 660              		.thumb_func
 661              		.type	gfx_setCursor, %function
 662              	gfx_setCursor:
 663              	.LFB77:
 341:ssd1306.c     ****     cursor_x = x;
 664              		.loc 1 341 0
 665              		.cfi_startproc
 666              		@ args = 0, pretend = 0, frame = 0
 667              		@ frame_needed = 0, uses_anonymous_args = 0
 668              		@ link register save eliminated.
 669              	.LVL38:
 342:ssd1306.c     ****     cursor_y = y;
 670              		.loc 1 342 0
 671 0000 014B     		ldr	r3, .L48
 672 0002 D880     		strh	r0, [r3, #6]	@ movhi
 343:ssd1306.c     **** }
 673              		.loc 1 343 0
 674 0004 5980     		strh	r1, [r3, #2]	@ movhi
 675 0006 7047     		bx	lr
 676              	.L49:
 677              		.align	2
 678              	.L48:
 679 0008 00000000 		.word	.LANCHOR0
 680              		.cfi_endproc
 681              	.LFE77:
 682              		.size	gfx_setCursor, .-gfx_setCursor
 683              		.section	.text.gfx_setTextSize,"ax",%progbits
 684              		.align	1
 685              		.global	gfx_setTextSize
 686              		.thumb
 687              		.thumb_func
 688              		.type	gfx_setTextSize, %function
 689              	gfx_setTextSize:
 690              	.LFB78:
 346:ssd1306.c     ****     textsize = (size > 0) ? size : 1;
 691              		.loc 1 346 0
 692              		.cfi_startproc
 693              		@ args = 0, pretend = 0, frame = 0
 694              		@ frame_needed = 0, uses_anonymous_args = 0
 695              		@ link register save eliminated.
ARM GAS  C:\Users\ARMAND~1\AppData\Local\Temp\cc2dQwoO.s 			page 25


 696              	.LVL39:
 347:ssd1306.c     **** }
 697              		.loc 1 347 0
 698 0000 0028     		cmp	r0, #0
 699 0002 08BF     		it	eq
 700 0004 0120     		moveq	r0, #1
 701              	.LVL40:
 702 0006 014B     		ldr	r3, .L53
 703 0008 1871     		strb	r0, [r3, #4]
 704 000a 7047     		bx	lr
 705              	.L54:
 706              		.align	2
 707              	.L53:
 708 000c 00000000 		.word	.LANCHOR0
 709              		.cfi_endproc
 710              	.LFE78:
 711              		.size	gfx_setTextSize, .-gfx_setTextSize
 712              		.section	.text.gfx_setTextColor,"ax",%progbits
 713              		.align	1
 714              		.global	gfx_setTextColor
 715              		.thumb
 716              		.thumb_func
 717              		.type	gfx_setTextColor, %function
 718              	gfx_setTextColor:
 719              	.LFB79:
 350:ssd1306.c     ****     // For 'transparent' background, we'll set the bg
 720              		.loc 1 350 0
 721              		.cfi_startproc
 722              		@ args = 0, pretend = 0, frame = 0
 723              		@ frame_needed = 0, uses_anonymous_args = 0
 724              		@ link register save eliminated.
 725              	.LVL41:
 353:ssd1306.c     **** }
 726              		.loc 1 353 0
 727 0000 014B     		ldr	r3, .L56
 728 0002 9881     		strh	r0, [r3, #12]	@ movhi
 729 0004 D881     		strh	r0, [r3, #14]	@ movhi
 730 0006 7047     		bx	lr
 731              	.L57:
 732              		.align	2
 733              	.L56:
 734 0008 00000000 		.word	.LANCHOR0
 735              		.cfi_endproc
 736              	.LFE79:
 737              		.size	gfx_setTextColor, .-gfx_setTextColor
 738              		.section	.text.gfx_setTextBg,"ax",%progbits
 739              		.align	1
 740              		.global	gfx_setTextBg
 741              		.thumb
 742              		.thumb_func
 743              		.type	gfx_setTextBg, %function
 744              	gfx_setTextBg:
 745              	.LFB80:
 356:ssd1306.c     ****     textbgcolor = color;
 746              		.loc 1 356 0
 747              		.cfi_startproc
 748              		@ args = 0, pretend = 0, frame = 0
ARM GAS  C:\Users\ARMAND~1\AppData\Local\Temp\cc2dQwoO.s 			page 26


 749              		@ frame_needed = 0, uses_anonymous_args = 0
 750              		@ link register save eliminated.
 751              	.LVL42:
 357:ssd1306.c     **** }
 752              		.loc 1 357 0
 753 0000 014B     		ldr	r3, .L59
 754 0002 9881     		strh	r0, [r3, #12]	@ movhi
 755 0004 7047     		bx	lr
 756              	.L60:
 757 0006 00BF     		.align	2
 758              	.L59:
 759 0008 00000000 		.word	.LANCHOR0
 760              		.cfi_endproc
 761              	.LFE80:
 762              		.size	gfx_setTextBg, .-gfx_setTextBg
 763              		.section	.text.gfx_setTextWrap,"ax",%progbits
 764              		.align	1
 765              		.global	gfx_setTextWrap
 766              		.thumb
 767              		.thumb_func
 768              		.type	gfx_setTextWrap, %function
 769              	gfx_setTextWrap:
 770              	.LFB81:
 360:ssd1306.c     ****     wrap = w;
 771              		.loc 1 360 0
 772              		.cfi_startproc
 773              		@ args = 0, pretend = 0, frame = 0
 774              		@ frame_needed = 0, uses_anonymous_args = 0
 775              		@ link register save eliminated.
 776              	.LVL43:
 361:ssd1306.c     **** }
 777              		.loc 1 361 0
 778 0000 014B     		ldr	r3, .L62
 779 0002 1870     		strb	r0, [r3]
 780 0004 7047     		bx	lr
 781              	.L63:
 782 0006 00BF     		.align	2
 783              	.L62:
 784 0008 00000000 		.word	wrap
 785              		.cfi_endproc
 786              	.LFE81:
 787              		.size	gfx_setTextWrap, .-gfx_setTextWrap
 788              		.section	.text.gfx_setRotation,"ax",%progbits
 789              		.align	1
 790              		.global	gfx_setRotation
 791              		.thumb
 792              		.thumb_func
 793              		.type	gfx_setRotation, %function
 794              	gfx_setRotation:
 795              	.LFB82:
 364:ssd1306.c     ****     
 796              		.loc 1 364 0
 797              		.cfi_startproc
 798              		@ args = 0, pretend = 0, frame = 0
 799              		@ frame_needed = 0, uses_anonymous_args = 0
 800              		@ link register save eliminated.
 801              	.LVL44:
ARM GAS  C:\Users\ARMAND~1\AppData\Local\Temp\cc2dQwoO.s 			page 27


 366:ssd1306.c     ****     switch( rotation ){
 802              		.loc 1 366 0
 803 0000 00F00300 		and	r0, r0, #3
 804              	.LVL45:
 805 0004 084B     		ldr	r3, .L75
 367:ssd1306.c     ****         case 0:
 806              		.loc 1 367 0
 807 0006 0128     		cmp	r0, #1
 366:ssd1306.c     ****     switch( rotation ){
 808              		.loc 1 366 0
 809 0008 1870     		strb	r0, [r3]
 810 000a 084A     		ldr	r2, .L75+4
 811 000c 084B     		ldr	r3, .L75+8
 812 000e 0949     		ldr	r1, .L75+12
 367:ssd1306.c     ****         case 0:
 813              		.loc 1 367 0
 814 0010 05D0     		beq	.L66
 815 0012 0328     		cmp	r0, #3
 816 0014 03D0     		beq	.L66
 370:ssd1306.c     ****             _height = HEIGHT;
 817              		.loc 1 370 0
 818 0016 1288     		ldrh	r2, [r2]
 819 0018 1A81     		strh	r2, [r3, #8]	@ movhi
 371:ssd1306.c     ****             break;
 820              		.loc 1 371 0
 821 001a 0A88     		ldrh	r2, [r1]
 822 001c 02E0     		b	.L74
 823              	.L66:
 375:ssd1306.c     ****             _height = WIDTH;
 824              		.loc 1 375 0
 825 001e 0988     		ldrh	r1, [r1]
 376:ssd1306.c     ****         break;
 826              		.loc 1 376 0
 827 0020 1288     		ldrh	r2, [r2]
 375:ssd1306.c     ****             _height = WIDTH;
 828              		.loc 1 375 0
 829 0022 1981     		strh	r1, [r3, #8]	@ movhi
 830              	.L74:
 376:ssd1306.c     ****         break;
 831              		.loc 1 376 0
 832 0024 5A81     		strh	r2, [r3, #10]	@ movhi
 833 0026 7047     		bx	lr
 834              	.L76:
 835              		.align	2
 836              	.L75:
 837 0028 00000000 		.word	rotation
 838 002c 00000000 		.word	WIDTH
 839 0030 00000000 		.word	.LANCHOR0
 840 0034 00000000 		.word	HEIGHT
 841              		.cfi_endproc
 842              	.LFE82:
 843              		.size	gfx_setRotation, .-gfx_setRotation
 844              		.section	.text.gfx_drawPixel,"ax",%progbits
 845              		.align	1
 846              		.global	gfx_drawPixel
 847              		.thumb
 848              		.thumb_func
ARM GAS  C:\Users\ARMAND~1\AppData\Local\Temp\cc2dQwoO.s 			page 28


 849              		.type	gfx_drawPixel, %function
 850              	gfx_drawPixel:
 851              	.LFB84:
 401:ssd1306.c     ****     
 852              		.loc 1 401 0
 853              		.cfi_startproc
 854              		@ args = 0, pretend = 0, frame = 8
 855              		@ frame_needed = 0, uses_anonymous_args = 0
 856              	.LVL46:
 857 0000 13B5     		push	{r0, r1, r4, lr}
 858              		.cfi_def_cfa_offset 16
 859              		.cfi_offset 4, -8
 860              		.cfi_offset 14, -4
 401:ssd1306.c     ****     
 861              		.loc 1 401 0
 862 0002 ADF80600 		strh	r0, [sp, #6]	@ movhi
 403:ssd1306.c     ****         return;
 863              		.loc 1 403 0
 864 0006 0028     		cmp	r0, #0
 865              	.LVL47:
 401:ssd1306.c     ****     
 866              		.loc 1 401 0
 867 0008 1446     		mov	r4, r2
 868 000a ADF80410 		strh	r1, [sp, #4]	@ movhi
 403:ssd1306.c     ****         return;
 869              		.loc 1 403 0
 870 000e 44DB     		blt	.L77
 403:ssd1306.c     ****         return;
 871              		.loc 1 403 0 is_stmt 0 discriminator 1
 872 0010 234A     		ldr	r2, .L85
 873              	.LVL48:
 874 0012 B2F90830 		ldrsh	r3, [r2, #8]
 875 0016 8342     		cmp	r3, r0
 876 0018 3FDD     		ble	.L77
 403:ssd1306.c     ****         return;
 877              		.loc 1 403 0 discriminator 2
 878 001a 0BB2     		sxth	r3, r1
 879 001c 002B     		cmp	r3, #0
 880 001e 3CDB     		blt	.L77
 403:ssd1306.c     ****         return;
 881              		.loc 1 403 0 discriminator 3
 882 0020 B2F90A20 		ldrsh	r2, [r2, #10]
 883 0024 9A42     		cmp	r2, r3
 884 0026 38DD     		ble	.L77
 406:ssd1306.c     **** 
 885              		.loc 1 406 0 is_stmt 1
 886 0028 01A9     		add	r1, sp, #4
 887              	.LVL49:
 888 002a 0DF10600 		add	r0, sp, #6
 889              	.LVL50:
 890 002e FFF7FEFF 		bl	gfx_rotation_adjust
 891              	.LVL51:
 408:ssd1306.c     **** }
 892              		.loc 1 408 0
 893 0032 BDF90630 		ldrsh	r3, [sp, #6]
 894              	.LVL52:
 895              	.LBB11:
ARM GAS  C:\Users\ARMAND~1\AppData\Local\Temp\cc2dQwoO.s 			page 29


 896              	.LBB12:
 148:ssd1306.c     ****         return;
 897              		.loc 1 148 0
 898 0036 9AB2     		uxth	r2, r3
 899 0038 7F2A     		cmp	r2, #127
 900 003a 2ED8     		bhi	.L77
 901              	.LBE12:
 902              	.LBE11:
 408:ssd1306.c     **** }
 903              		.loc 1 408 0
 904 003c BDF90400 		ldrsh	r0, [sp, #4]
 905              	.LBB14:
 906              	.LBB13:
 148:ssd1306.c     ****         return;
 907              		.loc 1 148 0
 908 0040 81B2     		uxth	r1, r0
 909 0042 3F29     		cmp	r1, #63
 910 0044 29D8     		bhi	.L77
 151:ssd1306.c     ****         case WHITE: 
 911              		.loc 1 151 0
 912 0046 012C     		cmp	r4, #1
 913 0048 0ED0     		beq	.L81
 914 004a 19D3     		bcc	.L82
 915 004c 022C     		cmp	r4, #2
 916 004e 24D1     		bne	.L77
 159:ssd1306.c     ****             break;
 917              		.loc 1 159 0
 918 0050 144C     		ldr	r4, .L85+4
 919              	.LVL53:
 920 0052 C010     		asrs	r0, r0, #3
 921 0054 0122     		movs	r2, #1
 922 0056 03EBC013 		add	r3, r3, r0, lsl #7
 923              	.LVL54:
 924 005a 01F00701 		and	r1, r1, #7
 925 005e 02FA01F1 		lsl	r1, r2, r1
 926 0062 E25C     		ldrb	r2, [r4, r3]	@ zero_extendqisi2
 927 0064 5140     		eors	r1, r1, r2
 928 0066 17E0     		b	.L84
 929              	.LVL55:
 930              	.L81:
 153:ssd1306.c     ****             break;
 931              		.loc 1 153 0
 932 0068 0E4A     		ldr	r2, .L85+4
 933 006a C010     		asrs	r0, r0, #3
 934 006c 03EBC013 		add	r3, r3, r0, lsl #7
 935              	.LVL56:
 936 0070 01F00701 		and	r1, r1, #7
 937 0074 04FA01F1 		lsl	r1, r4, r1
 938 0078 D45C     		ldrb	r4, [r2, r3]	@ zero_extendqisi2
 939              	.LVL57:
 940 007a 2143     		orrs	r1, r1, r4
 941 007c D154     		strb	r1, [r2, r3]
 942 007e 0CE0     		b	.L77
 943              	.LVL58:
 944              	.L82:
 156:ssd1306.c     ****             break;
 945              		.loc 1 156 0
ARM GAS  C:\Users\ARMAND~1\AppData\Local\Temp\cc2dQwoO.s 			page 30


 946 0080 084C     		ldr	r4, .L85+4
 947              	.LVL59:
 948 0082 C010     		asrs	r0, r0, #3
 949 0084 0122     		movs	r2, #1
 950 0086 03EBC013 		add	r3, r3, r0, lsl #7
 951              	.LVL60:
 952 008a 01F00701 		and	r1, r1, #7
 953 008e 02FA01F1 		lsl	r1, r2, r1
 954 0092 E25C     		ldrb	r2, [r4, r3]	@ zero_extendqisi2
 955 0094 22EA0101 		bic	r1, r2, r1
 956              	.L84:
 159:ssd1306.c     ****             break;
 957              		.loc 1 159 0
 958 0098 E154     		strb	r1, [r4, r3]
 959              	.LVL61:
 960              	.L77:
 961              	.LBE13:
 962              	.LBE14:
 409:ssd1306.c     **** 
 963              		.loc 1 409 0
 964 009a 02B0     		add	sp, sp, #8
 965              		.cfi_def_cfa_offset 8
 966              		@ sp needed
 967 009c 10BD     		pop	{r4, pc}
 968              	.LVL62:
 969              	.L86:
 970 009e 00BF     		.align	2
 971              	.L85:
 972 00a0 00000000 		.word	.LANCHOR0
 973 00a4 01000000 		.word	.LANCHOR1+1
 974              		.cfi_endproc
 975              	.LFE84:
 976              		.size	gfx_drawPixel, .-gfx_drawPixel
 977              		.section	.text.gfx_drawLine,"ax",%progbits
 978              		.align	1
 979              		.global	gfx_drawLine
 980              		.thumb
 981              		.thumb_func
 982              		.type	gfx_drawLine, %function
 983              	gfx_drawLine:
 984              	.LFB86:
 446:ssd1306.c     ****  
 985              		.loc 1 446 0
 986              		.cfi_startproc
 987              		@ args = 4, pretend = 0, frame = 16
 988              		@ frame_needed = 0, uses_anonymous_args = 0
 989              	.LVL63:
 990 0000 2DE9F04F 		push	{r4, r5, r6, r7, r8, r9, r10, fp, lr}
 991              		.cfi_def_cfa_offset 36
 992              		.cfi_offset 4, -36
 993              		.cfi_offset 5, -32
 994              		.cfi_offset 6, -28
 995              		.cfi_offset 7, -24
 996              		.cfi_offset 8, -20
 997              		.cfi_offset 9, -16
 998              		.cfi_offset 10, -12
 999              		.cfi_offset 11, -8
ARM GAS  C:\Users\ARMAND~1\AppData\Local\Temp\cc2dQwoO.s 			page 31


 1000              		.cfi_offset 14, -4
 1001 0004 1646     		mov	r6, r2
 1002 0006 85B0     		sub	sp, sp, #20
 1003              		.cfi_def_cfa_offset 56
 448:ssd1306.c     ****         // vertical and horizontal lines can be drawn faster
 1004              		.loc 1 448 0
 1005 0008 B042     		cmp	r0, r6
 446:ssd1306.c     ****  
 1006              		.loc 1 446 0
 1007 000a 0446     		mov	r4, r0
 1008 000c 0D46     		mov	r5, r1
 1009 000e 1A46     		mov	r2, r3
 1010              	.LVL64:
 1011 0010 BDF83870 		ldrh	r7, [sp, #56]
 448:ssd1306.c     ****         // vertical and horizontal lines can be drawn faster
 1012              		.loc 1 448 0
 1013 0014 02D0     		beq	.L88
 448:ssd1306.c     ****         // vertical and horizontal lines can be drawn faster
 1014              		.loc 1 448 0 is_stmt 0 discriminator 1
 1015 0016 9942     		cmp	r1, r3
 1016 0018 40F00681 		bne	.L89
 1017              	.L88:
 1018              	.LBB24:
 1019              	.LBB25:
 414:ssd1306.c     ****         // neither vertical nor horizontal
 1020              		.loc 1 414 0 is_stmt 1
 1021 001c B442     		cmp	r4, r6
 1022 001e ADF80840 		strh	r4, [sp, #8]	@ movhi
 1023              	.LVL65:
 1024 0022 ADF80A50 		strh	r5, [sp, #10]	@ movhi
 1025              	.LVL66:
 1026 0026 ADF80C60 		strh	r6, [sp, #12]	@ movhi
 1027              	.LVL67:
 1028 002a ADF80E20 		strh	r2, [sp, #14]	@ movhi
 1029              	.LVL68:
 1030 002e 02D0     		beq	.L90
 1031 0030 9542     		cmp	r5, r2
 1032 0032 40F05481 		bne	.L87
 1033              	.L90:
 420:ssd1306.c     ****         if( x1 < 0 || x1 >= HEIGHT || x2 < 0 || x2 >= HEIGHT )
 1034              		.loc 1 420 0
 1035 0036 AB4B     		ldr	r3, .L133
 1036              	.LVL69:
 1037 0038 1B78     		ldrb	r3, [r3]	@ zero_extendqisi2
 1038 003a 03F0FD03 		and	r3, r3, #253
 1039 003e 012B     		cmp	r3, #1
 1040 0040 1CD1     		bne	.L91
 421:ssd1306.c     ****             return;
 1041              		.loc 1 421 0
 1042 0042 002C     		cmp	r4, #0
 1043 0044 C0F24B81 		blt	.L87
 1044 0048 A74B     		ldr	r3, .L133+4
 1045 004a B3F90030 		ldrsh	r3, [r3]
 1046 004e 9C42     		cmp	r4, r3
 1047 0050 80F24581 		bge	.L87
 1048 0054 002E     		cmp	r6, #0
 1049 0056 C0F24281 		blt	.L87
ARM GAS  C:\Users\ARMAND~1\AppData\Local\Temp\cc2dQwoO.s 			page 32


 1050 005a 9E42     		cmp	r6, r3
 1051 005c 80F23F81 		bge	.L87
 423:ssd1306.c     ****             return;
 1052              		.loc 1 423 0
 1053 0060 002D     		cmp	r5, #0
 1054 0062 C0F23C81 		blt	.L87
 1055 0066 A14B     		ldr	r3, .L133+8
 1056 0068 B3F90030 		ldrsh	r3, [r3]
 1057 006c 9D42     		cmp	r5, r3
 1058 006e 80F23681 		bge	.L87
 1059 0072 002A     		cmp	r2, #0
 1060 0074 C0F23381 		blt	.L87
 1061 0078 9A42     		cmp	r2, r3
 1062 007a 1BE0     		b	.L127
 1063              	.L91:
 426:ssd1306.c     ****             return;
 1064              		.loc 1 426 0
 1065 007c 002D     		cmp	r5, #0
 1066 007e C0F22E81 		blt	.L87
 1067 0082 994B     		ldr	r3, .L133+4
 1068 0084 B3F90030 		ldrsh	r3, [r3]
 1069 0088 9D42     		cmp	r5, r3
 1070 008a 80F22881 		bge	.L87
 1071 008e 002A     		cmp	r2, #0
 1072 0090 C0F22581 		blt	.L87
 1073 0094 9A42     		cmp	r2, r3
 1074 0096 80F22281 		bge	.L87
 428:ssd1306.c     ****             return;
 1075              		.loc 1 428 0
 1076 009a 002C     		cmp	r4, #0
 1077 009c C0F21F81 		blt	.L87
 1078 00a0 924B     		ldr	r3, .L133+8
 1079 00a2 B3F90030 		ldrsh	r3, [r3]
 1080 00a6 9C42     		cmp	r4, r3
 1081 00a8 80F21981 		bge	.L87
 1082 00ac 002E     		cmp	r6, #0
 1083 00ae C0F21681 		blt	.L87
 1084 00b2 9E42     		cmp	r6, r3
 1085              	.L127:
 1086 00b4 80F21381 		bge	.L87
 432:ssd1306.c     ****     gfx_rotation_adjust( &x2, &y2 );
 1087              		.loc 1 432 0
 1088 00b8 0DF10A01 		add	r1, sp, #10
 1089              	.LVL70:
 1090 00bc 02A8     		add	r0, sp, #8
 1091              	.LVL71:
 1092 00be FFF7FEFF 		bl	gfx_rotation_adjust
 1093              	.LVL72:
 433:ssd1306.c     ****     
 1094              		.loc 1 433 0
 1095 00c2 0DF10E01 		add	r1, sp, #14
 1096              	.LVL73:
 1097 00c6 03A8     		add	r0, sp, #12
 1098 00c8 FFF7FEFF 		bl	gfx_rotation_adjust
 1099              	.LVL74:
 436:ssd1306.c     ****         // swap as needed
 1100              		.loc 1 436 0
ARM GAS  C:\Users\ARMAND~1\AppData\Local\Temp\cc2dQwoO.s 			page 33


 1101 00cc BDF90820 		ldrsh	r2, [sp, #8]
 1102 00d0 BDF90C10 		ldrsh	r1, [sp, #12]
 1103 00d4 BDF90E00 		ldrsh	r0, [sp, #14]
 1104 00d8 8A42     		cmp	r2, r1
 1105 00da BDF90A30 		ldrsh	r3, [sp, #10]
 1106 00de 01D1     		bne	.L94
 1107 00e0 9842     		cmp	r0, r3
 1108 00e2 03DB     		blt	.L95
 1109              	.L94:
 1110 00e4 8342     		cmp	r3, r0
 1111 00e6 0BD1     		bne	.L96
 1112 00e8 8A42     		cmp	r2, r1
 1113 00ea 09DD     		ble	.L96
 1114              	.L95:
 1115              	.LVL75:
 1116              	.LBB26:
 438:ssd1306.c     ****         t = y1; y1 = y2; y2 = t;
 1117              		.loc 1 438 0
 1118 00ec ADF80C20 		strh	r2, [sp, #12]	@ movhi
 1119              	.LVL76:
 439:ssd1306.c     ****     }
 1120              		.loc 1 439 0
 1121 00f0 BDF80E20 		ldrh	r2, [sp, #14]
 438:ssd1306.c     ****         t = y1; y1 = y2; y2 = t;
 1122              		.loc 1 438 0
 1123 00f4 ADF80810 		strh	r1, [sp, #8]	@ movhi
 439:ssd1306.c     ****     }
 1124              		.loc 1 439 0
 1125 00f8 ADF80A20 		strh	r2, [sp, #10]	@ movhi
 1126 00fc ADF80E30 		strh	r3, [sp, #14]	@ movhi
 1127              	.LVL77:
 1128              	.L96:
 1129              	.LBE26:
 442:ssd1306.c     **** }
 1130              		.loc 1 442 0
 1131 0100 BDF90800 		ldrsh	r0, [sp, #8]
 1132 0104 BDF90C40 		ldrsh	r4, [sp, #12]
 1133              	.LVL78:
 1134 0108 BDF90A10 		ldrsh	r1, [sp, #10]
 1135              	.LVL79:
 1136              	.LBB27:
 1137              	.LBB28:
 216:ssd1306.c     ****         // vertical
 1138              		.loc 1 216 0
 1139 010c A042     		cmp	r0, r4
 1140 010e 784B     		ldr	r3, .L133+12
 1141 0110 4FF00802 		mov	r2, #8
 1142 0114 68D1     		bne	.L97
 1143              	.LVL80:
 1144              	.LBE28:
 1145              	.LBE27:
 442:ssd1306.c     **** }
 1146              		.loc 1 442 0
 1147 0116 BDF90EE0 		ldrsh	lr, [sp, #14]
 1148              	.LBB45:
 1149              	.LBB43:
 1150              	.LBB29:
ARM GAS  C:\Users\ARMAND~1\AppData\Local\Temp\cc2dQwoO.s 			page 34


 218:ssd1306.c     ****         uint8_t* pend = GDDRAM_ADDRESS(x2,y2);       
 1151              		.loc 1 218 0
 1152 011a 91FBF2F5 		sdiv	r5, r1, r2
 1153              	.LVL81:
 219:ssd1306.c     ****         uint8_t* ptr = pstart;             
 1154              		.loc 1 219 0
 1155 011e 9EFBF2F2 		sdiv	r2, lr, r2
 218:ssd1306.c     ****         uint8_t* pend = GDDRAM_ADDRESS(x2,y2);       
 1156              		.loc 1 218 0
 1157 0122 00EBC515 		add	r5, r0, r5, lsl #7
 219:ssd1306.c     ****         uint8_t* ptr = pstart;             
 1158              		.loc 1 219 0
 1159 0126 00EBC212 		add	r2, r0, r2, lsl #7
 218:ssd1306.c     ****         uint8_t* pend = GDDRAM_ADDRESS(x2,y2);       
 1160              		.loc 1 218 0
 1161 012a 1D44     		add	r5, r5, r3
 1162              	.LVL82:
 219:ssd1306.c     ****         uint8_t* ptr = pstart;             
 1163              		.loc 1 219 0
 1164 012c 1344     		add	r3, r3, r2
 1165              	.LVL83:
 1166              	.LBB30:
 1167              	.LBB31:
 227:ssd1306.c     ****                 // bottom (line can be very short, all inside this one byte)
 1168              		.loc 1 227 0
 1169 012e 714A     		ldr	r2, .L133+16
 1170 0130 05F18000 		add	r0, r5, #128
 1171              	.LVL84:
 1172 0134 0A40     		ands	r2, r2, r1
 1173 0136 002A     		cmp	r2, #0
 1174 0138 BEBF     		ittt	lt
 1175 013a 02F1FF32 		addlt	r2, r2, #-1
 1176 013e 62F00702 		ornlt	r2, r2, #7
 1177 0142 0132     		addlt	r2, r2, #1
 1178 0144 D6B2     		uxtb	r6, r2
 1179              	.LVL85:
 1180              	.LBE31:
 236:ssd1306.c     ****             }
 1181              		.loc 1 236 0
 1182 0146 6B4A     		ldr	r2, .L133+16
 1183              	.LBB32:
 229:ssd1306.c     ****                 if( ubit >= 7 ) //7
 1184              		.loc 1 229 0
 1185 0148 741A     		subs	r4, r6, r1
 1186              	.LBE32:
 236:ssd1306.c     ****             }
 1187              		.loc 1 236 0
 1188 014a 0EEA0202 		and	r2, lr, r2
 1189 014e 002A     		cmp	r2, #0
 1190 0150 B8BF     		it	lt
 1191 0152 02F1FF32 		addlt	r2, r2, #-1
 1192              	.LBB33:
 229:ssd1306.c     ****                 if( ubit >= 7 ) //7
 1193              		.loc 1 229 0
 1194 0156 7444     		add	r4, r4, lr
 1195              	.LBE33:
 236:ssd1306.c     ****             }
ARM GAS  C:\Users\ARMAND~1\AppData\Local\Temp\cc2dQwoO.s 			page 35


 1196              		.loc 1 236 0
 1197 0158 B8BF     		it	lt
 1198 015a 62F00702 		ornlt	r2, r2, #7
 1199              	.LBB34:
 229:ssd1306.c     ****                 if( ubit >= 7 ) //7
 1200              		.loc 1 229 0
 1201 015e E4B2     		uxtb	r4, r4
 1202              	.LBE34:
 236:ssd1306.c     ****             }
 1203              		.loc 1 236 0
 1204 0160 B8BF     		it	lt
 1205 0162 0132     		addlt	r2, r2, #1
 1206              	.LBB35:
 232:ssd1306.c     ****             }else if( ptr == pend ){
 1207              		.loc 1 232 0
 1208 0164 072C     		cmp	r4, #7
 1209 0166 94BF     		ite	ls
 1210 0168 C6EB0404 		rsbls	r4, r6, r4
 1211 016c C6F10704 		rsbhi	r4, r6, #7
 1212              	.LBE35:
 236:ssd1306.c     ****             }
 1213              		.loc 1 236 0
 1214 0170 4FF0010E 		mov	lr, #1
 1215 0174 12B2     		sxth	r2, r2
 1216 0176 0EFA02F2 		lsl	r2, lr, r2
 1217 017a 013A     		subs	r2, r2, #1
 1218 017c D1B2     		uxtb	r1, r2
 1219              	.LVL86:
 1220              	.LBE30:
 218:ssd1306.c     ****         uint8_t* pend = GDDRAM_ADDRESS(x2,y2);       
 1221              		.loc 1 218 0
 1222 017e 2A46     		mov	r2, r5
 1223              	.LBB38:
 1224              	.LBB36:
 232:ssd1306.c     ****             }else if( ptr == pend ){
 1225              		.loc 1 232 0
 1226 0180 7444     		add	r4, r4, lr
 1227 0182 0EFA04F4 		lsl	r4, lr, r4
 1228 0186 013C     		subs	r4, r4, #1
 1229 0188 04FA06F6 		lsl	r6, r4, r6
 1230 018c F6B2     		uxtb	r6, r6
 1231              	.LBE36:
 248:ssd1306.c     ****                     case INVERSE:   *ptr ^= 0xff; break;
 1232              		.loc 1 248 0
 1233 018e 4FF0000C 		mov	ip, #0
 247:ssd1306.c     ****                     case BLACK:     *ptr = 0x00; break;
 1234              		.loc 1 247 0
 1235 0192 4FF0FF08 		mov	r8, #255
 1236              	.LVL87:
 1237              	.L100:
 1238              	.LBE38:
 222:ssd1306.c     ****             
 1239              		.loc 1 222 0
 1240 0196 9342     		cmp	r3, r2
 1241 0198 C0F0A180 		bcc	.L87
 1242              	.LBB39:
 225:ssd1306.c     ****                 // top
ARM GAS  C:\Users\ARMAND~1\AppData\Local\Temp\cc2dQwoO.s 			page 36


 1243              		.loc 1 225 0
 1244 019c 9542     		cmp	r5, r2
 1245 019e 04D0     		beq	.L125
 233:ssd1306.c     ****                 // top is always bit 0, that makes it easy
 1246              		.loc 1 233 0
 1247 01a0 9342     		cmp	r3, r2
 1248 01a2 40F09280 		bne	.L102
 236:ssd1306.c     ****             }
 1249              		.loc 1 236 0
 1250 01a6 0C46     		mov	r4, r1
 1251 01a8 00E0     		b	.L101
 1252              	.L125:
 1253              	.LBB37:
 232:ssd1306.c     ****             }else if( ptr == pend ){
 1254              		.loc 1 232 0
 1255 01aa 3446     		mov	r4, r6
 1256              	.L101:
 1257              	.LBE37:
 240:ssd1306.c     ****                     case WHITE:     *ptr |= mask; break;
 1258              		.loc 1 240 0
 1259 01ac 012F     		cmp	r7, #1
 1260 01ae 07D0     		beq	.L104
 1261 01b0 0BD3     		bcc	.L105
 1262 01b2 022F     		cmp	r7, #2
 1263 01b4 15D1     		bne	.L103
 243:ssd1306.c     ****                 };  
 1264              		.loc 1 243 0
 1265 01b6 10F880EC 		ldrb	lr, [r0, #-128]	@ zero_extendqisi2
 1266 01ba 84EA0E04 		eor	r4, r4, lr
 1267 01be 0EE0     		b	.L128
 1268              	.L104:
 241:ssd1306.c     ****                     case BLACK:     *ptr &= ~mask; break;
 1269              		.loc 1 241 0
 1270 01c0 10F880EC 		ldrb	lr, [r0, #-128]	@ zero_extendqisi2
 1271 01c4 44EA0E04 		orr	r4, r4, lr
 1272 01c8 09E0     		b	.L128
 1273              	.L105:
 242:ssd1306.c     ****                     case INVERSE:   *ptr ^= mask; break;
 1274              		.loc 1 242 0
 1275 01ca 10F880EC 		ldrb	lr, [r0, #-128]	@ zero_extendqisi2
 1276 01ce 2EEA0404 		bic	r4, lr, r4
 1277 01d2 04E0     		b	.L128
 1278              	.L132:
 246:ssd1306.c     ****                     case WHITE:     *ptr = 0xff; break;
 1279              		.loc 1 246 0
 1280 01d4 022F     		cmp	r7, #2
 1281 01d6 04D1     		bne	.L103
 249:ssd1306.c     ****                 };  
 1282              		.loc 1 249 0
 1283 01d8 10F8804C 		ldrb	r4, [r0, #-128]	@ zero_extendqisi2
 1284 01dc E443     		mvns	r4, r4
 1285              	.L128:
 1286 01de 00F8804C 		strb	r4, [r0, #-128]
 1287              	.L103:
 253:ssd1306.c     ****         }
 1288              		.loc 1 253 0
 1289 01e2 8032     		adds	r2, r2, #128
ARM GAS  C:\Users\ARMAND~1\AppData\Local\Temp\cc2dQwoO.s 			page 37


 1290              	.LVL88:
 1291 01e4 8030     		adds	r0, r0, #128
 1292 01e6 D6E7     		b	.L100
 1293              	.LVL89:
 1294              	.L97:
 1295              	.LBE39:
 1296              	.LBE29:
 1297              	.LBB41:
 257:ssd1306.c     ****         uint8_t* pend = pstart + x2 - x1;
 1298              		.loc 1 257 0
 1299 01e8 91FBF2F2 		sdiv	r2, r1, r2
 259:ssd1306.c     **** 
 1300              		.loc 1 259 0
 1301 01ec 01F00701 		and	r1, r1, #7
 1302              	.LVL90:
 257:ssd1306.c     ****         uint8_t* pend = pstart + x2 - x1;
 1303              		.loc 1 257 0
 1304 01f0 00EBC212 		add	r2, r0, r2, lsl #7
 258:ssd1306.c     ****         uint8_t pixmask = GDDRAM_PIXMASK(y1);    
 1305              		.loc 1 258 0
 1306 01f4 201A     		subs	r0, r4, r0
 1307              	.LVL91:
 259:ssd1306.c     **** 
 1308              		.loc 1 259 0
 1309 01f6 0124     		movs	r4, #1
 1310              	.LVL92:
 1311 01f8 04FA01F1 		lsl	r1, r4, r1
 1312 01fc CCB2     		uxtb	r4, r1
 265:ssd1306.c     ****                 case INVERSE:   *ptr ^= pixmask; break;
 1313              		.loc 1 265 0
 1314 01fe C943     		mvns	r1, r1
 257:ssd1306.c     ****         uint8_t* pend = pstart + x2 - x1;
 1315              		.loc 1 257 0
 1316 0200 1344     		add	r3, r3, r2
 1317              	.LVL93:
 258:ssd1306.c     ****         uint8_t pixmask = GDDRAM_PIXMASK(y1);    
 1318              		.loc 1 258 0
 1319 0202 1844     		add	r0, r0, r3
 1320              	.LVL94:
 1321              	.L111:
 262:ssd1306.c     ****             switch( color ){
 1322              		.loc 1 262 0
 1323 0204 9842     		cmp	r0, r3
 1324 0206 6AD3     		bcc	.L87
 263:ssd1306.c     ****                 case WHITE:     *ptr |= pixmask; break;
 1325              		.loc 1 263 0
 1326 0208 012F     		cmp	r7, #1
 1327 020a 05D0     		beq	.L113
 1328 020c 07D3     		bcc	.L114
 1329 020e 022F     		cmp	r7, #2
 1330 0210 08D1     		bne	.L112
 266:ssd1306.c     ****             };
 1331              		.loc 1 266 0
 1332 0212 1A78     		ldrb	r2, [r3]	@ zero_extendqisi2
 1333 0214 6240     		eors	r2, r2, r4
 1334 0216 04E0     		b	.L129
 1335              	.L113:
ARM GAS  C:\Users\ARMAND~1\AppData\Local\Temp\cc2dQwoO.s 			page 38


 264:ssd1306.c     ****                 case BLACK:     *ptr &= ~pixmask; break;
 1336              		.loc 1 264 0
 1337 0218 1A78     		ldrb	r2, [r3]	@ zero_extendqisi2
 1338 021a 2243     		orrs	r2, r2, r4
 1339 021c 01E0     		b	.L129
 1340              	.L114:
 265:ssd1306.c     ****                 case INVERSE:   *ptr ^= pixmask; break;
 1341              		.loc 1 265 0
 1342 021e 1A78     		ldrb	r2, [r3]	@ zero_extendqisi2
 1343 0220 0A40     		ands	r2, r2, r1
 1344              	.L129:
 266:ssd1306.c     ****             };
 1345              		.loc 1 266 0
 1346 0222 1A70     		strb	r2, [r3]
 1347              	.L112:
 268:ssd1306.c     ****         }
 1348              		.loc 1 268 0
 1349 0224 0133     		adds	r3, r3, #1
 1350              	.LVL95:
 1351 0226 EDE7     		b	.L111
 1352              	.LVL96:
 1353              	.L89:
 1354              	.LBE41:
 1355              	.LBE43:
 1356              	.LBE45:
 1357              	.LBE25:
 1358              	.LBE24:
 456:ssd1306.c     ****     if( steep ){
 1359              		.loc 1 456 0
 1360 0228 C1EB0308 		rsb	r8, r1, r3
 1361 022c C0EB0609 		rsb	r9, r0, r6
 1362 0230 B8F1000F 		cmp	r8, #0
 1363 0234 B8BF     		it	lt
 1364 0236 C8F10008 		rsblt	r8, r8, #0
 1365 023a B9F1000F 		cmp	r9, #0
 1366 023e B8BF     		it	lt
 1367 0240 C9F10009 		rsblt	r9, r9, #0
 1368              	.LVL97:
 457:ssd1306.c     ****         t = x0; x0 = y0; y0 = t;
 1369              		.loc 1 457 0
 1370 0244 C845     		cmp	r8, r9
 1371 0246 04DD     		ble	.L117
 1372 0248 3346     		mov	r3, r6
 1373              	.LVL98:
 1374 024a 0C46     		mov	r4, r1
 1375 024c 1646     		mov	r6, r2
 1376 024e 0546     		mov	r5, r0
 1377 0250 1A46     		mov	r2, r3
 1378              	.L117:
 1379              	.LVL99:
 461:ssd1306.c     ****         t = x0; x0 = x1; x1 = t;
 1380              		.loc 1 461 0
 1381 0252 B442     		cmp	r4, r6
 1382 0254 05DD     		ble	.L118
 1383 0256 2B46     		mov	r3, r5
 463:ssd1306.c     ****     }
 1384              		.loc 1 463 0
ARM GAS  C:\Users\ARMAND~1\AppData\Local\Temp\cc2dQwoO.s 			page 39


 1385 0258 1546     		mov	r5, r2
 1386              	.LVL100:
 1387 025a 1A46     		mov	r2, r3
 1388              	.LVL101:
 461:ssd1306.c     ****         t = x0; x0 = x1; x1 = t;
 1389              		.loc 1 461 0
 1390 025c 2346     		mov	r3, r4
 1391 025e 3446     		mov	r4, r6
 1392              	.LVL102:
 1393 0260 1E46     		mov	r6, r3
 1394              	.LVL103:
 1395              	.L118:
 467:ssd1306.c     ****     int16_t err = dx / 2;
 1396              		.loc 1 467 0
 1397 0262 C5EB020B 		rsb	fp, r5, r2
 1398 0266 5B46     		mov	r3, fp
 466:ssd1306.c     ****     dy = abs(y1 - y0);
 1399              		.loc 1 466 0
 1400 0268 C4EB060A 		rsb	r10, r4, r6
 467:ssd1306.c     ****     int16_t err = dx / 2;
 1401              		.loc 1 467 0
 1402 026c 002B     		cmp	r3, #0
 1403 026e B8BF     		it	lt
 1404 0270 5B42     		rsblt	r3, r3, #0
 466:ssd1306.c     ****     dy = abs(y1 - y0);
 1405              		.loc 1 466 0
 1406 0272 1FFA8AFA 		uxth	r10, r10
 1407              	.LVL104:
 467:ssd1306.c     ****     int16_t err = dx / 2;
 1408              		.loc 1 467 0
 1409 0276 0193     		str	r3, [sp, #4]
 1410              	.LVL105:
 468:ssd1306.c     ****     int16_t ystep;
 1411              		.loc 1 468 0
 1412 0278 0FFA8AF1 		sxth	r1, r10
 1413 027c 0223     		movs	r3, #2
 1414 027e 91FBF3FB 		sdiv	fp, r1, r3
 1415              	.LVL106:
 473:ssd1306.c     ****     }
 1416              		.loc 1 473 0
 1417 0282 9542     		cmp	r5, r2
 1418 0284 B4BF     		ite	lt
 1419 0286 0123     		movlt	r3, #1
 1420 0288 4FF0FF33 		movge	r3, #-1
 1421 028c 0093     		str	r3, [sp]
 1422              	.LVL107:
 1423              	.L120:
 475:ssd1306.c     ****         if( steep ){
 1424              		.loc 1 475 0 discriminator 1
 1425 028e B442     		cmp	r4, r6
 1426 0290 25DC     		bgt	.L87
 476:ssd1306.c     ****             gfx_drawPixel( y0, x0, color );
 1427              		.loc 1 476 0
 1428 0292 C845     		cmp	r8, r9
 477:ssd1306.c     ****         }else{
 1429              		.loc 1 477 0
 1430 0294 3A46     		mov	r2, r7
ARM GAS  C:\Users\ARMAND~1\AppData\Local\Temp\cc2dQwoO.s 			page 40


 1431 0296 C7BF     		ittee	gt
 1432 0298 2146     		movgt	r1, r4
 1433 029a 2846     		movgt	r0, r5
 479:ssd1306.c     ****         }
 1434              		.loc 1 479 0
 1435 029c 2946     		movle	r1, r5
 1436 029e 2046     		movle	r0, r4
 1437 02a0 FFF7FEFF 		bl	gfx_drawPixel
 1438              	.LVL108:
 481:ssd1306.c     ****         if( err < 0 ){
 1439              		.loc 1 481 0
 1440 02a4 019B     		ldr	r3, [sp, #4]
 1441 02a6 C3EB0B03 		rsb	r3, r3, fp
 1442 02aa 9AB2     		uxth	r2, r3
 1443 02ac 0FFA82FB 		sxth	fp, r2
 1444              	.LVL109:
 482:ssd1306.c     ****             y0 += ystep;
 1445              		.loc 1 482 0
 1446 02b0 BBF1000F 		cmp	fp, #0
 1447 02b4 06DA     		bge	.L123
 483:ssd1306.c     ****             err += dx;
 1448              		.loc 1 483 0
 1449 02b6 009B     		ldr	r3, [sp]
 1450 02b8 1D44     		add	r5, r5, r3
 1451              	.LVL110:
 484:ssd1306.c     ****         }
 1452              		.loc 1 484 0
 1453 02ba 0AEB0203 		add	r3, r10, r2
 483:ssd1306.c     ****             err += dx;
 1454              		.loc 1 483 0
 1455 02be 2DB2     		sxth	r5, r5
 1456              	.LVL111:
 484:ssd1306.c     ****         }
 1457              		.loc 1 484 0
 1458 02c0 0FFA83FB 		sxth	fp, r3
 1459              	.LVL112:
 1460              	.L123:
 1461 02c4 0134     		adds	r4, r4, #1
 1462              	.LVL113:
 1463 02c6 24B2     		sxth	r4, r4
 1464              	.LVL114:
 1465 02c8 E1E7     		b	.L120
 1466              	.LVL115:
 1467              	.L102:
 1468              	.LBB48:
 1469              	.LBB47:
 1470              	.LBB46:
 1471              	.LBB44:
 1472              	.LBB42:
 1473              	.LBB40:
 246:ssd1306.c     ****                     case WHITE:     *ptr = 0xff; break;
 1474              		.loc 1 246 0
 1475 02ca 012F     		cmp	r7, #1
 1476 02cc 02D1     		bne	.L131
 247:ssd1306.c     ****                     case BLACK:     *ptr = 0x00; break;
 1477              		.loc 1 247 0
 1478 02ce 00F8808C 		strb	r8, [r0, #-128]
ARM GAS  C:\Users\ARMAND~1\AppData\Local\Temp\cc2dQwoO.s 			page 41


 1479 02d2 86E7     		b	.L103
 1480              	.L131:
 246:ssd1306.c     ****                     case WHITE:     *ptr = 0xff; break;
 1481              		.loc 1 246 0
 1482 02d4 BFF47EAF 		bcs	.L132
 248:ssd1306.c     ****                     case INVERSE:   *ptr ^= 0xff; break;
 1483              		.loc 1 248 0
 1484 02d8 00F880CC 		strb	ip, [r0, #-128]
 1485 02dc 81E7     		b	.L103
 1486              	.LVL116:
 1487              	.L87:
 1488              	.LBE40:
 1489              	.LBE42:
 1490              	.LBE44:
 1491              	.LBE46:
 1492              	.LBE47:
 1493              	.LBE48:
 487:ssd1306.c     **** 
 1494              		.loc 1 487 0
 1495 02de 05B0     		add	sp, sp, #20
 1496              		.cfi_def_cfa_offset 36
 1497              		@ sp needed
 1498 02e0 BDE8F08F 		pop	{r4, r5, r6, r7, r8, r9, r10, fp, pc}
 1499              	.LVL117:
 1500              	.L134:
 1501              		.align	2
 1502              	.L133:
 1503 02e4 00000000 		.word	rotation
 1504 02e8 00000000 		.word	HEIGHT
 1505 02ec 00000000 		.word	WIDTH
 1506 02f0 01000000 		.word	.LANCHOR1+1
 1507 02f4 07000080 		.word	-2147483641
 1508              		.cfi_endproc
 1509              	.LFE86:
 1510              		.size	gfx_drawLine, .-gfx_drawLine
 1511              		.section	.text.gfx_drawRect,"ax",%progbits
 1512              		.align	1
 1513              		.global	gfx_drawRect
 1514              		.thumb
 1515              		.thumb_func
 1516              		.type	gfx_drawRect, %function
 1517              	gfx_drawRect:
 1518              	.LFB87:
 489:ssd1306.c     ****     
 1519              		.loc 1 489 0
 1520              		.cfi_startproc
 1521              		@ args = 4, pretend = 0, frame = 0
 1522              		@ frame_needed = 0, uses_anonymous_args = 0
 1523              	.LVL118:
 1524 0000 2DE9F341 		push	{r0, r1, r4, r5, r6, r7, r8, lr}
 1525              		.cfi_def_cfa_offset 32
 1526              		.cfi_offset 4, -24
 1527              		.cfi_offset 5, -20
 1528              		.cfi_offset 6, -16
 1529              		.cfi_offset 7, -12
 1530              		.cfi_offset 8, -8
 1531              		.cfi_offset 14, -4
ARM GAS  C:\Users\ARMAND~1\AppData\Local\Temp\cc2dQwoO.s 			page 42


 489:ssd1306.c     ****     
 1532              		.loc 1 489 0
 1533 0004 1C46     		mov	r4, r3
 1534 0006 0E46     		mov	r6, r1
 1535 0008 8046     		mov	r8, r0
 491:ssd1306.c     ****     gfx_drawLine( x, y+h-1, x+w-1, y+h-1, color );
 1536              		.loc 1 491 0
 1537 000a 013A     		subs	r2, r2, #1
 1538              	.LVL119:
 489:ssd1306.c     ****     
 1539              		.loc 1 489 0
 1540 000c BDF82070 		ldrh	r7, [sp, #32]
 491:ssd1306.c     ****     gfx_drawLine( x, y+h-1, x+w-1, y+h-1, color );
 1541              		.loc 1 491 0
 1542 0010 1518     		adds	r5, r2, r0
 492:ssd1306.c     ****     gfx_drawLine( x, y, x, y+h-1, color );
 1543              		.loc 1 492 0
 1544 0012 013C     		subs	r4, r4, #1
 491:ssd1306.c     ****     gfx_drawLine( x, y+h-1, x+w-1, y+h-1, color );
 1545              		.loc 1 491 0
 1546 0014 2DB2     		sxth	r5, r5
 492:ssd1306.c     ****     gfx_drawLine( x, y, x, y+h-1, color );
 1547              		.loc 1 492 0
 1548 0016 3444     		add	r4, r4, r6
 1549 0018 24B2     		sxth	r4, r4
 491:ssd1306.c     ****     gfx_drawLine( x, y+h-1, x+w-1, y+h-1, color );
 1550              		.loc 1 491 0
 1551 001a 0B46     		mov	r3, r1
 1552              	.LVL120:
 1553 001c 2A46     		mov	r2, r5
 1554 001e 0097     		str	r7, [sp]
 1555 0020 FFF7FEFF 		bl	gfx_drawLine
 1556              	.LVL121:
 492:ssd1306.c     ****     gfx_drawLine( x, y, x, y+h-1, color );
 1557              		.loc 1 492 0
 1558 0024 2346     		mov	r3, r4
 1559 0026 2A46     		mov	r2, r5
 1560 0028 2146     		mov	r1, r4
 1561 002a 4046     		mov	r0, r8
 1562 002c 0097     		str	r7, [sp]
 1563 002e FFF7FEFF 		bl	gfx_drawLine
 1564              	.LVL122:
 493:ssd1306.c     ****     gfx_drawLine( x+w-1, y, x+w-1, y+h-1, color );
 1565              		.loc 1 493 0
 1566 0032 2346     		mov	r3, r4
 1567 0034 4246     		mov	r2, r8
 1568 0036 3146     		mov	r1, r6
 1569 0038 4046     		mov	r0, r8
 1570 003a 0097     		str	r7, [sp]
 1571 003c FFF7FEFF 		bl	gfx_drawLine
 1572              	.LVL123:
 494:ssd1306.c     **** }
 1573              		.loc 1 494 0
 1574 0040 2346     		mov	r3, r4
 1575 0042 2A46     		mov	r2, r5
 1576 0044 3146     		mov	r1, r6
 1577 0046 2846     		mov	r0, r5
ARM GAS  C:\Users\ARMAND~1\AppData\Local\Temp\cc2dQwoO.s 			page 43


 1578 0048 0897     		str	r7, [sp, #32]
 495:ssd1306.c     **** 
 1579              		.loc 1 495 0
 1580 004a 02B0     		add	sp, sp, #8
 1581              		.cfi_def_cfa_offset 24
 1582              		@ sp needed
 1583 004c BDE8F041 		pop	{r4, r5, r6, r7, r8, lr}
 1584              		.cfi_restore 14
 1585              		.cfi_restore 8
 1586              		.cfi_restore 7
 1587              		.cfi_restore 6
 1588              		.cfi_restore 5
 1589              		.cfi_restore 4
 1590              		.cfi_def_cfa_offset 0
 1591              	.LVL124:
 494:ssd1306.c     **** }
 1592              		.loc 1 494 0
 1593 0050 FFF7FEBF 		b	gfx_drawLine
 1594              	.LVL125:
 1595              		.cfi_endproc
 1596              	.LFE87:
 1597              		.size	gfx_drawRect, .-gfx_drawRect
 1598              		.section	.text.gfx_fillRect,"ax",%progbits
 1599              		.align	1
 1600              		.global	gfx_fillRect
 1601              		.thumb
 1602              		.thumb_func
 1603              		.type	gfx_fillRect, %function
 1604              	gfx_fillRect:
 1605              	.LFB88:
 497:ssd1306.c     ****     int16_t i = 0;
 1606              		.loc 1 497 0
 1607              		.cfi_startproc
 1608              		@ args = 4, pretend = 0, frame = 0
 1609              		@ frame_needed = 0, uses_anonymous_args = 0
 1610              	.LVL126:
 1611 0000 2DE9F743 		push	{r0, r1, r2, r4, r5, r6, r7, r8, r9, lr}
 1612              		.cfi_def_cfa_offset 40
 1613              		.cfi_offset 4, -28
 1614              		.cfi_offset 5, -24
 1615              		.cfi_offset 6, -20
 1616              		.cfi_offset 7, -16
 1617              		.cfi_offset 8, -12
 1618              		.cfi_offset 9, -8
 1619              		.cfi_offset 14, -4
 499:ssd1306.c     ****         for( i = x ; i < x+w ; i++ ){
 1620              		.loc 1 499 0
 1621 0004 9342     		cmp	r3, r2
 497:ssd1306.c     ****     int16_t i = 0;
 1622              		.loc 1 497 0
 1623 0006 0746     		mov	r7, r0
 1624 0008 0E46     		mov	r6, r1
 1625 000a 1546     		mov	r5, r2
 1626 000c 9846     		mov	r8, r3
 1627 000e BDF82890 		ldrh	r9, [sp, #40]
 499:ssd1306.c     ****         for( i = x ; i < x+w ; i++ ){
 1628              		.loc 1 499 0
ARM GAS  C:\Users\ARMAND~1\AppData\Local\Temp\cc2dQwoO.s 			page 44


 1629 0012 04DC     		bgt	.L137
 505:ssd1306.c     ****         }
 1630              		.loc 1 505 0 discriminator 1
 1631 0014 431E     		subs	r3, r0, #1
 1632              	.LVL127:
 1633 0016 1D44     		add	r5, r5, r3
 1634 0018 0C46     		mov	r4, r1
 1635 001a 2DB2     		sxth	r5, r5
 1636 001c 12E0     		b	.L138
 1637              	.LVL128:
 1638              	.L137:
 1639 001e 0446     		mov	r4, r0
 1640              	.LBB51:
 1641              	.LBB52:
 501:ssd1306.c     ****         }
 1642              		.loc 1 501 0
 1643 0020 4B1E     		subs	r3, r1, #1
 1644              	.LVL129:
 1645 0022 9844     		add	r8, r8, r3
 1646 0024 0FFA88F8 		sxth	r8, r8
 1647              	.LVL130:
 1648              	.L139:
 500:ssd1306.c     ****             gfx_drawLine( i, y, i, y+h-1, color );
 1649              		.loc 1 500 0
 1650 0028 7B19     		adds	r3, r7, r5
 1651 002a 9C42     		cmp	r4, r3
 1652 002c 19DA     		bge	.L136
 501:ssd1306.c     ****         }
 1653              		.loc 1 501 0
 1654 002e 2246     		mov	r2, r4
 1655 0030 2046     		mov	r0, r4
 1656 0032 CDF80090 		str	r9, [sp]
 1657 0036 4346     		mov	r3, r8
 1658 0038 3146     		mov	r1, r6
 1659 003a 0134     		adds	r4, r4, #1
 1660              	.LVL131:
 1661 003c FFF7FEFF 		bl	gfx_drawLine
 1662              	.LVL132:
 1663 0040 24B2     		sxth	r4, r4
 1664              	.LVL133:
 1665 0042 F1E7     		b	.L139
 1666              	.LVL134:
 1667              	.L138:
 1668              	.LBE52:
 1669              	.LBE51:
 504:ssd1306.c     ****             gfx_drawLine( x, i, x+w-1, i, color );
 1670              		.loc 1 504 0 discriminator 1
 1671 0044 06EB0803 		add	r3, r6, r8
 1672 0048 9C42     		cmp	r4, r3
 1673 004a 0ADA     		bge	.L136
 505:ssd1306.c     ****         }
 1674              		.loc 1 505 0 discriminator 3
 1675 004c 2346     		mov	r3, r4
 1676 004e 2146     		mov	r1, r4
 1677 0050 CDF80090 		str	r9, [sp]
 1678 0054 2A46     		mov	r2, r5
 1679 0056 3846     		mov	r0, r7
ARM GAS  C:\Users\ARMAND~1\AppData\Local\Temp\cc2dQwoO.s 			page 45


 1680 0058 0134     		adds	r4, r4, #1
 1681              	.LVL135:
 1682 005a FFF7FEFF 		bl	gfx_drawLine
 1683              	.LVL136:
 1684 005e 24B2     		sxth	r4, r4
 1685              	.LVL137:
 1686 0060 F0E7     		b	.L138
 1687              	.LVL138:
 1688              	.L136:
 508:ssd1306.c     **** 
 1689              		.loc 1 508 0
 1690 0062 03B0     		add	sp, sp, #12
 1691              		.cfi_def_cfa_offset 28
 1692              		@ sp needed
 1693 0064 BDE8F083 		pop	{r4, r5, r6, r7, r8, r9, pc}
 1694              		.cfi_endproc
 1695              	.LFE88:
 1696              		.size	gfx_fillRect, .-gfx_fillRect
 1697              		.section	.text.gfx_drawCircle,"ax",%progbits
 1698              		.align	1
 1699              		.global	gfx_drawCircle
 1700              		.thumb
 1701              		.thumb_func
 1702              		.type	gfx_drawCircle, %function
 1703              	gfx_drawCircle:
 1704              	.LFB89:
 512:ssd1306.c     **** 
 1705              		.loc 1 512 0
 1706              		.cfi_startproc
 1707              		@ args = 0, pretend = 0, frame = 32
 1708              		@ frame_needed = 0, uses_anonymous_args = 0
 1709              	.LVL139:
 1710 0000 2DE9F04F 		push	{r4, r5, r6, r7, r8, r9, r10, fp, lr}
 1711              		.cfi_def_cfa_offset 36
 1712              		.cfi_offset 4, -36
 1713              		.cfi_offset 5, -32
 1714              		.cfi_offset 6, -28
 1715              		.cfi_offset 7, -24
 1716              		.cfi_offset 8, -20
 1717              		.cfi_offset 9, -16
 1718              		.cfi_offset 10, -12
 1719              		.cfi_offset 11, -8
 1720              		.cfi_offset 14, -4
 1721 0004 1C46     		mov	r4, r3
 1722 0006 0546     		mov	r5, r0
 1723 0008 8946     		mov	r9, r1
 514:ssd1306.c     ****     int16_t ddF_x = 1;
 1724              		.loc 1 514 0
 1725 000a 96B2     		uxth	r6, r2
 1726 000c C6F10103 		rsb	r3, r6, #1
 1727              	.LVL140:
 512:ssd1306.c     **** 
 1728              		.loc 1 512 0
 1729 0010 89B0     		sub	sp, sp, #36
 1730              		.cfi_def_cfa_offset 72
 514:ssd1306.c     ****     int16_t ddF_x = 1;
 1731              		.loc 1 514 0
ARM GAS  C:\Users\ARMAND~1\AppData\Local\Temp\cc2dQwoO.s 			page 46


 1732 0012 1BB2     		sxth	r3, r3
 519:ssd1306.c     ****     gfx_drawPixel( x0 , y0-r, color );
 1733              		.loc 1 519 0
 1734 0014 1FFA81F8 		uxth	r8, r1
 514:ssd1306.c     ****     int16_t ddF_x = 1;
 1735              		.loc 1 514 0
 1736 0018 0193     		str	r3, [sp, #4]
 1737              	.LVL141:
 516:ssd1306.c     ****     int16_t x = 0;
 1738              		.loc 1 516 0
 1739 001a C6EBC633 		rsb	r3, r6, r6, lsl #15
 1740 001e 5B00     		lsls	r3, r3, #1
 519:ssd1306.c     ****     gfx_drawPixel( x0 , y0-r, color );
 1741              		.loc 1 519 0
 1742 0020 06EB0801 		add	r1, r6, r8
 1743              	.LVL142:
 516:ssd1306.c     ****     int16_t x = 0;
 1744              		.loc 1 516 0
 1745 0024 1BB2     		sxth	r3, r3
 519:ssd1306.c     ****     gfx_drawPixel( x0 , y0-r, color );
 1746              		.loc 1 519 0
 1747 0026 09B2     		sxth	r1, r1
 512:ssd1306.c     **** 
 1748              		.loc 1 512 0
 1749 0028 1746     		mov	r7, r2
 519:ssd1306.c     ****     gfx_drawPixel( x0 , y0-r, color );
 1750              		.loc 1 519 0
 1751 002a 2246     		mov	r2, r4
 1752              	.LVL143:
 516:ssd1306.c     ****     int16_t x = 0;
 1753              		.loc 1 516 0
 1754 002c 0393     		str	r3, [sp, #12]
 1755              	.LVL144:
 519:ssd1306.c     ****     gfx_drawPixel( x0 , y0-r, color );
 1756              		.loc 1 519 0
 1757 002e FFF7FEFF 		bl	gfx_drawPixel
 1758              	.LVL145:
 520:ssd1306.c     ****     gfx_drawPixel( x0+r, y0 , color );
 1759              		.loc 1 520 0
 1760 0032 C6EB0801 		rsb	r1, r6, r8
 1761 0036 2846     		mov	r0, r5
 1762 0038 2246     		mov	r2, r4
 521:ssd1306.c     ****     gfx_drawPixel( x0-r, y0 , color );
 1763              		.loc 1 521 0
 1764 003a ADB2     		uxth	r5, r5
 520:ssd1306.c     ****     gfx_drawPixel( x0+r, y0 , color );
 1765              		.loc 1 520 0
 1766 003c 09B2     		sxth	r1, r1
 1767 003e FFF7FEFF 		bl	gfx_drawPixel
 1768              	.LVL146:
 521:ssd1306.c     ****     gfx_drawPixel( x0-r, y0 , color );
 1769              		.loc 1 521 0
 1770 0042 7019     		adds	r0, r6, r5
 1771 0044 2246     		mov	r2, r4
 1772 0046 4946     		mov	r1, r9
 1773 0048 00B2     		sxth	r0, r0
 1774 004a FFF7FEFF 		bl	gfx_drawPixel
ARM GAS  C:\Users\ARMAND~1\AppData\Local\Temp\cc2dQwoO.s 			page 47


 1775              	.LVL147:
 522:ssd1306.c     ****     while( x < y ){
 1776              		.loc 1 522 0
 1777 004e A81B     		subs	r0, r5, r6
 1778 0050 2246     		mov	r2, r4
 1779 0052 4946     		mov	r1, r9
 1780 0054 00B2     		sxth	r0, r0
 1781 0056 FFF7FEFF 		bl	gfx_drawPixel
 1782              	.LVL148:
 523:ssd1306.c     ****         if( f >= 0 ){
 1783              		.loc 1 523 0
 1784 005a 0023     		movs	r3, #0
 1785 005c 0293     		str	r3, [sp, #8]
 1786 005e 6B1C     		adds	r3, r5, #1
 1787 0060 0493     		str	r3, [sp, #16]
 1788 0062 6B1E     		subs	r3, r5, #1
 1789 0064 0593     		str	r3, [sp, #20]
 1790 0066 08F10103 		add	r3, r8, #1
 1791 006a 0693     		str	r3, [sp, #24]
 1792              	.LVL149:
 1793              	.L144:
 1794 006c BDF90830 		ldrsh	r3, [sp, #8]
 1795 0070 BB42     		cmp	r3, r7
 1796 0072 65DA     		bge	.L147
 524:ssd1306.c     ****             y--;
 1797              		.loc 1 524 0
 1798 0074 019B     		ldr	r3, [sp, #4]
 1799 0076 002B     		cmp	r3, #0
 1800 0078 0ADB     		blt	.L145
 526:ssd1306.c     ****             f += ddF_y;
 1801              		.loc 1 526 0
 1802 007a 039B     		ldr	r3, [sp, #12]
 525:ssd1306.c     ****             ddF_y += 2;
 1803              		.loc 1 525 0
 1804 007c 013F     		subs	r7, r7, #1
 1805              	.LVL150:
 526:ssd1306.c     ****             f += ddF_y;
 1806              		.loc 1 526 0
 1807 007e 0233     		adds	r3, r3, #2
 1808 0080 9BB2     		uxth	r3, r3
 1809 0082 1AB2     		sxth	r2, r3
 1810 0084 0392     		str	r2, [sp, #12]
 1811              	.LVL151:
 527:ssd1306.c     ****         }
 1812              		.loc 1 527 0
 1813 0086 019A     		ldr	r2, [sp, #4]
 525:ssd1306.c     ****             ddF_y += 2;
 1814              		.loc 1 525 0
 1815 0088 3FB2     		sxth	r7, r7
 1816              	.LVL152:
 527:ssd1306.c     ****         }
 1817              		.loc 1 527 0
 1818 008a 1344     		add	r3, r3, r2
 1819 008c 1BB2     		sxth	r3, r3
 1820 008e 0193     		str	r3, [sp, #4]
 1821              	.LVL153:
 1822              	.L145:
ARM GAS  C:\Users\ARMAND~1\AppData\Local\Temp\cc2dQwoO.s 			page 48


 1823 0090 BDF80890 		ldrh	r9, [sp, #8]
 1824              	.LVL154:
 531:ssd1306.c     ****         gfx_drawPixel( x0 + x, y0 + y, color );
 1825              		.loc 1 531 0
 1826 0094 019B     		ldr	r3, [sp, #4]
 532:ssd1306.c     ****         gfx_drawPixel( x0 - x, y0 + y, color );
 1827              		.loc 1 532 0
 1828 0096 BEB2     		uxth	r6, r7
 531:ssd1306.c     ****         gfx_drawPixel( x0 + x, y0 + y, color );
 1829              		.loc 1 531 0
 1830 0098 03EB4903 		add	r3, r3, r9, lsl #1
 1831 009c 0333     		adds	r3, r3, #3
 1832 009e 1BB2     		sxth	r3, r3
 1833 00a0 0193     		str	r3, [sp, #4]
 1834              	.LVL155:
 1835 00a2 049B     		ldr	r3, [sp, #16]
 532:ssd1306.c     ****         gfx_drawPixel( x0 - x, y0 + y, color );
 1836              		.loc 1 532 0
 1837 00a4 08EB060B 		add	fp, r8, r6
 1838 00a8 4B44     		add	r3, r9, r3
 1839 00aa 1BB2     		sxth	r3, r3
 1840 00ac 0FFA8BFB 		sxth	fp, fp
 1841 00b0 5946     		mov	r1, fp
 1842 00b2 1846     		mov	r0, r3
 1843 00b4 2246     		mov	r2, r4
 1844 00b6 0793     		str	r3, [sp, #28]
 1845 00b8 FFF7FEFF 		bl	gfx_drawPixel
 1846              	.LVL156:
 1847 00bc 059B     		ldr	r3, [sp, #20]
 533:ssd1306.c     ****         gfx_drawPixel( x0 + x, y0 - y, color );
 1848              		.loc 1 533 0
 1849 00be 5946     		mov	r1, fp
 1850 00c0 C9EB030A 		rsb	r10, r9, r3
 1851 00c4 0FFA8AFA 		sxth	r10, r10
 1852 00c8 5046     		mov	r0, r10
 1853 00ca 2246     		mov	r2, r4
 1854 00cc FFF7FEFF 		bl	gfx_drawPixel
 1855              	.LVL157:
 534:ssd1306.c     ****         gfx_drawPixel( x0 - x, y0 - y, color );
 1856              		.loc 1 534 0
 1857 00d0 C6EB080B 		rsb	fp, r6, r8
 1858 00d4 079B     		ldr	r3, [sp, #28]
 1859 00d6 0FFA8BFB 		sxth	fp, fp
 1860 00da 1846     		mov	r0, r3
 1861 00dc 5946     		mov	r1, fp
 1862 00de 2246     		mov	r2, r4
 1863 00e0 FFF7FEFF 		bl	gfx_drawPixel
 1864              	.LVL158:
 535:ssd1306.c     ****         gfx_drawPixel( x0 + y, y0 + x, color );
 1865              		.loc 1 535 0
 1866 00e4 5946     		mov	r1, fp
 1867 00e6 5046     		mov	r0, r10
 1868 00e8 2246     		mov	r2, r4
 1869 00ea FFF7FEFF 		bl	gfx_drawPixel
 1870              	.LVL159:
 1871 00ee 069B     		ldr	r3, [sp, #24]
 536:ssd1306.c     ****         gfx_drawPixel( x0 - y, y0 + x, color );
ARM GAS  C:\Users\ARMAND~1\AppData\Local\Temp\cc2dQwoO.s 			page 49


 1872              		.loc 1 536 0
 1873 00f0 05EB060A 		add	r10, r5, r6
 1874 00f4 09EB030B 		add	fp, r9, r3
 1875 00f8 0FFA8AFA 		sxth	r10, r10
 1876 00fc 0FFA8BFB 		sxth	fp, fp
 537:ssd1306.c     ****         gfx_drawPixel( x0 + y, y0 - x, color );
 1877              		.loc 1 537 0
 1878 0100 AE1B     		subs	r6, r5, r6
 536:ssd1306.c     ****         gfx_drawPixel( x0 - y, y0 + x, color );
 1879              		.loc 1 536 0
 1880 0102 2246     		mov	r2, r4
 1881 0104 5946     		mov	r1, fp
 1882 0106 5046     		mov	r0, r10
 537:ssd1306.c     ****         gfx_drawPixel( x0 + y, y0 - x, color );
 1883              		.loc 1 537 0
 1884 0108 36B2     		sxth	r6, r6
 536:ssd1306.c     ****         gfx_drawPixel( x0 - y, y0 + x, color );
 1885              		.loc 1 536 0
 1886 010a FFF7FEFF 		bl	gfx_drawPixel
 1887              	.LVL160:
 537:ssd1306.c     ****         gfx_drawPixel( x0 + y, y0 - x, color );
 1888              		.loc 1 537 0
 1889 010e 2246     		mov	r2, r4
 1890 0110 5946     		mov	r1, fp
 1891 0112 3046     		mov	r0, r6
 1892 0114 FFF7FEFF 		bl	gfx_drawPixel
 1893              	.LVL161:
 1894 0118 08F1FF33 		add	r3, r8, #-1
 1895 011c C9EB0309 		rsb	r9, r9, r3
 1896 0120 0FFA89F9 		sxth	r9, r9
 538:ssd1306.c     ****         gfx_drawPixel( x0 - y, y0 - x, color );
 1897              		.loc 1 538 0
 1898 0124 2246     		mov	r2, r4
 1899 0126 4946     		mov	r1, r9
 1900 0128 5046     		mov	r0, r10
 1901 012a FFF7FEFF 		bl	gfx_drawPixel
 1902              	.LVL162:
 539:ssd1306.c     ****     }
 1903              		.loc 1 539 0
 1904 012e 2246     		mov	r2, r4
 1905 0130 4946     		mov	r1, r9
 1906 0132 3046     		mov	r0, r6
 1907 0134 FFF7FEFF 		bl	gfx_drawPixel
 1908              	.LVL163:
 1909 0138 029B     		ldr	r3, [sp, #8]
 1910 013a 0133     		adds	r3, r3, #1
 1911 013c 0293     		str	r3, [sp, #8]
 1912              	.LVL164:
 1913 013e 95E7     		b	.L144
 1914              	.LVL165:
 1915              	.L147:
 541:ssd1306.c     **** 
 1916              		.loc 1 541 0
 1917 0140 09B0     		add	sp, sp, #36
 1918              		.cfi_def_cfa_offset 36
 1919              		@ sp needed
 1920 0142 BDE8F08F 		pop	{r4, r5, r6, r7, r8, r9, r10, fp, pc}
ARM GAS  C:\Users\ARMAND~1\AppData\Local\Temp\cc2dQwoO.s 			page 50


 1921              		.cfi_endproc
 1922              	.LFE89:
 1923              		.size	gfx_drawCircle, .-gfx_drawCircle
 1924              		.section	.text.gfx_drawTriangle,"ax",%progbits
 1925              		.align	1
 1926              		.global	gfx_drawTriangle
 1927              		.thumb
 1928              		.thumb_func
 1929              		.type	gfx_drawTriangle, %function
 1930              	gfx_drawTriangle:
 1931              	.LFB90:
 543:ssd1306.c     ****     
 1932              		.loc 1 543 0
 1933              		.cfi_startproc
 1934              		@ args = 12, pretend = 0, frame = 0
 1935              		@ frame_needed = 0, uses_anonymous_args = 0
 1936              	.LVL166:
 1937 0000 2DE9F347 		push	{r0, r1, r4, r5, r6, r7, r8, r9, r10, lr}
 1938              		.cfi_def_cfa_offset 40
 1939              		.cfi_offset 4, -32
 1940              		.cfi_offset 5, -28
 1941              		.cfi_offset 6, -24
 1942              		.cfi_offset 7, -20
 1943              		.cfi_offset 8, -16
 1944              		.cfi_offset 9, -12
 1945              		.cfi_offset 10, -8
 1946              		.cfi_offset 14, -4
 543:ssd1306.c     ****     
 1947              		.loc 1 543 0
 1948 0004 9146     		mov	r9, r2
 1949 0006 9A46     		mov	r10, r3
 1950 0008 0746     		mov	r7, r0
 1951 000a 8846     		mov	r8, r1
 1952 000c BDF83040 		ldrh	r4, [sp, #48]
 1953 0010 BDF92850 		ldrsh	r5, [sp, #40]
 1954 0014 BDF92C60 		ldrsh	r6, [sp, #44]
 545:ssd1306.c     ****     gfx_drawLine( x1, y1, x2, y2, color );
 1955              		.loc 1 545 0
 1956 0018 0094     		str	r4, [sp]
 1957 001a FFF7FEFF 		bl	gfx_drawLine
 1958              	.LVL167:
 546:ssd1306.c     ****     gfx_drawLine( x2, y2, x0, y0, color );
 1959              		.loc 1 546 0
 1960 001e 3346     		mov	r3, r6
 1961 0020 2A46     		mov	r2, r5
 1962 0022 5146     		mov	r1, r10
 1963 0024 4846     		mov	r0, r9
 1964 0026 0094     		str	r4, [sp]
 1965 0028 FFF7FEFF 		bl	gfx_drawLine
 1966              	.LVL168:
 547:ssd1306.c     **** }
 1967              		.loc 1 547 0
 1968 002c 4346     		mov	r3, r8
 1969 002e 3A46     		mov	r2, r7
 1970 0030 3146     		mov	r1, r6
 1971 0032 2846     		mov	r0, r5
 1972 0034 0A94     		str	r4, [sp, #40]
ARM GAS  C:\Users\ARMAND~1\AppData\Local\Temp\cc2dQwoO.s 			page 51


 548:ssd1306.c     **** 
 1973              		.loc 1 548 0
 1974 0036 02B0     		add	sp, sp, #8
 1975              		.cfi_def_cfa_offset 32
 1976              		@ sp needed
 1977 0038 BDE8F047 		pop	{r4, r5, r6, r7, r8, r9, r10, lr}
 1978              		.cfi_restore 14
 1979              		.cfi_restore 10
 1980              		.cfi_restore 9
 1981              		.cfi_restore 8
 1982              		.cfi_restore 7
 1983              		.cfi_restore 6
 1984              		.cfi_restore 5
 1985              		.cfi_restore 4
 1986              		.cfi_def_cfa_offset 0
 1987              	.LVL169:
 547:ssd1306.c     **** }
 1988              		.loc 1 547 0
 1989 003c FFF7FEBF 		b	gfx_drawLine
 1990              	.LVL170:
 1991              		.cfi_endproc
 1992              	.LFE90:
 1993              		.size	gfx_drawTriangle, .-gfx_drawTriangle
 1994              		.section	.text.gfx_drawChar,"ax",%progbits
 1995              		.align	1
 1996              		.global	gfx_drawChar
 1997              		.thumb
 1998              		.thumb_func
 1999              		.type	gfx_drawChar, %function
 2000              	gfx_drawChar:
 2001              	.LFB91:
 552:ssd1306.c     ****     if( (x >= _width) || // Clip right
 2002              		.loc 1 552 0
 2003              		.cfi_startproc
 2004              		@ args = 8, pretend = 0, frame = 40
 2005              		@ frame_needed = 0, uses_anonymous_args = 0
 2006              	.LVL171:
 2007 0000 2DE9F04F 		push	{r4, r5, r6, r7, r8, r9, r10, fp, lr}
 2008              		.cfi_def_cfa_offset 36
 2009              		.cfi_offset 4, -36
 2010              		.cfi_offset 5, -32
 2011              		.cfi_offset 6, -28
 2012              		.cfi_offset 7, -24
 2013              		.cfi_offset 8, -20
 2014              		.cfi_offset 9, -16
 2015              		.cfi_offset 10, -12
 2016              		.cfi_offset 11, -8
 2017              		.cfi_offset 14, -4
 2018 0004 8DB0     		sub	sp, sp, #52
 2019              		.cfi_def_cfa_offset 88
 552:ssd1306.c     ****     if( (x >= _width) || // Clip right
 2020              		.loc 1 552 0
 2021 0006 0593     		str	r3, [sp, #20]
 2022 0008 BDF85830 		ldrh	r3, [sp, #88]
 2023              	.LVL172:
 2024 000c 8A46     		mov	r10, r1
 2025 000e 0693     		str	r3, [sp, #24]
ARM GAS  C:\Users\ARMAND~1\AppData\Local\Temp\cc2dQwoO.s 			page 52


 553:ssd1306.c     ****         (y >= _height) || // Clip bottom
 2026              		.loc 1 553 0
 2027 0010 3A4B     		ldr	r3, .L164
 552:ssd1306.c     ****     if( (x >= _width) || // Clip right
 2028              		.loc 1 552 0
 2029 0012 0490     		str	r0, [sp, #16]
 553:ssd1306.c     ****         (y >= _height) || // Clip bottom
 2030              		.loc 1 553 0
 2031 0014 B3F90810 		ldrsh	r1, [r3, #8]
 2032              	.LVL173:
 552:ssd1306.c     ****     if( (x >= _width) || // Clip right
 2033              		.loc 1 552 0
 2034 0018 9DF85C70 		ldrb	r7, [sp, #92]	@ zero_extendqisi2
 553:ssd1306.c     ****         (y >= _height) || // Clip bottom
 2035              		.loc 1 553 0
 2036 001c 8142     		cmp	r1, r0
 2037 001e 69DD     		ble	.L149
 553:ssd1306.c     ****         (y >= _height) || // Clip bottom
 2038              		.loc 1 553 0 is_stmt 0 discriminator 1
 2039 0020 B3F90A30 		ldrsh	r3, [r3, #10]
 2040 0024 5345     		cmp	r3, r10
 2041 0026 65DD     		ble	.L149
 554:ssd1306.c     ****         ((x + 6 * size - 1) < 0) || // Clip left
 2042              		.loc 1 554 0 is_stmt 1
 2043 0028 0623     		movs	r3, #6
 2044 002a 03FB0701 		mla	r1, r3, r7, r0
 2045 002e 0029     		cmp	r1, #0
 2046 0030 60DD     		ble	.L149
 555:ssd1306.c     ****         ((y + 8 * size - 1) < 0)) // Clip top
 2047              		.loc 1 555 0
 2048 0032 0AEBC701 		add	r1, r10, r7, lsl #3
 2049 0036 0029     		cmp	r1, #0
 2050 0038 5CDD     		ble	.L149
 2051              	.LBB56:
 2052              	.LBB57:
 2053              	.LBB58:
 565:ssd1306.c     ****         int8_t j = 0;
 2054              		.loc 1 565 0
 2055 003a 0893     		str	r3, [sp, #32]
 2056 003c 304B     		ldr	r3, .L164+4
 2057 003e 02EB8202 		add	r2, r2, r2, lsl #2
 2058              	.LVL174:
 2059 0042 1344     		add	r3, r3, r2
 2060 0044 0025     		movs	r5, #0
 2061 0046 0B93     		str	r3, [sp, #44]
 2062              	.LVL175:
 2063              	.L158:
 2064 0048 1FFA8AF4 		uxth	r4, r10
 572:ssd1306.c     ****                 }
 2065              		.loc 1 572 0
 2066 004c 2646     		mov	r6, r4
 562:ssd1306.c     ****             line = 0x0;
 2067              		.loc 1 562 0
 2068 004e 052D     		cmp	r5, #5
 565:ssd1306.c     ****         int8_t j = 0;
 2069              		.loc 1 565 0
 2070 0050 18BF     		it	ne
ARM GAS  C:\Users\ARMAND~1\AppData\Local\Temp\cc2dQwoO.s 			page 53


 2071 0052 0B9B     		ldrne	r3, [sp, #44]
 572:ssd1306.c     ****                 }
 2072              		.loc 1 572 0
 2073 0054 AAB2     		uxth	r2, r5
 565:ssd1306.c     ****         int8_t j = 0;
 2074              		.loc 1 565 0
 2075 0056 1CBF     		itt	ne
 2076 0058 5B19     		addne	r3, r3, r5
 2077 005a 93F82190 		ldrbne	r9, [r3, #33]	@ zero_extendqisi2
 2078              	.LVL176:
 572:ssd1306.c     ****                 }
 2079              		.loc 1 572 0
 2080 005e BDF81030 		ldrh	r3, [sp, #16]
 2081 0062 1FFA87FB 		uxth	fp, r7
 2082 0066 0BFB0231 		mla	r1, fp, r2, r3
 2083 006a 09B2     		sxth	r1, r1
 2084 006c 0791     		str	r1, [sp, #28]
 576:ssd1306.c     ****                 else { // big size
 2085              		.loc 1 576 0
 2086 006e 1344     		add	r3, r3, r2
 2087 0070 04F10801 		add	r1, r4, #8
 2088 0074 89B2     		uxth	r1, r1
 2089 0076 1BB2     		sxth	r3, r3
 563:ssd1306.c     ****         else
 2090              		.loc 1 563 0
 2091 0078 08BF     		it	eq
 2092 007a 4FF00009 		moveq	r9, #0
 2093              	.LVL177:
 2094 007e 0A91     		str	r1, [sp, #40]
 572:ssd1306.c     ****                 }
 2095              		.loc 1 572 0
 2096 0080 0394     		str	r4, [sp, #12]
 578:ssd1306.c     ****                 }
 2097              		.loc 1 578 0
 2098 0082 0FFA87F8 		sxth	r8, r7
 576:ssd1306.c     ****                 else { // big size
 2099              		.loc 1 576 0
 2100 0086 0993     		str	r3, [sp, #36]
 2101              	.LVL178:
 2102              	.L157:
 568:ssd1306.c     ****                 if( size == 1 ) // default size
 2103              		.loc 1 568 0
 2104 0088 19F0010F 		tst	r9, #1
 2105 008c 0AD0     		beq	.L153
 569:ssd1306.c     ****                     gfx_drawPixel( x+i, y+j, color );
 2106              		.loc 1 569 0
 2107 008e 012F     		cmp	r7, #1
 2108 0090 01D1     		bne	.L154
 570:ssd1306.c     ****                 else { // big size
 2109              		.loc 1 570 0
 2110 0092 059A     		ldr	r2, [sp, #20]
 2111 0094 0CE0     		b	.L162
 2112              	.L154:
 572:ssd1306.c     ****                 }
 2113              		.loc 1 572 0
 2114 0096 059B     		ldr	r3, [sp, #20]
 2115 0098 4246     		mov	r2, r8
ARM GAS  C:\Users\ARMAND~1\AppData\Local\Temp\cc2dQwoO.s 			page 54


 2116 009a 0093     		str	r3, [sp]
 2117 009c BDF90C10 		ldrsh	r1, [sp, #12]
 2118 00a0 4346     		mov	r3, r8
 2119 00a2 0FE0     		b	.L163
 2120              	.L153:
 574:ssd1306.c     ****                 if( size == 1 ) // default size
 2121              		.loc 1 574 0
 2122 00a4 059B     		ldr	r3, [sp, #20]
 2123 00a6 069A     		ldr	r2, [sp, #24]
 2124 00a8 9342     		cmp	r3, r2
 2125 00aa 0ED0     		beq	.L155
 575:ssd1306.c     ****                     gfx_drawPixel( x+i, y+j, bg );
 2126              		.loc 1 575 0
 2127 00ac 012F     		cmp	r7, #1
 2128 00ae 04D1     		bne	.L156
 2129              	.L162:
 576:ssd1306.c     ****                 else { // big size
 2130              		.loc 1 576 0
 2131 00b0 31B2     		sxth	r1, r6
 2132 00b2 0998     		ldr	r0, [sp, #36]
 2133 00b4 FFF7FEFF 		bl	gfx_drawPixel
 2134              	.LVL179:
 2135 00b8 07E0     		b	.L155
 2136              	.L156:
 578:ssd1306.c     ****                 }
 2137              		.loc 1 578 0
 2138 00ba 069B     		ldr	r3, [sp, #24]
 2139 00bc 4246     		mov	r2, r8
 2140 00be 0093     		str	r3, [sp]
 2141 00c0 4346     		mov	r3, r8
 2142 00c2 21B2     		sxth	r1, r4
 2143              	.L163:
 2144 00c4 0798     		ldr	r0, [sp, #28]
 2145 00c6 FFF7FEFF 		bl	gfx_fillRect
 2146              	.LVL180:
 2147              	.L155:
 2148 00ca 039B     		ldr	r3, [sp, #12]
 2149 00cc 0136     		adds	r6, r6, #1
 2150 00ce 5B44     		add	r3, r3, fp
 2151 00d0 9BB2     		uxth	r3, r3
 2152 00d2 0393     		str	r3, [sp, #12]
 567:ssd1306.c     ****             if( line & 0x1 ){
 2153              		.loc 1 567 0
 2154 00d4 0A9B     		ldr	r3, [sp, #40]
 2155 00d6 B6B2     		uxth	r6, r6
 2156 00d8 5C44     		add	r4, r4, fp
 2157 00da 9E42     		cmp	r6, r3
 581:ssd1306.c     ****         }
 2158              		.loc 1 581 0
 2159 00dc 4FEA5909 		lsr	r9, r9, #1
 2160              	.LVL181:
 2161 00e0 A4B2     		uxth	r4, r4
 567:ssd1306.c     ****             if( line & 0x1 ){
 2162              		.loc 1 567 0
 2163 00e2 D1D1     		bne	.L157
 2164 00e4 089B     		ldr	r3, [sp, #32]
 2165              	.LBE58:
ARM GAS  C:\Users\ARMAND~1\AppData\Local\Temp\cc2dQwoO.s 			page 55


 560:ssd1306.c     ****         uint8_t line;
 2166              		.loc 1 560 0
 2167 00e6 0135     		adds	r5, r5, #1
 2168              	.LVL182:
 2169 00e8 013B     		subs	r3, r3, #1
 2170 00ea 13F0FF03 		ands	r3, r3, #255
 2171 00ee 6DB2     		sxtb	r5, r5
 2172              	.LVL183:
 2173 00f0 0893     		str	r3, [sp, #32]
 2174 00f2 A9D1     		bne	.L158
 2175              	.LVL184:
 2176              	.L149:
 2177              	.LBE57:
 2178              	.LBE56:
 584:ssd1306.c     **** 
 2179              		.loc 1 584 0
 2180 00f4 0DB0     		add	sp, sp, #52
 2181              		.cfi_def_cfa_offset 36
 2182              		@ sp needed
 2183 00f6 BDE8F08F 		pop	{r4, r5, r6, r7, r8, r9, r10, fp, pc}
 2184              	.LVL185:
 2185              	.L165:
 2186 00fa 00BF     		.align	2
 2187              	.L164:
 2188 00fc 00000000 		.word	.LANCHOR0
 2189 0100 00000000 		.word	.LANCHOR2
 2190              		.cfi_endproc
 2191              	.LFE91:
 2192              		.size	gfx_drawChar, .-gfx_drawChar
 2193              		.section	.text.gfx_write,"ax",%progbits
 2194              		.align	1
 2195              		.global	gfx_write
 2196              		.thumb
 2197              		.thumb_func
 2198              		.type	gfx_write, %function
 2199              	gfx_write:
 2200              	.LFB92:
 586:ssd1306.c     ****     if( ch == '\n' ){
 2201              		.loc 1 586 0
 2202              		.cfi_startproc
 2203              		@ args = 0, pretend = 0, frame = 0
 2204              		@ frame_needed = 0, uses_anonymous_args = 0
 2205              	.LVL186:
 587:ssd1306.c     ****         cursor_y += textsize*8;
 2206              		.loc 1 587 0
 2207 0000 0A28     		cmp	r0, #10
 586:ssd1306.c     ****     if( ch == '\n' ){
 2208              		.loc 1 586 0
 2209 0002 F7B5     		push	{r0, r1, r2, r4, r5, r6, r7, lr}
 2210              		.cfi_def_cfa_offset 32
 2211              		.cfi_offset 4, -20
 2212              		.cfi_offset 5, -16
 2213              		.cfi_offset 6, -12
 2214              		.cfi_offset 7, -8
 2215              		.cfi_offset 14, -4
 586:ssd1306.c     ****     if( ch == '\n' ){
 2216              		.loc 1 586 0
ARM GAS  C:\Users\ARMAND~1\AppData\Local\Temp\cc2dQwoO.s 			page 56


 2217 0004 0246     		mov	r2, r0
 587:ssd1306.c     ****         cursor_y += textsize*8;
 2218              		.loc 1 587 0
 2219 0006 04D1     		bne	.L167
 590:ssd1306.c     ****     }else if( ch == '\r' ){
 591:ssd1306.c     ****         // skip em
 592:ssd1306.c     ****     }else{
 593:ssd1306.c     ****         gfx_drawChar(cursor_x, cursor_y, ch, textcolor, textbgcolor, textsize);
 594:ssd1306.c     ****         cursor_x += textsize*6;
 595:ssd1306.c     ****         if( wrap && (cursor_x > (_width - textsize*6)) ){
 596:ssd1306.c     ****             cursor_y += textsize*8;
 597:ssd1306.c     ****             cursor_x = 0;
 598:ssd1306.c     ****         }
 599:ssd1306.c     ****     }
 600:ssd1306.c     **** }
 2220              		.loc 1 600 0
 2221 0008 03B0     		add	sp, sp, #12
 2222              		.cfi_remember_state
 2223              		.cfi_def_cfa_offset 20
 2224              		@ sp needed
 2225 000a BDE8F040 		pop	{r4, r5, r6, r7, lr}
 2226              		.cfi_restore 14
 2227              		.cfi_restore 7
 2228              		.cfi_restore 6
 2229              		.cfi_restore 5
 2230              		.cfi_restore 4
 2231              		.cfi_def_cfa_offset 0
 2232 000e FFF7FEBF 		b	gfx_write.part.3
 2233              	.LVL187:
 2234              	.L167:
 2235              		.cfi_restore_state
 590:ssd1306.c     ****     }else if( ch == '\r' ){
 2236              		.loc 1 590 0
 2237 0012 0D28     		cmp	r0, #13
 2238 0014 24D0     		beq	.L166
 593:ssd1306.c     ****         cursor_x += textsize*6;
 2239              		.loc 1 593 0
 2240 0016 134C     		ldr	r4, .L174
 2241 0018 B4F90650 		ldrsh	r5, [r4, #6]
 2242 001c 2679     		ldrb	r6, [r4, #4]	@ zero_extendqisi2
 2243 001e A189     		ldrh	r1, [r4, #12]
 2244 0020 B4F90270 		ldrsh	r7, [r4, #2]
 2245 0024 E389     		ldrh	r3, [r4, #14]
 2246 0026 0091     		str	r1, [sp]
 2247 0028 2846     		mov	r0, r5
 2248              	.LVL188:
 2249 002a 0196     		str	r6, [sp, #4]
 2250 002c 3946     		mov	r1, r7
 2251 002e FFF7FEFF 		bl	gfx_drawChar
 2252              	.LVL189:
 594:ssd1306.c     ****         if( wrap && (cursor_x > (_width - textsize*6)) ){
 2253              		.loc 1 594 0
 2254 0032 B3B2     		uxth	r3, r6
 2255 0034 03EB4302 		add	r2, r3, r3, lsl #1
 2256 0038 05EB4205 		add	r5, r5, r2, lsl #1
 595:ssd1306.c     ****             cursor_y += textsize*8;
 2257              		.loc 1 595 0
ARM GAS  C:\Users\ARMAND~1\AppData\Local\Temp\cc2dQwoO.s 			page 57


 2258 003c 0A4A     		ldr	r2, .L174+4
 594:ssd1306.c     ****         if( wrap && (cursor_x > (_width - textsize*6)) ){
 2259              		.loc 1 594 0
 2260 003e 2DB2     		sxth	r5, r5
 595:ssd1306.c     ****             cursor_y += textsize*8;
 2261              		.loc 1 595 0
 2262 0040 1278     		ldrb	r2, [r2]	@ zero_extendqisi2
 594:ssd1306.c     ****         if( wrap && (cursor_x > (_width - textsize*6)) ){
 2263              		.loc 1 594 0
 2264 0042 E580     		strh	r5, [r4, #6]	@ movhi
 595:ssd1306.c     ****             cursor_y += textsize*8;
 2265              		.loc 1 595 0
 2266 0044 62B1     		cbz	r2, .L166
 595:ssd1306.c     ****             cursor_y += textsize*8;
 2267              		.loc 1 595 0 is_stmt 0 discriminator 1
 2268 0046 B4F90820 		ldrsh	r2, [r4, #8]
 2269 004a 6FF00501 		mvn	r1, #5
 2270 004e 01FB0626 		mla	r6, r1, r6, r2
 2271 0052 B542     		cmp	r5, r6
 596:ssd1306.c     ****             cursor_x = 0;
 2272              		.loc 1 596 0 is_stmt 1 discriminator 1
 2273 0054 C1BF     		itttt	gt
 2274 0056 07EBC307 		addgt	r7, r7, r3, lsl #3
 597:ssd1306.c     ****         }
 2275              		.loc 1 597 0 discriminator 1
 2276 005a 0023     		movgt	r3, #0
 596:ssd1306.c     ****             cursor_x = 0;
 2277              		.loc 1 596 0 discriminator 1
 2278 005c 6780     		strhgt	r7, [r4, #2]	@ movhi
 597:ssd1306.c     ****         }
 2279              		.loc 1 597 0 discriminator 1
 2280 005e E380     		strhgt	r3, [r4, #6]	@ movhi
 2281              	.L166:
 2282              		.loc 1 600 0
 2283 0060 03B0     		add	sp, sp, #12
 2284              		.cfi_def_cfa_offset 20
 2285              		@ sp needed
 2286 0062 F0BD     		pop	{r4, r5, r6, r7, pc}
 2287              	.L175:
 2288              		.align	2
 2289              	.L174:
 2290 0064 00000000 		.word	.LANCHOR0
 2291 0068 00000000 		.word	wrap
 2292              		.cfi_endproc
 2293              	.LFE92:
 2294              		.size	gfx_write, .-gfx_write
 2295              		.section	.text.gfx_writechar,"ax",%progbits
 2296              		.align	1
 2297              		.global	gfx_writechar
 2298              		.thumb
 2299              		.thumb_func
 2300              		.type	gfx_writechar, %function
 2301              	gfx_writechar:
 2302              	.LFB93:
 601:ssd1306.c     **** 
 602:ssd1306.c     **** void gfx_writechar(char ch){
 2303              		.loc 1 602 0
ARM GAS  C:\Users\ARMAND~1\AppData\Local\Temp\cc2dQwoO.s 			page 58


 2304              		.cfi_startproc
 2305              		@ args = 0, pretend = 0, frame = 0
 2306              		@ frame_needed = 0, uses_anonymous_args = 0
 2307              		@ link register save eliminated.
 2308              	.LVL190:
 603:ssd1306.c     ****     gfx_write(ch);
 2309              		.loc 1 603 0
 2310 0000 FFF7FEBF 		b	gfx_write
 2311              	.LVL191:
 2312              		.cfi_endproc
 2313              	.LFE93:
 2314              		.size	gfx_writechar, .-gfx_writechar
 2315              		.section	.text.gfx_print,"ax",%progbits
 2316              		.align	1
 2317              		.global	gfx_print
 2318              		.thumb
 2319              		.thumb_func
 2320              		.type	gfx_print, %function
 2321              	gfx_print:
 2322              	.LFB94:
 604:ssd1306.c     **** }
 605:ssd1306.c     **** 
 606:ssd1306.c     **** void gfx_print( const char* s ){
 2323              		.loc 1 606 0
 2324              		.cfi_startproc
 2325              		@ args = 0, pretend = 0, frame = 0
 2326              		@ frame_needed = 0, uses_anonymous_args = 0
 2327              	.LVL192:
 2328 0000 38B5     		push	{r3, r4, r5, lr}
 2329              		.cfi_def_cfa_offset 16
 2330              		.cfi_offset 3, -16
 2331              		.cfi_offset 4, -12
 2332              		.cfi_offset 5, -8
 2333              		.cfi_offset 14, -4
 2334              		.loc 1 606 0
 2335 0002 0446     		mov	r4, r0
 607:ssd1306.c     ****     
 608:ssd1306.c     ****     unsigned int len = strlen( s );
 2336              		.loc 1 608 0
 2337 0004 FFF7FEFF 		bl	strlen
 2338              	.LVL193:
 2339 0008 2518     		adds	r5, r4, r0
 2340              	.LVL194:
 2341              	.L178:
 609:ssd1306.c     ****     unsigned int i = 0; 
 610:ssd1306.c     ****     for( i = 0 ; i < len ; i++ ){
 2342              		.loc 1 610 0 discriminator 1
 2343 000a AC42     		cmp	r4, r5
 2344 000c 04D0     		beq	.L180
 611:ssd1306.c     ****         gfx_write( s[i] );
 2345              		.loc 1 611 0 discriminator 3
 2346 000e 14F8010B 		ldrb	r0, [r4], #1	@ zero_extendqisi2
 2347              	.LVL195:
 2348 0012 FFF7FEFF 		bl	gfx_write
 2349              	.LVL196:
 2350 0016 F8E7     		b	.L178
 2351              	.L180:
ARM GAS  C:\Users\ARMAND~1\AppData\Local\Temp\cc2dQwoO.s 			page 59


 612:ssd1306.c     ****     }
 613:ssd1306.c     **** }
 2352              		.loc 1 613 0
 2353 0018 38BD     		pop	{r3, r4, r5, pc}
 2354              		.cfi_endproc
 2355              	.LFE94:
 2356              		.size	gfx_print, .-gfx_print
 2357              		.section	.text.gfx_println,"ax",%progbits
 2358              		.align	1
 2359              		.global	gfx_println
 2360              		.thumb
 2361              		.thumb_func
 2362              		.type	gfx_println, %function
 2363              	gfx_println:
 2364              	.LFB95:
 614:ssd1306.c     **** 
 615:ssd1306.c     **** void gfx_println( const char* s ){ 
 2365              		.loc 1 615 0
 2366              		.cfi_startproc
 2367              		@ args = 0, pretend = 0, frame = 0
 2368              		@ frame_needed = 0, uses_anonymous_args = 0
 2369              	.LVL197:
 2370 0000 08B5     		push	{r3, lr}
 2371              		.cfi_def_cfa_offset 8
 2372              		.cfi_offset 3, -8
 2373              		.cfi_offset 14, -4
 616:ssd1306.c     ****     gfx_print( s ); 
 2374              		.loc 1 616 0
 2375 0002 FFF7FEFF 		bl	gfx_print
 2376              	.LVL198:
 617:ssd1306.c     ****     gfx_write( '\n' );
 618:ssd1306.c     **** }
 2377              		.loc 1 618 0
 2378 0006 BDE80840 		pop	{r3, lr}
 2379              		.cfi_restore 14
 2380              		.cfi_restore 3
 2381              		.cfi_def_cfa_offset 0
 2382              	.LBB59:
 2383              	.LBB60:
 2384 000a FFF7FEBF 		b	gfx_write.part.3
 2385              	.LVL199:
 2386              	.LBE60:
 2387              	.LBE59:
 2388              		.cfi_endproc
 2389              	.LFE95:
 2390              		.size	gfx_println, .-gfx_println
 2391              		.section	.text.drawBitmap,"ax",%progbits
 2392              		.align	1
 2393              		.global	drawBitmap
 2394              		.thumb
 2395              		.thumb_func
 2396              		.type	drawBitmap, %function
 2397              	drawBitmap:
 2398              	.LFB96:
 619:ssd1306.c     **** 
 620:ssd1306.c     **** void drawBitmap(int x, int y,
 621:ssd1306.c     ****  const unsigned int *bitmap, int w, int h, int color) {
ARM GAS  C:\Users\ARMAND~1\AppData\Local\Temp\cc2dQwoO.s 			page 60


 2399              		.loc 1 621 0
 2400              		.cfi_startproc
 2401              		@ args = 8, pretend = 0, frame = 16
 2402              		@ frame_needed = 0, uses_anonymous_args = 0
 2403              	.LVL200:
 2404 0000 2DE9F04F 		push	{r4, r5, r6, r7, r8, r9, r10, fp, lr}
 2405              		.cfi_def_cfa_offset 36
 2406              		.cfi_offset 4, -36
 2407              		.cfi_offset 5, -32
 2408              		.cfi_offset 6, -28
 2409              		.cfi_offset 7, -24
 2410              		.cfi_offset 8, -20
 2411              		.cfi_offset 9, -16
 2412              		.cfi_offset 10, -12
 2413              		.cfi_offset 11, -8
 2414              		.cfi_offset 14, -4
 2415 0004 9346     		mov	fp, r2
 2416 0006 9846     		mov	r8, r3
 622:ssd1306.c     **** 
 623:ssd1306.c     ****   int16_t i, j, byteWidth = (w + 7) / 8; //7
 2417              		.loc 1 623 0
 2418 0008 0822     		movs	r2, #8
 2419              	.LVL201:
 2420 000a 0733     		adds	r3, r3, #7
 2421              	.LVL202:
 2422 000c 93FBF2F3 		sdiv	r3, r3, r2
 621:ssd1306.c     **** 
 2423              		.loc 1 621 0
 2424 0010 8246     		mov	r10, r0
 2425 0012 8946     		mov	r9, r1
 2426 0014 85B0     		sub	sp, sp, #20
 2427              		.cfi_def_cfa_offset 56
 2428              		.loc 1 623 0
 2429 0016 1BB2     		sxth	r3, r3
 2430 0018 0093     		str	r3, [sp]
 2431              	.LVL203:
 624:ssd1306.c     ****   uint8_t byte;
 625:ssd1306.c     **** 
 626:ssd1306.c     ****   for(j=0; j<h; j++) {
 627:ssd1306.c     ****     for(i=0; i<w; i++ ) {
 628:ssd1306.c     ****       if(i & 3) byte <<= 1; //7
 629:ssd1306.c     ****       else      byte   = bitmap[j * byteWidth + i / 8];
 630:ssd1306.c     ****       if(byte & 0x80) gfx_drawPixel(x+i, y+j, color);
 2432              		.loc 1 630 0
 2433 001a BDF83C30 		ldrh	r3, [sp, #60]
 626:ssd1306.c     ****     for(i=0; i<w; i++ ) {
 2434              		.loc 1 626 0
 2435 001e 0025     		movs	r5, #0
 629:ssd1306.c     ****       if(byte & 0x80) gfx_drawPixel(x+i, y+j, color);
 2436              		.loc 1 629 0
 2437 0020 0292     		str	r2, [sp, #8]
 2438              	.LVL204:
 2439              	.L183:
 626:ssd1306.c     ****     for(i=0; i<w; i++ ) {
 2440              		.loc 1 626 0 discriminator 1
 2441 0022 0E99     		ldr	r1, [sp, #56]
 2442 0024 2AB2     		sxth	r2, r5
ARM GAS  C:\Users\ARMAND~1\AppData\Local\Temp\cc2dQwoO.s 			page 61


 2443              	.LVL205:
 2444 0026 8A42     		cmp	r2, r1
 2445 0028 24DA     		bge	.L182
 2446 002a 0099     		ldr	r1, [sp]
 629:ssd1306.c     ****       if(byte & 0x80) gfx_drawPixel(x+i, y+j, color);
 2447              		.loc 1 629 0
 2448 002c 0026     		movs	r6, #0
 2449 002e 4A43     		muls	r2, r1, r2
 2450              	.LVL206:
 2451 0030 0192     		str	r2, [sp, #4]
 2452              		.loc 1 630 0
 2453 0032 09EB0502 		add	r2, r9, r5
 2454 0036 17B2     		sxth	r7, r2
 2455              	.L189:
 2456 0038 32B2     		sxth	r2, r6
 2457              	.LVL207:
 627:ssd1306.c     ****       if(i & 3) byte <<= 1; //7
 2458              		.loc 1 627 0 discriminator 1
 2459 003a 9045     		cmp	r8, r2
 2460 003c 18DD     		ble	.L190
 628:ssd1306.c     ****       else      byte   = bitmap[j * byteWidth + i / 8];
 2461              		.loc 1 628 0
 2462 003e B0B2     		uxth	r0, r6
 2463 0040 8107     		lsls	r1, r0, #30
 629:ssd1306.c     ****       if(byte & 0x80) gfx_drawPixel(x+i, y+j, color);
 2464              		.loc 1 629 0
 2465 0042 09BF     		itett	eq
 2466 0044 0299     		ldreq	r1, [sp, #8]
 628:ssd1306.c     ****       else      byte   = bitmap[j * byteWidth + i / 8];
 2467              		.loc 1 628 0
 2468 0046 6400     		lslne	r4, r4, #1
 2469              	.LVL208:
 629:ssd1306.c     ****       if(byte & 0x80) gfx_drawPixel(x+i, y+j, color);
 2470              		.loc 1 629 0
 2471 0048 92FBF1F2 		sdiveq	r2, r2, r1
 2472              	.LVL209:
 2473 004c 0199     		ldreq	r1, [sp, #4]
 628:ssd1306.c     ****       else      byte   = bitmap[j * byteWidth + i / 8];
 2474              		.loc 1 628 0
 2475 004e 12BF     		itee	ne
 2476 0050 E4B2     		uxtbne	r4, r4
 2477              	.LVL210:
 629:ssd1306.c     ****       if(byte & 0x80) gfx_drawPixel(x+i, y+j, color);
 2478              		.loc 1 629 0
 2479 0052 5218     		addeq	r2, r2, r1
 2480 0054 1BF82240 		ldrbeq	r4, [fp, r2, lsl #2]	@ zero_extendqisi2
 2481              	.LVL211:
 2482              		.loc 1 630 0
 2483 0058 2206     		lsls	r2, r4, #24
 2484 005a 07D5     		bpl	.L186
 2485              		.loc 1 630 0 is_stmt 0 discriminator 1
 2486 005c 5044     		add	r0, r0, r10
 2487 005e 1A46     		mov	r2, r3
 2488 0060 3946     		mov	r1, r7
 2489 0062 00B2     		sxth	r0, r0
 2490 0064 0393     		str	r3, [sp, #12]
 2491 0066 FFF7FEFF 		bl	gfx_drawPixel
ARM GAS  C:\Users\ARMAND~1\AppData\Local\Temp\cc2dQwoO.s 			page 62


 2492              	.LVL212:
 2493 006a 039B     		ldr	r3, [sp, #12]
 2494              	.L186:
 2495              	.LVL213:
 2496 006c 0136     		adds	r6, r6, #1
 2497              	.LVL214:
 2498 006e E3E7     		b	.L189
 2499              	.LVL215:
 2500              	.L190:
 2501 0070 0135     		adds	r5, r5, #1
 2502              	.LVL216:
 2503 0072 D6E7     		b	.L183
 2504              	.LVL217:
 2505              	.L182:
 631:ssd1306.c     ****     }
 632:ssd1306.c     ****   }
 633:ssd1306.c     **** }
 2506              		.loc 1 633 0 is_stmt 1
 2507 0074 05B0     		add	sp, sp, #20
 2508              		.cfi_def_cfa_offset 36
 2509              	.LVL218:
 2510              		@ sp needed
 2511 0076 BDE8F08F 		pop	{r4, r5, r6, r7, r8, r9, r10, fp, pc}
 2512              		.cfi_endproc
 2513              	.LFE96:
 2514              		.size	drawBitmap, .-drawBitmap
 2515              		.comm	wrap,1,1
 2516              		.comm	rotation,1,1
 2517              		.comm	HEIGHT,2,2
 2518              		.comm	WIDTH,2,2
 2519              		.section	.rodata
 2520              		.set	.LANCHOR2,. + 0
 2521              	.LC1:
 2522 0000 00       		.byte	0
 2523 0001 21       		.byte	33
 2524 0002 00       		.byte	0
 2525 0003 7F       		.byte	127
 2526 0004 22       		.byte	34
 2527 0005 00       		.byte	0
 2528 0006 07       		.byte	7
 2529              	.LC0:
 2530 0007 00       		.byte	0
 2531 0008 AE       		.byte	-82
 2532 0009 D5       		.byte	-43
 2533 000a 80       		.byte	-128
 2534 000b A8       		.byte	-88
 2535 000c 3F       		.byte	63
 2536 000d D3       		.byte	-45
 2537 000e 00       		.byte	0
 2538 000f 40       		.byte	64
 2539 0010 8D       		.byte	-115
 2540 0011 14       		.byte	20
 2541 0012 20       		.byte	32
 2542 0013 00       		.byte	0
 2543 0014 A1       		.byte	-95
 2544 0015 C8       		.byte	-56
 2545 0016 DA       		.byte	-38
ARM GAS  C:\Users\ARMAND~1\AppData\Local\Temp\cc2dQwoO.s 			page 63


 2546 0017 12       		.byte	18
 2547 0018 81       		.byte	-127
 2548 0019 CF       		.byte	-49
 2549 001a D9       		.byte	-39
 2550 001b F1       		.byte	-15
 2551 001c DB       		.byte	-37
 2552 001d 40       		.byte	64
 2553 001e A4       		.byte	-92
 2554 001f A6       		.byte	-90
 2555 0020 AF       		.byte	-81
 2556              		.type	font, %object
 2557              		.size	font, 1275
 2558              	font:
 2559 0021 00       		.byte	0
 2560 0022 00       		.byte	0
 2561 0023 00       		.byte	0
 2562 0024 00       		.byte	0
 2563 0025 00       		.byte	0
 2564 0026 3E       		.byte	62
 2565 0027 5B       		.byte	91
 2566 0028 4F       		.byte	79
 2567 0029 5B       		.byte	91
 2568 002a 3E       		.byte	62
 2569 002b 3E       		.byte	62
 2570 002c 6B       		.byte	107
 2571 002d 4F       		.byte	79
 2572 002e 6B       		.byte	107
 2573 002f 3E       		.byte	62
 2574 0030 1C       		.byte	28
 2575 0031 3E       		.byte	62
 2576 0032 7C       		.byte	124
 2577 0033 3E       		.byte	62
 2578 0034 1C       		.byte	28
 2579 0035 18       		.byte	24
 2580 0036 3C       		.byte	60
 2581 0037 7E       		.byte	126
 2582 0038 3C       		.byte	60
 2583 0039 18       		.byte	24
 2584 003a 1C       		.byte	28
 2585 003b 57       		.byte	87
 2586 003c 7D       		.byte	125
 2587 003d 57       		.byte	87
 2588 003e 1C       		.byte	28
 2589 003f 1C       		.byte	28
 2590 0040 5E       		.byte	94
 2591 0041 7F       		.byte	127
 2592 0042 5E       		.byte	94
 2593 0043 1C       		.byte	28
 2594 0044 00       		.byte	0
 2595 0045 18       		.byte	24
 2596 0046 3C       		.byte	60
 2597 0047 18       		.byte	24
 2598 0048 00       		.byte	0
 2599 0049 FF       		.byte	-1
 2600 004a E7       		.byte	-25
 2601 004b C3       		.byte	-61
 2602 004c E7       		.byte	-25
ARM GAS  C:\Users\ARMAND~1\AppData\Local\Temp\cc2dQwoO.s 			page 64


 2603 004d FF       		.byte	-1
 2604 004e 00       		.byte	0
 2605 004f 18       		.byte	24
 2606 0050 24       		.byte	36
 2607 0051 18       		.byte	24
 2608 0052 00       		.byte	0
 2609 0053 FF       		.byte	-1
 2610 0054 E7       		.byte	-25
 2611 0055 DB       		.byte	-37
 2612 0056 E7       		.byte	-25
 2613 0057 FF       		.byte	-1
 2614 0058 30       		.byte	48
 2615 0059 48       		.byte	72
 2616 005a 3A       		.byte	58
 2617 005b 06       		.byte	6
 2618 005c 0E       		.byte	14
 2619 005d 26       		.byte	38
 2620 005e 29       		.byte	41
 2621 005f 79       		.byte	121
 2622 0060 29       		.byte	41
 2623 0061 26       		.byte	38
 2624 0062 40       		.byte	64
 2625 0063 7F       		.byte	127
 2626 0064 05       		.byte	5
 2627 0065 05       		.byte	5
 2628 0066 07       		.byte	7
 2629 0067 40       		.byte	64
 2630 0068 7F       		.byte	127
 2631 0069 05       		.byte	5
 2632 006a 25       		.byte	37
 2633 006b 3F       		.byte	63
 2634 006c 5A       		.byte	90
 2635 006d 3C       		.byte	60
 2636 006e E7       		.byte	-25
 2637 006f 3C       		.byte	60
 2638 0070 5A       		.byte	90
 2639 0071 7F       		.byte	127
 2640 0072 3E       		.byte	62
 2641 0073 1C       		.byte	28
 2642 0074 1C       		.byte	28
 2643 0075 08       		.byte	8
 2644 0076 08       		.byte	8
 2645 0077 1C       		.byte	28
 2646 0078 1C       		.byte	28
 2647 0079 3E       		.byte	62
 2648 007a 7F       		.byte	127
 2649 007b 14       		.byte	20
 2650 007c 22       		.byte	34
 2651 007d 7F       		.byte	127
 2652 007e 22       		.byte	34
 2653 007f 14       		.byte	20
 2654 0080 5F       		.byte	95
 2655 0081 5F       		.byte	95
 2656 0082 00       		.byte	0
 2657 0083 5F       		.byte	95
 2658 0084 5F       		.byte	95
 2659 0085 06       		.byte	6
ARM GAS  C:\Users\ARMAND~1\AppData\Local\Temp\cc2dQwoO.s 			page 65


 2660 0086 09       		.byte	9
 2661 0087 7F       		.byte	127
 2662 0088 01       		.byte	1
 2663 0089 7F       		.byte	127
 2664 008a 00       		.byte	0
 2665 008b 66       		.byte	102
 2666 008c 89       		.byte	-119
 2667 008d 95       		.byte	-107
 2668 008e 6A       		.byte	106
 2669 008f 60       		.byte	96
 2670 0090 60       		.byte	96
 2671 0091 60       		.byte	96
 2672 0092 60       		.byte	96
 2673 0093 60       		.byte	96
 2674 0094 94       		.byte	-108
 2675 0095 A2       		.byte	-94
 2676 0096 FF       		.byte	-1
 2677 0097 A2       		.byte	-94
 2678 0098 94       		.byte	-108
 2679 0099 08       		.byte	8
 2680 009a 04       		.byte	4
 2681 009b 7E       		.byte	126
 2682 009c 04       		.byte	4
 2683 009d 08       		.byte	8
 2684 009e 10       		.byte	16
 2685 009f 20       		.byte	32
 2686 00a0 7E       		.byte	126
 2687 00a1 20       		.byte	32
 2688 00a2 10       		.byte	16
 2689 00a3 08       		.byte	8
 2690 00a4 08       		.byte	8
 2691 00a5 2A       		.byte	42
 2692 00a6 1C       		.byte	28
 2693 00a7 08       		.byte	8
 2694 00a8 08       		.byte	8
 2695 00a9 1C       		.byte	28
 2696 00aa 2A       		.byte	42
 2697 00ab 08       		.byte	8
 2698 00ac 08       		.byte	8
 2699 00ad 1E       		.byte	30
 2700 00ae 10       		.byte	16
 2701 00af 10       		.byte	16
 2702 00b0 10       		.byte	16
 2703 00b1 10       		.byte	16
 2704 00b2 0C       		.byte	12
 2705 00b3 1E       		.byte	30
 2706 00b4 0C       		.byte	12
 2707 00b5 1E       		.byte	30
 2708 00b6 0C       		.byte	12
 2709 00b7 30       		.byte	48
 2710 00b8 38       		.byte	56
 2711 00b9 3E       		.byte	62
 2712 00ba 38       		.byte	56
 2713 00bb 30       		.byte	48
 2714 00bc 06       		.byte	6
 2715 00bd 0E       		.byte	14
 2716 00be 3E       		.byte	62
ARM GAS  C:\Users\ARMAND~1\AppData\Local\Temp\cc2dQwoO.s 			page 66


 2717 00bf 0E       		.byte	14
 2718 00c0 06       		.byte	6
 2719 00c1 00       		.byte	0
 2720 00c2 00       		.byte	0
 2721 00c3 00       		.byte	0
 2722 00c4 00       		.byte	0
 2723 00c5 00       		.byte	0
 2724 00c6 00       		.byte	0
 2725 00c7 00       		.byte	0
 2726 00c8 5F       		.byte	95
 2727 00c9 00       		.byte	0
 2728 00ca 00       		.byte	0
 2729 00cb 00       		.byte	0
 2730 00cc 07       		.byte	7
 2731 00cd 00       		.byte	0
 2732 00ce 07       		.byte	7
 2733 00cf 00       		.byte	0
 2734 00d0 14       		.byte	20
 2735 00d1 7F       		.byte	127
 2736 00d2 14       		.byte	20
 2737 00d3 7F       		.byte	127
 2738 00d4 14       		.byte	20
 2739 00d5 24       		.byte	36
 2740 00d6 2A       		.byte	42
 2741 00d7 7F       		.byte	127
 2742 00d8 2A       		.byte	42
 2743 00d9 12       		.byte	18
 2744 00da 23       		.byte	35
 2745 00db 13       		.byte	19
 2746 00dc 08       		.byte	8
 2747 00dd 64       		.byte	100
 2748 00de 62       		.byte	98
 2749 00df 36       		.byte	54
 2750 00e0 49       		.byte	73
 2751 00e1 56       		.byte	86
 2752 00e2 20       		.byte	32
 2753 00e3 50       		.byte	80
 2754 00e4 00       		.byte	0
 2755 00e5 08       		.byte	8
 2756 00e6 07       		.byte	7
 2757 00e7 03       		.byte	3
 2758 00e8 00       		.byte	0
 2759 00e9 00       		.byte	0
 2760 00ea 1C       		.byte	28
 2761 00eb 22       		.byte	34
 2762 00ec 41       		.byte	65
 2763 00ed 00       		.byte	0
 2764 00ee 00       		.byte	0
 2765 00ef 41       		.byte	65
 2766 00f0 22       		.byte	34
 2767 00f1 1C       		.byte	28
 2768 00f2 00       		.byte	0
 2769 00f3 2A       		.byte	42
 2770 00f4 1C       		.byte	28
 2771 00f5 7F       		.byte	127
 2772 00f6 1C       		.byte	28
 2773 00f7 2A       		.byte	42
ARM GAS  C:\Users\ARMAND~1\AppData\Local\Temp\cc2dQwoO.s 			page 67


 2774 00f8 08       		.byte	8
 2775 00f9 08       		.byte	8
 2776 00fa 3E       		.byte	62
 2777 00fb 08       		.byte	8
 2778 00fc 08       		.byte	8
 2779 00fd 00       		.byte	0
 2780 00fe 80       		.byte	-128
 2781 00ff 70       		.byte	112
 2782 0100 30       		.byte	48
 2783 0101 00       		.byte	0
 2784 0102 08       		.byte	8
 2785 0103 08       		.byte	8
 2786 0104 08       		.byte	8
 2787 0105 08       		.byte	8
 2788 0106 08       		.byte	8
 2789 0107 00       		.byte	0
 2790 0108 00       		.byte	0
 2791 0109 60       		.byte	96
 2792 010a 60       		.byte	96
 2793 010b 00       		.byte	0
 2794 010c 20       		.byte	32
 2795 010d 10       		.byte	16
 2796 010e 08       		.byte	8
 2797 010f 04       		.byte	4
 2798 0110 02       		.byte	2
 2799 0111 3E       		.byte	62
 2800 0112 51       		.byte	81
 2801 0113 49       		.byte	73
 2802 0114 45       		.byte	69
 2803 0115 3E       		.byte	62
 2804 0116 00       		.byte	0
 2805 0117 42       		.byte	66
 2806 0118 7F       		.byte	127
 2807 0119 40       		.byte	64
 2808 011a 00       		.byte	0
 2809 011b 72       		.byte	114
 2810 011c 49       		.byte	73
 2811 011d 49       		.byte	73
 2812 011e 49       		.byte	73
 2813 011f 46       		.byte	70
 2814 0120 21       		.byte	33
 2815 0121 41       		.byte	65
 2816 0122 49       		.byte	73
 2817 0123 4D       		.byte	77
 2818 0124 33       		.byte	51
 2819 0125 18       		.byte	24
 2820 0126 14       		.byte	20
 2821 0127 12       		.byte	18
 2822 0128 7F       		.byte	127
 2823 0129 10       		.byte	16
 2824 012a 27       		.byte	39
 2825 012b 45       		.byte	69
 2826 012c 45       		.byte	69
 2827 012d 45       		.byte	69
 2828 012e 39       		.byte	57
 2829 012f 3C       		.byte	60
 2830 0130 4A       		.byte	74
ARM GAS  C:\Users\ARMAND~1\AppData\Local\Temp\cc2dQwoO.s 			page 68


 2831 0131 49       		.byte	73
 2832 0132 49       		.byte	73
 2833 0133 31       		.byte	49
 2834 0134 41       		.byte	65
 2835 0135 21       		.byte	33
 2836 0136 11       		.byte	17
 2837 0137 09       		.byte	9
 2838 0138 07       		.byte	7
 2839 0139 36       		.byte	54
 2840 013a 49       		.byte	73
 2841 013b 49       		.byte	73
 2842 013c 49       		.byte	73
 2843 013d 36       		.byte	54
 2844 013e 46       		.byte	70
 2845 013f 49       		.byte	73
 2846 0140 49       		.byte	73
 2847 0141 29       		.byte	41
 2848 0142 1E       		.byte	30
 2849 0143 00       		.byte	0
 2850 0144 00       		.byte	0
 2851 0145 14       		.byte	20
 2852 0146 00       		.byte	0
 2853 0147 00       		.byte	0
 2854 0148 00       		.byte	0
 2855 0149 40       		.byte	64
 2856 014a 34       		.byte	52
 2857 014b 00       		.byte	0
 2858 014c 00       		.byte	0
 2859 014d 00       		.byte	0
 2860 014e 08       		.byte	8
 2861 014f 14       		.byte	20
 2862 0150 22       		.byte	34
 2863 0151 41       		.byte	65
 2864 0152 14       		.byte	20
 2865 0153 14       		.byte	20
 2866 0154 14       		.byte	20
 2867 0155 14       		.byte	20
 2868 0156 14       		.byte	20
 2869 0157 00       		.byte	0
 2870 0158 41       		.byte	65
 2871 0159 22       		.byte	34
 2872 015a 14       		.byte	20
 2873 015b 08       		.byte	8
 2874 015c 02       		.byte	2
 2875 015d 01       		.byte	1
 2876 015e 59       		.byte	89
 2877 015f 09       		.byte	9
 2878 0160 06       		.byte	6
 2879 0161 3E       		.byte	62
 2880 0162 41       		.byte	65
 2881 0163 5D       		.byte	93
 2882 0164 59       		.byte	89
 2883 0165 4E       		.byte	78
 2884 0166 7C       		.byte	124
 2885 0167 12       		.byte	18
 2886 0168 11       		.byte	17
 2887 0169 12       		.byte	18
ARM GAS  C:\Users\ARMAND~1\AppData\Local\Temp\cc2dQwoO.s 			page 69


 2888 016a 7C       		.byte	124
 2889 016b 7F       		.byte	127
 2890 016c 49       		.byte	73
 2891 016d 49       		.byte	73
 2892 016e 49       		.byte	73
 2893 016f 36       		.byte	54
 2894 0170 3E       		.byte	62
 2895 0171 41       		.byte	65
 2896 0172 41       		.byte	65
 2897 0173 41       		.byte	65
 2898 0174 22       		.byte	34
 2899 0175 7F       		.byte	127
 2900 0176 41       		.byte	65
 2901 0177 41       		.byte	65
 2902 0178 41       		.byte	65
 2903 0179 3E       		.byte	62
 2904 017a 7F       		.byte	127
 2905 017b 49       		.byte	73
 2906 017c 49       		.byte	73
 2907 017d 49       		.byte	73
 2908 017e 41       		.byte	65
 2909 017f 7F       		.byte	127
 2910 0180 09       		.byte	9
 2911 0181 09       		.byte	9
 2912 0182 09       		.byte	9
 2913 0183 01       		.byte	1
 2914 0184 3E       		.byte	62
 2915 0185 41       		.byte	65
 2916 0186 41       		.byte	65
 2917 0187 51       		.byte	81
 2918 0188 73       		.byte	115
 2919 0189 7F       		.byte	127
 2920 018a 08       		.byte	8
 2921 018b 08       		.byte	8
 2922 018c 08       		.byte	8
 2923 018d 7F       		.byte	127
 2924 018e 00       		.byte	0
 2925 018f 41       		.byte	65
 2926 0190 7F       		.byte	127
 2927 0191 41       		.byte	65
 2928 0192 00       		.byte	0
 2929 0193 20       		.byte	32
 2930 0194 40       		.byte	64
 2931 0195 41       		.byte	65
 2932 0196 3F       		.byte	63
 2933 0197 01       		.byte	1
 2934 0198 7F       		.byte	127
 2935 0199 08       		.byte	8
 2936 019a 14       		.byte	20
 2937 019b 22       		.byte	34
 2938 019c 41       		.byte	65
 2939 019d 7F       		.byte	127
 2940 019e 40       		.byte	64
 2941 019f 40       		.byte	64
 2942 01a0 40       		.byte	64
 2943 01a1 40       		.byte	64
 2944 01a2 7F       		.byte	127
ARM GAS  C:\Users\ARMAND~1\AppData\Local\Temp\cc2dQwoO.s 			page 70


 2945 01a3 02       		.byte	2
 2946 01a4 1C       		.byte	28
 2947 01a5 02       		.byte	2
 2948 01a6 7F       		.byte	127
 2949 01a7 7F       		.byte	127
 2950 01a8 04       		.byte	4
 2951 01a9 08       		.byte	8
 2952 01aa 10       		.byte	16
 2953 01ab 7F       		.byte	127
 2954 01ac 3E       		.byte	62
 2955 01ad 41       		.byte	65
 2956 01ae 41       		.byte	65
 2957 01af 41       		.byte	65
 2958 01b0 3E       		.byte	62
 2959 01b1 7F       		.byte	127
 2960 01b2 09       		.byte	9
 2961 01b3 09       		.byte	9
 2962 01b4 09       		.byte	9
 2963 01b5 06       		.byte	6
 2964 01b6 3E       		.byte	62
 2965 01b7 41       		.byte	65
 2966 01b8 51       		.byte	81
 2967 01b9 21       		.byte	33
 2968 01ba 5E       		.byte	94
 2969 01bb 7F       		.byte	127
 2970 01bc 09       		.byte	9
 2971 01bd 19       		.byte	25
 2972 01be 29       		.byte	41
 2973 01bf 46       		.byte	70
 2974 01c0 26       		.byte	38
 2975 01c1 49       		.byte	73
 2976 01c2 49       		.byte	73
 2977 01c3 49       		.byte	73
 2978 01c4 32       		.byte	50
 2979 01c5 03       		.byte	3
 2980 01c6 01       		.byte	1
 2981 01c7 7F       		.byte	127
 2982 01c8 01       		.byte	1
 2983 01c9 03       		.byte	3
 2984 01ca 3F       		.byte	63
 2985 01cb 40       		.byte	64
 2986 01cc 40       		.byte	64
 2987 01cd 40       		.byte	64
 2988 01ce 3F       		.byte	63
 2989 01cf 1F       		.byte	31
 2990 01d0 20       		.byte	32
 2991 01d1 40       		.byte	64
 2992 01d2 20       		.byte	32
 2993 01d3 1F       		.byte	31
 2994 01d4 3F       		.byte	63
 2995 01d5 40       		.byte	64
 2996 01d6 38       		.byte	56
 2997 01d7 40       		.byte	64
 2998 01d8 3F       		.byte	63
 2999 01d9 63       		.byte	99
 3000 01da 14       		.byte	20
 3001 01db 08       		.byte	8
ARM GAS  C:\Users\ARMAND~1\AppData\Local\Temp\cc2dQwoO.s 			page 71


 3002 01dc 14       		.byte	20
 3003 01dd 63       		.byte	99
 3004 01de 03       		.byte	3
 3005 01df 04       		.byte	4
 3006 01e0 78       		.byte	120
 3007 01e1 04       		.byte	4
 3008 01e2 03       		.byte	3
 3009 01e3 61       		.byte	97
 3010 01e4 59       		.byte	89
 3011 01e5 49       		.byte	73
 3012 01e6 4D       		.byte	77
 3013 01e7 43       		.byte	67
 3014 01e8 00       		.byte	0
 3015 01e9 7F       		.byte	127
 3016 01ea 41       		.byte	65
 3017 01eb 41       		.byte	65
 3018 01ec 41       		.byte	65
 3019 01ed 02       		.byte	2
 3020 01ee 04       		.byte	4
 3021 01ef 08       		.byte	8
 3022 01f0 10       		.byte	16
 3023 01f1 20       		.byte	32
 3024 01f2 00       		.byte	0
 3025 01f3 41       		.byte	65
 3026 01f4 41       		.byte	65
 3027 01f5 41       		.byte	65
 3028 01f6 7F       		.byte	127
 3029 01f7 04       		.byte	4
 3030 01f8 02       		.byte	2
 3031 01f9 01       		.byte	1
 3032 01fa 02       		.byte	2
 3033 01fb 04       		.byte	4
 3034 01fc 40       		.byte	64
 3035 01fd 40       		.byte	64
 3036 01fe 40       		.byte	64
 3037 01ff 40       		.byte	64
 3038 0200 40       		.byte	64
 3039 0201 00       		.byte	0
 3040 0202 03       		.byte	3
 3041 0203 07       		.byte	7
 3042 0204 08       		.byte	8
 3043 0205 00       		.byte	0
 3044 0206 20       		.byte	32
 3045 0207 54       		.byte	84
 3046 0208 54       		.byte	84
 3047 0209 78       		.byte	120
 3048 020a 40       		.byte	64
 3049 020b 7F       		.byte	127
 3050 020c 28       		.byte	40
 3051 020d 44       		.byte	68
 3052 020e 44       		.byte	68
 3053 020f 38       		.byte	56
 3054 0210 38       		.byte	56
 3055 0211 44       		.byte	68
 3056 0212 44       		.byte	68
 3057 0213 44       		.byte	68
 3058 0214 28       		.byte	40
ARM GAS  C:\Users\ARMAND~1\AppData\Local\Temp\cc2dQwoO.s 			page 72


 3059 0215 38       		.byte	56
 3060 0216 44       		.byte	68
 3061 0217 44       		.byte	68
 3062 0218 28       		.byte	40
 3063 0219 7F       		.byte	127
 3064 021a 38       		.byte	56
 3065 021b 54       		.byte	84
 3066 021c 54       		.byte	84
 3067 021d 54       		.byte	84
 3068 021e 18       		.byte	24
 3069 021f 00       		.byte	0
 3070 0220 08       		.byte	8
 3071 0221 7E       		.byte	126
 3072 0222 09       		.byte	9
 3073 0223 02       		.byte	2
 3074 0224 18       		.byte	24
 3075 0225 A4       		.byte	-92
 3076 0226 A4       		.byte	-92
 3077 0227 9C       		.byte	-100
 3078 0228 78       		.byte	120
 3079 0229 7F       		.byte	127
 3080 022a 08       		.byte	8
 3081 022b 04       		.byte	4
 3082 022c 04       		.byte	4
 3083 022d 78       		.byte	120
 3084 022e 00       		.byte	0
 3085 022f 44       		.byte	68
 3086 0230 7D       		.byte	125
 3087 0231 40       		.byte	64
 3088 0232 00       		.byte	0
 3089 0233 20       		.byte	32
 3090 0234 40       		.byte	64
 3091 0235 40       		.byte	64
 3092 0236 3D       		.byte	61
 3093 0237 00       		.byte	0
 3094 0238 7F       		.byte	127
 3095 0239 10       		.byte	16
 3096 023a 28       		.byte	40
 3097 023b 44       		.byte	68
 3098 023c 00       		.byte	0
 3099 023d 00       		.byte	0
 3100 023e 41       		.byte	65
 3101 023f 7F       		.byte	127
 3102 0240 40       		.byte	64
 3103 0241 00       		.byte	0
 3104 0242 7C       		.byte	124
 3105 0243 04       		.byte	4
 3106 0244 78       		.byte	120
 3107 0245 04       		.byte	4
 3108 0246 78       		.byte	120
 3109 0247 7C       		.byte	124
 3110 0248 08       		.byte	8
 3111 0249 04       		.byte	4
 3112 024a 04       		.byte	4
 3113 024b 78       		.byte	120
 3114 024c 38       		.byte	56
 3115 024d 44       		.byte	68
ARM GAS  C:\Users\ARMAND~1\AppData\Local\Temp\cc2dQwoO.s 			page 73


 3116 024e 44       		.byte	68
 3117 024f 44       		.byte	68
 3118 0250 38       		.byte	56
 3119 0251 FC       		.byte	-4
 3120 0252 18       		.byte	24
 3121 0253 24       		.byte	36
 3122 0254 24       		.byte	36
 3123 0255 18       		.byte	24
 3124 0256 18       		.byte	24
 3125 0257 24       		.byte	36
 3126 0258 24       		.byte	36
 3127 0259 18       		.byte	24
 3128 025a FC       		.byte	-4
 3129 025b 7C       		.byte	124
 3130 025c 08       		.byte	8
 3131 025d 04       		.byte	4
 3132 025e 04       		.byte	4
 3133 025f 08       		.byte	8
 3134 0260 48       		.byte	72
 3135 0261 54       		.byte	84
 3136 0262 54       		.byte	84
 3137 0263 54       		.byte	84
 3138 0264 24       		.byte	36
 3139 0265 04       		.byte	4
 3140 0266 04       		.byte	4
 3141 0267 3F       		.byte	63
 3142 0268 44       		.byte	68
 3143 0269 24       		.byte	36
 3144 026a 3C       		.byte	60
 3145 026b 40       		.byte	64
 3146 026c 40       		.byte	64
 3147 026d 20       		.byte	32
 3148 026e 7C       		.byte	124
 3149 026f 1C       		.byte	28
 3150 0270 20       		.byte	32
 3151 0271 40       		.byte	64
 3152 0272 20       		.byte	32
 3153 0273 1C       		.byte	28
 3154 0274 3C       		.byte	60
 3155 0275 40       		.byte	64
 3156 0276 30       		.byte	48
 3157 0277 40       		.byte	64
 3158 0278 3C       		.byte	60
 3159 0279 44       		.byte	68
 3160 027a 28       		.byte	40
 3161 027b 10       		.byte	16
 3162 027c 28       		.byte	40
 3163 027d 44       		.byte	68
 3164 027e 4C       		.byte	76
 3165 027f 90       		.byte	-112
 3166 0280 90       		.byte	-112
 3167 0281 90       		.byte	-112
 3168 0282 7C       		.byte	124
 3169 0283 44       		.byte	68
 3170 0284 64       		.byte	100
 3171 0285 54       		.byte	84
 3172 0286 4C       		.byte	76
ARM GAS  C:\Users\ARMAND~1\AppData\Local\Temp\cc2dQwoO.s 			page 74


 3173 0287 44       		.byte	68
 3174 0288 00       		.byte	0
 3175 0289 08       		.byte	8
 3176 028a 36       		.byte	54
 3177 028b 41       		.byte	65
 3178 028c 00       		.byte	0
 3179 028d 00       		.byte	0
 3180 028e 00       		.byte	0
 3181 028f 77       		.byte	119
 3182 0290 00       		.byte	0
 3183 0291 00       		.byte	0
 3184 0292 00       		.byte	0
 3185 0293 41       		.byte	65
 3186 0294 36       		.byte	54
 3187 0295 08       		.byte	8
 3188 0296 00       		.byte	0
 3189 0297 02       		.byte	2
 3190 0298 01       		.byte	1
 3191 0299 02       		.byte	2
 3192 029a 04       		.byte	4
 3193 029b 02       		.byte	2
 3194 029c 3C       		.byte	60
 3195 029d 26       		.byte	38
 3196 029e 23       		.byte	35
 3197 029f 26       		.byte	38
 3198 02a0 3C       		.byte	60
 3199 02a1 1E       		.byte	30
 3200 02a2 A1       		.byte	-95
 3201 02a3 A1       		.byte	-95
 3202 02a4 61       		.byte	97
 3203 02a5 12       		.byte	18
 3204 02a6 3A       		.byte	58
 3205 02a7 40       		.byte	64
 3206 02a8 40       		.byte	64
 3207 02a9 20       		.byte	32
 3208 02aa 7A       		.byte	122
 3209 02ab 38       		.byte	56
 3210 02ac 54       		.byte	84
 3211 02ad 54       		.byte	84
 3212 02ae 55       		.byte	85
 3213 02af 59       		.byte	89
 3214 02b0 21       		.byte	33
 3215 02b1 55       		.byte	85
 3216 02b2 55       		.byte	85
 3217 02b3 79       		.byte	121
 3218 02b4 41       		.byte	65
 3219 02b5 22       		.byte	34
 3220 02b6 54       		.byte	84
 3221 02b7 54       		.byte	84
 3222 02b8 78       		.byte	120
 3223 02b9 42       		.byte	66
 3224 02ba 21       		.byte	33
 3225 02bb 55       		.byte	85
 3226 02bc 54       		.byte	84
 3227 02bd 78       		.byte	120
 3228 02be 40       		.byte	64
 3229 02bf 20       		.byte	32
ARM GAS  C:\Users\ARMAND~1\AppData\Local\Temp\cc2dQwoO.s 			page 75


 3230 02c0 54       		.byte	84
 3231 02c1 55       		.byte	85
 3232 02c2 79       		.byte	121
 3233 02c3 40       		.byte	64
 3234 02c4 0C       		.byte	12
 3235 02c5 1E       		.byte	30
 3236 02c6 52       		.byte	82
 3237 02c7 72       		.byte	114
 3238 02c8 12       		.byte	18
 3239 02c9 39       		.byte	57
 3240 02ca 55       		.byte	85
 3241 02cb 55       		.byte	85
 3242 02cc 55       		.byte	85
 3243 02cd 59       		.byte	89
 3244 02ce 39       		.byte	57
 3245 02cf 54       		.byte	84
 3246 02d0 54       		.byte	84
 3247 02d1 54       		.byte	84
 3248 02d2 59       		.byte	89
 3249 02d3 39       		.byte	57
 3250 02d4 55       		.byte	85
 3251 02d5 54       		.byte	84
 3252 02d6 54       		.byte	84
 3253 02d7 58       		.byte	88
 3254 02d8 00       		.byte	0
 3255 02d9 00       		.byte	0
 3256 02da 45       		.byte	69
 3257 02db 7C       		.byte	124
 3258 02dc 41       		.byte	65
 3259 02dd 00       		.byte	0
 3260 02de 02       		.byte	2
 3261 02df 45       		.byte	69
 3262 02e0 7D       		.byte	125
 3263 02e1 42       		.byte	66
 3264 02e2 00       		.byte	0
 3265 02e3 01       		.byte	1
 3266 02e4 45       		.byte	69
 3267 02e5 7C       		.byte	124
 3268 02e6 40       		.byte	64
 3269 02e7 7D       		.byte	125
 3270 02e8 12       		.byte	18
 3271 02e9 11       		.byte	17
 3272 02ea 12       		.byte	18
 3273 02eb 7D       		.byte	125
 3274 02ec F0       		.byte	-16
 3275 02ed 28       		.byte	40
 3276 02ee 25       		.byte	37
 3277 02ef 28       		.byte	40
 3278 02f0 F0       		.byte	-16
 3279 02f1 7C       		.byte	124
 3280 02f2 54       		.byte	84
 3281 02f3 55       		.byte	85
 3282 02f4 45       		.byte	69
 3283 02f5 00       		.byte	0
 3284 02f6 20       		.byte	32
 3285 02f7 54       		.byte	84
 3286 02f8 54       		.byte	84
ARM GAS  C:\Users\ARMAND~1\AppData\Local\Temp\cc2dQwoO.s 			page 76


 3287 02f9 7C       		.byte	124
 3288 02fa 54       		.byte	84
 3289 02fb 7C       		.byte	124
 3290 02fc 0A       		.byte	10
 3291 02fd 09       		.byte	9
 3292 02fe 7F       		.byte	127
 3293 02ff 49       		.byte	73
 3294 0300 32       		.byte	50
 3295 0301 49       		.byte	73
 3296 0302 49       		.byte	73
 3297 0303 49       		.byte	73
 3298 0304 32       		.byte	50
 3299 0305 3A       		.byte	58
 3300 0306 44       		.byte	68
 3301 0307 44       		.byte	68
 3302 0308 44       		.byte	68
 3303 0309 3A       		.byte	58
 3304 030a 32       		.byte	50
 3305 030b 4A       		.byte	74
 3306 030c 48       		.byte	72
 3307 030d 48       		.byte	72
 3308 030e 30       		.byte	48
 3309 030f 3A       		.byte	58
 3310 0310 41       		.byte	65
 3311 0311 41       		.byte	65
 3312 0312 21       		.byte	33
 3313 0313 7A       		.byte	122
 3314 0314 3A       		.byte	58
 3315 0315 42       		.byte	66
 3316 0316 40       		.byte	64
 3317 0317 20       		.byte	32
 3318 0318 78       		.byte	120
 3319 0319 00       		.byte	0
 3320 031a 9D       		.byte	-99
 3321 031b A0       		.byte	-96
 3322 031c A0       		.byte	-96
 3323 031d 7D       		.byte	125
 3324 031e 3D       		.byte	61
 3325 031f 42       		.byte	66
 3326 0320 42       		.byte	66
 3327 0321 42       		.byte	66
 3328 0322 3D       		.byte	61
 3329 0323 3D       		.byte	61
 3330 0324 40       		.byte	64
 3331 0325 40       		.byte	64
 3332 0326 40       		.byte	64
 3333 0327 3D       		.byte	61
 3334 0328 3C       		.byte	60
 3335 0329 24       		.byte	36
 3336 032a FF       		.byte	-1
 3337 032b 24       		.byte	36
 3338 032c 24       		.byte	36
 3339 032d 48       		.byte	72
 3340 032e 7E       		.byte	126
 3341 032f 49       		.byte	73
 3342 0330 43       		.byte	67
 3343 0331 66       		.byte	102
ARM GAS  C:\Users\ARMAND~1\AppData\Local\Temp\cc2dQwoO.s 			page 77


 3344 0332 2B       		.byte	43
 3345 0333 2F       		.byte	47
 3346 0334 FC       		.byte	-4
 3347 0335 2F       		.byte	47
 3348 0336 2B       		.byte	43
 3349 0337 FF       		.byte	-1
 3350 0338 09       		.byte	9
 3351 0339 29       		.byte	41
 3352 033a F6       		.byte	-10
 3353 033b 20       		.byte	32
 3354 033c C0       		.byte	-64
 3355 033d 88       		.byte	-120
 3356 033e 7E       		.byte	126
 3357 033f 09       		.byte	9
 3358 0340 03       		.byte	3
 3359 0341 20       		.byte	32
 3360 0342 54       		.byte	84
 3361 0343 54       		.byte	84
 3362 0344 79       		.byte	121
 3363 0345 41       		.byte	65
 3364 0346 00       		.byte	0
 3365 0347 00       		.byte	0
 3366 0348 44       		.byte	68
 3367 0349 7D       		.byte	125
 3368 034a 41       		.byte	65
 3369 034b 30       		.byte	48
 3370 034c 48       		.byte	72
 3371 034d 48       		.byte	72
 3372 034e 4A       		.byte	74
 3373 034f 32       		.byte	50
 3374 0350 38       		.byte	56
 3375 0351 40       		.byte	64
 3376 0352 40       		.byte	64
 3377 0353 22       		.byte	34
 3378 0354 7A       		.byte	122
 3379 0355 00       		.byte	0
 3380 0356 7A       		.byte	122
 3381 0357 0A       		.byte	10
 3382 0358 0A       		.byte	10
 3383 0359 72       		.byte	114
 3384 035a 7D       		.byte	125
 3385 035b 0D       		.byte	13
 3386 035c 19       		.byte	25
 3387 035d 31       		.byte	49
 3388 035e 7D       		.byte	125
 3389 035f 26       		.byte	38
 3390 0360 29       		.byte	41
 3391 0361 29       		.byte	41
 3392 0362 2F       		.byte	47
 3393 0363 28       		.byte	40
 3394 0364 26       		.byte	38
 3395 0365 29       		.byte	41
 3396 0366 29       		.byte	41
 3397 0367 29       		.byte	41
 3398 0368 26       		.byte	38
 3399 0369 30       		.byte	48
 3400 036a 48       		.byte	72
ARM GAS  C:\Users\ARMAND~1\AppData\Local\Temp\cc2dQwoO.s 			page 78


 3401 036b 4D       		.byte	77
 3402 036c 40       		.byte	64
 3403 036d 20       		.byte	32
 3404 036e 38       		.byte	56
 3405 036f 08       		.byte	8
 3406 0370 08       		.byte	8
 3407 0371 08       		.byte	8
 3408 0372 08       		.byte	8
 3409 0373 08       		.byte	8
 3410 0374 08       		.byte	8
 3411 0375 08       		.byte	8
 3412 0376 08       		.byte	8
 3413 0377 38       		.byte	56
 3414 0378 2F       		.byte	47
 3415 0379 10       		.byte	16
 3416 037a C8       		.byte	-56
 3417 037b AC       		.byte	-84
 3418 037c BA       		.byte	-70
 3419 037d 2F       		.byte	47
 3420 037e 10       		.byte	16
 3421 037f 28       		.byte	40
 3422 0380 34       		.byte	52
 3423 0381 FA       		.byte	-6
 3424 0382 00       		.byte	0
 3425 0383 00       		.byte	0
 3426 0384 7B       		.byte	123
 3427 0385 00       		.byte	0
 3428 0386 00       		.byte	0
 3429 0387 08       		.byte	8
 3430 0388 14       		.byte	20
 3431 0389 2A       		.byte	42
 3432 038a 14       		.byte	20
 3433 038b 22       		.byte	34
 3434 038c 22       		.byte	34
 3435 038d 14       		.byte	20
 3436 038e 2A       		.byte	42
 3437 038f 14       		.byte	20
 3438 0390 08       		.byte	8
 3439 0391 AA       		.byte	-86
 3440 0392 00       		.byte	0
 3441 0393 55       		.byte	85
 3442 0394 00       		.byte	0
 3443 0395 AA       		.byte	-86
 3444 0396 AA       		.byte	-86
 3445 0397 55       		.byte	85
 3446 0398 AA       		.byte	-86
 3447 0399 55       		.byte	85
 3448 039a AA       		.byte	-86
 3449 039b 00       		.byte	0
 3450 039c 00       		.byte	0
 3451 039d 00       		.byte	0
 3452 039e FF       		.byte	-1
 3453 039f 00       		.byte	0
 3454 03a0 10       		.byte	16
 3455 03a1 10       		.byte	16
 3456 03a2 10       		.byte	16
 3457 03a3 FF       		.byte	-1
ARM GAS  C:\Users\ARMAND~1\AppData\Local\Temp\cc2dQwoO.s 			page 79


 3458 03a4 00       		.byte	0
 3459 03a5 14       		.byte	20
 3460 03a6 14       		.byte	20
 3461 03a7 14       		.byte	20
 3462 03a8 FF       		.byte	-1
 3463 03a9 00       		.byte	0
 3464 03aa 10       		.byte	16
 3465 03ab 10       		.byte	16
 3466 03ac FF       		.byte	-1
 3467 03ad 00       		.byte	0
 3468 03ae FF       		.byte	-1
 3469 03af 10       		.byte	16
 3470 03b0 10       		.byte	16
 3471 03b1 F0       		.byte	-16
 3472 03b2 10       		.byte	16
 3473 03b3 F0       		.byte	-16
 3474 03b4 14       		.byte	20
 3475 03b5 14       		.byte	20
 3476 03b6 14       		.byte	20
 3477 03b7 FC       		.byte	-4
 3478 03b8 00       		.byte	0
 3479 03b9 14       		.byte	20
 3480 03ba 14       		.byte	20
 3481 03bb F7       		.byte	-9
 3482 03bc 00       		.byte	0
 3483 03bd FF       		.byte	-1
 3484 03be 00       		.byte	0
 3485 03bf 00       		.byte	0
 3486 03c0 FF       		.byte	-1
 3487 03c1 00       		.byte	0
 3488 03c2 FF       		.byte	-1
 3489 03c3 14       		.byte	20
 3490 03c4 14       		.byte	20
 3491 03c5 F4       		.byte	-12
 3492 03c6 04       		.byte	4
 3493 03c7 FC       		.byte	-4
 3494 03c8 14       		.byte	20
 3495 03c9 14       		.byte	20
 3496 03ca 17       		.byte	23
 3497 03cb 10       		.byte	16
 3498 03cc 1F       		.byte	31
 3499 03cd 10       		.byte	16
 3500 03ce 10       		.byte	16
 3501 03cf 1F       		.byte	31
 3502 03d0 10       		.byte	16
 3503 03d1 1F       		.byte	31
 3504 03d2 14       		.byte	20
 3505 03d3 14       		.byte	20
 3506 03d4 14       		.byte	20
 3507 03d5 1F       		.byte	31
 3508 03d6 00       		.byte	0
 3509 03d7 10       		.byte	16
 3510 03d8 10       		.byte	16
 3511 03d9 10       		.byte	16
 3512 03da F0       		.byte	-16
 3513 03db 00       		.byte	0
 3514 03dc 00       		.byte	0
ARM GAS  C:\Users\ARMAND~1\AppData\Local\Temp\cc2dQwoO.s 			page 80


 3515 03dd 00       		.byte	0
 3516 03de 00       		.byte	0
 3517 03df 1F       		.byte	31
 3518 03e0 10       		.byte	16
 3519 03e1 10       		.byte	16
 3520 03e2 10       		.byte	16
 3521 03e3 10       		.byte	16
 3522 03e4 1F       		.byte	31
 3523 03e5 10       		.byte	16
 3524 03e6 10       		.byte	16
 3525 03e7 10       		.byte	16
 3526 03e8 10       		.byte	16
 3527 03e9 F0       		.byte	-16
 3528 03ea 10       		.byte	16
 3529 03eb 00       		.byte	0
 3530 03ec 00       		.byte	0
 3531 03ed 00       		.byte	0
 3532 03ee FF       		.byte	-1
 3533 03ef 10       		.byte	16
 3534 03f0 10       		.byte	16
 3535 03f1 10       		.byte	16
 3536 03f2 10       		.byte	16
 3537 03f3 10       		.byte	16
 3538 03f4 10       		.byte	16
 3539 03f5 10       		.byte	16
 3540 03f6 10       		.byte	16
 3541 03f7 10       		.byte	16
 3542 03f8 FF       		.byte	-1
 3543 03f9 10       		.byte	16
 3544 03fa 00       		.byte	0
 3545 03fb 00       		.byte	0
 3546 03fc 00       		.byte	0
 3547 03fd FF       		.byte	-1
 3548 03fe 14       		.byte	20
 3549 03ff 00       		.byte	0
 3550 0400 00       		.byte	0
 3551 0401 FF       		.byte	-1
 3552 0402 00       		.byte	0
 3553 0403 FF       		.byte	-1
 3554 0404 00       		.byte	0
 3555 0405 00       		.byte	0
 3556 0406 1F       		.byte	31
 3557 0407 10       		.byte	16
 3558 0408 17       		.byte	23
 3559 0409 00       		.byte	0
 3560 040a 00       		.byte	0
 3561 040b FC       		.byte	-4
 3562 040c 04       		.byte	4
 3563 040d F4       		.byte	-12
 3564 040e 14       		.byte	20
 3565 040f 14       		.byte	20
 3566 0410 17       		.byte	23
 3567 0411 10       		.byte	16
 3568 0412 17       		.byte	23
 3569 0413 14       		.byte	20
 3570 0414 14       		.byte	20
 3571 0415 F4       		.byte	-12
ARM GAS  C:\Users\ARMAND~1\AppData\Local\Temp\cc2dQwoO.s 			page 81


 3572 0416 04       		.byte	4
 3573 0417 F4       		.byte	-12
 3574 0418 00       		.byte	0
 3575 0419 00       		.byte	0
 3576 041a FF       		.byte	-1
 3577 041b 00       		.byte	0
 3578 041c F7       		.byte	-9
 3579 041d 14       		.byte	20
 3580 041e 14       		.byte	20
 3581 041f 14       		.byte	20
 3582 0420 14       		.byte	20
 3583 0421 14       		.byte	20
 3584 0422 14       		.byte	20
 3585 0423 14       		.byte	20
 3586 0424 F7       		.byte	-9
 3587 0425 00       		.byte	0
 3588 0426 F7       		.byte	-9
 3589 0427 14       		.byte	20
 3590 0428 14       		.byte	20
 3591 0429 14       		.byte	20
 3592 042a 17       		.byte	23
 3593 042b 14       		.byte	20
 3594 042c 10       		.byte	16
 3595 042d 10       		.byte	16
 3596 042e 1F       		.byte	31
 3597 042f 10       		.byte	16
 3598 0430 1F       		.byte	31
 3599 0431 14       		.byte	20
 3600 0432 14       		.byte	20
 3601 0433 14       		.byte	20
 3602 0434 F4       		.byte	-12
 3603 0435 14       		.byte	20
 3604 0436 10       		.byte	16
 3605 0437 10       		.byte	16
 3606 0438 F0       		.byte	-16
 3607 0439 10       		.byte	16
 3608 043a F0       		.byte	-16
 3609 043b 00       		.byte	0
 3610 043c 00       		.byte	0
 3611 043d 1F       		.byte	31
 3612 043e 10       		.byte	16
 3613 043f 1F       		.byte	31
 3614 0440 00       		.byte	0
 3615 0441 00       		.byte	0
 3616 0442 00       		.byte	0
 3617 0443 1F       		.byte	31
 3618 0444 14       		.byte	20
 3619 0445 00       		.byte	0
 3620 0446 00       		.byte	0
 3621 0447 00       		.byte	0
 3622 0448 FC       		.byte	-4
 3623 0449 14       		.byte	20
 3624 044a 00       		.byte	0
 3625 044b 00       		.byte	0
 3626 044c F0       		.byte	-16
 3627 044d 10       		.byte	16
 3628 044e F0       		.byte	-16
ARM GAS  C:\Users\ARMAND~1\AppData\Local\Temp\cc2dQwoO.s 			page 82


 3629 044f 10       		.byte	16
 3630 0450 10       		.byte	16
 3631 0451 FF       		.byte	-1
 3632 0452 10       		.byte	16
 3633 0453 FF       		.byte	-1
 3634 0454 14       		.byte	20
 3635 0455 14       		.byte	20
 3636 0456 14       		.byte	20
 3637 0457 FF       		.byte	-1
 3638 0458 14       		.byte	20
 3639 0459 10       		.byte	16
 3640 045a 10       		.byte	16
 3641 045b 10       		.byte	16
 3642 045c 1F       		.byte	31
 3643 045d 00       		.byte	0
 3644 045e 00       		.byte	0
 3645 045f 00       		.byte	0
 3646 0460 00       		.byte	0
 3647 0461 F0       		.byte	-16
 3648 0462 10       		.byte	16
 3649 0463 FF       		.byte	-1
 3650 0464 FF       		.byte	-1
 3651 0465 FF       		.byte	-1
 3652 0466 FF       		.byte	-1
 3653 0467 FF       		.byte	-1
 3654 0468 F0       		.byte	-16
 3655 0469 F0       		.byte	-16
 3656 046a F0       		.byte	-16
 3657 046b F0       		.byte	-16
 3658 046c F0       		.byte	-16
 3659 046d FF       		.byte	-1
 3660 046e FF       		.byte	-1
 3661 046f FF       		.byte	-1
 3662 0470 00       		.byte	0
 3663 0471 00       		.byte	0
 3664 0472 00       		.byte	0
 3665 0473 00       		.byte	0
 3666 0474 00       		.byte	0
 3667 0475 FF       		.byte	-1
 3668 0476 FF       		.byte	-1
 3669 0477 0F       		.byte	15
 3670 0478 0F       		.byte	15
 3671 0479 0F       		.byte	15
 3672 047a 0F       		.byte	15
 3673 047b 0F       		.byte	15
 3674 047c 38       		.byte	56
 3675 047d 44       		.byte	68
 3676 047e 44       		.byte	68
 3677 047f 38       		.byte	56
 3678 0480 44       		.byte	68
 3679 0481 FC       		.byte	-4
 3680 0482 4A       		.byte	74
 3681 0483 4A       		.byte	74
 3682 0484 4A       		.byte	74
 3683 0485 34       		.byte	52
 3684 0486 7E       		.byte	126
 3685 0487 02       		.byte	2
ARM GAS  C:\Users\ARMAND~1\AppData\Local\Temp\cc2dQwoO.s 			page 83


 3686 0488 02       		.byte	2
 3687 0489 06       		.byte	6
 3688 048a 06       		.byte	6
 3689 048b 02       		.byte	2
 3690 048c 7E       		.byte	126
 3691 048d 02       		.byte	2
 3692 048e 7E       		.byte	126
 3693 048f 02       		.byte	2
 3694 0490 63       		.byte	99
 3695 0491 55       		.byte	85
 3696 0492 49       		.byte	73
 3697 0493 41       		.byte	65
 3698 0494 63       		.byte	99
 3699 0495 38       		.byte	56
 3700 0496 44       		.byte	68
 3701 0497 44       		.byte	68
 3702 0498 3C       		.byte	60
 3703 0499 04       		.byte	4
 3704 049a 40       		.byte	64
 3705 049b 7E       		.byte	126
 3706 049c 20       		.byte	32
 3707 049d 1E       		.byte	30
 3708 049e 20       		.byte	32
 3709 049f 06       		.byte	6
 3710 04a0 02       		.byte	2
 3711 04a1 7E       		.byte	126
 3712 04a2 02       		.byte	2
 3713 04a3 02       		.byte	2
 3714 04a4 99       		.byte	-103
 3715 04a5 A5       		.byte	-91
 3716 04a6 E7       		.byte	-25
 3717 04a7 A5       		.byte	-91
 3718 04a8 99       		.byte	-103
 3719 04a9 1C       		.byte	28
 3720 04aa 2A       		.byte	42
 3721 04ab 49       		.byte	73
 3722 04ac 2A       		.byte	42
 3723 04ad 1C       		.byte	28
 3724 04ae 4C       		.byte	76
 3725 04af 72       		.byte	114
 3726 04b0 01       		.byte	1
 3727 04b1 72       		.byte	114
 3728 04b2 4C       		.byte	76
 3729 04b3 30       		.byte	48
 3730 04b4 4A       		.byte	74
 3731 04b5 4D       		.byte	77
 3732 04b6 4D       		.byte	77
 3733 04b7 30       		.byte	48
 3734 04b8 30       		.byte	48
 3735 04b9 48       		.byte	72
 3736 04ba 78       		.byte	120
 3737 04bb 48       		.byte	72
 3738 04bc 30       		.byte	48
 3739 04bd BC       		.byte	-68
 3740 04be 62       		.byte	98
 3741 04bf 5A       		.byte	90
 3742 04c0 46       		.byte	70
ARM GAS  C:\Users\ARMAND~1\AppData\Local\Temp\cc2dQwoO.s 			page 84


 3743 04c1 3D       		.byte	61
 3744 04c2 3E       		.byte	62
 3745 04c3 49       		.byte	73
 3746 04c4 49       		.byte	73
 3747 04c5 49       		.byte	73
 3748 04c6 00       		.byte	0
 3749 04c7 7E       		.byte	126
 3750 04c8 01       		.byte	1
 3751 04c9 01       		.byte	1
 3752 04ca 01       		.byte	1
 3753 04cb 7E       		.byte	126
 3754 04cc 2A       		.byte	42
 3755 04cd 2A       		.byte	42
 3756 04ce 2A       		.byte	42
 3757 04cf 2A       		.byte	42
 3758 04d0 2A       		.byte	42
 3759 04d1 44       		.byte	68
 3760 04d2 44       		.byte	68
 3761 04d3 5F       		.byte	95
 3762 04d4 44       		.byte	68
 3763 04d5 44       		.byte	68
 3764 04d6 40       		.byte	64
 3765 04d7 51       		.byte	81
 3766 04d8 4A       		.byte	74
 3767 04d9 44       		.byte	68
 3768 04da 40       		.byte	64
 3769 04db 40       		.byte	64
 3770 04dc 44       		.byte	68
 3771 04dd 4A       		.byte	74
 3772 04de 51       		.byte	81
 3773 04df 40       		.byte	64
 3774 04e0 00       		.byte	0
 3775 04e1 00       		.byte	0
 3776 04e2 FF       		.byte	-1
 3777 04e3 01       		.byte	1
 3778 04e4 03       		.byte	3
 3779 04e5 E0       		.byte	-32
 3780 04e6 80       		.byte	-128
 3781 04e7 FF       		.byte	-1
 3782 04e8 00       		.byte	0
 3783 04e9 00       		.byte	0
 3784 04ea 08       		.byte	8
 3785 04eb 08       		.byte	8
 3786 04ec 6B       		.byte	107
 3787 04ed 6B       		.byte	107
 3788 04ee 08       		.byte	8
 3789 04ef 36       		.byte	54
 3790 04f0 12       		.byte	18
 3791 04f1 36       		.byte	54
 3792 04f2 24       		.byte	36
 3793 04f3 36       		.byte	54
 3794 04f4 06       		.byte	6
 3795 04f5 0F       		.byte	15
 3796 04f6 09       		.byte	9
 3797 04f7 0F       		.byte	15
 3798 04f8 06       		.byte	6
 3799 04f9 00       		.byte	0
ARM GAS  C:\Users\ARMAND~1\AppData\Local\Temp\cc2dQwoO.s 			page 85


 3800 04fa 00       		.byte	0
 3801 04fb 18       		.byte	24
 3802 04fc 18       		.byte	24
 3803 04fd 00       		.byte	0
 3804 04fe 00       		.byte	0
 3805 04ff 00       		.byte	0
 3806 0500 10       		.byte	16
 3807 0501 10       		.byte	16
 3808 0502 00       		.byte	0
 3809 0503 30       		.byte	48
 3810 0504 40       		.byte	64
 3811 0505 FF       		.byte	-1
 3812 0506 01       		.byte	1
 3813 0507 01       		.byte	1
 3814 0508 00       		.byte	0
 3815 0509 1F       		.byte	31
 3816 050a 01       		.byte	1
 3817 050b 01       		.byte	1
 3818 050c 1E       		.byte	30
 3819 050d 00       		.byte	0
 3820 050e 19       		.byte	25
 3821 050f 1D       		.byte	29
 3822 0510 17       		.byte	23
 3823 0511 12       		.byte	18
 3824 0512 00       		.byte	0
 3825 0513 3C       		.byte	60
 3826 0514 3C       		.byte	60
 3827 0515 3C       		.byte	60
 3828 0516 3C       		.byte	60
 3829 0517 00       		.byte	0
 3830 0518 00       		.byte	0
 3831 0519 00       		.byte	0
 3832 051a 00       		.byte	0
 3833 051b 00       		.byte	0
 3834              		.data
 3835              		.set	.LANCHOR1,. + 0
 3836              		.type	SSD1306_buffer, %object
 3837              		.size	SSD1306_buffer, 1025
 3838              	SSD1306_buffer:
 3839 0000 40       		.byte	64
 3840 0001 00000000 		.space	1024
 3840      00000000 
 3840      00000000 
 3840      00000000 
 3840      00000000 
 3841              		.bss
 3842              		.align	1
 3843              		.set	.LANCHOR0,. + 0
 3844              		.type	_i2caddr, %object
 3845              		.size	_i2caddr, 1
 3846              	_i2caddr:
 3847 0000 00       		.space	1
 3848 0001 00       		.space	1
 3849              		.type	cursor_y, %object
 3850              		.size	cursor_y, 2
 3851              	cursor_y:
 3852 0002 0000     		.space	2
ARM GAS  C:\Users\ARMAND~1\AppData\Local\Temp\cc2dQwoO.s 			page 86


 3853              		.type	textsize, %object
 3854              		.size	textsize, 1
 3855              	textsize:
 3856 0004 00       		.space	1
 3857 0005 00       		.space	1
 3858              		.type	cursor_x, %object
 3859              		.size	cursor_x, 2
 3860              	cursor_x:
 3861 0006 0000     		.space	2
 3862              		.type	_width, %object
 3863              		.size	_width, 2
 3864              	_width:
 3865 0008 0000     		.space	2
 3866              		.type	_height, %object
 3867              		.size	_height, 2
 3868              	_height:
 3869 000a 0000     		.space	2
 3870              		.type	textbgcolor, %object
 3871              		.size	textbgcolor, 2
 3872              	textbgcolor:
 3873 000c 0000     		.space	2
 3874              		.type	textcolor, %object
 3875              		.size	textcolor, 2
 3876              	textcolor:
 3877 000e 0000     		.space	2
 3878              		.text
 3879              	.Letext0:
 3880              		.file 2 "c:\\program files (x86)\\cypress\\psoc creator\\4.1\\psoc creator\\import\\gnu\\arm\\5.4.
 3881              		.file 3 "c:\\program files (x86)\\cypress\\psoc creator\\4.1\\psoc creator\\import\\gnu\\arm\\5.4.
 3882              		.file 4 "Generated_Source\\PSoC5/cytypes.h"
 3883              		.file 5 "ssd1306.h"
 3884              		.file 6 "font.h"
 3885              		.file 7 "Generated_Source\\PSoC5/core_cm3.h"
 3886              		.file 8 "Generated_Source\\PSoC5/I2COLED.h"
 3887              		.file 9 "c:\\program files (x86)\\cypress\\psoc creator\\4.1\\psoc creator\\import\\gnu\\arm\\5.4.
